:020000040800F2
:10000000002300204D02000811470008CD2F0008F2
:1000100019410008450600080964000800000000B6
:10002000000000000000000000000000314A00084D
:10003000210B00080000000041470008654A000845
:1000400067020008670200086702000867020008EC
:1000500067020008670200086702000867020008DC
:1000600067020008670200086702000867020008CC
:100070003907000849070008590700086907000800
:10008000790700088907000867020008670200086E
:10009000670200086702000867020008670200089C
:1000A000670200086702000867020008670200088C
:1000B000670200086702000867020008670200087C
:1000C000670200086702000867020008670200086C
:1000D0006702000815620008B9620008356300086D
:1000E000670200086702000867020008670200084C
:1000F000670200086702000867020008670200083C
:10010000670200086702000867020008670200082B
:10011000A55B000867020008670200086702000884
:100120009907000867020008B10700086702000885
:1001300067020008670200086702000867020008FB
:1001400067020008670200086702000867020008EB
:100150006702000867020008C1070008670200087C
:1001600067020008670200086702000867020008CB
:10017000670200086702000867020008000000002C
:1001800067020008670200086702000867020008AB
:10019000670200086702000867020008670200089B
:1001A00067020008670200086702000800F002F812
:1001B00000F03CF80AA090E8000C82448344AAF1C5
:1001C0000107DA4501D100F031F8AFF2090EBAE8C3
:1001D0000F0013F0010F18BFFB1A43F0010318477B
:1001E000147D0000347D0000103A24BF78C878C127
:1001F000FAD8520724BF30C830C144BF04680C602D
:10020000704700000023002400250026103A28BF74
:1002100078C1FBD8520728BF30C148BF0B60704778
:100220001FB507F049FE1FBD10B510BD00F0D0F896
:100230001146FFF7F5FF06F03DFC00F0EEF803B4C1
:10024000FFF7F2FF03BC00F0F5F800000948804713
:1002500009480047FEE7FEE7FEE7FEE7FEE7FEE7A8
:10026000FEE7FEE7FEE7FEE704480549054A064BC0
:10027000704700001D4B0008AD010008001D002064
:1002800000230020001F0020001F002053EA020C62
:1002900000F069802DE9F04B4FF00006002B1FBFE6
:1002A000B3FA83F503FA05F424FA05F65E4012BFAB
:1002B0001643B2FA82F502FA05F4C5F120051EBF15
:1002C00022FA05FC44EA0C04203556EA044C4FEAB5
:1002D000144418BF641C4FF000084FF0000990420E
:1002E00071EB030C39D3002919BFB1FA81F701FA78
:1002F00007F6B0FA80F700FA07F6C7F120071EBF2D
:1003000020FA07FC46EA0C062037B6FBF4FCA7EB04
:100310000507103F07F01F0BCBF120062CFA06F65D
:100320000CFA0BFB44BFB3460026202FA4BF5E4649
:100330004FF0000B5BEA060C08BF4FF0010B19EB06
:100340000B0948EB0608ABFB027C06FB02CC0BFB5F
:1003500003CCC01B71EB0C01C1E70B4602464146C2
:100360004846BDE8F08B13B5084318BF4FF0FF3087
:100370000146AFF30080BDE81C4070474FF000021B
:1003800000B5134694469646203922BFA0E80C508B
:10039000A0E80C50B1F12001BFF4F7AF090728BF66
:1003A000A0E80C5048BF0CC05DF804EB890028BFE2
:1003B00040F8042B08BF704748BF20F8022B11F00B
:1003C000804F18BF00F8012B704770477047704787
:1003D000754600F02BF8AE4605006946534620F0FE
:1003E0000700854618B020B5FFF73EFFBDE8204066
:1003F0004FF000064FF000074FF000084FF0000BE1
:10040000AC46ACE8C009ACE8C009ACE8C009ACE84F
:10041000C00921F007018D46704710B50446AFF3BF
:1004200000802046BDE81040FFF709BF0048704734
:100430005000002001491820ABBEFEE72600020054
:100440007047000080B50146806B036C026C13F0AE
:10045000500F06D0D2060FD4806BC26C084690476E
:1004600080BD42F40071016401688A6812F0405F47
:1004700005D000F069FC80BD00F06AFC80BD027E02
:10048000002AF6D1CA6A12F4700F02D08A685205A7
:10049000EFD44A6822F020024A60016C21F4807196
:1004A0000164016CC904E4D4016C41F001010164F0
:1004B00000F04AFC80BD000080B5806B40210164E3
:1004C000416C41F00401416400F042FC80BD000039
:1004D00080B5806B00F03AFC80BD0000F0B581B0C3
:1004E00040F2B0060025C2F20006002400270BE00F
:1004F0003088A9B2814238BF0546142006F080F941
:100500003F2F07F1010708D206F016FAA1B2814287
:10051000EED206F011FA0446EAE741F22820C2F2D0
:10052000000041F22A2104F10A02C2F20001028015
:1005300005F10A00088001B0F0BD000010B542F2DC
:100540000432C4F20102116821F440311160D2F882
:1005500000C090E80A4043EA0C03C46813604A688C
:1005600022F480724A6002694B6843EA02224A60C0
:100570004A6822F040724A604A6842EA0E024A60C3
:100580008A6822F400628A608A6822438A60826AEA
:100590008B68012423F070638B608B68C0F6007455
:1005A000A24202D123F0405208E01A438A608A68CE
:1005B00022F040528A60C26A8B681A438A608A6855
:1005C00022F002028A608A68037E90F8204042EAA4
:1005D00043028A604A6884B142F400624A604A6811
:1005E0004EF2000322F460424A60426ACFF6FF7383
:1005F0004C6803EB4232224301E022F400624A607D
:10060000CA6A40F2000C22F47002CA62C3694269ED
:10061000CFF6F07CCC6A0CEB03532343CB628B68A0
:1006200023F400738B6090F830008B6843EA40201D
:100630008860886820F480608860886840EA82204A
:10064000886010BDFEE70000F0B581B00020C4F264
:1006500002004FF4805100F0DDFF40F20426C2F2A8
:100660000006316870B1642949D30DD040F6B73027
:10067000814209D841F25020C2F20000022180F8E4
:1006800041103CE0481C3BE0A1F6A17043F67E61BE
:10069000884236D841F25027C2F20007B7F842002C
:1006A000B7F844100DF103043986010AF8858DF876
:1006B00003108DF8020020460F2102F0EFFC1420F9
:1006C00006F090F80DF102052846102102F0E6FC34
:1006D000142006F087F8388E010A8DF803108DF883
:1006E00002002046112102F0D9FC142006F07AF80D
:1006F0002846122102F0D2FC142006F073F80020E4
:10070000306001B0F0BD000010B541F2FC54C2F2FF
:100710000004207006206070080AA070100AE170C2
:10072000207120460621627106F030F8E080082032
:1007300005F03AFE10BD000080B541F62820C2F257
:10074000000000F039FD80BD80B541F2E870C2F2D2
:10075000000000F031FD80BD80B541F68820C2F276
:10076000000000F029FD80BD80B541F64800C2F2CE
:10077000000000F021FD80BD80B541F66810C2F296
:10078000000000F019FD80BD80B541F6C810C2F22E
:10079000000000F011FD80BD80B541F28870C2F20A
:1007A000000000F009FD382001F06AFB80BD000068
:1007B00080B541F6A800C2F2000000F0FDFC80BD4B
:1007C00080B541F60810C2F2000000F0F5FC80BDD3
:1007D000D0F800C06FF00F024AF6AB2352FA8CF249
:1007E000CAF6AA230146A2FB0330000905A31B5C3D
:1007F00040F2FF302CEA00005F2A88BF0430C1E9D4
:100800001603704700061016000610168269816AEA
:10081000B2F5005F06D06AB9022912D0012914D0BE
:10082000D1B90EE0032917D8DFE801F0020B020F5F
:100830000120704703293CBF012070471CBF0020E6
:100840007047C06AC0F300607047C06AA0F1C07012
:10085000B0FA80F0400970470020704780B5D0F8AA
:1008600000C0D0F808E0DCF80000BEF1400F20F432
:100870008020CCF800000846CCF8043004BF1046B5
:100880000A46CCF80800CCF80C2080BD40B1022804
:1008900009D001281CBF002070474FF4006104E01C
:1008A0004FF4806101E04FF4805180B540F60000C4
:1008B000C4F2020000F0AEFE80BD00000A4638B16E
:1008C000022808D0012818BF70474FF4006104E0E7
:1008D0004FF4806101E04FF4805180B540F6000094
:1008E000C4F2020000F09CFEBDE8804070470000AA
:1008F000B0B5044600F0D8F8204600F07DF8204658
:10090000CC2100F0E5F82046442100F0E1F8204633
:1009100000F0CAF8204600F06FF82046CC2100F025
:10092000D7F82046BE2100F0D3F8204600F0ACF8FE
:100930000546204600F0A8F845EA002000B2B0F1D4
:10094000FF3F04DD07F0A6F841EC100B04E0404245
:1009500007F0A0F841EC100B9FED091B51EC100BB8
:1009600053EC112B07F0C0F806F062FE00EE100AFF
:10097000B2EE041A20EE010AB0BD00BF00BF00BFF6
:10098000000000000000B03FB0B50025ECB22046EA
:1009900000F08AF8204600F02FF8022C05F101053E
:1009A000F4D30020B0BD000080B586B00020CDE9B2
:1009B0000400CDE902004FF4E050019040F6000041
:1009C000C4F2020001A900F057FD06B080BD00008E
:1009D00080B586B000200590CDE903004FF4E050CB
:1009E00001900120029040F60000C4F2020001A92B
:1009F00000F042FD06B080BDB0B50446FFF7D4FF5D
:100A00002046FFF743FF80B1002000BF05460120CC
:100A100005F0F6FE2046FFF739FF622D03D80028C7
:100A200005F10100F2D1622D11D82046FFF72EFF0B
:100A300068B90025012005F0E3FE2046FFF726FFF8
:100A4000EE2D88BFB0BD002805F10105F2D0B0BD84
:100A500010B50446FFF7BCFF20460021FFF72EFF2C
:100A60000A2005F0CDFEFFF79FFF022005F0C8FE2B
:100A70002046FFF70BFF0138B0FA80F044092D2023
:100A800005F0BEFE204610BD70B5044600250026C8
:100A90002046FFF7DDFFA8400135082D46EA000695
:100AA000F6D1F0B270BD000010B50446FFF790FF1C
:100AB00020460021FFF702FF40F2EE2005F0A0FEE5
:100AC00020460121FFF7FAFE0F2005F099FE10BD28
:100AD000F0B581B00C460546FFF77AFF002700BF4E
:100AE0002846002104F001066408FFF7E7FE002E07
:100AF0004FF008004FF03A0608BF462008BF022614
:100B000005F07EFE28460121FFF7D8FE304605F0AD
:100B100077FE072F07F10107E2D301B0F0BD000017
:100B200070470000B0B5B42005F050FEFFF72CFF71
:100B300005F0F4FF06F002FC40F23C0440F22C0504
:100B4000C2F20004C2F200052046294606F0FEFA71
:100B500006F01CFC2046294606F03EFB05F0B6FDDB
:100B6000FFF7BCFC41F25020C2F20000012180F8E6
:100B7000341080F8401040F60000C4F202004FF438
:100B80000051012200F04CFD04F002F84FF47A709D
:100B900005F028FE4FF47A7005F024FE4FF47A70C9
:100BA00005F020FE4FF47A7005F01CFEB0BD000089
:100BB000EFF3108072B600BFFEE7000080B582B090
:100BC00041F2BC40C2F20000B0F8031042790904BF
:100BD00009BA807941EA026141EA0040019001A826
:100BE00005F02CFE9FED0D1A41F2502020EE010A77
:100BF000B1EE081A80EE010AC2F20000418EBDEE8D
:100C0000C00A10EE102A514344F6D352C1F26202D8
:100C1000A1FB02129109018402B080BD00007A4458
:100C200070B581B00022009290F83C20012A01D1D9
:100C3000022186E00E6801221FFA86FC80F83C2023
:100C40004FEA4C0212FA86F302680A2E32BF1032C3
:100C50001E3B0C324FF0070E15680EFA03F4A54345
:100C600015608D68146805FA03F32343136049681F
:100C7000062906D8026801EB8101053902F1340327
:100C80000AE00C2901EB8101026887BF413902F1BA
:100C90002C03233902F130031F221C688A4024EA06
:100CA00002021A601A680CFA01F1114342F2043E82
:100CB0001960C4F2010E0168122EAEF5417208BF30
:100CC000914202D0914239D10DE0DEF8003023F498
:100CD0000003CEF80030DEF8003043F48003CEF895
:100CE000003091422AD11221C1F200018E4201D07E
:100CF000112E23D1DEF800208E4222F48002CEF89D
:100D00000020DEF8002042F40002CEF8002015D1C9
:100D100040F20001C2F2000109684DF68362C4F29C
:100D20001B32A1FB0212910C01EB8101490000BFB3
:100D30000091009911B100990139F9E7002180F87B
:100D40003C10084601B070BD7047000070470000BD
:100D500070470000B0B510B30446006C30B92046AF
:100D600000F020F80020606484F83C00206C01252D
:100D7000C0060FD4206C41F2021188430230206477
:100D80002046FFF7DBFB00206064206C65F3010068
:100D900000252064002084F83C002846B0BD0120D6
:100DA000B0BD00002DE9F04186B000260596CDE9E2
:100DB0000366044642F200070068C4F20107B84225
:100DC0000296019602D006B0BDE8F08143F63000ED
:100DD0000096C4F20200416901AD41F480714161A5
:100DE00041694FF0030801F4807100910099009669
:100DF000016841F001010160016801F00101009109
:100E000000990096016841F00401016000682946DC
:100E100000F00400009000988020019007F56040E9
:100E2000CDE9028600F028FB3020CDE9010807F566
:100E300068402946039600F01FFB41F2887546F290
:100E40001040C2F20005C4F202004FF48061C5E90F
:100E5000000605F110004FF400624FF400534FF408
:100E60008077C5E902668EC02846C5E9086600F0AD
:100E700069FA002818BFFFF79BFEA563AC6306B0B4
:100E8000BDE8F08181B00021009190F83C1001296B
:100E900002BF022001B070470122016880F83C20A7
:100EA0008A68D20718D18A684DF6836342F001023E
:100EB0008A6040F20002C2F200021268C4F21B33E0
:100EC000A2FB03239A0C02EB420200BF0092009A9D
:100ED00012B1009A013AF9E78B68026CDB0707D17F
:100EE00042F010010164416C41F00101416458E09D
:100EF00040F201739A4302F5807202644A68520517
:100F000004D5026C012363F30D320264026C0023EA
:100F1000D2044FF0000244BF426C22F0060242F2BB
:100F2000043C426480F83C306FF02200C4F2010CB3
:100F30000860DCF80000C0060DD0ACF541708142BD
:100F40002FD14FF60450CFF6FF705CF8000010F080
:100F5000405F26D121E042F20000C4F2010081424C
:100F600017D042F20020C4F2010081420DD042F2BB
:100F70000010C4F20100814213D1DCF80000C00669
:100F800007D0ACF5827081420BD1DCF80000C006BE
:100F900007D4886810F0405F03D1886840F0804033
:100FA0008860002001B0704770B582B00446002010
:100FB000019094F83C00012802D1022002B070BDDB
:100FC00013460A460120216884F83C008868C0075F
:100FD00018D188684DF6836540F00100886040F2C2
:100FE0000000C2F200000068C4F21B35A0FB05053A
:100FF000A80C00EB400000BF0190019810B10198CF
:101000000138F9E78868C00503D5886820F4807046
:1010100088608D68206CED0707D140F010002064D7
:10102000606C40F00100606470E040F20175A8431C
:1010300000F5807020644868400504D5206C0125C7
:1010400065F30D302064256C0020ED044FF00005A1
:1010500044BF656C25F00605656484F83C00A06B10
:1010600040F2454540F2D14CC0F60005C0F6000CF8
:10107000C0E90F5C40F2B945C0F60005C5646FF0E9
:1010800022050D604D6842F2043645F080654D60E2
:101090008D68C4F2010645F480758D604C3100F016
:1010A000B9F931682068C9060CD0A6F541718842AB
:1010B0002CD14FF60451CFF6FF71715811F0405FFB
:1010C00024D11FE042F20001C4F20101884215D090
:1010D00042F20021C4F2010188420CD042F2001118
:1010E000C4F20101884211D13168C90606D0A6F5C3
:1010F000827188420AD13168C90607D4816811F02B
:10110000405F03D1816841F080418160002002B0DE
:1011100070BD000070B5866D044600F087FA94F843
:101120003510022925D105462068216C026822F07D
:1011300016020260426922F08002426109B9A16C84
:1011400019B1016821F008010160016821F0010175
:10115000016000BF20680068C0070ED000F066FA8A
:10116000401B0628F6D320206065032084F8350054
:101170000CE080206065012008E0E06D3F2101FA6D
:1011800000F0B060012084F835000020002184F8D0
:10119000341070BD90F83510022909D1052180F86E
:1011A00035100068016821F00101016000207047DE
:1011B0008021416501207047F0B581B004460020D0
:1011C000009040F20000C2F200000268D4E916600C
:1011D00048F2B51337680821C1F64E3381403942D1
:1011E000A2FB03250CD0226813685B0708D513689F
:1011F00023F004031360B160616D41F0010161658A
:1012000001218140394208D022685269120604D572
:10121000B160616D41F00201616504218140394294
:1012200008D022681268920704D5B160616D41F060
:101230000401616510218140394215D0206802689F
:10124000120711D5B16002680168520306D4C905BE
:1012500006D4016821F00801016001E0080342D4CE
:10126000216C09B120468847E16D202000FA01F287
:101270003A4244D020680368DB0640D5B26094F857
:1012800035300268052B1ED122F016020260426939
:1012900022F080024261226C0AB9A26C1AB1026883
:1012A00022F0080202603F208840B060012084F8EC
:1012B0003500216D0020002984F8340040D02046FC
:1012C000884701B0F0BD0168520310D4C90512D49B
:1012D000016821F010010160012084F83500002030
:1012E00084F8340007E0A16C0029BBD1BCE70803F7
:1012F00001D4616C00E0E16B09B120468847606D64
:10130000F0B1606DC00717D0052084F83500206863
:10131000A90A026822F00102026000BF009A0132AD
:101320008A42009202D80268D207F7D1012084F8DD
:101330003500002084F83400E16C09B1204688476C
:1013400001B0F0BD2DE9F041044600F06FF9C4B1E1
:101350000546022084F835000020216884F8340016
:10136000086820F00100086026683068C0070BD0CC
:1013700000F05CF9401B0528F6D903212022032048
:1013800042E00120BDE8F081306848F23F01CFF231
:101390001001251D00EA010C2ECDD4E9050E41EA0D
:1013A0000C01114319432943D4E90778084340EA63
:1013B0000E01606A3943042841EA080103D1D4E9E7
:1013C0000B231143194331607169042821F007018F
:1013D00041EA00050CD1D4E90A1045EA010538B10B
:1013E0002046FFF713FA18B10121402201200BE03B
:1013F00020467561FFF7ECF9E16D3F2202FA01F139
:101400008160002201210020626584F83510BDE86A
:10141000F0810000B0B5044690F83400012828D0CF
:10142000012084F83400A56D94F8350001281DD101
:10143000022084F83500002060652046FFF70EFA90
:10144000E26D3F23206803FA02F2216CAA60026871
:1014500042F01602026019B1016841F00801016012
:10146000016841F0010101600020B0BD002084F856
:1014700034000220B0BD00002DE9F04F83B000F130
:101480003E4202F1FF724FEAB22242F2004701925D
:10149000C4F202070A224FF0010E00254FF0000AA5
:1014A0004FF00008B84208BF092200920AE000BFCE
:1014B00008F101080AF1040AB8F1100F05F102055C
:1014C00000F0A4800C680EFA08FB14EA0B09EFD0B8
:1014D0004C6804F0030CACF1010EBEF1010F11D801
:1014E0000322876802FA05F6CA68B743AA403A435E
:1014F00082604268C4F3001722EA0B0207FA08F779
:101500003A434260BCF1030F1CD0C26803238E68CB
:1015100003FA05F7BA4306FA05F73A43BCF1020F9E
:10152000C2600FD16FF0030202EA580202440AF0CF
:101530001C060F23176A03FA06F40B69A743B3408E
:101540003B431362026803234F68AB409A4307F0A2
:101550000303AB401A4317F4403F4FF0010E026003
:10156000A6D0002243F644030292C4F202031A6892
:1015700043F6004442F480421A601A68C4F201043F
:1015800002F480420292029A28F003024FF6084BBE
:101590002244CFF6FF7B52F80B300AF00C070F26DF
:1015A000BE4023EA060C019B009E092B38BF1E4655
:1015B00006FA07F747EA0C0342F80B30A2684B68BB
:1015C00042EA090743F60C4CDE0258BF22EA09073B
:1015D000A760C4F2010CDCF800209E0242EA090771
:1015E00058BF22EA0907CCF8007062689E0342EAFD
:1015F000090758BF22EA090767602268DB0342EA4D
:10160000090358BF22EA0903236051E703B0BDE88C
:10161000F08F00000069084018BF012070470000EB
:10162000002A08BF090481617047000041F6FC40B0
:10163000C2F200000068704790F83D20202A1CBFCD
:1016400002207047242280F83D200268136823F0AE
:1016500001031360536A23F010035362536A194362
:101660005162116841F001011160202180F83D10A4
:101670000020704790F83D20202A1CBF02207047B0
:10168000242280F83D20026889B2136823F0010308
:101690001360D2F824C04FF6F07303EA0C03194329
:1016A0005162116841F001011160202180F83D1064
:1016B0000020704790F83D007047000070B5B0B34F
:1016C000044690F83D0028B9002084F83C002046EC
:1016D00000F02AFB242084F83D002068016821F0F6
:1016E00001010160016841F400410160016821F4D9
:1016F0000041016000F0D4FC48F28041C0F21E01BC
:1017000040F60012666888424FF00001C0F23D02C8
:1017100048F2A16C4FF0000338BF01219042C0F2A3
:10172000010C38BF0123664538BF0B460BB10120C1
:1017300070BD4DF68361C4F21B31A0FB011221681C
:10174000930C4D68664525F03F0545EA92424A6094
:101750000A6A22F03F0C09D34FF496725A4344F6BA
:10176000D353C1F26203A2FB03239B095A1C42EA32
:101770000C020A6248F2A063CA69C0F201039E42E9
:101780004CF6FF7322EA030C0AD801387200B0FB52
:10179000F2F001306FF31F30042898BF04202BE0D3
:1017A000A368A0F1010E9BB119207043BEFBF0F0BD
:1017B0000422013062F31F30000512D09BB11920C2
:1017C0007043BEFBF0F00422013062F31F3011E0E1
:1017D00006EB4600BEFBF0F001306FF31F30000552
:1017E000ECD1012008E006EB4600BEFBF0F0013032
:1017F0006FF31F3040F4004040EA0C00C8610868F5
:10180000D4E9072320F0C00010431843086088681B
:1018100048F2FF3204F10C0690434CCE18431043BB
:10182000A5698860C86820F0FF0030432843C8607D
:10183000086840F00100086000202021206484F83E
:101840003D10206384F83E0070BD00002DE9F04F8C
:1018500083B01E46154689460446FFF7E7FE94F816
:101860003D1020290CD102210746C0F2100120466C
:1018700001221923009701F0A9FD30B1022500E0F3
:101880000225284603B0BDE8F08F94F83C000128FB
:1018900001D10225F5E74FF0010A206884F83CA049
:1018A0000168C90703D1016841F0010101600168C5
:1018B0004FF0000B21F400610160242084F83D000A
:1018C0000020CFF6FF7009F0FE094FF0A008C4F821
:1018D00040B0E062012D88BFAA4600BF2068002208
:1018E0000168334641F48071016020464FF00111D8
:1018F000009701F06BFD2168002854D1C1F81090C9
:10190000FFF794FE21680A4652F8143F156894F8D0
:101910003D70A02F074620D003F0020005F480633D
:10192000C0181AD1FFF782FE36B1C01BB04288BF83
:1019300084F83D8002E000BF84F83D80216848695A
:101940004A6994F83D30A02B05D000F0020002F463
:1019500080628018E6D001F11402202084F83D0056
:1019600048690B68800743F400730B6023D46FF45D
:101970008060022110602046C0F21001012219236C
:101980000097012501F022FD00287FF47AAF0BF1CA
:10199000010BD345A2D1202084F83D000020012571
:1019A00084F83C006DE708680325C00544BF4FF488
:1019B0000070206465E700260296106801220290FC
:1019C00088690221029002982046C0F21001192372
:1019D0000097012501F0FAFC00287FF452AF202087
:1019E00084F83D0084F83C6000254AE72DE9F04387
:1019F00083B01F4616460D460446FFF717FE94F8BF
:101A00003D1020290FD102218146C0F2100120464D
:101A100001221923CDF8009001F0D8FC18B994F8F0
:101A20003C00012803D1022003B0BDE8F08301216E
:101A3000226884F83C101368DDE90B080A99DB077B
:101A400003D1136843F001031360136823F40063A8
:101A50001360222284F83D20402284F83E20002298
:101A6000226461626085608D294620850020CFF662
:101A7000FF70E062204632463B46CDF80080CDF84C
:101A8000049001F08DFB18B1012003B0BDE8F08394
:101A9000208D022806D0012810D000BB0020029023
:101AA000206812E02068016821F48061016001680B
:101AB00041F4006101600021029113E02068016897
:101AC00021F48061016000210291416902918169E4
:101AD00002910299016841F40071016007E0002061
:101AE0000290206841690291806902900298208DDD
:101AF000002877D00427C0F2010716E020464146AF
:101B00004A4601F0E5FC0028BED12068616A006900
:101B10000870606A218D01306062481E2085608DEA
:101B200001386085208D00285CD003283ED802282B
:101B30001CD00128E2D02046394600224346CDF889
:101B4000009001F043FC00289ED12068616A026881
:101B500022F48062026000690870606A218D0130A1
:101B60006062481E2085608D0138608520463946B8
:101B700000224346CDF8009001F028FC00287FF4B5
:101B800083AF2068616A026842F4007202600069F3
:101B90000870606A411C6162218D226801392185CB
:101BA000618D0139618511694170B2E72046414676
:101BB0004A4601F08DFC00287FF466AF2068616A18
:101BC00000690870606A228D0130013A60622285E6
:101BD0002168628D013A62854A695207A2D5096976
:101BE000017096E7202084F83D00002084F83E0034
:101BF00084F83C0003B0BDE8F08300002DE9F04319
:101C000083B0994616460F460446FFF70FFD94F839
:101C10003D1020290ED102210546C0F210012046B8
:101C200001221923009501F0D1FB18B994F83C006A
:101C3000012803D1022003B0BDE8F083012122680E
:101C400084F83C101368DDE90B080A99DB0703D11F
:101C5000136843F001031360136823F400631360F7
:101C6000212284F83D20402284F83E200022226474
:101C700061626085608D394620850020CFF6FF7057
:101C8000E062204632464B46CDF80080019501F0D7
:101C90000DFB30B3012003B0BDE8F0832046414680
:101CA0002A4601F045FC28BB606A2168034613F808
:101CB000012B0A61228D6362571E2785638D3F04C5
:101CC000A3F1010363854B6918BF13F0040308D027
:101CD000437802300B616062901E2085608D013870
:101CE0006085208D0028D9D1204641462A4601F042
:101CF0003DFB40B1206C0428CCD12068016841F440
:101D000000710160C6E72068016841F4007101605C
:101D1000202084F83D00002084F83E0084F83C0038
:101D200003B0BDE8F0830000B0B586B00024059490
:101D3000CDE9034445F200410068C4F20001884245
:101D40000294019401D006B0B0BD43F63005009472
:101D5000C4F20205286840F002002860286800F0FC
:101D6000020000900098C02001901220CDE90204EA
:101D7000032004900420059001F5D83001A9FFF755
:101D80007BFB0094286940F400102861286900F466
:101D900000100090009806B0B0BD000040F2440072
:101DA00041F6FC41C2F20000C2F2000100780A686C
:101DB000104408607047000080B543F60040C4F24C
:101DC0000200016841F400710160016841F4806122
:101DD0000160016841F480710160032000F068F83F
:101DE000032000F005F800F02BF8002080BD000073
:101DF000B0B540F24402C2F2000240F20001127893
:101E0000C2F200014FF47A730968B3FBF2F20446A0
:101E1000B1FBF2F1084600F0F9FC0F2C4FF0010580
:101E20000CD858B94FF0FF3021460022002500F0B1
:101E30002FF840F24800C2F2000004602846B0BD0E
:101E400080B582B0002043F640010190C4F2020147
:101E50004A6842F480424A604A6802F48042019231
:101E6000019A0090086840F080500860086800F00F
:101E7000805000900098052000F01AF802B080BD54
:101E800080B504F0FBFA80BD80B504F00BFB80BD8B
:101E900070B514460D46064604F014FB294622464A
:101EA00002F038FC0146304604F014FB70BD00001F
:101EB00080B504F021FB80BD70B582B00020019098
:101EC00043F64000C4F202000168402641F0805110
:101ED00001600068C4F20E2600F080500190019865
:101EE00047F204050120C4F200053060FFF79EFBB5
:101EF000044600BF2868C00306D4FFF797FB001B09
:101F0000B0F57A7FF6D90EE001207060FFF78EFB06
:101F1000044600BF2868800308D4FFF787FB001B36
:101F2000B0F57A7FF6D9032002B070BD002002B070
:101F300070BD00002DE9F041002800F08B8043F6D1
:101F40000808C4F202080446D8F8F8030D4600F069
:101F50000F00884207D288F8F853D8F8F80300F049
:101F60000F00A84276D12068810717D5410705D513
:101F7000D8F8001041F4E051C8F80010010705D569
:101F8000D8F8001041F46041C8F80010D8F80010EB
:101F9000A26821F0F0011143C8F80010C0073FD13A
:101FA000D8F8F80300F00F00A84207D988F8F853D2
:101FB000D8F8F80300F00F00A8424BD12068410781
:101FC00007D5D8F80010E26821F4E0511143C8F8B1
:101FD0000010000708D5D8F80000216920F46040FF
:101FE00040EAC100C8F8000000F07EF8D8F8001000
:101FF00047F6DC62C1F30311C0F60002515C40F207
:10200000000220FA01F140F24800C2F2000000682C
:10201000C2F200021160FFF7EBFE0020BDE8F08184
:102020006068811E022907D258F8081C89015CBF2C
:102030000120BDE8F08110E0012807D158F8081C04
:1020400089035CBF0120BDE8F08106E058F8081C58
:10205000890702D40120BDE8F081D8F8001021F0F2
:1020600003010843C8F80000FFF7E0FA064641F212
:10207000883700BFD8F80000616800F00C00B0EBB2
:10208000810F8DD0FFF7D2FA801BB842F2D903201E
:10209000BDE8F08140F20000C2F200000068704725
:1020A00080B5FFF7F7FF43F60801C4F202010968A3
:1020B00047F6EC62C1F38221C0F60002515CC840D1
:1020C00080BD000080B5FFF7E5FF43F60801C4F2CC
:1020D0000201096847F6EC62C1F34231C0F6000222
:1020E000515CC84080BD000010B543F60404C4F242
:1020F0000204606800F00C0008280AD0042819BF08
:1021000042F20040C0F2F40045F60020C0F2622026
:1021100010BD206821682368490245F60021C0F2FD
:10212000622100F03F02C3F388105CBF42F200411D
:10213000C0F2F401A1FB00010023FEF7A7F821681B
:102140000222C1F3014102EB4101B0FBF1F010BDED
:102150002DE9F04182B0002800F0A180044600780B
:1021600043F60006C007C4F2020643D0B06800F090
:102170000C00042805D1306880033BD56068C8BBDB
:102180008DE0B06800F00C00082802D170684002B1
:10219000F1D46568B5F5A02F0AD0B5F5803F0BD016
:1021A000306820F480303060306820F4802006E011
:1021B000306840F480203060306840F48030306017
:1021C000FFF734FA002D054611D000BF30688003B8
:1021D00010D4FFF72BFA401B6428F7D920E100BF89
:1021E000FFF724FA401B64284FF0030054D83068EE
:1021F0008003F5D4207880071AD5B06810F00C0F52
:1022000009D0B06800F00C00082840F088807068A1
:10221000400200F184803068800702D5E068012820
:102220003DD13068216920F0F80040EAC1003060FB
:102230002078000737D4207840074AD4A56955B3E1
:10224000B06800F00C00082840F09C80012D26D0DA
:102250007068E16900F480028A4220D1216A00F0AE
:102260003F028A421BD147F6C071626A0140B1EB5E
:10227000821F14D1A16A4FF6FF73C903994300F47A
:102280004032A1F580318A4209D1E16A00F07060E4
:10229000B0EB016F03D1002002B0BDE8F081012056
:1022A00002B0BDE8F0816069002840F20000C4F28D
:1022B000472056D00121C0F8801EFFF7B7F9054628
:1022C000706F8007B7D4FFF7B1F9401B0228F7D928
:1022D000A6E0306C10F080580AD100200190306CDC
:1022E00040F080503064306C00F0805001900198D4
:1022F00047F20007C4F200073868C00524D43868E4
:1023000040F480703860FFF791F905463868C005E1
:102310001AD4FFF78BF9401B0228F7D980E0E06858
:10232000002851D00020C4F2472001210160FFF7AE
:102330007DF90546306880073FF573AFFFF776F902
:10234000401B0228F6D96BE0A568052D50D0012D61
:1023500052D0306F20F001003067306F20F0040061
:102360004DE00021C0F8801EFFF760F9054600BF70
:10237000706F80077FF55FAFFFF758F9401B0228A9
:10238000F6D94DE00027C4F2472700203866FFF752
:102390004DF9022D05460BD13068800158D5FFF765
:1023A00045F9401B02284FF00300F5D974E700BF40
:1023B000306880017FF56FAFFFF738F9401B0228C6
:1023C0004FF00300F4D967E70020C4F24720002152
:1023D0000160FFF72BF90546306880077FF528AFCD
:1023E000FFF724F9401B02284FF00300F4D953E70C
:1023F000306F40F004003067306F40F0010030670C
:10240000FFF714F9002D054641F2883714D000BFBC
:10241000306F800713D4FFF709F9401BB842F7D992
:10242000032002B0BDE8F081FFF700F9401BB8427D
:102430004FF003003FF630AF306F8007F4D4B8F1AF
:10244000000F7FF4FBAE306C20F080503064F5E676
:1024500004F11C052FCD084340EA8210D9034FF642
:10246000FF729143A1F5803140EA05600843706036
:1024700001203866FFF7DAF8044600BF30688001B3
:102480003FF509AFFFF7D2F8001B02284FF0030019
:10249000F4D901E770B538B10446406A30B1002084
:1024A000206104F1140007E0012070BD6068B0F500
:1024B000827F03D004F11C00002101600026A66287
:1024C00094F8510020B9204684F8506000F03CF8A0
:1024D000022084F8510094E80F0001F4827105682D
:1024E00002F4044225F040050560114403F4006243
:1024F0002369114403F002026369114403F00102ED
:10250000A369E569114403F40072114405F038022F
:10251000256A114405F08002A56A114305F40052B2
:1025200011430160626A042101EA134102F01002C2
:1025300011444160C16921F40061C16101206665F7
:1025400084F85100304670BD80B586B00021CDE9D9
:102550000411CDE90211006843F20042C4F2010205
:102560009042019126D043F60001C4F20001884256
:102570004CD1002043F630010090C4F202010A69F8
:1025800042F480420A610A6902F480420092009A91
:102590000090086840F002000860086800F002003F
:1025A000009000984FF46040019040F20040C4F267
:1025B000020020E043F630000091C4F202004269BC
:1025C00042F400524261426902F400520092009AC1
:1025D0000091016841F010010160006800F01000F6
:1025E000009000984FF4E040019040F20040C4F2A7
:1025F000020000F5406002210291002103910321B5
:1026000004910521059101A9FEF736FF06B080BDB2
:102610002DE9F04381B0044690F85000012803D121
:10262000022001B0BDE8F08301201E4615460F468A
:1026300084F85000FEF7FAFF94F851108146012902
:102640000CD06068B0F5827F76D104294FF002008B
:1026500040F0C680A168002940F0C280002F4FF0F2
:10266000010018BF002D00F0BB80002E00F0B880E4
:1026700094F85100002104281CBF052084F8510063
:102680006165A563E687A6872763E6862068A68638
:10269000216461640168490603D4016841F0400186
:1026A00001606168731EE268B1FA81F1B3FA83F3E5
:1026B000DDF8208049095B09B2F5006F41EA0301AA
:1026C0003CD139B1216B0988C160B81C2063E08E10
:1026D0000138E086012608F1010500BFE08E10B93F
:1026E000E08F002866D02068816889070CD5E18ECC
:1026F000012E09D141B1216B002631F8022BC260B5
:102700002163E18E0139E1868168C9070AD0E18F32
:1027100041B1C068A16B012621F8020BA163E08FD3
:102720000138E087FEF782FF002DD7D0A0EB09002B
:102730004045D3D3032053E0022051E039B139782A
:102740000173206B01302063E08E0138E0860126A2
:1027500008F10105E08E08B9E08F58B32068816860
:1027600089070DD5E18E012E0AD149B1216B0026D2
:1027700009780173206B01302063E08E0138E08618
:1027800020688168C9070BD0E18F49B1C068A16B8F
:1027900001260870A06B0130A063E08F0138E0874C
:1027A000FEF744FF002DD5D0A0EB09004045D1D362
:1027B000032015E0204641464A4602F09FF818B132
:1027C0002020606501200BE0A06800284FF0000089
:1027D00006D100902168CA6800928968009100992A
:1027E000012184F85110002184F8501001B0BDE897
:1027F000F08300004EF21001CEF200010A680428B6
:1028000022F0040208BF04320A60704780B502F06B
:1028100011F980BD7047000010B50446006840699A
:1028200094F83D10212915D110F0800012D000BF7E
:10283000206850E8050F216820F0800041E805027B
:10284000002AF5D1606B002818BFFEF763FC204614
:1028500003F0B8FA2068406994F83E10222915D197
:1028600010F0400012D000BF206850E8050F21682A
:1028700020F0400041E80502002AF5D1A06B0028B5
:1028800018BFFEF747FC204603F068FA002010BD91
:1028900070470000B0B582B0036804461868D96874
:1028A0005A6900F02F05202D01F0200505D125B132
:1028B000204603F095FA02B0B0BD5FEA007C1EBF6F
:1028C00002F0010E01F4907212EB0E0248D1226B5D
:1028D0000840C1063BD5012A39D100200190186873
:1028E00001905868019001985869400640D4A08D25
:1028F000E18DE28D002A1CBF401A5FEA004101D140
:1029000002B0B0BD216851E8031F226821F4907124
:1029100042E80313002BF5D1216851E8051F226816
:1029200021F0010142E80513002BF5D1202184F8A4
:102930003E100021216300BF216851E8031F226877
:1029400021F0100142E80313002BF5D152E00106FB
:1029500056D44006D4D5204603F028FA02B0B0BDC4
:10296000C20718BF11F480724FD1420753D459E007
:10297000A06B016849688AB2002AC1D0A38D9A422F
:10298000BED2E185C069B0F5807F30D0206850E8C4
:10299000030F216820F4807041E80302002AF5D17A
:1029A000206850E8050F216820F0010041E8050289
:1029B000002AF5D1206850E8050F216820F040007A
:1029C00041E80502002AF5D1202084F83E000020CD
:1029D000206300BF206850E8030F216820F010003A
:1029E00041E80302002AF5D1A06BFEF793FBA08D0E
:1029F000E18D401A81B22046FFF70CFF02B0B0BD56
:102A0000204603F00BFB02B0B0BD226C42F0010285
:102A10002264420706D5BEF1000F03D0226C42F0BB
:102A200002022264820706D5BEF1000F03D0226C99
:102A300042F004022264BCF1000F06D55EEA0502F2
:102A400003D0226C42F008022264226C002A3FF478
:102A500057AF0840800602D5204603F0C1F9206830
:102A60004069216C00F0400001F00801401827D0B7
:102A7000204603F073F92068406940061BD500BF6B
:102A8000206850E8050F216820F0400041E8050269
:102A9000002AF5D1A06B70B145F61941C0F60001CE
:102AA0000165FEF777FB00283FF42AAFA06B016DAC
:102AB000884702B0B0BD2046FFF7EAFE02B0B0BDC5
:102AC0002046FFF7E5FE0020206402B0B0BD000004
:102AD000002804BF0120704710B5044690F83D005F
:102AE00028B9002084F83C00204600F021F824207A
:102AF00084F83D002068C16821F40051C16020467F
:102B000003F0D0F92068016921F490410161416925
:102B100021F02A014161C16841F40051C1600020E7
:102B20002021206484F83D1084F83E1010BD000080
:102B30002DE9F04387B00446006844F6FF31C4F243
:102B4000000188424FF000010691CDE90411CDE962
:102B5000021177DC44F20041C4F20001884200F027
:102B6000E78044F60001C4F20001884240F0C181D0
:102B7000002643F630000196C4F20200016946F2D5
:102B8000280841F4802101610169C4F2020801F4BE
:102B90008021019101990196016841F008010160CD
:102BA000006802A900F00800019001984FF44070FD
:102BB00002900220CDE9030603200590072006902D
:102BC0000020C4F2020000F54060FEF755FC41F61B
:102BD0002825C2F200054FF000674FF480692846AF
:102BE000C5E90087C5E90266C5E90496C5E9066638
:102BF000C5E90866FEF7A6FB002818BFFDF7D8FF59
:102C0000A563AC6341F6882508F13000C2F20005E7
:102C10004021C5E9000705F1080080E84202284686
:102C2000C5E90566C5E907666E62FEF78BFB0028FD
:102C300000F04E81FDF7BCFF41F688252726C2F241
:102C400000054CE141F20001C4F20101884200F0AC
:102C5000D78044F60041C4F20001884240F0498127
:102C6000002643F630000196C4F20200016946F2E4
:102C7000280841F4002101610169C4F2020801F44D
:102C80000021019101990196016841F00101016063
:102C90000068022100F001000190019803200290D9
:102CA000CDE903160590082006900020C4F202002A
:102CB00002A9FEF7E1FB41F2E87508F11800C2F243
:102CC00000054FF000674FF48069C5E9000728460A
:102CD000C5E90266C5E90496C5E90666C5E9086660
:102CE000FEF730FB002818BFFDF762FFA563AC6359
:102CF00041F6480508F14800C2F200054021C5E947
:102D0000000705F1080080E842022846C5E905668B
:102D1000C5E907666E62FEF715FB002800F0DA8051
:102D2000FDF746FF41F648053426C2F20005D6E01D
:102D3000002643F630000196C4F20200016946F213
:102D4000280841F4003101610169C4F2020801F46C
:102D50000031019101990196016841F00101016082
:102D6000006802A900F00100019001980C20029077
:102D70000220CDE9030603200590072006900020DD
:102D8000C4F20200FEF778FB41F6681508F1600016
:102D9000C2F200054FF000674FF48069C5E90007F3
:102DA0002846C5E90266C5E90496C5E90666C5E98F
:102DB0000866FEF7C7FA002818BFFDF7F9FEA563FD
:102DC000AC6341F6C81508F17800C2F20005402155
:102DD000C5E9000705F1080080E842022846C5E978
:102DE0000566C5E907666E62FEF7ACFA002873D087
:102DF000FDF7DEFE41F6C8152626C2F200056EE09C
:102E0000002643F630000196C4F20200416946F202
:102E1000280841F0100141614169C4F2020801F043
:102E20001001019101990196016841F001010160D1
:102E3000006802A900F00100019001984FF4C06001
:102E400002900220CDE9030603200590072006909A
:102E50000020C4F20200FEF70FFB41F6A80508F5BA
:102E60008360C2F200054FF000674FF48069C5E946
:102E700000072846C5E90266C5E90496C5E9066665
:102E8000C5E90866FEF75EFA002818BFFDF790FE58
:102E9000A563AC6341F6081508F59260C2F200051F
:102EA0004021C5E9000705F1080080E842022846F4
:102EB000C5E90566C5E907666E62FEF743FA68B1C3
:102EC000FDF776FE41F608152526C2F2000506E05C
:102ED000272604E0342602E0262600E02526304698
:102EE000032100226563AC63FEF7D2FF3046FEF794
:102EF000CBFF07B0BDE8F08310B590F83E30202B33
:102F00000BD100294FF0010418BF002A01D120463F
:102F100010BD90F83C30012B01D1022010BD0123DF
:102F2000002480F83C30046303F02AF8204610BDEA
:102F3000704700007047000070B5044690F83D00EF
:102F400020281CBF022070BDD1B31346C2B394F831
:102F50003C00012804BF022070BD012084F83C0021
:102F6000002621202162A384E384266484F83D00A6
:102F70002268606B45F6115C45F6515E45F62945C1
:102F8000C0F6000CC0F6000EC0F600050432C0E921
:102F90000FCEC0E91356FEF73DFA20686FF04001EE
:102FA000016084F83C6000BF206850E8050F21688C
:102FB00040F0800041E80502002AF5D1002070BDF4
:102FC000012070BD7047000070470000FEE7000060
:102FD00080B584B00B46CDE9000241F6E8204FF4FD
:102FE0007A7CC2F20000A0211A460123CDF808C065
:102FF000FEF7FCFC04B080BD2DE9F0410D4604460F
:1030000011F0070002F0070629D012F4FF6F3DD03F
:10301000C0F10807D01B81B2CE0800F00708204697
:1030200029463A4600F072F83D4430063C440AD046
:10303000E9B220460822013E00F068F80835300663
:1030400004F10804F4D1B8F1000F08BFBDE8F08125
:10305000E9B22046424600F059F8BDE8F08112F48A
:10306000FF6F13D0D70838060BD000BFE9B2204657
:103070000822013F00F04AF80835380604F1080438
:10308000F4D1002EE9D0E9B2204601E020462946DD
:10309000324600F03BF8BDE8F0810000B0B584B0E6
:1030A000007841F6E8250A468DF80F0001200DF161
:1030B0000F01C2F200056424CDE900102846A021CA
:1030C00001230294FEF79AFD044600BF2846FEF74E
:1030D000F1FA2028FAD141F6E825C2F2000500BF36
:1030E0002846A0214FF496724FF49673FEF7AEFB7C
:1030F0000328F5D041F6E825C2F200052846FEF780
:10310000D9FA2028FAD1204604B0B0BDB0B584B0B9
:1031100041F6E8250B46C2F200056424CDE9000221
:103120002846A0211A4601230294FEF767FD0446B3
:103130002846FEF7BFFA2028FAD141F6E825C2F268
:10314000000500BF2846A0214FF496724FF49673F5
:10315000FEF77CFB0328F5D041F6E825C2F2000516
:103160002846FEF7A7FA2028FAD1204604B0B0BDC1
:103170000268516949054FF000010FD56FF4806373
:1031800053612022016380F83D2080F83E10026CDC
:1031900042F00402026480F83C10012108467047A6
:1031A0002DE9F04782B0044600680E460168DDF85C
:1031B00028A041F4806101600168DDF82C9041F4A1
:1031C00080711D461746016020464FF00111002214
:1031D0005346CDF8009000F0F9F850B1206800682F
:1031E000C00544BF4FF400702064032002B0BDE866
:1031F000F08740F202082068C0F2010806F0FE06DF
:1032000006612046414652464B4600F01BF948BB3A
:103210000020019020684A46416901918069514629
:1032200001900198204600F083F998B9012D08D04B
:103230002068390A0161204651464A4600F078F973
:1032400040B92068F9B20161204651464A4600F073
:103250006FF958B1206C042804D12068016841F44A
:1032600000710160012002B0BDE8F08720680022F3
:103270000168534641F48071016020464FF001110E
:10328000CDF8009000F0A2F80028A7D1206846F001
:10329000010101612046414652464B4600F0D2F8FA
:1032A000002818BF012002B0BDE8F0872DE9F043E7
:1032B00083B0044600680D4601680A9F0B9E41F4E6
:1032C000807199469046016020464FF0011100221E
:1032D0003B46009600F07AF850B120680068C005BF
:1032E00044BF4FF400702064032003B0BDE8F083B6
:1032F000206805F0FE0101610221C0F201012046B3
:103300003A46334600F09EF818B1012003B0BDE8FC
:10331000F083002002902068324641690291806962
:10332000394602900298204600F002F940B1206C24
:103330000428EAD12068016841F400710160E4E7E3
:10334000B9F1010F0AD020684FEA18210161204627
:103350003946324600F0ECF80028E8D120685FFAE0
:1033600088F10161002003B0BDE8F083F0B581B0C1
:10337000044600684069400724D415460E464F1C99
:1033800004E000BF2068406940071BD42046FFF7D7
:10339000EFFEA0B9002FF5D0FEF748F916B1401B9B
:1033A000B042EFD900202021206384F83D1084F83A
:1033B0003E00216C41F02001216484F83C00012092
:1033C00001B0F0BD002001B0F0BD00002DE9F047D4
:1033D000DDF820809A461646814601F47F078CB2BC
:1033E0005D1C00BFD9F80000B7F5803F14BF18304E
:1033F000143000682040001BB0FA80F04009B04251
:103400001DD1002DEED0FEF711F9BAF1000F03D057
:10341000A0EB08005045E5D900202021C9F8300074
:1034200089F83D1089F83E00D9F8401041F020019C
:10343000C9F8401089F83C000120BDE8F087002061
:10344000BDE8F0872DE9F0410446006898464369DD
:103450008FB203EA0701B94202D10020BDE8F08132
:103460004169490512D41646551C00BF35B1FEF717
:10347000DDF816B3A0EB0800B0421ED82068416901
:103480003940B942E9D041694905EFD5016841F4B5
:10349000007101606FF48061416100202021206390
:1034A00084F83D1084F83E00216C41F00401216451
:1034B00084F83C000120BDE8F08100202021206339
:1034C00084F83D1084F83E00216C41F02001EEE7C5
:1034D00070B515460E46044620684169490613D466
:1034E0004169C90612D4FEF7A1F816B1401BB042DB
:1034F000F2D900202021206384F83D1084F83E009A
:10350000206C40F020000CE0002070BD6FF0100136
:10351000416100202021206384F83D1084F83E00A2
:10352000206C2064002084F83C00012070BD000065
:10353000F0B581B0044600684069000624D4154601
:103540000E464F1C04E000BF2068406900061BD4F3
:103550002046FFF70DFEA0B9002FF5D0FEF766F864
:1035600016B1401BB042EFD900202021206384F81F
:103570003D1084F83E00216C41F02001216484F864
:103580003C00012001B0F0BD002001B0F0BD000002
:10359000B0B541F20004C4F20204054620464FF4DF
:1035A00000610022FEF73CF8C5F3074001F088F9FE
:1035B000C5F3072001F084F905F0F80001F080F967
:1035C000002001F07DF9054620464FF400610122FC
:1035D000FEF726F82846B0BDB0B540F20044C4F26C
:1035E0000204054620464FF480510022FEF718F8E9
:1035F000C5F3074001F046F9C5F3072001F042F991
:1036000005F0F80001F03EF9002001F03BF9054615
:1036100020464FF480510122FEF702F82846B0BD43
:1036200070B541F20004C4F202040D46064620467D
:103630004FF400610022FDF7F3FFC6F3074001F0ED
:103640003FF9C6F3072001F03BF946F0040000F013
:10365000FC0001F035F9284601F032F920464FF41C
:1036600000610122FDF7DCFF70BD000070B540F283
:103670000044C4F202040D46064620464FF4805131
:103680000022FDF7CDFFC6F3074001F0FBF8C6F3BB
:10369000072001F0F7F846F0040000F0FC0001F00C
:1036A000F1F8284601F0EEF820464FF4805101224F
:1036B000FDF7B6FF70BD000010B540F2B602C2F2D1
:1036C0000002D28841F27C5012BAC2F20000120C01
:1036D000C28041F25022C2F2000292ED030A45F686
:1036E000A521C8F2232192ED041ABDEEC00A0160A3
:1036F00010EE103A40F208215BBABDEEC10AC2F2E8
:103700000001038110EE103A89885BBA438109BA3F
:10371000938D090C8181190A817340F2D001C2F2A4
:103720000001C3738B7991F80CE04374CB79117A63
:10373000C3745378C1754375BEFA8EF1138C490971
:10374000C17619BA138F090C818319BAD38E090C6B
:10375000C18319BA538F090C0184190A92F84040A9
:1037600080F8221011784FF0000CA0F804C080F807
:1037700010C080F812C080F814C080F816C080F81D
:1037800018C0447680F81AC080F8233080F824C02E
:1037900080F82510262002F0BFFD10BD80B541F253
:1037A0007C5045F6A521C2F20000C8F21321016049
:1037B0004FF41041818040F2110140F23802C2F210
:1037C0000001C2F2000209681268C0F80610C0F8D1
:1037D0000A2040F2090140F21802C2F20001C2F2CE
:1037E000000209681288C0F80E10110AC27441F272
:1037F0005022C2F2000292F8342081740021017537
:103800004275162002F088FD80BD000010B541F21F
:103810007C5EC2F2000E45F6A5216928AEF80010C4
:103820002AD140F2B601C2F2000148F20D208A8985
:10383000C9F60010CEF8020010BACA89000CAEF822
:10384000060010BAC98A000CAEF8080008BA41F2A6
:103850005021C2F200018A8F000CAEF80A0010BAA3
:10386000C98F000CAEF80C0008BA000CAEF80E00C0
:10387000102002F051FD10BDA0F16501CBB248F25D
:103880002322032BAEF8022007D8102202EB0111ED
:1038900000228EF804208EF8051040F23A1CC2F285
:1038A000000C32214EF64A4310FB01C1CFF6FF73E4
:1038B000CB5A4EF64C421BBACFF6FF721C0C734625
:1038C0008A5A23F80A4F4EF64844CFF6FF7412BACC
:1038D0000C5B120C23F8042C22BA120C23F8022CD5
:1038E00041F2B4328A1A042132F8024F013924BA63
:1038F0004FEA144423F8024FF6D1322110FB01C0E5
:1039000041F2AC31401A0EF11201092230F8023FA7
:10391000013A1BBA4FEA134321F8023FF6D12620A1
:1039200002F0FAFC10BD000080B541F27C5045F673
:10393000A521C2F20000C8F22721016040F208214F
:10394000C2F200018B884FF4204282801ABA8B8920
:10395000120CC2801ABA8B8A120C02811ABA8B8B93
:10396000120C42811A0A4373CB8802731BBACA89AC
:103970001B0C438212BACB8A120C82821ABACB8BEE
:10398000120CC2821A0A02764A88437612BA4B890E
:10399000120CC2831ABA4B8A120C02841ABA498BCF
:1039A000120C4FF0000C42840A0AC0F80EC0C0F896
:1039B0001AC080F8242080F82510C0F826C02A20DC
:1039C00002F0AAFC80BD000010B541F20044C4F230
:1039D000020420462021FDF71DFEB0FA80F04209C6
:1039E00020462021FDF71CFE10BD000010B540F25E
:1039F0000044C4F2020420460221FDF70BFEB0FA97
:103A000080F0420920460221FDF70AFE10BD0000A9
:103A100010B541F20044C4F2020420464FF4804144
:103A2000FDF7F8FDB0FA80F0420920464FF48041DE
:103A3000FDF7F6FD10BD000080B50246002840F6F7
:103A40000000C4F202004FF4804118BF0122FDF7CC
:103A5000E7FD80BD80B50246002840F60000C4F2B4
:103A600002004FF4004118BF0122FDF7D9FD80BDCF
:103A700080B50246002841F20000C4F202004FF077
:103A8000010118BF0122FDF7CBFD80BD80B50246C4
:103A9000002840F20040C4F202004FF4007118BF49
:103AA0000122FDF7BDFD80BDB0B584B041F240708C
:103AB00001230024C2F2000042F200010125C0F6F9
:103AC0000073C4F20101057680F82040C0E90A3491
:103AD0000323CDE90244CDE900444FF48032C361B1
:103AE00080F8305080E81600C0E903454561FDF7D5
:103AF00031F9002818BFFDF75BF80E20CDE900056D
:103B000041F24070C2F2000069460294FDF788F865
:103B1000002818BFFDF74CF80F20009002200190FC
:103B200041F24070C2F200006946FDF779F80028C2
:103B300018BFFDF73DF8072000900320019041F2E7
:103B40004070C2F200006946FDF76AF8002818BF0D
:103B5000FDF72EF841F24074C2F2000440F2B001C9
:103B6000C2F2000120460322FDF71EFA2046FDF7AF
:103B700089F904B0B0BD000080B582B0002043F6E2
:103B800030010190C4F202010A6842F480020A6026
:103B90000A6802F480020192019A009008680022EB
:103BA00040F4001008600868032100F40010009041
:103BB00000980C20FEF76CF90C20FEF765F90D203B
:103BC00003210022FEF764F90D20FEF75DF90E20B7
:103BD00003210022FEF75CF90E20FEF755F90F20B5
:103BE00003210022FEF754F90F20FEF74DF91020B3
:103BF00003210022FEF74CF91020FEF745F91120B1
:103C000003210022FEF744F91120FEF73DF9382088
:103C100003210022FEF73CF93820FEF735F93A205F
:103C200003210022FEF734F93A20FEF72DF9462051
:103C300003210022FEF72CF94620FEF725F902B0F9
:103C400080BD00002DE9F04F87B0002443F630001E
:103C50000694CDE90444CDE902440194C4F2020083
:103C6000016840F6000B41F0100101600168C4F2E8
:103C7000020B01F0100101910199019401680BF50B
:103C8000006541F0040101600168002201F00401B7
:103C9000019101990194016841F0200101600168DE
:103CA00001F02001019101990194016841F0800126
:103CB0000160016801F0800101910199019401689E
:103CC00041F001010160016801F0010101910199D8
:103CD0000194016841F002010160016801F00201F4
:103CE000019101990194016841F04001016001686E
:103CF00001F04001019101990194016841F008012E
:103D00000160006848F23F3100F00800019001981E
:103D10002846FDF785FC58464FF460410122FDF727
:103D20007FFC0BF5406948464FF63F010022FDF746
:103D300077FCABF50060702100220090FDF770FC6D
:103D4000ABF58066304640F623610022FDF768FC43
:103D500028464FF400610122FDF762FC30464FF423
:103D600080510122FDF75CFC0BF5806A50464BF256
:103D700020410022FDF754FC58464FF4E051002248
:103D8000FDF74EFC48F63F3002AF02904FF00108BD
:103D900028463946CDE903840594FDF76DFB4020A4
:103DA000CDE90204284639460494FDF765FB4FF43B
:103DB0007C40CDE9020858463946CDE90444FDF778
:103DC0005BFB4FF63F00CDE9020848463946CDE996
:103DD0000444FDF751FB7020CDE9020800983946F4
:103DE000CDE90444FDF748FB41F62360CDE9020824
:103DF000304639460125CDE90444FDF73DFB4FF639
:103E0000FF70CDE902040BF5805039460494FDF7AC
:103E100033FB4BF22040CDE9020550463946CDE94F
:103E20000444FDF729FB4FF40070CDE90204584625
:103E300039460494FDF720FB1620CDE902045046D4
:103E400039460494FDF718FB07B0BDE8F08F000079
:103E500080B541F6E82045F20041C2F20000C4F20C
:103E6000000148F2A06200234FF4804CC0F201022E
:103E700080E80E00C0E9033CC0E90533C0E9073320
:103E8000FDF71CFC002818BFFCF792FE41F6E82065
:103E9000C2F200000021FDF7CFFB002818BFFCF79D
:103EA00087FE41F6E820C2F200000021FDF7E2FBA8
:103EB000002818BFFCF77CFE80BD000010B541F65D
:103EC0003C3043F60001C2F20000C4F200014FF49E
:103ED0008272002380E80E0000F10C014FF0020C0A
:103EE0004FF0010E4FF4007481E808500A21C0E938
:103EF0000643C0E90833C0E90A31FEF7CBFA0028CF
:103F000018BFFCF755FE10BDB0B541F6943043F232
:103F10000041C2F20000C4F201014FF4827200239A
:103F200080E80E0000F10C014FF0020C4FF0010E82
:103F30004FF40074082581E808500A21C0E90645BD
:103F4000C0E90833C0E90A31FEF7A4FA002818BF17
:103F5000FCF72EFEB0BD000010B541F6B84444F6A3
:103F60000040C2F20004C4F200004FF416510022D7
:103F70000C2384E807002046C4E90322C4E9053283
:103F8000E261FEF7A5FD002818BFFCF711FE2068CE
:103F90004022C16841F01001C16041F23C61C2F2AF
:103FA00000012046FEF7A8FF41F27C61C2F2000149
:103FB00020464022FEF7C0FF10BD000010B541F6BC
:103FC000EC3441F20000C2F20004C4F201004FF4EC
:103FD000165100220C2384E807002046C4E903227E
:103FE000C4E90532E261FEF773FD002818BFFCF753
:103FF000DFFD20684022C16841F01001C16041F23C
:10400000BC41C2F200012046FEF776FF41F2FC41BE
:10401000C2F2000120464022FEF78EFF10BD0000D4
:1040200010B541F6304444F20040C2F20004C4F23C
:1040300000004FF4E13100220C2384E80700204601
:10404000C4E90322C4E90532E261FEF741FD00281C
:1040500018BFFCF7ADFD20684022C16841F0100197
:10406000C16041F23C51C2F200012046FEF744FF1C
:1040700041F27C51C2F2000120464022FEF75CFF73
:1040800010BD000010B541F6744444F60000C2F2C1
:104090000004C4F200004FF4165100220C2384E8FF
:1040A00007002046C4E90322C4E90532E261FEF7B5
:1040B0000FFD002818BFFCF77BFD20684022C16877
:1040C00041F01001C16041F2BC51C2F20001204632
:1040D000FEF712FF41F2FC51C2F2000120464022DD
:1040E000FEF72AFF10BD000010B541F25020C2F2C9
:1040F000000090F84040002C18BF01242046FFF734
:104100009BFC2046FFF7A6FC2046FFF7B1FC2046AB
:10411000FFF7BCFC10BD0000FEE70000042888BFCC
:10412000704709D140F2B600C2F200000021C16020
:10413000816041600160704740F23A11C2F20001B3
:10414000322210FB0210002180F824104180C0F8B8
:104150000610C0F80A10C181016141618161C1612D
:1041600001627047B0B5A0F20362352A0C4643D80D
:104170000FF20400DFE812F036003E0144014A016C
:10418000500156015C01620168016E0174017A01FF
:10419000800186018C0193019D01A301A901AF015A
:1041A000B501BC01C401CC01D401DB01E301EB0189
:1041B000F301FA0102020A0212022C022E0230025C
:1041C0003202370239023B023D02420249025002EA
:1041D00057025E0266026E0276027E0286028F023D
:1041E0009802A102012C00F2738241F25020C2F227
:1041F000000080F84040B0BDA0F12101262933D84D
:104200000FF20400DFE811F027004C0060006402A8
:104210006402B6006402640264026402640264021E
:10422000640264026402640264026402640264025E
:10423000640264026402640264026402640264024E
:1042400064026402640264026402C400CE00D80006
:10425000E2004200EC00012C00F23A8241F25020D0
:10426000C2F200000470B0BDA0F58170032800F216
:104270002F82DFE810F004002E0236023E0240F2E8
:10428000B600C2F20000048205200BE240F2D0002A
:10429000C2F2000004822046172102F0BFF8B0BD30
:1042A000012C00F2158241F25020E1B2C2F200006E
:1042B0000029447000F02882012940F009824FF063
:1042C0000F31C0F80210B0BD012C00F20182002CA9
:1042D00043D040F23810C2F200000021017041F2D8
:1042E0004C20C2F200000122027040F2D00041F2E4
:1042F0000045C2F20000C4F20205C0F802102846D0
:1043000004210022FDF78CF9284608210022FDF740
:1043100087F9284610210022FDF782F9A5F5A05063
:1043200020210022FDF77CF9A5F580500121002213
:10433000FDF776F928464FF480510022FDF770F919
:1043400028464FF400510022FDF76AF9A5F54060B8
:104350004FF400510122FDF763F9B4FA84F04109EA
:10436000232002F053F841F25020C2F20000002155
:104370000170B0BD2620214602F048F840F2D0007E
:10438000C2F20000048020461B2102F047F8B0BDB5
:1043900041F25020C2F20000C48520460F2102F0F5
:1043A0003DF8B0BD41F25020C2F200000486204624
:1043B000112102F033F8B0BD41F25020C2F20000EA
:1043C00044862046132102F029F8B0BD40F2D00007
:1043D000C2F20000C4812046152102F01FF8B0BDD2
:1043E00040F2D000C2F2000044822046192102F0BF
:1043F00015F8B0BD40F21100C2F200000470B0BD6B
:1044000040F21100C2F200004470B0BD40F2110051
:10441000C2F200008470B0BD40F21100C2F2000090
:10442000C470B0BD40F23800C2F200000470B0BDEC
:1044300040F23800C2F200004470B0BD40F23800D3
:10444000C2F200008470B0BD40F23800C2F2000039
:10445000C470B0BD40F20900C2F200000470B0BDEB
:1044600040F20900C2F200004470B0BD40F2090001
:10447000C2F200008470B0BD40F20900C2F2000038
:10448000C470B0BD40F21800C2F200000480B0BD9C
:1044900041F25020C2F2000080F83440B0BD012C3F
:1044A00000F2168141F25020C2F2000080F8414033
:1044B000B0BD41F25020C2F200008470B0BD41F2A4
:1044C0005020C2F20000C470B0BD41F25020C2F2D0
:1044D00000000471B0BD41F25020C2F200004471EE
:1044E000B0BD40F23A10C2F20000C485012006E1DE
:1044F00040F23A10C2F20000A0F860400220FEE054
:1045000040F23A10C2F20000A0F892400320F6E018
:1045100040F23A10C2F20000A0F8C4400420EEE0DD
:1045200040F23A10C2F2000004860120D7E040F2C7
:104530003A10C2F20000A0F862400220CFE040F240
:104540003A10C2F20000A0F894400320C7E040F205
:104550003A10C2F20000A0F8C6400420BFE040F2CA
:104560003A10C2F2000084850120C0E040F23A1007
:10457000C2F20000A0F85E400220B8E040F23A101B
:10458000C2F20000A0F890400320B0E040F23A10E0
:10459000C2F20000A0F8C2400420A8E0012C00F202
:1045A000978041F25025C2F20005002CA5F8464044
:1045B00008BFB0BD298EE88DA5F844103521A5F8B7
:1045C000420001F02BFF288E372101F027FFB0BDFC
:1045D000012004E0022002E0032000E00420214644
:1045E00003F01AF8B0BD012004E0022002E003202D
:1045F00000E00420214603F015F8B0BD40F2B600FB
:10460000C2F200000483052055E040F23A10C2F2E5
:1046100000004485012045E040F23A10C2F200005B
:10462000C484012047E040F23A10C2F20000048541
:1046300001202EE040F23A10C2F20000A0F85C40E7
:1046400002202FE040F23A10C2F20000A0F85840D9
:10465000022030E040F23A10C2F20000A0F85A40C6
:10466000022016E040F23A10C2F20000A0F88E409C
:10467000032017E040F23A10C2F20000A0F88A408E
:10468000032018E040F23A10C2F20000A0F88C407B
:104690000320062134E040F23A10C2F20000A0F8F4
:1046A000C040042004212BE040F23A10C2F2000086
:1046B000A0F8BC400420052122E040F23A10C2F2EA
:1046C0000000A0F8BE4004200621224601F0D0FCE4
:1046D000B0BD40F2B600C2F20000448205200321C2
:1046E0000EE040F2B600C2F20000848205200221F2
:1046F00006E040F2B600C2F20000C48205200121AB
:10470000224601F0B5FCB0BD0021C0F80210B0BDDA
:10471000FEE7000000F0070080F00703042B28BF2D
:1047200004234FF0FF3C03380CFA03F338BF00209A
:10473000994381400CFA00F022EA000008437047D8
:104740007047000070B541F25020C2F200000178BD
:1047500009B1012405E04178002411B1447000F052
:1047600065F80025C4F20205284640212246FCF7E0
:1047700057FF05F5A056304601212246FCF750FFB1
:10478000284610212246FCF74BFF30464FF40061CB
:104790002246FCF745FF70BD10B541F2BC54C2F291
:1047A00000042046112101F0F1FFA17CB1EB102F94
:1047B0003AD1617CC0B2814218BF10BDB4F8050087
:1047C0004CF6CD4100BA000CCCF6CC41A0FB010266
:1047D000B4F8070048F21F5300BA000CA0FB010117
:1047E000B4F80F00C5F2EB1300BA000CA0FB0303F2
:1047F000D008227840F20824C2F2000404EBC2027E
:1048000022F8020CC80822F8040C5809E188E38950
:1048100022F8060C5818E18AE28B084441F2502134
:104820001044C2F20001888510BD000010B541F2AD
:104830005020C2F20000417889B10178F9B140F608
:104840000044C4F2020404F5006002210122FCF7D6
:10485000E7FE204620210022FCF7E2FE10BD40F6D4
:104860000044C4F2020404F5006002210022FCF7B7
:10487000D7FE204620210122FCF7D2FE10BD0021E8
:10488000417010BD80B582B000218DF807108DF801
:10489000070044F2402C41F63C308DF80610C0F27F
:1048A0000F0CC2F200000DF107010DF10602012309
:1048B000CDF800C0FDF7ACFE9DF8060002B080BD4B
:1048C00080B582B000218DF807108DF8070044F202
:1048D000402C41F694308DF80610C0F20F0CC2F255
:1048E00000000DF107010DF106020123CDF800C013
:1048F000FDF78EFE9DF8060002B080BD10B582B0B7
:1049000040F20003C2F200031B6849F68174C1F251
:104910005E64A3FB043C04464FEA5C504FF47A7398
:10492000584301906068B0F5827F0DD113460A4666
:104930002046802100F014F878B1606D40F020002E
:104940006065032002B010BD019830B101980138B4
:104950000190206880680006F6D4002002B010BDE7
:104960002DE9F04381B01E4690460D468146FCF786
:104970005DFE301A00EB0807FCF758FE40F200011C
:10498000C2F200010968C1F3CB3179430091D9F833
:10499000001089682940A94219D1064608F101048E
:1049A00006E000BFD9F8000080682840A8420ED178
:1049B000002CF7D0FCF73AFE801BB8420BD20098CF
:1049C0000099002808BF0746481E0090EAE700202B
:1049D00001B0BDE8F083D9E900014268B1F5827FFA
:1049E00022F0E00242600BD1D9F80810B1F5004F77
:1049F00002D0B1F5806F03D1016821F04001016060
:104A0000D9F82810B1F5005F07D1016821F40051F1
:104A10000160016841F400510160012089F85100F2
:104A2000002089F85000032001B0BDE8F0830000A9
:104A300070470000B0B501380024B4EB106F1CBF04
:104A40000120B0BD4EF21005CEF2000568604FF0B7
:104A5000FF300F2101F03EFD0720AC6028602046AA
:104A6000B0BD000080B5FDF799F980BD10B592B0DA
:104A700006AC20463021FBF781FC002043F64001C4
:104A80000590CDE90300CDE901000090C4F20201D8
:104A90000A6842F080520A60096801F08051009172
:104AA0000099009047F20000C4F20000016841F450
:104AB0004041016000684FF4800100F440400090E4
:104AC0000098012006904FF4A0200D91142107902A
:104AD00002200E91B4210C90CDE90F10042011900A
:104AE0002046FDF735FBB0B9FDF7E6F998B90F2080
:104AF000019002200290002003904FF4A0500490F7
:104B00004FF48050059001A80521FDF713FA002805
:104B100004BF12B010BDFCF74BF800004EF68850F1
:104B2000CEF20000016841F470010160704700009E
:104B300070B541F29844C2F20004258801F0FCFEF1
:104B4000854202D201F0F8FE208041F29A4540F2FF
:104B5000B001C2F20005C2F200012888098841F2C2
:104B60009C4288423CBF08442880C2F20002108860
:104B7000013081B2B1F5006F108018BF70BD208880
:104B800029880026168001F0C7FC26802E8070BD83
:104B900080B5FFF74BFEFFF7D5FDFFF7A5FAFBF752
:104BA00053FD80BD2DE9F04381B040F60004C4F20E
:104BB000020404F5806528460221FCF72BFD40F233
:104BC000D00741F24C28C2F20007C2F2000868B1D7
:104BD0003888C00712D10020B8717888B98840F0B1
:104BE0000100788051B90120B88007E07988012060
:104BF000B87188F8000021F001007880284604216F
:104C0000FCF708FD68B13888800712D40020F871DD
:104C10007888B98840F00200788051B90220B880C5
:104C200007E079880120F87188F8000021F002007F
:104C3000788041F25026788AC2F20006318C00EB6F
:104C40008000400040F238198842C2F2000906D2C2
:104C500079880020388421F01000788019E0388CA1
:104C600041F28932013081B29142388411D33888BF
:104C700041F28831C00639840BD47888B98840F075
:104C800010000029788004BF1020B880012089F826
:104C9000000020464FF40071FCF7BCFC30B179886D
:104CA0000120387321F48070788011E03888C005C5
:104CB0000ED400203873012089F80000B888798864
:104CC000002841F48070788002D14FF48070B88061
:104CD000F88996ED030A01EE100AB8EE411AB4EE17
:104CE000410AF1EE10FA23DD388B41F289320130AE
:104CF00081B29142388321D3388841F288318006CD
:104D000039831BD47888B98840F020000029788046
:104D100004BF2020B88004F5406004210122FCF784
:104D20007FFC20464FF400510022FCF779FC05E09F
:104D300079880020388321F020007880388A96ED29
:104D4000040A01EE100AB8EE411AB4EE410AF1EE7F
:104D500010FA06DA79880020788321F04000788004
:104D60001FE0788B013081B20629788319D3388807
:104D700006214006798314D47888B98840F0400031
:104D80000029788004BF4020B88004F540600421E9
:104D90000122FCF745FC20464FF400510022FCF7AD
:104DA0003FFC30787178B0FA80F0B1FA81F14009B7
:104DB000490940EA010282F00100307228462021B0
:104DC000FCF72EFCB879F979002818BF01200029DA
:104DD00018BF012199F800200840511E18BF012179
:104DE000084225D198F80000012821D13888000711
:104DF0000BD47078012808D17888B98840F0080071
:104E00000029788004BF0820B88000253580FFF78E
:104E10000DFD022088F8000020464FF400510022CA
:104E200089F80050FCF7FCFB2320012101F0EEFA89
:104E300001B0BDE8F083000010B541F29E40C2F21F
:104E40000000018801318AB2642A018038BF10BD98
:104E500041F2A044C2F20004217800220729028016
:104E600021D8DFE801F004070A0E12161A1EFEF719
:104E700023FC18E0FEF792FC15E06520FEF7C6FC67
:104E800011E06620FEF7C2FC0DE06720FEF7BEFCD5
:104E900009E06820FEF7BAFC05E06920FEF7B6FCE1
:104EA00001E0FEF741FD20780130C1B2072988BF3B
:104EB0000020207010BD0000B0B541F2A240C2F247
:104EC0000000018840F2DC5301318AB29A4201802D
:104ED00038BFB0BD40F204050021C2F200050180D8
:104EE000287841F27C64C2F2000420700320C0F2F2
:104EF0000100C4F80100012060712046062101F084
:104F000045FCE080082001F067FA28780130C1B242
:104F1000022988BF01202870B0BD0000B0B541F261
:104F2000A640C2F20000018801318AB2B2F5487F82
:104F3000018038BFB0BD41F2A445C2F20005297816
:104F400000220529028004BF01202870287841F240
:104F5000FC54C2F2000420700320C4F801000720B2
:104F600060712046062101F011FCE080082001F06C
:104F70001BFA287801302870FEF738FDFEF748FD4F
:104F8000B0BD000010B541F2A840C2F20000018897
:104F900001318AB2B2F5FA7F018038BF10BD00211D
:104FA00041F2FC440180C2F2000440F20130206072
:104FB0004FF40070A0802046062101F0E7FBE0805E
:104FC000082001F061F910BD10B541F2AA40C2F20B
:104FD0000000018842F2107301318AB29A420180C6
:104FE00038BF10BD002101800020FBF781FCBDEE21
:104FF000C00A41F2502410EE100AC2F20004E0860A
:105000000120FBF775FCBDEEC00A10EE100A2087E8
:105010000220FBF76DFCBDEEC00A10EE100A60879F
:1050200010BD00002DE9F04381B02DED028B41F25F
:105030005029C2F2000999F80810202001F0E6F981
:1050400099F80010212001F0E1F999F801102220CF
:1050500001F0DCF940F2D006C2F20006B18824204B
:1050600001F0D4F97188252001F0D0F9318826208B
:1050700001F0CCF9317B272001F0C8F940F2B608E5
:10508000C2F20008B8F90600B2EE048A00EE100A77
:10509000B8EEC00A80EE080A282001F0DBF999ED8D
:1050A000030A2A2001F0D6F999ED040A2C2001F018
:1050B000D1F940F20827C2F20007B88800EE100AC2
:1050C000B8EE400A80EE080A2E2001F0C3F9B9F8C4
:1050D0002C0000EE100AB8EE400A80EE080A3020DC
:1050E00001F0B8F9B9F8200000EE100AB8EE400A55
:1050F00080EE080A322001F0ADF9B9F8360000EE72
:10510000100AB8EE400A80EE080A342001F0A2F935
:10511000B9F8380000EE100AB8EE400A80EE080A2E
:10512000362001F097F9B9F83A0000EE100AB8EE0F
:10513000400A80EE080A382001F08CF9B9F82E10E8
:10514000422001F063F9B9F83010432001F05EF914
:10515000B9F83210442001F059F9F189452001F0E5
:1051600055F9318A462001F051F9718A472001F042
:105170004DF9B8F800104FF4807001F047F9B8F815
:10518000021040F2011001F041F9B8F810104FF48C
:10519000817001F03BF9B8F8121040F2031001F0F1
:1051A00035F9B8F814104FF4827001F02FF9B8F8FF
:1051B000161040F2051001F029F9B8F9060000EECA
:1051C000100AB8EEC00A80EE080A4FF4837001F0AE
:1051D00041F9B8F8080000EE100AB8EE400A80EE77
:1051E000080A4FF4847001F035F9B8F80E0000EEAB
:1051F000100AB8EE400A80EE080A4FF4857001F0FC
:1052000029F9B8F8040000EE100AB8EE400A80EE62
:10521000080A4FF4867001F01DF9B8F80C0000EE92
:10522000100AB8EE400A80EE080A4FF4877001F0C9
:1052300011F940F23A16C2F2000696F824104FF423
:10524000007001F0E3F8718C40F2012001F0DEF80B
:10525000F08800EE100AB8EE400A40F2022001F099
:10526000F9F8708800EE100AB8EE400A4FF40170A9
:1052700001F0F0F8B08800EE100AB8EE400A40F2F3
:10528000062001F0E7F800254FF4027406EB450014
:10529000008900EE100AB8EE400A80EE080A04EB1E
:1052A000450080B201F0D6F80135042DEED100257D
:1052B0004FF4047406EB4500008A00EE100AB8EEC5
:1052C000400A80EE080A04EB450080B201F0C2F803
:1052D0000135092DEED196F8561040F2222001F04A
:1052E00095F8B6F8541040F2232001F08FF8308F73
:1052F00000EE100AB8EE400A4FF4097001F0AAF867
:10530000B08E00EE100AB8EE400A40F2262001F0FE
:10531000A1F8F08E00EE100AB8EE400A4FF40A70C1
:1053200001F098F8002540F22A2400BF06EB450062
:10533000408F00EE100AB8EE400A80EE080A04EB37
:10534000450080B201F086F80135042DEED100252C
:1053500040F2322406EB4500B0F8420000EE100A9D
:10536000B8EE400A80EE080A04EB450080B201F076
:1053700071F80135092DEDD196F888104FF41170B0
:1053800001F044F8B6F8861040F2452001F03EF8EE
:10539000B6F86A0000EE100AB8EE400A40F2462065
:1053A00001F058F8B6F8660000EE100AB8EE400AB0
:1053B0004FF4127001F04EF8B6F8680000EE100AD3
:1053C000B8EE400A40F24A2001F044F800254FF4BC
:1053D000137400BF06EB4500B0F86C0000EE100A35
:1053E000B8EE400A80EE080A04EB450080B201F0F6
:1053F00031F80135042DEDD100254FF4157400BFAF
:1054000006EB4500B0F8740000EE100AB8EE400A52
:1054100080EE080A04EB450080B201F01BF801356C
:10542000092DEDD196F8BA1040F2662000F0EEFF9B
:10543000B6F8B81040F2672000F0E8FFB6F89C001C
:1054400000EE100AB8EE400A4FF41A7001F002F8AC
:10545000B6F8980000EE100AB8EE400A40F26A2052
:1054600000F0F8FFB6F89A0000EE100AB8EE400A15
:105470004FF41B7000F0EEFF002540F26E2400BFD9
:1054800006EB4500B0F89E0000EE100AB8EE400AA8
:1054900080EE080A04EB450080B200F0DBFF013526
:1054A000042DEDD1002540F2762400BF06EB450027
:1054B000B0F8A60000EE100AB8EE400A80EE080A26
:1054C00004EB450080B200F0C5FF0135092DEDD198
:1054D00039884FF4A06000F099FF788800EE100A38
:1054E000B8EE400A40F2015000F0B4FFB88800EE78
:1054F000100AB8EE400A80EE080A40F2035000F0AD
:10550000A9FFF88800EE100AB8EE400A80EE080AFB
:1055100040F2055000F09EFF398940F2075000F03C
:1055200075FF788900EE100AB8EE400A4FF4A160CA
:1055300000F090FFB88900EE100AB8EE400A80EE45
:10554000080A40F20A5000F085FFF88900EE100AC0
:10555000B8EE400A80EE080A40F20C5000F07AFFE4
:10556000398A40F20E5000F051FF788A00EE100A9E
:10557000B8EE400A40F20F5000F06CFFB88A00EE1F
:10558000100AB8EE400A80EE080A40F2115000F00E
:1055900061FFF88A00EE100AB8EE400A80EE080AB1
:1055A00040F2135000F056FF398B40F2155000F0D6
:1055B0002DFF788B00EE100AB8EE400A40F216502C
:1055C00000F048FFB88B00EE100AB8EE400A80EEFB
:1055D000080A4FF4A36000F03DFFF88B00EE100ABC
:1055E000B8EE400A80EE080A40F21A5000F032FF8E
:1055F00099F8401040F2036000F008FF40F21104F7
:10560000C2F20004217840F2046000F0FFFE6178ED
:1056100040F2056000F0FAFEA17840F2066000F06A
:10562000F5FEE17840F2076000F0F0FE40F2380449
:10563000C2F2000421784FF4C16000F0E7FE617807
:1056400040F2096000F0E2FEA17840F20A6000F04A
:10565000DDFEE17840F20B6000F0D8FE40F2090474
:10566000C2F20004217840F20C6000F0CFFE6178B5
:1056700040F20D6000F0CAFEA17840F20E6000F02A
:10568000C5FEE17840F20F6000F0C0FE40F2180065
:10569000C2F2000001884FF4C26000F0B7FE99F832
:1056A000341040F2116000F0B1FE99F8021040F29F
:1056B000136000F0ABFE99F8031040F2146000F0A4
:1056C000A5FE99F8041040F2156000F09FFE99F8CD
:1056D000051040F2166000F099FEF18D40F217605F
:1056E00000F094FEB6F860104FF4C36000F08EFE38
:1056F000B6F8921040F2196000F088FEB6F8C410B7
:1057000040F21A6000F082FE318E40F21B6000F021
:105710007DFEB6F8621040F21C6000F077FEB6F82D
:10572000941040F21D6000F071FEB6F8C61040F211
:105730001E6000F06BFEB18D40F21F6000F066FE4F
:10574000B6F85E104FF4C46000F060FEB6F890103A
:1057500040F2216000F05AFEB6F8C21040F222601A
:1057600000F054FEB9F8461040F2236000F04EFEFF
:10577000B8F8181040F22C6000F048FE718D40F22D
:105780002D6000F043FEF18C40F22E6000F03EFEF2
:10579000318D40F22F6000F039FEB6F85C104FF406
:1057A000C66000F033FEB6F8581040F2316000F0E9
:1057B0002DFEB6F85A1040F2326000F027FEB6F81F
:1057C0008E1040F2336000F021FEB6F88A1040F2ED
:1057D000346000F01BFEB6F88C1040F2356000F02B
:1057E00015FEB6F8C01040F2366000F00FFEB6F8B5
:1057F000BC1040F2376000F009FEB6F8BE104FF45E
:10580000C76000F003FEBDEC028B01B0BDE8F08381
:10581000B0B582B041F25020C2F2000090F84110C1
:10582000012925D1002180F84110002000F098FFC7
:10583000012000F095FF40F23801C2F200014FF460
:10584000A060042201F056FE40F20901C2F20001FC
:105850004FF48070042201F04DFE40F21101C2F2BB
:1058600000014FF47060042201F044FE01F03AFDA3
:105870004FF44270FDF7B0FE8DF807009DF8070069
:105880001C284AD8DFE800F00F49494949494949ED
:1058900049494949494949494949491B49494920CF
:1058A00049494949460040F21800C2F20000028806
:1058B00000200121202301F0D5FC02B0B0BD002062
:1058C00001F0DCF802B0B0BD4FF40270FDF784FEC9
:1058D000C00704D04FF402700121FDF7C7FE00207D
:1058E000002500F0DDFFD0B10446FEF76DF841F26F
:1058F0009821C2F200010020224601F077F9E1B2BE
:10590000002001F021FA41F2AC40C2F20000058013
:1059100002B0B0BD002000F023FF02B0B0BD41F2E4
:10592000AC40C2F20000018841F2893301318AB2F1
:105930009A420180F1D300210180002000F010FF85
:1059400002B0B0BD10B54FF44A70FDF745FE1C28FB
:1059500049D8DFE800F00F484848484848484848D8
:105960004848484848484848481C4848482048480B
:105970004848450040F21800C2F2000000880121AA
:10598000013082B20120202301F06CFC10BD012007
:1059900001F074F810BD4FF40A70FDF71DFEC0074A
:1059A00004D04FF40A700121FDF760FE012000F0E1
:1059B00077FFC8B10446FEF707F841F29821C2F21A
:1059C00000010120224601F011F9E1B2012001F0AD
:1059D000BBF941F2AE40C2F200000021018010BDCF
:1059E000012000F0BDFE10BD41F2AE40C2F2000049
:1059F000018841F2893301318AB29A42018038BF6D
:105A000010BD00210180012000F0AAFE10BD0000A1
:105A100070B584B04FF44270FDF7BAFD8DF80F00F9
:105A20009DF80F0022280ED0002840F0888040F218
:105A30001600C2F20000028800200221002301F0BB
:105A400037FB04B070BD4FF40270FDF7A1FD4007B5
:105A500004D54FF402700421FDF7E2FD41F2B04499
:105A6000C2F20004608940F22A05013081B2B1F52A
:105A7000FA7FC2F20005608119D30020608141F2F3
:105A80005020C2F20000427841F2FC61D0F80200DE
:105A9000C2F200012E8840F226030A70C1F801000C
:105AA000C2F2000300200522009601F085FA0020D2
:105AB000002600F0CFFEC0B141F2BC610246C2F246
:105AC00000010DF10A030020009501F0D7F89DF8C0
:105AD0000D006538C0B200F0F1FA9DF80D0004EB3E
