:020000040800F2
:1000000000000120AD4E00085B0E00085D0E0008E8
:100010005F0E0008610E0008630E0008000000007B
:10002000000000000000000000000000650E000855
:10003000670E000800000000690E00086B0E000843
:10004000F54E0008F54E0008F54E0008F54E000884
:10005000F54E0008F54E0008F54E0008F54E000874
:10006000F54E0008F54E0008F54E0008750E000824
:10007000F54E0008F54E0008F54E0008F54E000854
:10008000F54E0008F54E0008F54E0008F54E000844
:10009000F54E0008F54E0008F54E0008F54E000834
:1000A000F54E0008F54E0008F54E0008F54E000824
:1000B000F54E0008F54E0008F54E0008F54E000814
:1000C000F54E0008F54E0008F54E0008F54E000804
:1000D000F54E0008F54E0008F54E0008F54E0008F4
:1000E000F54E0008F54E0008F54E0008F54E0008E4
:1000F000F54E0008F54E0008F54E0008F54E0008D4
:10010000F54E0008F54E0008F54E0008F54E0008C3
:10011000F54E0008F54E0008F54E0008F54E0008B3
:10012000F54E0008F54E0008F54E0008F54E0008A3
:1001300000000000000000000000000000000000BF
:1001400000000000000000000000000000000000AF
:10015000000000000000000000000000000000009F
:10016000000000000000000000000000000000008F
:10017000000000000000000000000000000000007F
:10018000000000000000000000000000000000006F
:10019000000000000000000000000000000000005F
:1001A000000000000000000000000000000000004F
:1001B000000000000000000000000000000000003F
:1001C000000000000000000000000000000000002F
:1001D000000000000000000000000000000000001F
:0401E0005FF8E0F1F3
:1001E80010B5054C237833B9044B13B10448AFF369
:1001F80000800123237010BD3C0000200000000097
:10020800504F000808B5034B1BB103490348AFF32F
:10021800008008BD0000000040000020504F00088A
:1002280081F0004102E000BF83F0004330B54FEA9F
:1002380041044FEA430594EA050F08BF90EA020F0C
:100248001FBF54EA000C55EA020C7FEA645C7FEA9F
:10025800655C00F0E2804FEA5454D4EB5555B8BFC2
:100268006D420CDD2C4480EA020281EA030382EA33
:10027800000083EA010180EA020281EA0303362DC5
:1002880088BF30BD11F0004F4FEA01314FF4801C98
:100298004CEA113102D0404261EB410113F0004FAA
:1002A8004FEA03334CEA133302D0524263EB430361
:1002B80094EA050F00F0A780A4F10104D5F1200EFF
:1002C8000DDB02FA0EFC22FA05F2801841F100015A
:1002D80003FA0EF2801843FA05F359410EE0A5F12E
:1002E80020050EF1200E012A03FA0EFC28BF4CF05F
:1002F800020C43FA05F3C01851EBE37101F0004515
:1003080007D54FF0000EDCF1000C7EEB00006EEB21
:100318000101B1F5801F1BD3B1F5001F0CD34908AB
:100328005FEA30004FEA3C0C04F101044FEA445202
:1003380012F5800F80F09A80BCF1004F08BF5FEA89
:10034800500C50F1000041EB045141EA050130BD69
:100358005FEA4C0C404141EB0101013C28BFB1F57B
:10036800801FE9D291F0000F04BF01460020B1FAC6
:1003780081F308BF2033A3F10B03B3F120020CDA99
:100388000C3208DD02F1140CC2F10C0201FA0CF077
:1003980021FA02F10CE002F11402D8BFC2F1200CDC
:1003A80001FA02F120FA0CFCDCBF41EA0C01904092
:1003B800E41AA2BF01EB0451294330BD6FEA0404DB
:1003C8001F3C1CDA0C340EDC04F11404C4F12002C6
:1003D80020FA04F001FA02F340EA030021FA04F3D8
:1003E80045EA030130BDC4F10C04C4F1200220FA2F
:1003F80002F001FA04F340EA0300294630BD21FA6D
:1004080004F0294630BD94F0000F83F4801306BF32
:1004180081F480110134013D4EE77FEA645C18BF26
:100428007FEA655C29D094EA050F08BF90EA020FBD
:1004380005D054EA000C04BF1946104630BD91EAB5
:10044800030F1EBF0021002030BD5FEA545C05D1B8
:100458004000494128BF41F0004130BD14F58004F7
:100468003CBF01F5801130BD01F0004545F0FE416B
:1004780041F470014FF0000030BD7FEA645C1ABFA0
:10048800194610467FEA655C1CBF0B46024650EAD7
:10049800013406BF52EA033591EA030F41F4002103
:1004A80030BD00BF90F0000F04BF0021704730B589
:1004B8004FF4806404F132044FF000054FF000015E
:1004C80050E700BF90F0000F04BF0021704730B51F
:1004D8004FF4806404F1320410F0004548BF4042F4
:1004E8004FF000013EE700BF42004FEAE2014FEA49
:1004F80031014FEA02701FBF12F07F4393F07F4F24
:1005080081F06051704732F07F4208BF704793F026
:100518007F4F04BF41F40021704730B54FF4607439
:1005280001F0004521F000411CE700BF50EA01023C
:1005380008BF704730B54FF000050AE050EA0102E5
:1005480008BF704730B511F0004502D5404261EB55
:1005580041014FF4806404F132045FEA915C3FF496
:10056800D8AE4FF003025FEADC0C18BF03325FEA33
:10057800DC0C18BF033202EBDC02C2F1200300FAE4
:1005880003FC20FA02F001FA03FE40EA0E0021FA09
:1005980002F11444BDE600BF70B54FF0FF0C4CF4F7
:1005A800E06C1CEA11541DBF1CEA135594EA0C0FA9
:1005B80095EA0C0F00F0DEF82C4481EA030621EAE4
:1005C8004C5123EA4C5350EA013518BF52EA03351F
:1005D80041F4801143F4801338D0A0FB02CE4FF0D1
:1005E8000005E1FB02E506F00042E0FB03E54FF001
:1005F8000006E1FB03569CF0000F18BF4EF0010EF9
:10060800A4F1FF04B6F5007F64F5407404D25FEAF4
:100618004E0E6D4146EB060642EAC62141EA5551A7
:100628004FEAC52040EA5E504FEACE2EB4F1FD0CE9
:1006380088BFBCF5E06F1ED8BEF1004F08BF5FEA67
:10064800500E50F1000041EB045170BD06F0004619
:1006580046EA010140EA020081EA0301B4EB5C04C6
:10066800C2BFD4EB0C0541EA045170BD41F48011BE
:100678004FF0000E013C00F3AB8014F1360FDEBFE3
:10068800002001F0004170BDC4F10004203C35DABF
:100698000C341BDC04F11404C4F1200500FA05F342
:1006A80020FA04F001FA05F240EA020001F00042E3
:1006B80021F0004110EBD37021FA04F642EB060159
:1006C8005EEA430E08BF20EAD37070BDC4F10C0483
:1006D800C4F1200500FA04F320FA05F001FA04F247
:1006E80040EA020001F0004110EBD37041F1000133
:1006F8005EEA430E08BF20EAD37070BDC4F120053E
:1007080000FA05F24EEA020E20FA04F301FA05F2A5
:1007180043EA020321FA04F001F0004121FA04F24D
:1007280020EA020000EBD3705EEA430E08BF20EA1D
:10073800D37070BD94F0000F0FD101F00046400057
:1007480041EB010111F4801F08BF013CF7D041EAD9
:10075800060195F0000F18BF704703F000465200DD
:1007680043EB030313F4801F08BF013DF7D043EAAE
:100778000603704794EA0C0F0CEA135518BF95EA64
:100788000C0F0CD050EA410618BF52EA4306D1D1EB
:1007980081EA030101F000414FF0000070BD50EA0A
:1007A800410606BF1046194652EA430619D094EA94
:1007B8000C0F02D150EA013613D195EA0C0F05D17E
:1007C80052EA03361CBF104619460AD181EA0301D2
:1007D80001F0004141F0FE4141F470014FF000008A
:1007E80070BD41F0FE4141F4780170BD70B54FF025
:1007F800FF0C4CF4E06C1CEA11541DBF1CEA1355A5
:1008080094EA0C0F95EA0C0F00F0A7F8A4EB050486
:1008180081EA030E52EA03354FEA013100F088807D
:100828004FEA03334FF0805545EA131343EA126346
:100838004FEA022245EA111545EA10654FEA0026FB
:100848000EF000419D4208BF964244F1FD0404F5B4
:10085800407402D25B084FEA3202B61A65EB030510
:100868005B084FEA32024FF480104FF4002CB6EBCD
:10087800020E75EB030E22BFB61A754640EA0C004D
:100888005B084FEA3202B6EB020E75EB030E22BF8D
:10089800B61A754640EA5C005B084FEA3202B6EBCE
:1008A800020E75EB030E22BFB61A754640EA9C008D
:1008B8005B084FEA3202B6EB020E75EB030E22BF5D
:1008C800B61A754640EADC0055EA060E18D04FEA1B
:1008D800051545EA16754FEA06164FEAC30343EABB
:1008E80052734FEAC2025FEA1C1CC0D111F4801F88
:1008F8000BD141EA00014FF000004FF0004CB6E781
:1009080011F4801F04BF01430020B4F1FD0C88BF1F
:10091800BCF5E06F3FF6AFAEB5EB030C04BFB6EB2A
:10092800020C5FEA500C50F1000041EB045170BD1D
:100938000EF0004E4EEA113114EB5C04C2BFD4EB4A
:100948000C0541EA045170BD41F480114FF0000ECE
:10095800013C90E645EA060E8DE60CEA135594EA4A
:100968000C0F08BF95EA0C0F3FF43BAF94EA0C0F4D
:100978000AD150EA01347FF434AF95EA0C0F7FF4C2
:1009880025AF104619462CE795EA0C0F06D152EA16
:1009980003353FF4FDAE1046194622E750EA4106FA
:1009A80018BF52EA43067FF4C5AE50EA41047FF40B
:1009B8000DAF52EA43057FF4EBAE12E74FEA41026E
:1009C80012F5001215D211D56FF47873B3EB625299
:1009D80012D94FEAC12343F0004343EA505311F0C0
:1009E800004F23FA02F018BF404270474FF0000052
:1009F800704750EA013005D111F0004008BF6FF090
:100A0800004070474FF00000704700BF4A0011D205
:100A180012F5001211D20DD56FF47873B3EB625250
:100A28000ED44FEAC12343F0004343EA505323FA5C
:100A380002F070474FF00000704750EA013002D1D1
:100A48004FF0FF3070474FF00000704780F00040D3
:100A580002E000BF81F0004142001FBF5FEA41038E
:100A680092EA030F7FEA226C7FEA236C6AD04FEA8E
:100A78001262D2EB1363C1BFD218414048404140D3
:100A8800B8BF5B42192B88BF704710F0004F40F485
:100A9800000020F07F4018BF404211F0004F41F4A1
:100AA800000121F07F4118BF494292EA030F3FD06D
:100AB800A2F1010241FA03FC10EB0C00C3F1200380
:100AC80001FA03F100F0004302D5494260EB40000F
:100AD800B0F5000F13D3B0F1807F06D340084FEA7A
:100AE800310102F10102FE2A51D2B1F1004F40EB6F
:100AF800C25008BF20F0010040EA030070474900D7
:100B080040EB0000013A28BFB0F5000FEDD2B0FA73
:100B180080FCACF1080CB2EB0C0200FA0CF0AABF96
:100B280000EBC25052421843BCBFD0401843704734
:100B380092F0000F81F4000106BF80F4000001323A
:100B4800013BB5E74FEA41037FEA226C18BF7FEA11
:100B5800236C21D092EA030F04D092F0000F08BF53
:100B68000846704790EA010F1CBF0020704712F03A
:100B78007F4F04D1400028BF40F00040704712F179
:100B880000723CBF00F50000704700F0004343F0DE
:100B9800FE4040F4000070477FEA226216BF084614
:100BA8007FEA23630146420206BF5FEA412390EAD7
:100BB800010F40F4800070474FF0000304E000BFCD
:100BC80010F0004348BF40425FEA000C08BF70477E
:100BD80043F0964301464FF000001CE050EA010242
:100BE80008BF70474FF000030AE000BF50EA010257
:100BF80008BF704711F0004302D5404261EB410144
:100C08005FEA010C02BF84460146002043F0B64368
:100C180008BFA3F18053A3F50003BCFA8CF2083A8D
:100C2800A3EBC25310DB01FA02FC634400FA02FC96
:100C3800C2F12002BCF1004F20FA02F243EB02009D
:100C480008BF20F00100704702F1200201FA02FCFF
:100C5800C2F1200250EA4C0021FA02F243EB0200F2
:100C680008BF20EADC7070474FF0FF3C06E000BF89
:100C78004FF0010C02E000BF4FF0010C4DF804CD1D
:100C88004FEA40024FEA41037FEA226C18BF7FEA2D
:100C9800236C11D001B052EA530C18BF90EA010F2F
:100CA80058BFB2EB030088BFC81738BF6FEAE170BE
:100CB80018BF40F0010070477FEA226C02D15FEA5A
:100CC800402C05D17FEA236CE4D15FEA412CE1D0C6
:100CD8005DF8040B704700BF844608466146FFE78D
:100CE8000FB5FFF7C9FF002848BF10F1000F0FBD6F
:100CF8004DF808EDFFF7F4FF0CBF012000205DF868
:100D080008FB00BF4DF808EDFFF7EAFF34BF0120EC
:100D180000205DF808FB00BF4DF808EDFFF7E0FF85
:100D280094BF012000205DF808FB00BF4DF808EDD6
:100D3800FFF7D2FF94BF012000205DF808FB00BF39
:100D48004DF808EDFFF7C8FF34BF012000205DF81B
:100D580008FB00BF42000ED2B2F1FE4F0BD34FF09A
:100D68009E03B3EB126209D44FEA002343F0004319
:100D780023FA02F070474FF00000704712F1610F3C
:100D880001D1420202D14FF0FF3070474FF000000E
:100D9800704700BF72B6FEE700B597B02822002161
:100DA8000CA804F0C9F800230793089309930A9341
:100DB8000B930193029303930493059306930122E3
:100DC8000C924FF480330D931092022213921493D5
:100DD8004FF4E01315930CA800F0C8FBC8B90F2313
:100DE800079302210891002309934FF480620A9225
:100DF8000B9307A800F0FAFD68B9022301934FF49A
:100E08000043039301A800F0BDFE30B917B05DF8A8
:100E180004FBFFF7BFFFFFF7BDFFFFF7BBFF08B5F8
:100E280000F06AFBFFF7B8FF02F048FB03F0B4F8E4
:100E380002F0E2FB02F0E8FC02F074FD03F0AEFB06
:100E480003F046FA03F0A4FA03F09CFF03F048FB12
:100E5800F6E7FEE7FEE7FEE7FEE7FEE770477047C6
:100E6800704708B500F05AFB08BD000008B50348F4
:100E780001F0DEF80B2001F0A9FA08BDA00000205F
:100E880000B583B00F4B9A6942F001029A619A69E2
:100E980002F001020092009ADA6942F08052DA61A7
:100EA800DB6903F080530193019B052001F036FABA
:100EB800054A536823F0E06343F00073536003B0BE
:100EC8005DF804FB0010024000000140704708B5BF
:100ED800436A9A6A12F0500F1ED19A6A42F400725D
:100EE8009A621A68926802F46022B2F5602F03D001
:100EF8001846FFF7EBFF08BD1A7B002AF8D19A6A5B
:100F080022F480729A629A6A12F4805FF0D19A6A27
:100F180042F001029A62EBE71B6A1B6B9847EAE70B
:100F2800704708B5406AFFF7FBFF08BD704708B572
:100F3800406A836A43F040038362C36A43F0040350
:100F4800C362FFF7F3FF08BD30B482B000220192FC
:100F580090F82420012A00F091800346012280F8AD
:100F680024204A68062A2DD80468606B02EB8202A6
:100F7800053A4FF01F0C0CFA02FC20EA0C000D6831
:100F880005FA02F2024362630A68092A3AD91C6820
:100F9800E06802EB42021E3A4FF0070C0CFA02FC22
:100FA80020EA0C008D6805FA02F20243E2600A6842
:100FB800103A012A36D90020002283F8242002B0F2
:100FC80030BC70470C2A0ED80568286B02EB8202E9
:100FD800233A1F24944020EA04000C6804FA02F221
:100FE80002432A63D0E70568E86A02EB8202413AC5
:100FF8001F24944020EA04000C6804FA02F2024319
:10100800EA62C1E71C68206902EB42024FF0070C54
:101018000CFA02FC20EA0C008D6805FA02F2024381
:101028002261C4E71A681648824205D09A6A42F0DB
:1010380020029A620120BFE7906810F4000F1BD1CC
:10104800906840F4000090600A68102A01D00020DF
:10105800B2E70C4A12680C49A1FB0212920C02EB8F
:1010680082025200019202E0019A013A0192019A29
:10107800002AF9D100209FE700209DE702209EE783
:10108800002401400800002083DE1B4330B583B0F4
:101098000023019303689A6812F0010F33D10446C4
:1010A8009A6842F001029A60184B1B68184AA2FB22
:1010B80003239B0C019302E0019B013B0193019BDD
:1010C800002BF9D100F036FA054623689B6813F027
:1010D800010F16D100F02EFA431B022BF5D9236815
:1010E8009B6813F0010FF0D1A36A43F01003A362C9
:1010F800E36A43F00103E362002384F8243001200B
:1011080002E0002000E0002003B030BD080000200D
:1011180083DE1B4390F82430012B68D010B50446B9
:10112800012380F82430FFF7B1FF00285BD1A36AC0
:1011380023F4407323F0010343F48073A36223680C
:101148002C4A934227D0A26A22F48012A2625A68DB
:1011580012F4806F05D0A26A22F4405242F4805201
:10116800A262A26A12F4805F2BD0E26A22F0060221
:10117800E262002284F824206FF002021A602368D9
:101188009A6802F46022B2F5602F1DD09A6842F482
:1011980080129A602AE0A2F58062526812F4702FD9
:1011A800D1D0A26A42F48012A262134A526812F4A1
:1011B800806FD6D0A26A22F4405242F48052A262D2
:1011C800CFE70022E262D4E70A4A934204D09A6841
:1011D80042F4A0029A6009E0A2F58062526812F413
:1011E800702FD3D1F3E7002384F8243010BD0220F8
:1011F800704700BF0028014000240140F8B50446AC
:101208000D46164601684448814259D0434B9942DD
:1012180056D094F82430012B7CD0012384F8243054
:101228002046FFF733FF074600286ED1A16A21F454
:10123800706121F0010141F48071A1622268374B8D
:101248009A4244D0A36A23F48013A362536813F428
:10125800806F05D0A36A23F4405343F48053A362FC
:10126800A36A13F4805F48D0E36A23F00603E362BD
:10127800002384F82430236A294A9A62236A294A77
:10128800DA62236A284A1A6323686FF002021A6036
:101298002268936843F480739360216833462A4632
:1012A8004C31206A00F08AFE23689A6802F46022B2
:1012B800B2F5602F24D09A6842F480129A6027E031
:1012C800154B5B6813F4702FA3D0012720E0A3F51A
:1012D80080635B6813F4702FB4D0A36A43F480135F
:1012E800A3620D4B5B6813F4806FB9D0A36A23F433
:1012F800405343F48053A362B2E70023E362B7E7A5
:101308009A6842F4A0029A6002E0002384F824302C
:101318003846F8BD0227FBE70024014000280140B9
:10132800D70E00082B0F0008370F000838B50368E0
:101338009A6812F0010F01D1002038BD04469A685E
:1013480022F001029A6000F0F5F8054623689B68D0
:1013580013F0010F13D000F0EDF8431B022BF5D961
:1013680023689B6813F0010FF0D0A36A43F01003C1
:10137800A362E36A43F00103E3620120DDE7002092
:10138800DBE70000002800F0888070B50446836A17
:10139800002B52D02046FFF7C9FFA36A13F01003B1
:1013A80075D1002873D1A26A22F4885222F0020271
:1013B80042F00202A2626268266839498E4242D02F
:1013C800E1690A43217B42EA4102A568B5F5807FBD
:1013D80002D0012D3ED01D4694F814C0BCF1010F77
:1013E8003BD0716821F46941294371602568AE6872
:1013F8002C4931401143A960A168B1F5807F01D023
:10140800012902D12369013B1B052568E96A21F4FA
:1014180070010B43EB6223689968234B0B409A4297
:101428002CD0A36A23F0120343F01003A362E36AEB
:1014380043F00103E36201202EE0C36280F8243008
:1014480002F070F9A6E7E169B1F5402FB9D14FF480
:101458000021B6E74FF48075BEE731B9A1690139BB
:1014680045EA413141F40065BBE7A16A41F020013A
:10147800A162E16A41F00101E162B2E70023E3629F
:10148800A36A23F0030343F00103A36204E0A36A01
:1014980043F01003A362012070BD0120704700BF14
:1014A800003C0140FDF7E1FFFE0E1FFF10B50446AA
:1014B8000E4B18784FF47A73B3FBF0F30C4A1068AC
:1014C800B0FBF3F000F094FF68B90F2C01D90120AC
:1014D8000AE0002221464FF0FF3000F031FF054BB3
:1014E8001C60002000E0012010BD00BF00000020AB
:1014F800080000200400002008B5074A136843F0DC
:1015080010031360032000F009FF0320FFF7CEFF4C
:10151800FFF7B6FC002008BD00200240034A11680E
:10152800034B1B780B441360704700BF5800002022
:1015380000000020014B1868704700BF58000020C9
:1015480082B0084B1B68084AA2FB03235B0A00FB16
:1015580003F3019300BF019B5A1E0192002BF9D19E
:1015680002B0704708000020D34D6210002800F038
:10157800F18170B582B00446036813F0010F2CD0D6
:10158800994B5B6803F00C03042B1DD0964B5B68EA
:1015980003F00C03082B12D06368B3F5803F41D0E9
:1015A800002B55D103F1804303F504331A6822F464
:1015B80080321A601A6822F480221A6037E08A4B57
:1015C8005B6813F4803FE7D0874B1B6813F4003F38
:1015D80003D06368002B00F0BF81236813F0020F6B
:1015E80075D0814B5B6813F00C0F5FD07E4B5B6846
:1015F80003F00C03082B54D02369002B00F08A80D9
:101608007A4B01221A60FFF795FF0546764B1B6857
:1016180013F0020F75D1FFF78DFF401B0228F5D993
:1016280003209EE1704A136843F4803313606368B3
:1016380043B3FFF77FFF05466B4B1B6813F4003F6E
:10164800CBD1FFF777FF401B6428F5D9032088E149
:10165800B3F5A02F09D0644B1A6822F480321A60BF
:101668001A6822F480221A60E1E703F18043A3F5A7
:101678003C331A6842F480221A601A6842F48032B5
:101688001A60D4E7FFF756FF0546574B1B6813F45B
:10169800003FA2D0FFF74EFF401B6428F5D9032076
:1016A8005FE1514B5B6813F4803FA5D14E4B1B683B
:1016B80013F0020F03D02369012B40F04F814A4AEF
:1016C800136823F0F803616943EAC10313602368D0
:1016D80013F0080F33D0A369002B5CD0434B0122D1
:1016E800C3F88024FFF726FF05463F4B5B6A13F0DB
:1016F800020F21D1FFF71EFF401B0228F5D9032056
:101708002FE1394A136823F0F803616943EAC103FA
:101718001360DCE7354B00221A60FFF70BFF054624
:10172800314B1B6813F0020FD1D0FFF703FF401BAA
:101738000228F5D9032014E10120FFF701FF2368EF
:1017480013F0040F00F09680274BDB6913F0805FDD
:1017580034D1254BDA6942F08052DA61DB6903F053
:1017680080530193019B0125214B1B6813F4807F53
:1017780026D0E368012B3DD0002B53D103F18043E1
:1017880003F504331A6A22F001021A621A6A22F077
:1017980004021A6233E0154B0022C3F88024FFF7D5
:1017A800C9FE0546104B5B6A13F0020FC7D0FFF75E
:1017B800C1FE401B0228F5D90320D2E00025D3E75B
:1017C8000B4A136843F480731360FFF7B3FE0646B1
:1017D800074B1B6813F4807FCBD1FFF7ABFE801B50
:1017E8006428F5D90320BCE0001002400000424202
:1017F800007000405F4A136A43F001031362E36814
:1018080033B3FFF797FE06465A4B1B6A13F0020FD5
:101818002FD1FFF78FFE801B41F288339842F3D90E
:1018280003209EE0052B09D0524B1A6A22F00102D0
:101838001A621A6A22F004021A62E0E74D4B1A6A29
:1018480042F004021A621A6A42F001021A62D6E7EA
:10185800FFF770FE0646474B1B6A13F0020F08D0CD
:10186800FFF768FE801B41F288339842F3D90320C2
:1018780077E0E5B9E369002B72D03E4A526802F07E
:101888000C02082A56D0022B17D03B4B00221A66AE
:10189800FFF750FE0446374B1B6813F0007F47D014
:1018A800FFF748FE001B0228F5D9032059E0314A0A
:1018B800D36923F08053D361DCE72F4B00221A66EB
:1018C800FFF738FE05462B4B1B6813F0007F06D048
:1018D800FFF730FE401B0228F5D9032041E0236AB8
:1018E800B3F5803F1AD023494B6823F47413226A56
:1018F800606A024313434B601F4B01221A66FFF7CD
:1019080019FE04461B4B1B6813F0007F0ED1FFF72E
:1019180011FE001B0228F5D9032022E0154A53685E
:1019280023F40033A1680B435360DCE7002018E080
:10193800002016E0012B16D00E4B5B6803F48031B3
:10194800226A914211D103F47013626A93420ED154
:10195800002006E001207047012002E0012000E09D
:10196800002002B070BD0120FBE70120F9E701204B
:10197800F7E700BF001002400000424286B0174B54
:101988000FCB0DF1180C0CE90F0040F20123ADF854
:101998000430134B5B6803F00C02082A02D011488C
:1019A80006B07047C3F3834218326A4412F8100C29
:1019B80013F4803F0DD00A4B5B68C3F340431833E0
:1019C8006B4413F8143C074A02FB00F0B0FBF3F039
:1019D800E6E7054B03FB00F0E2E700BF704F0008A5
:1019E8000010024000127A0000093D00002800F0B3
:1019F800A08070B50D460446524B1B6803F00703E0
:101A08008B420BD24F4A136823F007030B43136032
:101A1800136803F007038B4240F08D80236813F0AE
:101A2800020F17D013F0040F04D0474A536843F449
:101A3800E0635360236813F0080F04D0424A5368E8
:101A480043F460535360404A536823F0F003A1689D
:101A58000B435360236813F0010F31D06368012BE7
:101A680020D0022B25D0384A126812F0020F64D019
:101A780035494A6822F0030213434B60FFF75AFDC9
:101A88000646314B5B6803F00C036268B3EB820FC8
:101A980016D0FFF74FFD801B41F288339842F0D9EA
:101AA800032045E0284A126812F4003FE0D10120E3
:101AB8003EE0254A126812F0007FD9D1012037E0B4
:101AC800204B1B6803F00703AB420AD91D4A136871
:101AD80023F007032B431360136803F00703AB429B
:101AE8002DD1236813F0040F06D0174A536823F446
:101AF800E063E1680B435360236813F0080F07D0D5
:101B0800114A536823F46053216943EAC1035360BF
:101B1800FFF734FF0C4B5B68C3F303130B4AD35C2A
:101B2800D8400B4B18600B4B1868FFF7BFFC002020
:101B380070BD012070470120FAE70120F8E7012075
:101B4800F6E700BF0020024000100240844F000862
:101B58000800002004000020014B1868704700BFEF
:101B68000800002008B5FFF7F7FF044B5B68C3F3D4
:101B78000223034AD35CD84008BD00BF00100240CE
:101B8800944F000870B582B00446036813F0010F43
:101B980036D03F4BDB6913F0805F49D13C4BDA69A3
:101BA80042F08052DA61DB6903F080530193019BB4
:101BB8000125384B1B6813F4807F3BD0344B1B6ADC
:101BC80013F4407313D0626802F440729A420ED044
:101BD8002F4A136A23F440702F490126C1F8406444
:101BE8000026C1F84064106213F0010F36D1284A6C
:101BF800136A23F4407361680B431362002D3ED1CE
:101C0800236813F0020F06D0214A536823F4404397
:101C1800A1680B435360236813F0100F34D01C4A9B
:101C2800536823F4800361690B43536000202CE060
:101C38000025BEE7174A136843F480731360FFF763
:101C480079FC0646134B1B6813F4807FB6D1FFF767
:101C580071FC801B6428F5D9032016E0FFF76AFCA5
:101C680006460B4B1B6A13F0020FC0D1FFF762FC4C
:101C7800801B41F288339842F3D9032005E0D369E9
:101C880023F08053D361BBE7002002B070BD00BFD2
:101C980000100240007000400000424270B582B05F
:101CA8000024A446B0E0874DAA4210D007D9864D3B
:101CB800AA420CD005F58035AA4208D013E0A5F554
:101CC8008015AA4203D005F57025AA4207D18A6873
:101CD800002A62D0012A5BD04361082403E0A5F5FD
:101CE8008015AA42F3D0BEF1FF0F58D80646BEF1C0
:101CF800FF0F56D84FEA8C0233680F25954023EA28
:101D0800050304FA02F2134333604B6813F0805F53
:101D180078D06E4B9A6942F001029A619B6903F090
:101D280001030193019B4FEA9C02951C684B53F8F1
:101D380025600CF003039D000F23AB4026EA030641
:101D4800644B984233D003F58063984200F0988042
:101D580003F58063984200F0958003F5806398420C
:101D680000F0928003F58063984200F08F8003F5BD
:101D78008063984219D006231AE0CC68B3E7CC6890
:101D88000434B0E7CC680834ADE7CC680C34AAE773
:101D980003610824A7E70024A5E70424A3E7061D98
:101DA800A5E7ACF108029200A6E7052300E00023AE
:101DB800AB4033430232464D45F822304B6813F4AA
:101DC800803F65D0444A136843EA0E0313604B68AA
:101DD80013F4003F62D0404A536843EA0E0353604D
:101DE8004B6813F4801F5FD03B4A936843EA0E03A5
:101DF80093604B6813F4001F5CD0374AD36843EAFA
:101E08000E03D3600CF1010C0A6832FA0CF357D0B8
:101E1800012303FA0CF302EA030E33EA0202F1D1BA
:101E28004A68122A3FF63FAF122A3FF65CAF01A577
:101E380055F822F0D71C0008831D00088D1D0008E6
:101E48009F1D0008EF1C0008EF1C0008EF1C00088D
:101E5800EF1C0008EF1C0008EF1C0008EF1C00082E
:101E6800EF1C0008EF1C0008EF1C0008EF1C00081E
:101E7800EF1C0008EF1C0008871D0008931D0008D0
:101E8800012395E7022393E7032391E704238FE7D0
:101E9800114A136823EA0E03136098E70E4A536841
:101EA80023EA0E0353609BE70B4A936823EA0E0369
:101EB80093609EE7084AD36823EA0E03D360A1E73C
:101EC80002B070BD00002210000031100010024066
:101ED80000000140000801400004014083681942E5
:101EE80001D001207047002070470AB10161704796
:101EF80009040161704730B40124056CAC40C56B1E
:101F08006C60046863604368102B05D003689960AF
:101F18000368DA6030BC704703689A600368D96068
:101F2800F8E7000000283AD010B4024600681D4BBC
:101F3800984229D81C4B03441C49A1FB03131B09D5
:101F48009B0013641A4BD363022382F82130016883
:101F580021F47F5121F03001536894682343D468F9
:101F68002343146923435469234394692343D4695D
:101F780023430B43036000209063012382F8213040
:101F880082F8200010BC70470A4B03440749A1FBA4
:101F980003131B099B001364074BD363D4E7012089
:101FA800704700BF07040240F8FFFDBFCDCCCCCC82
:101FB80000000240F8FBFDBF0004024038B50446AB
:101FC80090F82000012831D0012084F8200094F8EE
:101FD8002100012804D0002384F82030022038BDD5
:101FE800022084F821000020A0632568286820F0DA
:101FF800010028602046FFF77EFFE36A5BB1226894
:10200800136843F00E0313602268136843F001035A
:1020180013600020E3E72268136823F004031360C9
:102028002268136843F00A031360EDE70220D6E73D
:1020380038B5C36B1A6804682568016C04238B40A3
:10204800134200F09B8015F0040F00F0978023687E
:1020580013F0200F03D1236823F0040323600368DF
:102068009A4A934246D9783A934224D014329342FA
:1020780028D01432934227D01432934227D01432F6
:10208800934227D01432934227D01432934227D058
:1020980002F56272934226D01432934225D014324C
:1020A800934224D01432934202D04FF4802203E0AA
:1020B8004FF4804200E00422854B5A60C36A03B1A2
:1020C800984738BD4022F7E74FF48062F4E74FF4B1
:1020D8008042F1E74FF48022EEE74FF48002EBE70D
:1020E8004FF08062E8E70422E6E74022E4E74FF495
:1020F8008062E1E7774A934224D01432934225D094
:102108001432934224D01432934224D0143293428E
:1021180024D01432934224D01432934224D002F5AE
:102128006272934223D01432934222D014329342E3
:1021380021D01432934202D04FF4802203E04FF4AE
:10214800804200E00422644B5A60B7E74022FAE775
:102158004FF48062F7E74FF48042F4E74FF48022AF
:10216800F1E74FF48002EEE74FF08062EBE70422DC
:10217800E9E74022E7E74FF48062E4E702238B4077
:10218800134200F0AB8015F0020F00F0A78023681F
:1021980013F0200F06D1236823F00A0323600123DC
:1021A80080F821300368494A93424BD9783A9342E0
:1021B80024D0143293422DD0143293422CD01432AE
:1021C80093422CD0143293422CD0143293422CD008
:1021D800143293422CD002F5627293422BD01432FF
:1021E80093422AD01432934229D01432934202D017
:1021F8004FF4003203E04FF4005200E00222344B67
:102208005A60002380F82030836A002B3FF459AFCE
:10221800984756E72022F2E74FF40072EFE74FF4B1
:102228000052ECE74FF40032E9E74FF40012E6E71A
:102238004FF00072E3E70222E1E72022DFE74FF4E4
:102248000072DCE7234A934224D01432934225D00B
:102258001432934224D01432934224D0143293423D
:1022680024D01432934224D01432934224D002F55D
:102278006272934223D01432934222D01432934292
:1022880021D01432934202D04FF4003203E04FF4CD
:10229800005200E00222104B5A60B2E72022FAE70F
:1022A8004FF40072F7E74FF40052F4E74FF40032AE
:1022B800F1E74FF40012EEE74FF00072EBE702226D
:1022C800E9E72022E7E74FF40072E4E780000240E4
:1022D800000402400800024000000240082303FAFC
:1022E80001F111423FF4EDAE15F0080F3FF4E9AEED
:1022F800236823F00E032360026CC16B012303FAE9
:1023080002F24A60836380F82130002380F820308D
:10231800036B002B3FF4D5AE9847D2E6074AD36843
:1023280023F4E0631B041B0C000200F4E060034389
:1023380043F0BF6343F40033D360704700ED00E01F
:1023480000B5194BDB68C3F30223C3F1070CBCF1DA
:10235800040F28BF4FF0040C03F1040EBEF1060F62
:1023680018D9033B4FF0FF3E0EFA0CFC21EA0C0192
:1023780099400EFA03F322EA0303194300280BDB02
:102388000901C9B200F1604000F5614080F800130E
:102398005DF804FB0023E5E700F00F000901C9B26E
:1023A800024B1954F4E700BF00ED00E014ED00E023
:1023B800002807DB00F01F02400901239340024A6E
:1023C80042F82030704700BF00E100E000280CDB35
:1023D80000F01F024009012393402030034A42F8CD
:1023E8002030BFF34F8FBFF36F8F704700E100E0DD
:1023F8000138B0F1807F0BD24FF0E0235861054AD5
:10240800F02182F823100020986107221A61704792
:102418000120704700ED00E0042806D04FF0E022CC
:10242800136923F00403136170474FF0E022136926
:1024380043F004031361704703685A6912F4806F0C
:1024480001D1002070476FF480625A610023036352
:10245800202280F83D2080F83E30026C42F00402D1
:10246800026480F83C30012070472DE9F0410746AE
:102478000D4690461E4624E0FFF75CF8069BC01AFE
:10248800B04200D8EEB900233B63202287F83D20F4
:1024980087F83E303A6C42F020023A6487F83C30C4
:1024A80001201EE03B689C6925EA040C1FFA8CFC9D
:1024B800BCFA8CFC4FEA5C1CE04511D1B6F1FF3F39
:1024C800DAD1C5F30743012BECD13B685B6925EAF8
:1024D800030C1FFA8CFCBCFA8CFC4FEA5C1CEBE783
:1024E8000020BDE8F0812DE9F04105460E4617466B
:1024F80098463DE01A6842F400721A602B686FF43F
:1025080080625A6100232B63202285F83D2085F8DC
:102518003E302A6C42F004022A6485F83C300120DF
:1025280034E0FFF707F8A0EB0800B84200D8FFB97D
:1025380000232B63202285F83D2085F83E302A6C45
:1025480042F020022A6485F83C3001201EE02B6806
:102558009C6926EA0404A4B2003C18BF0124A4B173
:102568002B685A6912F4806FC4D1B7F1FF3FD8D1F4
:10257800C6F30743012BEAD12B685C6926EA0404F9
:10258800A4B2003C18BF0124E9E70020BDE8F081AF
:1025980070B504460D46164623685B6913F0800F34
:1025A8001CD12046FFF748FFD0B9B5F1FF3FF3D063
:1025B800FEF7C0FF801BA84201D8002DECD10023F4
:1025C8002363202284F83D2084F83E30226C42F0B8
:1025D8002002226484F83C30012000E0002070BD15
:1025E8000120FCE72DE9F04385B004460D469146ED
:1025F8001F46DDF830800D9E0368196841F480712C
:1026080019600096434600224FF00111FFF72DFF95
:1026180060B9236805F0FE051D6133464246264928
:102628002046FFF760FF68B1012008E023681B68B7
:1026380013F4807F02D04FF400732364032005B0A5
:10264800BDE8F0830023039323685A6903929B69CA
:102658000393039B324641462046FFF799FF30B962
:10266800012F0FD123685FFA89F61E61E7E7236C13
:10267800042B01D00120E2E72268136843F40073B9
:102688001360F7E723684FEA19221A613246414678
:102698002046FFF77DFF20B923685FFA89F61E619F
:1026A800CDE7236C042B01D00120C8E7226813680A
:1026B80043F400731360F7E7020001002DE9F047C7
:1026C80084B004460D46164699460C9FDDF83480C2
:1026D8000268136843F4806313600368196841F45F
:1026E80080711960CDF800803B4600224FF001113F
:1026F800FFF7BBFE70B95FFA85FA236805F0FE059F
:102708001D6143463A4641492046FFF7ECFE68B151
:10271800012008E023681B6813F4807F02D04FF47F
:1027280000732364032004B0BDE8F08700230393FB
:1027380023685A6903929B690393039B424639466F
:102748002046FFF725FF80B9B9F1010F18D123689A
:10275800F6B21E61424639462046FFF719FF68B3B4
:10276800236C042B24D00120DDE7236C042B01D03B
:102778000120D8E72268136843F400731360F7E771
:102788002368320A1A61424639462046FFF700FF9D
:1027980018B92368F6B21E61DCE7236C042B01D05C
:1027A8000120C0E72268136843F400731360F7E759
:1027B8002268136843F400731360D4E7226813682F
:1027C80043F480731360CDF800803B4600224FF03D
:1027D80001112046FFF749FE68B922684AF0010353
:1027E800136143463A4609492046FFF77CFE002814
:1027F80099D0012097E723681B6813F4807F02D0E3
:102808004FF40073236403208DE700BF020001002A
:1028180070B504460D46164623685B6913F0040F2D
:102828001CD12046FFF708FED0B9B5F1FF3FF3D021
:10283800FEF780FE801BA84201D8002DECD10023B2
:102848002363202284F83D2084F83E30226C42F035
:102858002002226484F83C30012000E0002070BD92
:102868000120FCE770B505460C4616462B685969E9
:1028780011F0400F29D1596911F0100F15D1FEF749
:1028880059FE801BA04201D8002CEFD100232B63F6
:10289800202285F83D2085F83E302A6C42F020023F
:1028A8002A6485F83C30012070BD6FF010025A612F
:1028B80000232B63202285F83D2085F83E302A6CC2
:1028C8002A6485F83C300120EEE70020ECE70000A0
:1028D800002800F0CC8070B5044690F83D30002BFD
:1028E80077D0242384F83D302268136823F001034D
:1028F80013602268136843F4004313602268136866
:1029080023F400431360FFF72DF962685A4B9A428B
:1029180064D85A4B98428CBF00230123002B40F007
:10292800A8805749A1FB00318B0C25686A6822F002
:102938003F0242EA91426A6021680A6A22F03F0235
:1029480066684D4DAE424FD8013313430B62216880
:10295800CA6922F44F4222F0FF026668464B9E4243
:102968004CD8431E7600B3FBF6F3013340F6FC70F7
:10297800034278D0C3F30B031343CB6121680B6880
:1029880023F0C003E269206A024313430B60216805
:102998008B6823F4034323F0FF032269E0680243B2
:1029A80013438B602168CB6823F0FF036269A06939
:1029B80002431343CB602268136843F0010313609A
:1029C80000202064202384F83D30206384F83E00F2
:1029D80070BD80F83C3000F035FF82E7294B984203
:1029E8008CBF0023012399E74FF4967505FB03F389
:1029F800254DA5FB03539B090133A6E7A368BBB983
:102A0800451E06EB460CB5FBFCF50135C5F30B0579
:102A1800B5FA85F56D0945BBC3B9013806EB460320
:102A2800B0FBF3F30133C3F30B0343F40043A3E711
:102A3800451E06EB860C0CEB8C0CB5FBFCF5013542
:102A4800C5F30B05B5FA85F56D09E4E7013806EB22
:102A5800860303EB8303B0FBF3F30133C3F30B03E8
:102A680043F4404388E7042386E7012384E70120F1
:102A780070470120ACE700BFA08601007F841E00DC
:102A880083DE1B43FF083D00D34D62102DE9F04360
:102A980083B004460F46904699460C9EFEF74AFDC1
:102AA800054694F83D00C0B2202803D0022003B0A8
:102AB800BDE8F0830095192301224B492046FFF712
:102AC800D4FC002840F0898094F83C30012B00F0B9
:102AD8008680012384F83C3023681A6812F0010FBD
:102AE80003D11A6842F001021A602268136823F4BD
:102AF80000631360212384F83D30402384F83E307E
:102B0800002323640A9B6362BDF82C306385638DC0
:102B18002385364BE362019500964B46424639467B
:102B28002046FFF75FFD00285BD1238D002B35D0B1
:102B38002A4631462046FFF72BFD20BB626A2368F0
:102B480012781A61626A531C6362218D013989B255
:102B58002185638D9BB2013B9BB2638523685869CD
:102B680010F0040FE1D00029DFD052781A61636AAF
:102B780001336362238D013B2385638D9BB2013B47
:102B88009BB26385D1E7236C042B01D001208EE72B
:102B98002268136843F400731360F7E72A46314646
:102BA8002046FFF735FE50B1236C042B01D00120DD
:102BB8007DE72268136843F400731360F7E722681F
:102BC800136843F400731360202384F83D30002316
:102BD80084F83E3084F83C3069E7022067E7022039
:102BE80065E7012063E700BF020010000000FFFF57
:102BF8002DE9F04389B004460F4690469946129E47
:102C080000230793FEF796FC054694F83D00C0B2F2
:102C1800202804D00227384609B0BDE8F083009583
:102C28001923012281492046FFF71FFC002840F0A4
:102C3800728194F83C30012B00F06F81012384F8F5
:102C48003C3023681A6812F0010F03D11A6842F069
:102C580001021A602268136823F4006313602223B8
:102C680084F83D30402384F83E3000232364109BD1
:102C78006362BDF844306385638D23856C4BE362E2
:102C8800019500964B46424639462046FFF716FD09
:102C98000746002840F04381238D5BB903932368DE
:102CA8005A6903929A690392039A1A6842F4007265
:102CB8001A60EDE0012B0FD0022B21D02268136897
:102CC80043F4806313600023069323685A690692CD
:102CD8009B690693069BDBE02268136823F48063F4
:102CE800136072B60023049323685A6904929A69A0
:102CF8000492049A1A6842F400721A6062B6C7E035
:102D08002268136843F40063136072B600230593C6
:102D180023685A6905929A690592059A1A6822F4F5
:102D280080621A6062B6B3E02A4631462046FFF751
:102D380099FD002840F0F58023681A69636A1A70C3
:102D4800636A01336362238D013B2385638D9BB2E4
:102D5800013B9BB263859BE00095334600223549D1
:102D68002046FFF782FB002840F0DF8022681368C6
:102D780023F48063136072B623681A69636A1A7051
:102D8800636A01336362238D013B2385638D9BB2A4
:102D9800013B9BB26385284B1B68DB08274AA2FBD3
:102DA80003231B0A03EB8303C3EBC3030793079BAC
:102DB800013B0793079B002B28D023685A6912F020
:102DC800040FF4D01A6842F400721A6023681A6972
:102DD800636A1A70636A01336362238D013B23853A
:102DE800638D9BB2013B9BB2638562B623681A6907
:102DF800636A1A70636A01336362238D013B23851A
:102E0800638D9BB2013B9BB2638541E02363202223
:102E180084F83D2084F83E30226C42F0200222647F
:102E280062B684F83C300127F5E600BF02001000C6
:102E38000000FFFF040001000800002089B5F81415
:102E48002A4631462046FFF70DFD00286FD123683A
:102E58001A69636A1A70626A531C6362238D013BA4
:102E68002385638D9BB2013B9BB2638523685969B7
:102E780011F0040F0CD01B695370636A013363624D
:102E8800238D013B2385638D9BB2013B9BB26385F8
:102E9800238D002B36D0032BD2D8012B3FF444AF1F
:102EA800022B7FF459AF0095334600222149204672
:102EB800FFF7DBFA002836D172B62268136843F4AC
:102EC8000073136023681A69636A1A70636A0133AE
:102ED8006362238D013B2385638D9BB2013B9BB2CB
:102EE800638562B623681A69636A1A70636A013374
:102EF8006362238D013B2385638D9BB2013B9BB2AB
:102F08006385C5E7202384F83D30002384F83E30EC
:102F180084F83C307FE602277DE602277BE601271E
:102F280079E6012777E6012775E6012773E6012789
:102F380071E600BF040001002DE9F04385B00446A6
:102F4800884691461D46FEF7F5FA94F83D30DBB207
:102F5800202B03D0022005B0BDE8F0830646009080
:102F68001923012258492046FFF77FFA002840F02C
:102F7800A28094F83C30012B00F09F80012384F854
:102F88003C3023681A6812F0010F03D11A6842F026
:102F980001021A602268136823F400631360242373
:102FA80084F83D3000232364A3F58033E3620127CE
:102FB80040E023681B6813F4807F02D04FF400734D
:102FC80023640320C7E7A02384F83D3022685369AF
:102FD800C3F340035269C2F3802294F83DC05FFAFC
:102FE8008CFCBCF1A00F09D043B93AB9FEF7A2FA9C
:102FF800801BA842E7D8002DE8D1E4E7202384F815
:103008003D3023685A6912F0020F31D11A6842F430
:1030180000721A6023686FF480625A61009619235F
:10302800012229492046FFF720FA002849D1013713
:103038004F4538D22268136843F4807313600096B2
:103048002B4600224FF001112046FFF70EFA002808
:10305800AFD1236808F0FE021A61FEF76BFA064644
:1030680022685369C3F340035269C2F38022B4E76C
:103078001A6842F400721A600023039323685A699D
:1030880003929B690393039B0096192301220E491F
:103098002046FFF7EAF990B9202384F83D30002351
:1030A80084F83C3057E7202384F83D30002384F827
:1030B8003C3001204FE702204DE702204BE701207A
:1030C80049E7012047E700BF0200100090F83D00E3
:1030D800704700002DE9F04782B00546884617463C
:1030E8001E46FEF727FA0A9B1B1A03EB0609FEF792
:1030F80021FA82462B4B1B68C3F3CB3309FB03F33E
:1031080001932B689C6838EA04030CBF4FF0010C4C
:103118004FF0000CBC4540D0B6F1FF3FF1D0FEF7B0
:1031280009FAA0EB0A0048450AD2B9F1000F07D006
:10313800019A02B14A46019B013B01939146E0E79F
:103148002A68536823F0E00353606B68B3F5827F05
:103158000BD0AB6AB3F5005F14D0012385F851306A
:10316800002385F85030032018E0AB68B3F5004F12
:1031780002D0B3F5806FECD12A68136823F04003BE
:103188001360E6E72A68136823F4005313602A687B
:10319800136843F400531360DFE7002002B0BDE872
:1031A800F08700BF0800002010B582B004460B4627
:1031B800009200228021FFF78DFF08B902B010BDF0
:1031C800636D43F0200363650320F7E7002856D0BA
:1031D80010B50446436A33B94368B3F5827F05D016
:1031E8000023C36102E00023036143610023A3625B
:1031F80094F85130002B3CD0022384F851302268D7
:10320800136823F040031360636803F48273A268B1
:1032180002F404421343E26802F400621343226991
:1032280002F002021343626902F001021343A26929
:1032380002F400721343E26902F038021343226A6F
:1032480002F080021343A26A02F400522168134379
:103258000B60638B226803F0040353602268D36910
:1032680023F40063D36100206065012384F85130A2
:1032780010BD84F85030204600F076FBBCE70120F2
:1032880070472DE9F04383B01F460A9D90F85030EF
:10329800012B00F01081044688469146012380F8EE
:1032A8005030FEF747F9064694F85130DBB26268B1
:1032B800012B0AD0B2F5827F40F0E380A268002A91
:1032C80040F0E980042B40F0E880B8F1000F00F0EE
:1032D800E680B9F1000F00F0E480002F00F0E380F1
:1032E80094F85130DBB2042B02D0052384F8513016
:1032F80000236365C4F83890E787A787C4F830804F
:10330800E786A7862364636423681A6812F0400F6F
:1033180003D11A6842F040021A60E368B3F5006FFF
:1033280011D063680BB1012F0BD1226B236812787F
:103338001A73236B01332363E38E9BB2013B9BB269
:10334800E38601276BE063680BB1012F0BD1226B79
:1033580023681288DA60236B02332363E38E9BB2FF
:10336800013B9BB2E38601271CE023689A6812F0B0
:10337800010F0ED0E28F92B25AB1DA68A36B1A80AD
:10338800A36B0233A363E38F9BB2013B9BB2E3873A
:103398000127FEF7CFF8801BA84203D3B5F1FF3F02
:1033A80040F08380E38E9BB21BB9E38F9BB2002B66
:1033B80053D023689A6812F0020FD6D0E28E92B2E8
:1033C800002AD2D0002FD0D0226B1288DA60236B6B
:1033D80002332363E38E9BB2013B9BB2E386002753
:1033E800C3E723689A6812F0010F0ED0E28F92B2F9
:1033F8005AB1DA68A36B1A70A36B0133A363E38F26
:103408009BB2013B9BB2E3870127FEF793F8831B2E
:10341800AB4202D3B5F1FF3F49D1002D49D0E38E2D
:103428009BB213B9E38F9BB2BBB123689A6812F0C1
:10343800020FD6D0E28E92B2002AD2D0002FD0D07E
:10344800226B12781A73236B01332363E38E9BB2CA
:10345800013B9BB2E3860027C3E732462946204654
:10346800FFF7A2FE48B9A36863B901932368DA6835
:1034780001929B680193019B04E02023636501206E
:1034880000E00220012384F85130002384F85030F2
:1034980003B0BDE8F0830220F4E70220F2E7012040
:1034A800F0E70120EEE70120ECE70320EAE703203C
:1034B800E8E70320E6E70220EAE770472DE9F0474E
:1034C8008AB000240694079408940994444B9A6996
:1034D80042F040029A619A6902F040020192019A10
:1034E8009A6942F010029A619A6902F010020292F7
:1034F800029A9A6942F004029A619A6902F00402F7
:103508000392039A9A6942F008029A619A6902F052
:1035180008020492049A9A6942F020029A619B690F
:1035280003F020030593059BDFF8B8A022467F210E
:103538005046FEF7DAFCDFF8B09022464FF4995176
:103548004846FEF7D2FCDFF8A480224640F2FF315D
:103558004046FEF7CAFC264F22464FF484513846AF
:10356800FEF7C3FC7F2306930126079608940225DD
:10357800099506A95046FEF791FB4FF49953069317
:1035880007960894099506A94846FEF787FB40F276
:10359800FF33069307960894099506A94046FEF757
:1035A8007DFB4FF48453069307960894099506A962
:1035B8003846FEF773FB4FF480530693079408943C
:1035C80006A90C48FEF76AFB4FF44063069307947C
:1035D800089406A93846FEF761FB0AB0BDE8F087F3
:1035E8000010024000180140000C01400014014086
:1035F800001001400008014010B584B00023019379
:10360800029303934448454A02604FF480728260F3
:103618000122027303754FF46022C26143600823DC
:103628000361FDF7AFFE00285AD10D230193012352
:1036380002930323039301A93748FDF785FC00286B
:1036480051D1002301930223029301A93248FDF7C7
:103658007BFC00284AD1012301930323029301A98B
:103668002D48FDF771FC002843D102230193042360
:1036780002930DEB03012848FDF766FC00283BD1B7
:10368800032301930523029301A92348FDF75CFC5A
:10369800002834D10E2301930623029301A91E4862
:1036A800FDF752FC70BB0F2301930723029301A976
:1036B8001948FDF749FC40BB0923019308230293ED
:1036C80001A91548FDF740FC10BB134C082214490A
:1036D8002046FDF793FD2046FDF71CFD04B010BD04
:1036E800FDF758FBA1E7FDF755FBAAE7FDF752FBED
:1036F800B1E7FDF74FFBB8E7FDF74CFBC0E7FDF777
:1037080049FBC7E7FDF746FBCDE7FDF743FBD3E7EA
:10371800FDF740FBD9E700BF7000002000240140FE
:103728005C00002030B589B000230493059306930C
:10373800079302682E4B9A4201D009B030BD044667
:1037480003F56C439A6942F400729A619A6902F42B
:1037580000720092009A9A6942F010029A619A697E
:1037680002F010020192019A9A6942F004029A61E9
:103778009A6902F004020292029A9A6942F00802D7
:103788009A619B6903F008030393039B382304930E
:103798000325059504A91748FEF780FA0F2304931B
:1037A800059504A91448FEF779FA022304930595B0
:1037B80004A91248FEF772FA1148124B036000235D
:1037C800436083608022C2604FF4807202614FF4CC
:1037D8008062426120228261C361FEF7A3FB18B9AF
:1037E800074B23625C62A8E7FDF7D4FAF8E700BF4D
:1037F800002401400010014000080140000C014075
:10380800A00000200800024008B50B480B4B0360DD
:103818000B4B436000238360C3604FF48042026116
:1038280043618361C3610362FFF752F800B908BDC1
:10383800FDF7B0FAFBE700BFE400002000540040A9
:10384800A086010010B586B0002302930393049369
:1038580005930268114B9A4201D006B010BD104C76
:10386800A36943F00803A361A36903F00803009365
:10387800009BC0230293122303930323059302A9F9
:103888000848FEF70BFAE36943F40013E361E369C0
:1038980003F400130193019BDFE700BF00540040CD
:1038A80000100240000C014010B586B00A46002303
:1038B8008DF8143003788DF81430642302930123B3
:1038C800019305A90091A0210C48FFF7DFF80446F1
:1038D8000A48FFF7FBFB2028FAD14FF496731A46E3
:1038E800A0210648FFF728FB0328F6D00348FFF776
:1038F800EDFB2028FAD1204606B010BDE4000020D8
:1039080000B585B04FF47A730293019200900123B9
:103918000A46A0210248FFF76BF905B05DF804FBE1
:10392800E400002008B50E480E4B03604FF4827384
:10393800436000238360C360022202610122426166
:103948004FF400728261C3610362436283620A2397
:10395800C362FFF73BFC00B908BDFDF71BFAFBE7A4
:10396800380100200038004010B586B000230293CB
:103978000393049305930268174B9A4201D006B04B
:1039880010BD03F5EC33DA6942F48042DA61DA6992
:1039980002F480420092009A9A6942F008029A6101
:1039A8009B6903F008030193019B4FF420430293A2
:1039B8000223039303230593084C02A92046FEF72C
:1039C8006DF94FF48043029300230393049302A9F3
:1039D8002046FEF763F9D2E700380040000C0140AA
:1039E800014B33F810007047A00100202DE9F04189
:1039F8000746002501E0A54224D04FEA471842F2C5
:103A0800086606EB4716304600F0ECF884B224024C
:103A1800A4B208F51C5808F10808404600F0E2F87E
:103A280080B20444A4B2002CE5D0304600F0DAF8A5
:103A380085B22D02ADB2404600F0D4F880B20544FC
:103A4800ADB2D8E72846BDE8F08102B970472DE944
:103A5800F8430D4616464FEA401842F2084707EB6E
:103A68004017384600F0BEF80402A4B208F514590D
:103A780009F10809484600F0B5F880B20444A4B238
:103A880008EB042032462946103000F0CFF83119EF
:103A98008CB2C1F30721384600F07EF8E1B24846FF
:103AA80000F07AF8BDE8F8832DE9F04781468846AA
:103AB80000263746344608E01C4B33F814301F44C0
:103AC8001B4B33F814301E440134072C2BDC6501E2
:103AD80019F8041041F6087000EB441000F05CF887
:103AE80008EB040A18F8041005F5F050083000F047
:103AF80053F800230D4A22F814300D4A22F81430E6
:103B0800B7F5804F05DC19F804309B02074A22F804
:103B18001430B6F5804FCFDC9AF800309B02044A87
:103B280022F81430C8E7BDE8F08700BFA0010020E4
:103B38009001002000B585B000238DF80F308DF876
:103B48000E308DF80F006423009301230DF10E024F
:103B58000DF10F010348FFF794FB9DF80E0005B027
:103B68005DF804FB3801002010B50A4C00224FF420
:103B780000712046FEF7B9F9322001F087F90122D9
:103B88004FF400712046FEF7B0F9642001F07EF989
:103B980010BD00BF0014014070B504460D46104E1C
:103BA80000224FF480513046FEF79FF9C4F30740D6
:103BB800FFF7C0FFC4F30720FFF7BCFF04F0F804C9
:103BC800201D00F0FC00FFF7B5FF2846FFF7B2FF05
:103BD80001224FF480513046FEF787F970BD00BFCF
:103BE800000C014038B504460F4D00224FF48051B7
:103BF8002846FEF77AF9C4F30740FFF79BFFC4F3A2
:103C08000720FFF797FF04F0F800FFF793FF002065
:103C1800FFF790FF044601224FF480512846FEF733
:103C280064F9204638BD00BF000C014070B5044659
:103C38000E46154600224FF480511148FEF755F9FB
:103C4800C4F30740FFF776FFC4F30720FFF772FFBE
:103C580004F0F800043000F0FC00FFF76BFF0024CC
:103C680004E0305DFFF766FF0134A4B2AC42F8D33C
:103C780001224FF480510248FEF737F9284670BDFB
:103C8800000C014070B504460E46154600224FF45C
:103C980080511048FEF729F9C4F30740FFF74AFF9F
:103CA800C4F30720FFF746FF04F0F800FFF742FFD0
:103CB800002405E00020FFF73DFF30550134A4B291
:103CC800AC42F7D301224FF480510248FEF70DF9B8
:103CD800284670BD000C014008B5FFF745FF0622D5
:103CE8000B494FF41060FFF7A1FF042209494FF474
:103CF800A060FFF79BFF042207494FF48070FFF78D
:103D080095FF042205494FF47060FFF78FFF08BD47
:103D180028000020380000201C000020200000207F
:103D28002DE9F0410E461746984601F00F035A1E3A
:103D3800012A07D9032B05D0042B03D0052B01D06A
:103D480000202BE0450105F5847410212046FFF77B
:103D580023FF2046FFF746FF0028FAD1FF2105F58B
:103D68000270FFF719FF46EA080105F10800FFF79E
:103D780013FFAFB1390A05F58160FFF70DFFF9B2FE
:103D880005F5A160FFF708FF01212046FFF704FFB2
:103D98002046FFF727FF0028FAD10120BDE8F0816F
:103DA800074E3188013189B23180090A05F58160F1
:103DB800FFF7F2FE317805F5A160FFF7EDFEE3E7C6
:103DC800240000202DE9F8430746894615461C467D
:103DD800BDF82080FFF704FEA8420ED3217831B940
:103DE800637823B9A37813B9E378002B57D0B8F1D7
:103DF800000F07D14046BDE8F8833846FFF7F0FDCD
:103E08000546EBE77E0106F60840FFF7C5FE617838
:103E180006F60850FFF7C0FEA17806F60860FFF71F
:103E2800BBFEE17806F60870FFF7B6FEC8F3072177
:103E380006F580500830FFF7AFFE5FFA88F106F507
:103E480088500830FFF7A8FE2A4649463846FFF74B
:103E5800FCFD06F5847420212046FFF79DFE2046D0
:103E6800FFF7C0FE0028FAD106F502742046FFF7D6
:103E7800B9FE10F0100F0CD12046FFF7B3FE10F07A
:103E8800080FF1D018212046FFF786FE4FF00008F2
:103E9800B0E710212046FFF77FFEA846AAE74FF0BB
:103EA8000008A7E72DE9F04782B005460F461E46F1
:103EB800384803C802AB03E9030090461AB94046E4
:103EC80002B0BDE8F0876C0142F6080A0AEB451A11
:103ED8005046FFF787FE0502ADB204F5245909F1F3
:103EE80008094846FFF77EFE80B20544ADB204EBF0
:103EF800052808F1180804F10800FFF773FE00F020
:103F0800070002280DD04FF0000804F58474402102
:103F18002046FFF741FE2046FFF764FE0028FAD14D
:103F2800CDE7082269464046FFF7ACFE0835ADB23A
:103F38009DF8003033709DF8013073709DF80230A1
:103F4800B3709DF80330F3709DF804200A9B1A8023
:103F58009DF8053003EB02230A9A13809DF806307A
:103F68009DF8078008EB03281FFA88F804EB052062
:103F7800424639461830FFF785FE05EB08018DB239
:103F8800C1F307215046FFF707FEE9B24846FFF79D
:103F980003FEBAE7684F000800B583B00A4B5A69B8
:103FA80042F001025A615B6903F001030193019B2E
:103FB800002211460B20FEF7C3F90B20FEF7F8F993
:103FC80003B05DF804FB00BF0010024000000000D1
:103FD8002DE9F8430D461446B42840F2BE80B438A3
:103FE800FCF7EEFD0646C82D40F2B980A5F1B400F5
:103FF800FCF7E6FD0546B42C40F2B380A4F1B4000A
:10400800FCF7DEFD0446AE493046FCF799FE002871
:1040180000F0A9803046FCF767FA06460F469EA3D3
:10402800D3E90023FCF7B8FA02460B463046394676
:10403800FCF7B2FA8046894699A3D3E900233046B3
:104048003946FCF7A9FA02460B4640464946FCF7B2
:10405800EDF806460F46DFF86C82B8F83800FCF732
:1040680031FA32463B46FCF797FA0022964BFCF7AA
:10407800BDFBFCF7CBFCA8F8080091492846FCF7E3
:104088005FFE002800F0A3802846FCF72DFA0646BC
:104098000F4681A3D3E90023FCF77EFA02460B46BC
:1040A80030463946FCF778FA804689467CA3D3E93E
:1040B800002330463946FCF76FFA02460B46404665
:1040C8004946FCF7B3F806460F467E4DA88FFCF725
:1040D800F9F932463B46FCF75FFA00227A4BFCF7C7
:1040E80085FBFCF793FC688175492046FCF728FEA0
:1040F800002800F09D802046FCF7F6F904460D469E
:1041080069A3D3E90023FCF747FA02460B46204689
:104118002946FCF741FA06460F4661A3D3E9002376
:1041280020462946FCF738FA02460B4630463946FF
:10413800FCF77CF804460D46624E708FFCF7C2F916
:1041480022462B46FCF728FA00225F4BFCF74EFB71
:10415800FCF734FCF080BDE8F883002643E700252F
:1041680049E700244FE73046FCF7BEF906460F46FC
:104178004DA3D3E90023FCF70FFA02460B4630465D
:104188003946FCF709FA8046894649A3D3E9002352
:1041980030463946FCF700FA02460B464046494687
:1041A800FCF744F806460F46DFF81881B8F83800DF
:1041B800FCF788F932463B46FCF7EEF90022424B01
:1041C800FCF714FBFCF722FCA8F8080055E7284682
:1041D800FCF78AF906460F4633A3D3E90023FCF718
:1041E800DBF902460B4630463946FCF7D5F98046DE
:1041F80089462FA3D3E9002330463946FCF7CCF98A
:1042080002460B4640464946FCF710F806460F465C
:104218002C4DA88FFCF756F932463B46FCF7BCF903
:104228000022294BFCF7E2FAFCF7F0FB68815BE718
:104238002046FCF759F904460D461FA3D3E900238D
:10424800FCF7AAF902460B4620462946FCF7A4F9D2
:1042580006460F4616A3D3E9002320462946FCF755
:104268009BF902460B4630463946FBF7DFFF04460A
:104278000D46144E708FFCF725F922462B46FCF7A5
:104288008BF90022104BFCF7B1FAFCF797FBF08092
:1042980061E700BFAFF30080613255302AA9333F90
:1042A80021B0726891EDBC3F0FD6FF39CC97373FEC
:1042B800894160E5D022AB3FBC79AA436E863B3F7B
:1042C80000007A44B001002000408F400000000048
:1042D80038B5002301E00133DBB2062B0CD8264A9F
:1042E80032F813105A1C254830F812209142F2D2A5
:1042F800214921F81320EEE7214A138801339BB2A4
:104308001380B3F5006F00D038BD002414801A4B19
:104318009A8959891889FFF75BFE1AE0164B33F81A
:104328001400FCF7CFF812A3D3E90023FCF734F903
:104338000022144BFCF730F90022134BFCF72CF940
:10434800231D124D05EB4305FCF760FBA8800134E3
:10435800E4B2032CE2D9002305E0074A002122F841
:1043680013100133DBB2062BF7D9CDE7AFF300808A
:104378006666666666660A40180200205C000020D1
:10438800260200200000303F00005440B001002009
:1043980070B5514B1A89DB8F9A4212D94F4A13884C
:1043A80001339BB2138048F6B702934211D94B4BA5
:1043B80048F6B8021A80484A938843F00803938065
:1043C80007E0464B00221A80434A938823F00803EB
:1043D80093800026344601E00134E4B2082C11D859
:1043E8003046FCF7EDFB231D3B4A02EB83035D6877
:1043F8002946FCF787FC0028EED02846FCF7AAFCE3
:1044080086B2E9E7344BB3F84030B34218D2334AA6
:10441800538801339BB2538048F6B702934202D8BF
:10442800002003461AE02D4B48F6B8025A800420B3
:1044380000F07AFA284A938843F001039380EFE763
:10444800042000F0A1FA254B00225A80224A9388C2
:1044580023F001039380E3E70133DBB2032B08D891
:104468001A1D1D4901EB420292888242F4D9104676
:10447800F2E7194BB3F8423083421CD2174A9388AB
:1044880001339BB2938048F6B702934206D8124B89
:104498009B88E3B1104B01225A8070BD0F4B48F640
:1044A800B8029A80022000F03FFA0B4A938843F042
:1044B80020039380EBE7022000F066FA074B002206
:1044C8009A80054A938823F020039380DFE7024B04
:1044D80000225A80E1E700BFB0010020F40100206B
:1044E800124A138801339BB21380B3F57A7F1CD329
:1044F800002313800E4A13800D4B1888082813D800
:1045080070B5C0B200F0DAF9094E3488231D094DA0
:1045180005EB8305FCF754FB686001343480044BD9
:1045280018880828EDD970BD70477047120200201E
:1045380014020020B001002010B54FF400610D48AE
:10454800FDF7CCFC98B900244FF480610948FDF7C9
:10455800C5FC08B10234A4B24FF480510648FDF7F7
:10456800BDFC08B10434A4B2601C80B210BD0124A3
:10457800EAE700BF0010014000080140044B1B7827
:1045880003F11001034A51716433034AD370704731
:10459800B0010020280000202000002008B52320BA
:1045A80000F04AFCFFF7C8FF074B188000F030FA0C
:1045B800FFF7E4FFFFF790FB04490548FFF774FA9B
:1045C800062000F0B1F908BDB00100200C00002061
:1045D8001400002030B585B0FF2300930124019416
:1045E80002940325039569460748FDF757FB4FF4E6
:1045F8008053009301940294039569460348FDF79C
:104608004DFB05B030BD00BF001401400010014053
:1046180070B584B0FF23009300260196012502950A
:104628000324039469460748FDF738FB4FF4805389
:10463800009301960295039469460348FDF72EFB03
:1046480004B070BD001401400010014008B50A46CE
:10465800A8B1012818D002281BD003281ED004288E
:1046680021D0052824D0062827D007282AD00828B2
:1046780009D14FF480511648FDF737FC03E00121BA
:104688001448FDF732FC08BD02211248FDF72DFC45
:10469800F9E704210F48FDF728FCF4E708210D4845
:1046A800FDF723FCEFE710210A48FDF71EFCEAE7B7
:1046B80020210848FDF719FCE5E740210548FDF7EA
:1046C80014FCE0E780210348FDF70FFCDBE700BF9F
:1046D800001001400014014008B588B1012814D029
:1046E800022817D003281AD004281DD0052820D066
:1046F800062823D0072826D0082829D0002003E040
:1047080001211648FDF7EAFB08BD02211348FDF711
:10471800E5FBF9E704211148FDF7E0FBF4E7082180
:104728000E48FDF7DBFBEFE710210C48FDF7D6FB41
:10473800EAE720210948FDF7D1FBE5E740210748D2
:10474800FDF7CCFBE0E780210448FDF7C7FBDBE77A
:104758004FF480510248FDF7C1FBD5E70014014032
:104768000010014010B50446FFF734FF0021204631
:10477800FFF76CFF40F2EE2000F068FB01212046B5
:10478800FFF764FF0F2000F061FB10BD38B5054648
:10479800FFF73EFF00242846FFF79EFF38B1C72CDD
:1047A80005D80134E4B2012000F050FBF3E7C72C30
:1047B80010D8002404E00134E4B2012000F046FBE4
:1047C8002846FFF789FF08B9EF2CF4D9EF2C03D856
:1047D800002038BD0120FCE70120FAE710B50446A7
:1047E800FFF7F8FE00212046FFF730FF022000F017
:1047F8002DFB01212046FFF729FFFFF709FF0C20B9
:1048080000F024FB2046FFF767FF044600B10124AF
:10481800322000F01BFB204610BD70B50646002470
:10482800012508E03046FFF7D9FF640844EAC014C0
:10483800E4B20135EDB2082DF4D9204670BD70B54B
:1048480005460E46FFF7C6FE01240FE0002130465C
:10485800FFF7FCFE3C2000F0F9FA01213046FFF793
:10486800F5FE022000F0F2FA0134E4B2082C13D865
:1048780005F001036D08002BE8D000213046FFF752
:10488800E5FE022000F0E2FA01213046FFF7DEFEE5
:104898003C2000F0DBFAE7E770BD10B50446FFF7EF
:1048A80061FF2046FFF772FF2146CC20FFF7C7FFC4
:1048B80021464420FFF7C3FF10BD000038B5044669
:1048C800FFF7EBFF2046FFF74DFF2046FFF75EFF9F
:1048D8002146CC20FFF7B3FF2146BE20FFF7AFFFEC
:1048E8002046FFF79AFF05462046FFF796FF072860
:1048F80016D9C043C0B2ED43EDB2002405EB002049
:1049080000B2FCF75DF9FBF7EFFD0022054BFBF762
:1049180043FEFCF753F800B20CB9404200B238BD70
:104928000124EBE70000E43F08B50138052809D861
:10493800DFE800F003090F151B21012202211148AD
:10494800FDF7D3FA08BD012204210E48FDF7CDFA80
:10495800F8E7012208210B48FDF7C7FAF2E7012220
:1049680010210848FDF7C1FAECE70122202105488B
:10497800FDF7BBFAE6E7012240210248FDF7B5FA48
:10498800E0E700BF0018014008B50138052809D83C
:10499800DFE800F003090F151B210022022111484E
:1049A800FDF7A3FA08BD002204210E48FDF79DFA81
:1049B800F8E7002208210B48FDF797FAF2E70022F2
:1049C80010210848FDF791FAECE70022202105485C
:1049D800FDF78BFAE6E7002240210248FDF785FA49
:1049E800E0E700BF0018014008B508210748FDF7B7
:1049F80075FA28B1002208210448FDF776FA08BDA7
:104A0800012208210148FDF770FAF8E70018014073
:104A180000B58BB00C2200216846FEF771FF9DF8A7
:104A280000309DF8012002EB0322154B1A879DF8F0
:104A380002109DF8032002EB01225A879DF804100A
:104A48009DF8052002EB01229A879DF806109DF833
:104A5800072002EB0122DA879DF808109DF809204B
:104A680002EB0122A3F840209DF80A109DF80B20C4
:104A780002EB0122A3F842200BB05DF804FB00BF53
:104A8800B001002010B582B0030A8DF807308DF808
:104A98000600CCB221460DF10700FEF705FF052000
:104AA80000F0F4F9611CC9B20DF10600FEF7FCFE36
:104AB800052000F0EBF902B010BD000008B5604B0E
:104AC8001B78FF2B3BD0012B00F09780002B00F0C8
:104AD80098805C4B1B885A4AD35C13F0080F00F08F
:104AE8009480012220215848FDF7FFF9554B1B8877
:104AF800534AD35C13F0040F00F08D8001224FF469
:104B080080715148FDF7F1F94E4B1B884C4AD35C34
:104B180013F0020F00F0868001224FF400714A481A
:104B2800FDF7E3F9474B1B88454AD35C13F0010FA7
:104B38007FD0012211464548FDF7D7F908BD404B03
:104B48005A78404B1B889A42F8D13D4B9B78012BF1
:104B580016D0022B20D0032B2AD0042B34D0052BBF
:104B68003ED0062BEAD1364BDA78187900EB0220D2
:104B780080B2344BA3F842000A21FFF783FFDDE738
:104B88002F4BDA78187900EB022080B22D4B18876A
:104B98000021FFF777FFD1E7294BDA78187900EB86
:104BA800022080B2274B58870221FFF76BFFC5E729
:104BB800234BDA78187900EB022080B2214B9887D2
:104BC8000421FFF75FFFB9E71D4BDA78187900EB8E
:104BD800022080B21B4BD8870621FFF753FFADE7B1
:104BE800174BDA78187900EB022080B2154BA3F83E
:104BF80040000821FFF746FFA0E70120FFF794FED9
:104C080067E70120FFF7C0FE63E7002220210E4876
:104C1800FDF76BF96AE700224FF480710A48FDF747
:104C280064F971E700224FF400710748FDF75DF958
:104C380078E7002201210548FDF757F97EE700BF14
:104C480028020020B0010020000C0140001801409B
:104C580038B54A4D6B884A4C2370AB881A0A627083
:104C6800A3700023E3702371B5F9063095F9072086
:104C78006271A3712B891A0AE27123726B891A0A6D
:104C88006272A372AB891A0AE2722373EB891A0A59
:104C98006273A3732B8A1A0AE27323746B8A1A0A43
:104CA8006274A374E86AFCF755F8C0F30723E37449
:104CB8002075686AFCF74EF8C0F307236375A07582
:104CC800E869FCF747F8C0F30723E37520766869BD
:104CD800FCF740F8C0F307236376A076286BFCF74F
:104CE80039F8C0F30723E3762077A86AFCF732F88F
:104CF800C0F307236377A077286AFCF72BF8C0F383
:104D08000723E37784F82000A869FCF723F8C0F3A9
:104D1800072384F8213084F82200686BFCF71AF81E
:104D2800C0F3072384F8233084F824006B8F1A0A11
:104D380084F8252084F826302B8F1A0A84F8272037
:104D480084F82830AB8F1A0A84F8292084F82A308E
:104D5800B5F842301A0A84F82B2084F82C30EB8FEF
:104D68001A0A84F82D2084F82E30B5F840301A0A33
:104D780084F82F2084F8303038BD00BFB0010020FF
:104D88004802002010B584B04FF44270FEF72AFFA5
:104D98008DF80F009DF80F302BB103F0FF02222A87
:104DA80009D004B010BD00231D4A128802211846FC
:104DB800FEF7B6FFF5E74FF40270FEF713FF10F0A9
:104DC800040F19D1174A138801339BB21380B3F526
:104DD800487F17D20020FEF709FE02460028E0D0DF
:104DE800114B009302AB11490020FFF75BF8FFF766
:104DF80065FEFFF7F9FDD4E704214FF40270FEF7D2
:104E0800CBFEDFE700241480FFF722FF064B1B8848
:104E18000093074B312207492046FEF7D3FFD9E715
:104E2800240000207A0200203400002028020020FC
:104E3800300000204802002010B504460420FDF789
:104E4800EBFA014B1C7010BD7C02002010B44FF02F
:104E5800E0235C690C4A92F800C000FB0CFC9B69DB
:104E6800002104E0E01A02441144614509D21A46BF
:104E78004FF0E0239B699A42FAD0F3D9D21A114431
:104E8800F3E710BC704700BF7C02002038B5054628
:104E9800002404E04FF47A70FFF7D8FF0134A542EC
:104EA800F8D838BD0C480D490D4A002302E0D45803
:104EB800C4500433C4188C42F9D30A4A0A4C00235C
:104EC80001E013600432A242FBD3FEF7F6FA00F0C9
:104ED8000FF8FBF7A4FF7047000000203C000020FB
:104EE800A44F00083C00002080020020FEE70000DC
:104EF80070B500260C4D0D4C641BA410A64209D1B8
:104F080000F022F800260A4D0A4C641BA410A642A1
:104F180005D170BD55F8043B98470136EEE755F8C2
:104F2800043B98470136F2E79C4F00089C4F000865
:104F38009C4F0008A04F000803460244934200D14A
:104F4800704703F8011BF9E7F8B500BFF8BC08BCC7
:104F58009E467047F8B500BFF8BC08BC9E4670472F
:104F6800000000000000000002030405060708090D
:104F78000A0B0C0D0E0F10100000000000000000BE
:104F880000000000010203040607080900000000F1
:044F9800010203040B
:044F9C000D020008FA
:044FA000E90100081B
:104FA40001000000100000000024F40002020202CC
:104FB400020202020202020202020202C0A801016B
:104FC400C0A80169881300000008DC111101000069
:0C4FD400C0A8016488130000FFFFFF006C
:0400000508004EADF4
:00000001FF
