:020000040800F2
:10000000001D002439030008098C0008A9760008A7
:1000100029870008810A0008C9B80008000000000C
:10002000000000000000000000000000299400080B
:100030008113000800000000418C0008C9960008E8
:100040005303000853030008530300085303000838
:100050005303000853030008530300085303000828
:10006000530300085303000853030008D10A000893
:10007000E10A000853030008F10A000853030008CE
:1000800053030008530300085303000853030008F8
:1000900053030008530300085303000853030008E8
:1000A00053030008530300085303000853030008D8
:1000B0005303000853030008B998000853030008CD
:1000C00053030008530300085303000853030008B8
:1000D0005303000853030008B1B800085303000895
:1000E00053030008530300080000000053030008F6
:1000F0005303000853030008530300085303000888
:100100005303000853030008530300085303000877
:100110005303000853030008530300085303000867
:100120005303000853030008530300085303000857
:100130005303000853030008530300085303000847
:1001400000000000000000000000000000000000AF
:100150005303000853030008530300085303000827
:100160005303000853030008530300085303000817
:100170005303000853030008530300080000000065
:1001800053030008530300085303000853030008F7
:1001900053030008530300085303000853030008E7
:1001A00053030008530300085303000853030008D7
:1001B00053030008530300085303000853030008C7
:1001C00053030008530300085303000853030008B7
:1001D00053030008530300085303000853030008A7
:1001E0005303000853030008530300085303000897
:1001F0005303000853030008530300085303000887
:100200005303000853030008530300085303000876
:100210005303000853030008530300085303000866
:1002200053030008530300085303000800000000B4
:1002300053030008530300080000000053030008A4
:100240005303000853030008530300085303000836
:100250005303000853030008530300085303000826
:100260005303000853030008530300085303000816
:100270005303000853030008530300080000000064
:100280005303000853030008530300080000000054
:10029000000000005303000800F002F800F03CF8F2
:1002A0000AA090E8000C82448344AAF10107DA45D1
:1002B00001D100F031F8AFF2090EBAE80F0013F0E7
:1002C000010F18BFFB1A43F001031847CCC8000008
:1002D000ECC80000103A24BF78C878C1FAD8520799
:1002E00024BF30C830C144BF04680C6070470000B0
:1002F0000023002400250026103A28BF78C1FBD82F
:10030000520728BF30C148BF0B6070471FB50CF0C3
:10031000F7FB1FBD10B510BD00F0E4F81146FFF764
:10032000F5FF0BF045FC00F002F903B4FFF7F2FF14
:1003300003BC00F005F90000094880470948004760
:10034000FEE7FEE7FEE7FEE7FEE7FEE7FEE7FEE785
:10035000FEE7FEE704480549054A064B70470000E2
:10036000E99700089902000800170024001D0024E6
:10037000001900240019002453EA020C00F06980DF
:100380002DE9F04B4FF00006002B1FBFB3FA83F5A9
:1003900003FA05F424FA05F65E4012BF1643B2FADA
:1003A00082F502FA05F4C5F120051EBF22FA05FC0C
:1003B00044EA0C04203556EA044C4FEA144418BFB2
:1003C000641C4FF000084FF00009904271EB030CE1
:1003D00039D3002919BFB1FA81F701FA07F6B0FA4B
:1003E00080F700FA07F6C7F120071EBF20FA07FCC6
:1003F00046EA0C062037B6FBF4FCA7EB0507103FD6
:1004000007F01F0BCBF120062CFA06F60CFA0BFBBB
:1004100044BFB3460026202FA4BF5E464FF0000B1A
:100420005BEA060C08BF4FF0010B19EB0B0948EB18
:100430000608ABFB027C06FB02CC0BFB03CCC01B0B
:1004400071EB0C01C1E70B46024641464846BDE848
:10045000F08B13B5084318BF4FF0FF300146AFF3E0
:100460000080BDE81C4070474FF0000200B5134605
:1004700094469646203922BFA0E80C50A0E80C50C4
:10048000B1F12001BFF4F7AF090728BFA0E80C5075
:1004900048BF0CC05DF804EB890028BF40F8042B6E
:1004A00008BF704748BF20F8022B11F0804F18BFDB
:1004B00000F8012B704770477047704710B500F087
:1004C00009F8006810BD10B5044600F003F8046098
:1004D00010BD0000004870475800002400487047D5
:1004E000580000247546FFF7F9FFAE46050069463F
:1004F000534620F00700854618B020B5FFF72AFFC5
:10050000BDE820404FF000064FF000074FF0000814
:100510004FF0000BAC46ACE8C009ACE8C009ACE851
:10052000C009ACE8C00921F007018D46704710B53D
:100530000446AFF300802046BDE81040FFF7F5BE4B
:1005400001491820ABBEFEE72600020070470000FC
:10055000B0B50446006842F2001140F48070C4F265
:100560000201884204D142F20830C4F2020003E0E2
:1005700046F20830C5F60200006810F4403F10D083
:1005800005F07EF961680546B1F5803F05D0B1F50B
:10059000403F21D0B1F5003F1FD1080CB5FBF0F56D
:1005A0001BE04FF4002004F00FFA61680546A1F546
:1005B00080224FEAB2420A2A0FD8DFE802F006068C
:1005C00006060606494B4D4F51006FF0010000EA48
:1005D0005140B5FBF0F500E0AD0803F049FC41F2F5
:1005E000030188420DD8206842F60151C0F2311152
:1005F0008D4281682CBF41F4807121F4807181604B
:10060000B0BD4BF62140C0F2BE00854205D820683F
:10061000816821F440718160B0BD47F64100C0F2AD
:100620007D10854203D820680122816808E0206897
:100630004FF28101C0F2FA218D42816804D8022272
:1006400062F309218160B0BD41F440718160B0BDA9
:100650002D09C2E76D09C0E7AD09BEE7ED09BCE7AA
:100660002D0ABAE70000000010B52DED068B82B010
:1006700040F6B074ADF80600C2F20044ADF80410C4
:10068000207A617A08420DD040F63C50BDF8061041
:10069000C2F20040028891420CD9BDF806100088D1
:1006A000081A08E0B2EE040A0020C4E90600C4E912
:1006B0000800ECE00020ADF80600BDF806009FED54
:1006C000841B00EE100ABDF80600BDF80610BDF848
:1006D0000620B8EE400B05EE101A20EE012B00EEBE
:1006E000100ABDF80600B8EE455BB8EE403B00EEE0
:1006F000102AB8EE404B9FED780B22EE033B24EE20
:10070000002B04EE100ABDF806006289B8EE444BD7
:1007100022EE044B02EE100A03EE054B04EB4200FE
:10072000808DB8EE426B9FED6E2B03EE100A40F603
:10073000407006EE024BC2F200409FED6D6BB8EECA
:10074000433B24EE034B9FED683B84EE035BB2EE2C
:10075000044B85EE045B85FE068B84ED068BBDF8AD
:1007600004100288914204D9BDF804100088081AC8
:1007700000E00020ADF80400BDF8040005EE100A0A
:10078000BDF80400BDF80410BDF80420B8EE455BC8
:1007900006EE102A25EE011B05EE100AB8EE466B98
:1007A000BDF80400B8EE455B26EE000B06EE101A0D
:1007B00021EE051B05EE100ABDF80400B8EE466BED
:1007C000B8EE455B07EE100A208EB8EE477B20EEB0
:1007D000050B01EE060B07EE020B01EE100AB8EE58
:1007E000411B20EE010B80EE030B80EE040B84ED29
:1007F000080BB5EE400BF1EE10FA02DBBDF8040079
:1008000010B90020C4E90800B0EE480B0CF0EEF877
:10081000B0EE409BB4EE400BF1EE10FA3FD694EDF3
:10082000088BB0EE480B0CF0E1F8B4EE400BF1EEA3
:1008300010FA3BD639EE00AB94ED069BB0EE490BB7
:100840000CF0D4F8B0EE408BB4EE400BF1EE10FAA1
:1008500031D694ED089BB7EECAABB0EE490B0CF065
:10086000C5F8B4EE400BF1EE10FA2BD638EE400B83
:10087000B2EE041AB7EEC00B8AEE000A20EE011A9F
:100880009FED1D0AB4EE401AF1EE10FA01DDB0EE54
:10089000401A84ED0A1A02B0BDEC068B10BDB0EE12
:1008A000480B0CF0A3F8B0EE409BB8E7B0EE480B55
:1008B0000CF09CF8BEE7B0EE490B0CF097F8B0EEE8
:1008C000408BC6E7B0EE490B0CF090F8CEE700BFC6
:1008D0003A8C30E28E79753EC58F31772D215F3F9E
:1008E000E78C28ED0DBEF23F0000000000408F4075
:1008F000000000000000000000C07944000000007B
:1009000010B5846B616D11F0500F616D05D0C90693
:100910000ED4E16CC96C884710BD41F4007060656D
:1009200020680168090707D4C068800716D10AE06B
:10093000204600F0F1FE10BD07F0B6FA70B1206855
:10094000C06880040AD4606D20F480706065606DBA
:10095000C00403D4606D40F001006065204600F0E3
:10096000D3FE10BD0000000080B5806B416D41F0EA
:1009700040014165816D41F00401816500F0CCFECC
:1009800080BD00000000000080B5806B00F0C0FE5C
:1009900080BD00000000000040F63C504FF4E171C3
:1009A000C2F20040018040F64070C2F20040018077
:1009B00040F63E50C2F2004040F27C610180704738
:1009C00070B50446006807F063FA00281CBF0020D9
:1009D00070BD20683F22C8F200028168114209D030
:1009E000606D40F010006065A06D40F00100A065F2
:1009F000012070BD07F024FA03F042FA42F200052C
:100A000046F20031C4F20205226805F5807605F54C
:100A10004073C5F60201B24208BF1946AA42054614
:100A200008BF1946084607F027FA21680A46B1426E
:100A300004BF42F20002C4F20202002818BF8A4238
:100A400003D121680868C00708D0002070BD00BF2E
:100A500021680868C0074FF0000010D1084607F071
:100A600017FA10B9206807F0EBF903F009FA401BF8
:100A70000328EDD320680068C007E9D1B0E770BD56
:100A8000FEE700000000000010B582B00446012817
:100A900005D040F6B0700021C2F2004041722046FD
:100AA00007F04AF940F234008021C2F200400623E8
:100AB000028840F22C00C2F2004000900120019216
:100AC00022460AF0CDFE02B010BD0000000000007A
:100AD00080B541F21830C2F2004001F025FE80BD21
:100AE00080B541F29030C2F2004001F01DFE80BDA1
:100AF00080B541F2A020C2F2004001F015FE0E20A8
:100B000003F052FD80BD000040F20F420168C4F2C4
:100B10000202914210DC6F22C4F20202914220DCF8
:100B20003F22C4F20202914236DC1022C4F20202D9
:100B3000914254D028224EE040F26F42C4F20202A9
:100B400091421ADC40F23F42C4F2020291422ADC96
:100B500040F21042C4F20202914240D040F22842D8
:100B600039E09F22C4F20202914225DC7022C4F2D5
:100B70000202914233D088222DE040F29F42C4F21B
:100B8000020291421FDC40F27042C4F20202914222
:100B900025D040F288421EE04022C4F20202914277
:100BA0001DD0582217E040F24042C4F202029142A6
:100BB00015D040F258420EE0A022C4F20202914247
:100BC0000DD0B82207E040F2B842C4F202029142CE
:100BD00005D040F2A042C4F2020291421AD1D0F8EC
:100BE00000C06FF00F024AF6AB2352FA8CF2CAF63D
:100BF000AA23A2FB033109A35F2AC1F302115B5CA4
:100C000040F2FF312CEA0101C36588BF04318165E0
:100C100008467047016821F0FF01F8E7000610164A
:100C2000000610160000000010B545F2574201689A
:100C3000C5F6020291420EDC45F22F42C5F60202D1
:100C4000914217DC45F20842C5F60202914226D0D5
:100C500045F21C421FE045F27F42C5F60202914276
:100C600011DC45F25842C5F60202914217D045F216
:100C70006C4210E045F23042C5F6020291420ED0BD
:100C800045F2444207E045F29442C5F60202914221
:100C900005D045F28042C5F60202914219D1017891
:100CA0004CF6CD42CCF6CC4245F600030839C5F6E9
:100CB0000203A1FB021203F18001120903EB82037C
:100CC00002F01F0203660123416603FA02F1816606
:100CD00010BD02784AF6AB23CAF6AA234FF0080EDD
:100CE000103AA2FB032340F20F42C4F202024FEA81
:100CF000131C914202F1AA04624688BF0EEB131244
:100D000040F60003A142C4F2020303F1800128BFB0
:100D10006246D3E70000000010B50279511E072992
:100D200088BF10BD45F2574C45F6FC0E0368C5F66A
:100D3000020CC5F6020E63450EF1440C0EDC45F2C2
:100D40002F44C5F60204A34217DC45F20844C5F659
:100D50000204A34226D045F21C441FE045F27F4422
:100D6000C5F60204A34211DC45F25844C5F602045C
:100D7000A34217D045F26C4410E045F23044C5F66A
:100D80000204A3420ED045F2444407E045F28044F9
:100D9000C5F60204A34205D045F29444C5F6020408
:100DA000A34209D10EEB8202C2660122C0F870C0D4
:100DB00002FA01F1416710BD40F6FC0EC4F2020ECA
:100DC0000EF1440CEEE700008169B1F5005F07D039
:100DD00079B9816A022912D0012916D079B112E0BD
:100DE000816A03290FD8DFE801F0020A021001200E
:100DF0007047816A03293CBF0120704703D1C06A54
:100E0000C0F30060704700207047C06AA0F1C07056
:100E1000B0FA80F04009704770B540F26F44D0F8E6
:100E200000E0C4F20204D0F858C0A64519DC9F25A2
:100E3000C4F20205AE4531DC5725C4F20205AE45C9
:100E400056DC1025C4F20205AE4500F0928028253C
:100E5000C4F20205AE4500F08C804025C4F20205C4
:100E600084E045F22F45C5F60205AE452BDC40F285
:100E7000B745C4F20205AE4548DC40F27045C4F205
:100E80000205AE4575D040F28845C4F20205AE4574
:100E90006FD040F2A045C4F2020567E040F227455A
:100EA000C4F20205AE4540DCA025C4F20205AE4501
:100EB0005FD0B825C4F20205AE455AD040F21045C5
:100EC000C4F2020552E045F26B45C5F60205AE4597
:100ED0003CDC45F23045C5F60205AE4549D045F249
:100EE0004445C5F60205AE4543D045F258453BE0C2
:100EF0005825C4F20205AE453BD07025C4F2020568
:100F0000AE4536D08825C4F202052FE040F2B84540
:100F1000C4F20205AE452CD045F20845C5F60205DF
:100F2000AE4526D045F21C451EE040F22845C4F2ED
:100F30000205AE451DD040F24045C4F20205AE4563
:100F400017D040F25845C4F202050FE045F26C4557
:100F5000C5F60205AE450CD045F29445C5F602052E
:100F6000AE4506D045F28045C5F60205AE4540F0D7
:100F7000C980456EC66E002E866E6E601CBFD0E9BD
:100F80001C566E60A64515DC9F24C4F20204A645DB
:100F90002BDC5724C4F20204A6454EDC1024C4F214
:100FA0000204A64576D02824C4F20204A64571D0D6
:100FB00040246BE045F22F44C5F60204A64527DC29
:100FC00040F2B744C4F20204A64542DC40F2704449
:100FD000C4F20204A6455DD040F28844C4F2020483
:100FE000A64557D040F2A04450E040F22744C4F256
:100FF0000204A6453CDCA024C4F20204A64549D064
:10100000B824C4F20204A64544D040F210443DE0A6
:1010100045F26B44C5F60204A6454FDC45F2304468
:10102000C5F60204A6455BD045F24444C5F6020469
:10103000A64555D045F258444EE05824C4F2020467
:10104000A64527D07024C4F20204A64522D08824E5
:101050001CE040F2B844C4F20204A6451AD045F29E
:101060000844C5F60204A6453AD045F21C4433E0D4
:1010700040F22844C4F20204A6450BD040F240449A
:10108000C4F20204A64505D040F25844C4F202045A
:10109000A64537D104683F258668C06D00F01F0063
:1010A000402E05FA00F0CCF80800206820F48020DB
:1010B0002060636021D0A160E26070BD45F26C44A5
:1010C000C5F60204A6450BD045F28044C5F60204DD
:1010D000A64505D045F29444C5F60204A64511D1B3
:1010E0000468C66D806806F01F060125402805FAD1
:1010F00006F6CCF80460636002D1A260E16070BDC6
:10110000A160E26070BD0000B0B5044600F08CF84C
:10111000204600F031F890B1002000BF05460120C4
:101120000AF07AFC204600F027F8C62D03D80028E4
:1011300005F10100F2D1C62D01D90120B0BD204634
:1011400000F01AF800281CBF0020B0BD002000BF2E
:10115000054601200AF060FC204600F00DF8EE2D57
:1011600003D8002805F10100F2D00020EE2D88BF41
:101170000120B0BD00000000002801D0C0B27047BF
:1011800080B540F200402021C5F6020002F060FE6A
:10119000BDE88040C0B27047002818BF704780B5D6
:1011A00040F200400A46C5F60200202102F058FE37
:1011B000BDE8804070470000B0B5044600F0A8F8D4
:1011C000204600F091F82046FFF79EFFCC202146F4
:1011D00000F0AEF8BE20214600F0AAF8204600F04C
:1011E0006FF80546204600F06BF80021072888BFFD
:1011F0004FF0FF31B6EE041B072885EA010281EAB1
:101200000001D2B242EA012109B200EE101AB8EE92
:10121000C00B20EE010BBDEEC00B10EE100A88BF14
:10122000404200B2B0BD000080B586B020200190E1
:1012300000200290012003900220049040F2004020
:1012400001A9C5F6020002F033FD06B080BD000022
:1012500080B586B020200190012001A9CDE90200CF
:101260000220049040F20040C5F6020002F020FD8A
:1012700006B080BD0000000010B50446FFF7E8FF8F
:1012800000212046FFF788FF02200AF0C5FB01215C
:101290002046FFF781FFFFF7C7FF0C200AF0BCFBD9
:1012A0002046FFF769FF044600284FF0320018BFC0
:1012B00001240AF0B1FB204610BD00000000000030
:1012C00070B50446012500262046FFF7D5FFF1B290
:1012D000C001082D05F1010540EA5106F4D3F0B232
:1012E00070BD00000000000010B50446FFF7B0FF1D
:1012F00000212046FFF750FF40F2EE200AF08CFB61
:1013000001212046FFF748FF0F200AF085FB10BDA2
:1013100010B50446FFF7E8FF2046FFF7F5FECC20A6
:10132000214600F005F84420214600F001F810BDE8
:10133000F0B581B00C460546FFF78AFF012700BFD4
:101340000021204605F001066D08FFF725FF002E5D
:101350004FF002004FF03C0604BF3C2002260AF08A
:101360005BFB01212046FFF717FF30460AF054FBD4
:10137000082F07F10107E3D301B0F0BD0000000022
:101380007047000000000000B0B507F04DFE40F6C9
:10139000B0700021C2F200400022C38F41F28C20C5
:1013A000C2F2004000F040FD0BF07AF840F2480431
:1013B00040F23805C2F20044C2F2004520462946F8
:1013C0000AF09EFF0BF094F8204629460AF0E0FF51
:1013D000FFF7E2FA022006F0C3FCB0BD00000000F7
:1013E000EFF3108072B600BFFEE7000000000000BF
:1013F0002DE9F04782B000220192044690F8500097
:10140000012803D1022002B0BDE8F08720680D4614
:10141000012684F8506006F043FD28B1606D40F06D
:10142000200060650120DEE02A6892FAA2F0B0FA9E
:1014300080F3100308BF930E2068696803F01F0350
:1014400006FA03F3C7693B43C36106F03DFD20681C
:1014500006F026FD0646206806F012FD304368D1EE
:1014600020682968AA6806F053FD41F20000C5F61D
:101470000040006800F07040B0F1805F06D1206845
:101480006A690E21C06801EA50030CE02068C16857
:101490006A69C068C9064FEA500002D400F00E0322
:1014A00001E000F0080329692068042928D1016EB1
:1014B0002A6801F0F841B1EB826F4FEA826103D1F3
:1014C000026E22F000420266426E02F0F8428A4248
:1014D00003D1426E22F000424266826E02F0F84270
:1014E0008A4203D1826E22F000428266C26E02F00E
:1014F000F8428A421DD1C16E21F00041C16618E058
:1015000002FA03F32A6806F04BFD687E0138B0FA50
:1015100080F120684A092969D20706F04DFD287E2E
:101520000138B0FA80F120684A092969D20206F030
:101530002BFD206806F0ACFC08B1002053E02068C9
:101540002968EA6806F0F8FC0021E868C4F2FF7137
:10155000884243D14FF6FF702968C0F20F004FF068
:10156000806711EA000C91FAA1F0B0FA80F21346FC
:1015700008BF8B0E20685E1C07EB836306F01E0E0F
:1015800006F01F060127BEF1090F03F0F84307FA22
:1015900006F60DD8BCF1000F08BF8A0E511C43EAB5
:1015A000060201F01F0101EB410142EA015112E084
:1015B000BCF1000F08BF8A0E511C002201F01F0170
:1015C000CFF6206201EB410102EB015146EA030232
:1015D000114341F00071AA6806F09AFC2868B0F146
:1015E000FF3F06DD0020002184F8501002B0BDE866
:1015F000F08746F2000842F20007C5F60208C4F27E
:10160000020708F54079216807F5807607F54072F2
:101610004846B14208BF1046B94208BF104606F01E
:1016200027FC216842F2001241F48071C4F20202E8
:101630009142824608D1384606F02AFC07463046D9
:1016400006F026FC384302E0404606F021FC002864
:101650007FF4E4AE5FEA0A20296809D40020CCF6C2
:101660008430814204D1206840451DD00020BAE773
:101670005FEACA1009D40020CCF25270814204D132
:101680002068404531D00020ADE75FEA4A204FF0A6
:101690000000A8D40022CCF6B8729142A3D12068F1
:1016A000404527D000209EE74AF40001484606F056
:1016B00063FC40F2040042F66351C2F20040C0F203
:1016C0003E5100688009A0FB01018809022101EB5D
:1016D00040000190019858B101980138019001989B
:1016E00000284FF00000F7D17DE74AF0807103E059
:1016F000002078E74AF48001484606F03DFC0020CF
:1017000071E70000000000007047000000000000CA
:10171000704700000000000070470000000000005B
:10172000F0B581B0044600284FF00000009019D0B9
:10173000606D30B9204600F00BF90020A06584F8F8
:101740005000206806F0A0FB10B1206806F070FB86
:10175000206806F0A1FB38B1206806F09DFBE0B1DF
:10176000002523E00125E3E0206806F075FB40F248
:10177000040042F66351C2F20040C0F23E510068DC
:101780008009A0FB0101012000EB9110009000985E
:101790000028E1D000980138F8E7606D012540F09D
:1017A00010006065A06D40F00100A065206806F0A3
:1017B00077FB616D01F010010843606D03D040F0CC
:1017C00010000125B3E020F48170023060652068CC
:1017D00006F05EFB58BB206842F2001140F48070B6
:1017E000C4F2020142F200068842C4F2020640F04E
:1017F000A280304606F04CFB074606F5807006F0E6
:1018000047FB384398B906F5807006F540722168A9
:1018100046F20003C5F602038142104618BF03F5E5
:101820004070B142616808BF104606F09DFB02F0AF
:101830001FFB41F2040188420CD3A068102809D193
:10184000607D216B227F41EA403040EA024040F057
:101850001C0108E0607D216B227F41EA4030A168D5
:10186000084340EA0241207F012806D1206A002275
:10187000CFF6FE7202EB40400143606A28B100F4EB
:101880007870A26A084340EA020120684CF2030320
:10189000CFF6F073C2681A401143C16006F000FB36
:1018A0000646206806F0ECFA304331D1217D2068ED
:1018B000E26A44F20307C36842EA813123EA07027D
:1018C0001143C16094F838100129016914D14FF611
:1018D0001E020027CFF60042CFF6FF771140D4E971
:1018E0000F231943636C07EB02421143A26C1943A7
:1018F000114341F0010101E021F0010101610169A1
:10190000626B21F07041114301612046FEF720FE19
:101910002068E1680129026B22F00F0102D1A2695F
:10192000013A114301630121606D61F301006065BB
:10193000284601B0F0BD46F20000C5F6020006F0F0
:10194000A7FA00287FF473AF5DE7000000000000F5
:10195000F0B5B5B0044644F2E04501A8BC2100262C
:101960003496CDE932663196C5F602053096FEF71B
:101970007BFD206805F5D951884201D035B0F0BD16
:101980004FF40020019028200290F02003900820BE
:10199000CDE904000220CDE9060601A8CDE90866DC
:1019A000299603F091F908B1FFF71AFD286830A9CC
:1019B00040F08070286028684FF4806600F08070E6
:1019C00000900098286840F02000286028680027D0
:1019D00000F02000009000980320319041F2004078
:1019E000C5F602003096329702F062F941F2A02566
:1019F0005820C2F20045C4F2020028607320C5E9F5
:101A00000107C5E903764FF4006068614FF40050A8
:101A1000A8614FF48070C5E9070728466F6201F09E
:101A200053FC08B1FFF7DCFCE564AC6335B0F0BDF6
:101A30002DE9F04142F200070446C4F202070168B2
:101A400046F2003007F5807607F54072C5F60200D1
:101A5000B14208BF1046B94208BF104606F00CFA62
:101A60008046206806F01CFA18B994F85000012846
:101A700002D10220BDE8F081012084F85000204608
:101A8000FEF79EFF054628B1002084F85000284646
:101A9000BDE8F0812068616D40F60172B04221EA34
:101AA000020118BF0746B8F1000F01F580716165AA
:101AB00018BF874203D1616D21F480116165616DAA
:101AC0000022C9044FF0000144BFA26D22F00602BB
:101AD0008742A2654FF01C02026084F8501009D0C2
:101AE000B8F1090F13D8012140F2212201FA08F1BF
:101AF00011420CD0C168890104D5616D012262F3E5
:101B00000D31616506F0F8F92846BDE8F081606D99
:101B100040F480106065F8688001B8D5606D0121DF
:101B200061F30D3060652846BDE8F08100000000DB
:101B30002DE9F04742F200060446C4F202060368AB
:101B400046F2003006F5807706F54075C5F60200CE
:101B5000BB42904608BF2846B342894608BF284684
:101B600006F08AF98246206806F09AF918B994F8C6
:101B70005000012802D10220BDE8F087BAF1090F18
:101B80004FF0010084F8500058D800FA0AF040F2F3
:101B90002121084252D02046FEF712FF30B10546FF
:101BA000002084F850002846BDE8F0872068616D69
:101BB00040F60172B84221EA020118BF0646BAF1A6
:101BC000000F01F58071616518BF864203D1616D18
:101BD00021F480116165616D40F68917C9044FF0E9
:101BE000000144BFA16D21F00601C0F600070022EC
:101BF000A16540F60111E36CC0F60001C3E90F17BF
:101C000040F66917E16AC0F60007DF641C23036031
:101C100084F85020426842F01002426006F04CF90D
:101C20002168E06C40314A46434601F0FDFD05461F
:101C3000206806F061F92846BDE8F087002084F8A6
:101C400050000120BDE8F0872DE9F04104464079BD
:101C500001284FF0020008BFBDE8F0810D460121C8
:101C6000617190462071286804284AD102F008F971
:101C7000B8F1000F07460AD02068406BB0F1FF3F73
:101C80001BDC02F0FDF8C01B0228F5D30DE048F282
:101C90000006C2F2000600BF2068406B304213D03D
:101CA00002F0EEF8C01B0228F6D3206940F00800CD
:101CB000206103202071BDE8F081012001F0E4FFE4
:101CC0002068A969416405E0012001F0DDFF20687A
:101CD000A9690164206808F0100240F2FF33816CAA
:101CE0009340EF69994307FA02F32F6A194381641D
:101CF000FF21C36C914023EA010107FA02F211436C
:101D0000C164286901280BD1206808F010021F2344
:101D1000816B93406F69994307FA02F21143816323
:101D2000216808F010020723C86BEF689340012F69
:101D300020EA030C4FF0000003D0022F03D101274B
:101D400005E0002703E0AF68B7FA87F77F092E6840
:101D5000AB6837433B436F68934043EA0C03CB6364
:101D60004FF480430E68934026EA03030B6040F66D
:101D7000FE730E68934026EA030397403B430B60D3
:101D8000C02303FA02F20B6823EA02020A6001216F
:101D900021716071BDE8F08178B110B50446007919
:101DA00020B900206071204600F00AF8022020715E
:101DB000002020610121217110BD01207047000029
:101DC00080B586B000210591CDE9031147F20042AC
:101DD0000068C4F2000202919042019101D006B065
:101DE00080BD44F2E040C5F60200826842F0005235
:101DF0008260826802F000520092009A026842F00B
:101E000001020260006800F00100009000981020BC
:101E100001900320CDE90201002001A9C5F60200CE
:101E200001F046FF06B080BD81B04FF0000CCDF848
:101E300000C00068009021B1009810441430009058
:101E400003E00098104408300090009900200B60D7
:101E500001B070470000000080B54279012A4FF0C0
:101E6000020227D04FF0010C80F805C0027101F08A
:101E7000100E02680CFA0EFC0029136843EA0C03EA
:101E8000136011680AD0022301F4781103FA0EF3EB
:101E900099420BD1516841F0020106E001F03E0188
:101EA000022903D1516841F0010151600022012152
:101EB00001714271104680BD2DE9F041044601F0E8
:101EC000DFFF04B3054694F8350002281ED140F226
:101ED0000F472068C4F2020740F26F48B842C4F2CC
:101EE000020817DC6F21C4F20201884223DC3F2183
:101EF000C4F20201884239DC1021C4F20201884296
:101F000058D0282151E00120BDE8F0818020606593
:101F10000120ABE240451ADC40F23F41C4F202012D
:101F200088422ADC40F21041C4F20201884241D0CA
:101F300040F2284139E09F21C4F20201884225DCA9
:101F40007021C4F20201884234D088212DE040F291
:101F50009F41C4F2020188421FDC40F27041C4F28A
:101F60000201884226D040F288411EE04021C4F29E
:101F7000020188421ED0582117E040F24041C4F2CD
:101F80000201884216D040F258410EE0A021C4F26E
:101F9000020188420ED0B82107E040F2B841C4F2F5
:101FA0000201884206D040F2A041C4F202018842F8
:101FB00040F0EA812668316821F01E02314641F87E
:101FC000142B6FF080020B68404502EA03020A609E
:101FD00019DC9F21C4F20201884231DC5721C4F28E
:101FE0000201884256DC1021C4F20201884200F04E
:101FF00091802821C4F20201884200F08B804021A8
:10200000C4F2020184E045F22F41C5F60201884284
:102010002BDC40F2B741C4F20201884248DC40F2B6
:102020007041C4F20201884274D040F28841C4F287
:10203000020188426ED040F2A041C4F2020167E082
:1020400040F22741C4F20201884240DCA021C4F2E0
:10205000020188425ED0B821C4F20201884259D000
:1020600040F21041C4F2020152E045F26B41C5F664
:10207000020188423CDC45F23041C5F6020188424B
:1020800048D045F24441C5F60201884242D045F2AB
:1020900058413BE05821C4F2020188423AD07021F5
:1020A000C4F20201884235D08821C4F202012FE037
:1020B00040F2B841C4F2020188422BD045F20841F7
:1020C000C5F60201884225D045F21C411EE040F2CF
:1020D0002841C4F2020188421CD040F24041C4F2BF
:1020E0000201884216D040F25841C4F202010FE0CA
:1020F00045F26C41C5F6020188420BD045F294418D
:10210000C5F60201884205D045F28041C5F60201BC
:10211000884269D1216EB8420A6822F480720A604E
:1021200010DC6F21C4F2020188421CDC3F21C4F2A2
:102130000201884232DC1021C4F20201884252D0EE
:1021400028214AE040451ADC40F23F41C4F2020136
:1021500088422ADC40F21041C4F20201884242D097
:1021600040F2284139E09F21C4F20201884225DC77
:102170007021C4F20201884235D088212DE040F25E
:102180009F41C4F2020188421FDC40F27041C4F258
:102190000201884227D040F288411EE04021C4F26B
:1021A000020188421FD0582117E040F24041C4F29A
:1021B0000201884217D040F258410EE0A021C4F23B
:1021C000020188420FD0B82107E040F2B841C4F2C2
:1021D0000201884207D040F2A041C4F202018842C5
:1021E00008BF206800E02068016821F0010101605B
:1021F0003068C0070BD001F043FE401B0628F7D320
:1022000020206065032084F8350001202EE120683D
:10221000B84210DC6F21C4F2020188421CDC3F216D
:10222000C4F20201884232DC1021C4F20201884269
:1022300050D028214AE040451ADC40F23F41C4F228
:10224000020188422ADC40F21041C4F202018842B5
:1022500040D040F2284139E09F21C4F20201884277
:1022600025DC7021C4F20201884233D088212DE0A0
:1022700040F29F41C4F2020188421FDC40F27041EB
:10228000C4F20201884225D040F288411EE040217C
:10229000C4F2020188421DD0582117E040F24041AB
:1022A000C4F20201884215D040F258410EE0A0214C
:1022B000C4F2020188420DD0B82107E040F2B841D3
:1022C000C4F20201884205D040F2A041C4F20201EA
:1022D00088425ED1D4E9161202F01F023F2303FAAE
:1022E00002F28A6040455EDC9F21C4F2020188420E
:1022F00014DC5721C4F20201884226DC1021C4F20A
:102300000201884200F0A2802821C4F20201884222
:1023100000F09C804021C4F2020195E040F2274188
:10232000C4F2020188421EDCA021C4F202018842EC
:1023300000F08C80B821C4F20201884200F086804F
:1023400040F21041C4F202017EE05821C4F20201C1
:1023500088427BD07021C4F20201884276D0882165
:10236000C4F2020170E040F22841C4F20201884246
:102370006CD040F24041C4F20201884266D040F283
:102380005841C4F202015FE021686FF00E020E4670
:1023900019E6D4E9161202F01F02012303FA02F231
:1023A0004A604045A0DD45F22F41C5F60201884252
:1023B00016DC40F2B741C4F20201884225DC40F24B
:1023C0007041C4F20201884240D040F28841C4F218
:1023D000020188423AD040F2A041C4F2020133E047
:1023E00045F26B41C5F6020188421DDC45F23041E1
:1023F000C5F60201884229D045F24441C5F60201E2
:10240000884223D045F258411CE040F2B841C4F262
:10241000020188421AD045F20841C5F602018842FD
:1024200014D045F21C410DE045F26C41C5F60201A5
:1024300088420BD045F29441C5F60201884205D08E
:1024400045F28041C5F6020188420BD1616EA26E51
:10245000E06E4A6030B1016821F480710160D4E916
:102460001C014160012084F835000020002184F81F
:102470003410BDE8F081000080B5D8B190F8351077
:10248000022919D140F20F420168C4F202029142BE
:1024900016DC6F23C4F20203994226DC3F23C4F208
:1024A000020399423CDC1023C4F2020399425AD041
:1024B000282354E0012080BD80214165012080BD9A
:1024C00040F26F43C4F2020399421ADC40F23F43E8
:1024D000C4F2020399422ADC40F21043C4F2020320
:1024E000994240D040F2284339E09F23C4F20203CE
:1024F000994225DC7023C4F20203994233D0882329
:102500002DE040F29F43C4F2020399421FDC40F2E7
:102510007043C4F20203994225D040F288431EE082
:102520004023C4F2020399421DD0582317E040F221
:102530004043C4F20203994215D040F258430EE0E2
:10254000A023C4F2020399420DD0B82307E040F261
:10255000B843C4F20203994205D040F2A043C4F24A
:102560000203994270D191424FF0040280F8352065
:1025700010DC6F22C4F20202914220DC3F22C4F23E
:102580000202914236DC1022C4F20202914254D07F
:1025900028224EE040F26F42C4F2020291421ADC5D
:1025A00040F23F42C4F2020291422ADC40F2104261
:1025B000C4F20202914240D040F2284239E09F2208
:1025C000C4F20202914225DC7022C4F2020291425E
:1025D00033D088222DE040F29F42C4F202029142A1
:1025E0001FDC40F27042C4F20202914225D040F258
:1025F00088421EE04022C4F2020291421DD05822BD
:1026000017E040F24042C4F20202914215D040F27B
:1026100058420EE0A022C4F2020291420DD0B8222C
:1026200007E040F2B842C4F20202914205D040F203
:10263000A042C4F20202914224D10068016821F054
:1026400001010160002080BD0268136823F00E03C1
:10265000136045F25742C5F6020291420A6822F021
:1026600001020A6014DC45F22F42C5F602029142D3
:102670001DDC45F20842C5F6020291422CD045F21B
:102680001C4225E0086820F001000860002080BDA1
:1026900045F27F42C5F60202914211DC45F25842F2
:1026A000C5F60202914217D045F26C4210E045F2A5
:1026B0003042C5F6020291420ED045F2444207E094
:1026C00045F29442C5F60202914205D045F280429D
:1026D000C5F6020291421AD1D0E9181CD0E916E3DE
:1026E0000A6822F480720A6003F01F01012202FAD4
:1026F00001F1CEF80410816ECCF80410C16E31B136
:102700000A6822F480720A60D0E91C124A60012132
:1027100080F83510026D002180F834100AB190471E
:102720000021084680BD00002DE9F04381B0002162
:10273000009140F204010446C2F2004140F26F49A8
:10274000A56DC4F20209086848F2B511C1F64E3110
:102750002668A0FB01084E452F682A6815DC9F20DB
:10276000C4F2020086422BDC5720C4F202008642EB
:102770004FDC1020C4F20200864278D02820C4F238
:102780000200864273D040206CE045F22F40C5F62F
:102790000200864227DC40F2B740C4F202008642C3
:1027A00043DC40F27040C4F2020086425FD040F247
:1027B0008840C4F20200864259D040F2A04051E065
:1027C00040F22740C4F2020086423DDCA020C4F261
:1027D000020086424BD0B820C4F20200864246D0A6
:1027E00040F210403EE045F26B40C5F602008642E2
:1027F00074DC45F23040C5F60200864200F081806C
:1028000045F24440C5F6020086427AD045F258406F
:1028100072E05820C4F20200864228D07020C4F230
:102820000200864223D088201CE040F2B840C4F267
:10283000020086421BD045F20840C5F602008642DF
:102840005FD045F21C4057E040F22840C4F202003D
:1028500086420CD040F24040C4F20200864206D0CC
:1028600040F25840C4F20200864240F0ED84E06D30
:1028700000F01F01082000FA01F23A4200F0148132
:1028800040F20F40C4F20200864213DC6F20C4F213
:102890000200864200F38E803F20C4F2020086428E
:1028A00000F3CF801020C4F20200864200F0ED80D9
:1028B0002820E5E04E4500F3898040F23F40C4F215
:1028C0000200864200F3C48040F21040C4F20200CD
:1028D000864200F0DA8040F22840D1E045F26C40B8
:1028E000C5F6020086420CD045F28040C5F60200D3
:1028F000864206D045F29440C5F60200864240F07A
:10290000A3842068E16D01F01F010368580727D5F3
:102910000420884010EA020722D01904686000F100
:102920008780980600F18C8440F20F40C4F20200C8
:10293000864200F3AB836F20C4F20200864200F3AC
:10294000E6833F20C4F20200864200F35084102048
:10295000C4F20200864200F06D84282000F066BCBC
:10296000980742D50220884010EA02073DD019049A
:10297000686000F10E83980600F1988440F20F40E1
:10298000C4F20200864200F3AF836F20C4F202005B
:10299000864200F311843F20C4F20200864200F315
:1029A00056841020C4F20200864200F0738428206E
:1029B00000F06CBC9F20C4F20200864251DC702003
:1029C000C4F20200864260D0882059E040F29F4065
:1029D000C4F2020086424BDC40F27040C4F20200B6
:1029E000864252D040F288404AE0180740F12C84D9
:1029F00008208840104000F0278440F20F40C4F2C5
:102A00000200864200F32C836F20C4F2020086424B
:102A100000F34F833F20C4F20200864200F3938309
:102A20001020C4F20200864200F0B1832820A9E3FE
:102A3000D80300F1B482A16C002940F00C8300F0AF
:102A400003BC4020C4F2020086421ED0582017E08A
:102A500040F24040C4F20200864216D040F2584094
:102A60000EE0A020C4F2020086420ED0B82007E09B
:102A700040F2B840C4F20200864206D040F2A040C4
:102A8000C4F20200864240F08E822068042300686F
:102A9000184209D02068036823F004030360AA6089
:102AA000606D40F001006065012000FA01F23A42D9
:102AB00070D040F20F40C4F20200864210DC6F205A
:102AC000C4F2020086421CDC3F20C4F202008642AF
:102AD00032DC1020C4F20200864251D028204AE0A5
:102AE0004E451ADC40F23F40C4F2020086422ADC26
:102AF00040F21040C4F20200864241D040F2284029
:102B000039E09F20C4F20200864225DC7020C4F226
:102B10000200864234D088202DE040F29F40C4F26B
:102B2000020086421FDC40F27040C4F2020086427E
:102B300026D040F288401EE04020C4F202008642C7
:102B40001ED0582017E040F24040C4F202008642F6
:102B500016D040F258400EE0A020C4F20200864297
:102B60000ED0B82007E040F2B840C4F2020086421E
:102B700006D040F2A040C4F20200864240F0168225
:102B80002068406900F0800020B1AA60606D40F0CC
:102B900002006065042000FA01F23A4270D040F26F
:102BA0000F40C4F20200864210DC6F20C4F2020023
:102BB00086421CDC3F20C4F20200864232DC102038
:102BC000C4F20200864251D028204AE04E451ADC69
:102BD00040F23F40C4F2020086422ADC40F210403C
:102BE000C4F20200864241D040F2284039E09F20E2
:102BF000C4F20200864225DC7020C4F20200864244
:102C000034D088202DE040F29F40C4F2020086427A
:102C10001FDC40F27040C4F20200864226D040F22F
:102C200088401EE04020C4F2020086421ED0582098
:102C300017E040F24040C4F20200864216D040F253
:102C400058400EE0A020C4F2020086420ED0B82008
:102C500007E040F2B840C4F20200864206D040F2DB
:102C6000A040C4F20200864240F0A68120680068BD
:102C700000F0020020B1AA60606D40F004006065C1
:102C8000102000FA01F139427ED040F20F40C4F228
:102C90000200864210DC6F20C4F2020086421CDC77
:102CA0003F20C4F20200864232DC1020C4F202004F
:102CB000864251D028204AE04E451ADC40F23F407F
:102CC000C4F2020086422ADC40F21040C4F2020044
:102CD000864241D040F2284039E09F20C4F20200F1
:102CE000864225DC7020C4F20200864234D088205F
:102CF0002DE040F29F40C4F2020086421FDC40F209
:102D00007040C4F20200864226D040F288401EE0A5
:102D10004020C4F2020086421ED0582017E040F244
:102D20004040C4F20200864216D040F258400EE005
:102D3000A020C4F2020086420ED0B82007E040F284
:102D4000B840C4F20200864206D040F2A040C4F26D
:102D50000200864240F03681266808223068104220
:102D600012D0A960206801684903016806D4C9052A
:102D700006D4016821F00801016001E008034FD486
:102D8000216C09B120468847E06D202100F01F002A
:102D90008140394200F0AE8040F20F432268C4F215
:102DA00002039A4210DC6F23C4F202039A421CDC35
:102DB0003F23C4F202039A4236DC1023C4F202031A
:102DC0009A4255D028234EE04A451ADC40F23F4350
:102DD000C4F202039A422EDC40F21043C4F2020312
:102DE0009A4245D040F228433DE09F23C4F20203BB
:102DF0009A4229DC7023C4F202039A4238D0882315
:102E000031E040F29F43C4F202039A4223DC40F2D5
:102E10007043C4F202039A422AD040F2884322E06F
:102E2000A16C0029AED1AFE74023C4F202039A425D
:102E30001ED0582317E040F24043C4F202039A42E6
:102E400016D040F258430EE0A023C4F202039A4287
:102E50000ED0B82307E040F2B843C4F202039A420E
:102E600006D040F2A043C4F202039A4240F0AC8084
:102E70002268102312681A423CD0A96094F83520C9
:102E80002168042A0A681DD122F016020A604A69E4
:102E900022F080024A61226C0AB9A26C1AB10A6857
:102EA00022F008020A603F2101FA00F0A860012028
:102EB00084F83500216D0020002984F8340040F0AA
:102EC000CA80C1E1500308680CD4C0050ED408685C
:102ED00020F010000860012084F83500002084F8FC
:102EE000340003E0000301D4616C00E0E16B09B140
:102EF00020468847606D002800F0A681606DC007FD
:102F000000F0A580042084F8350040F20F412068CD
:102F1000C4F20201884210DC6F21C4F2020188422F
:102F20001CDC3F21C4F2020188424FDC1021C4F2B4
:102F3000020188426FD0282167E048451ADC40F240
:102F40003F41C4F20201884247DC40F21041C4F222
:102F5000020188425FD040F2284156E09F21C4F22E
:102F60000201884242DC7021C4F20201884252D040
:102F700088214AE040F29F41C4F2020188423CDCD1
:102F800040F27041C4F20201884244D040F28841CC
:102F90003BE0D80376D4616C00295CD154E1216C0C
:102FA000002958D150E10823304670E530680020F0
:102FB00000287FF4EAADEDE53068002000287FF4BA
:102FC0005AAE5DE60422C9E6022353E74021C4F26B
:102FD000020188421FD0582117E040F24041C4F25C
:102FE0000201884217D040F258410EE0A021C4F2FD
:102FF000020188420FD0B82107E040F2B841C4F284
:103000000201884207D040F2A041C4F20201884286
:1030100008BF206800E020684FEA9821026822F08B
:1030200001020260009801300090884203D82068B5
:103030000068C007F6D120680068C0074FF00300A1
:1030400008BF012084F83500002084F83400E16CCA
:10305000002900F0F9802046884701B0BDE8F083E0
:103060004E4532DC40F23F40C4F20200864271DC41
:1030700040F21040C4F20200864200F0888040F224
:1030800028407FE0E16B0029E5D1DDE04E454BDCD7
:1030900040F23F40C4F20200864200F3AF8040F2AB
:1030A0001040C4F20200864200F0C48040F2284082
:1030B000BCE09F20C4F20200864254DC7020C4F2BF
:1030C0000200864263D088205CE040F29F40C4F258
:1030D000020086424EDC40F27040C4F2020086429A
:1030E00055D040F288404DE04E4571DC40F23F4003
:1030F000C4F20200864200F3B18040F21040C4F2F4
:103100000200864200F0C68040F22840BEE09F20C8
:10311000C4F2020086427ADC7020C4F202008642C9
:1031200000F08880882081E040F29F40C4F20200D5
:10313000864273DC40F27040C4F20200864279D0CD
:1031400040F2884072E04020C4F2020086421ED065
:10315000582017E040F24040C4F20200864216D0E8
:1031600040F258400EE0A020C4F2020086420ED089
:10317000B82007E040F2B840C4F20200864206D010
:1031800040F2A040C4F20200864240F094802668DB
:103190006FF01C02306810403060012000FA01F12D
:1031A0006960606584F835000020E16C84F83400C3
:1031B00000297FF450AF47E09F20C4F2020086420E
:1031C00055DC7020C4F20200864263D088205DE0A6
:1031D00040F29F40C4F2020086424FDC40F2704051
:1031E000C4F20200864255D040F288404EE04020B2
:1031F000C4F2020086421DD0582017E040F2404041
:10320000C4F20200864215D040F258400EE0A020E1
:10321000C4F2020086420DD0B82007E040F2B84068
:10322000C4F20200864205D040F2A040C4F202007F
:10323000864243D126686FF008013068084030604C
:10324000216C00297FF407AF01B0BDE8F083402076
:10325000C4F2020086421DD0582017E040F24040E0
:10326000C4F20200864215D040F258400EE0A02081
:10327000C4F2020086420DD0B82007E040F2B84008
:10328000C4F20200864205D040F2A040C4F202001F
:10329000864216D126686FF014013068084030600D
:1032A000012084F83500002084F83400E16B002907
:1032B0007FF4D1AEC8E76FF00E026BE76FF0040148
:1032C000BBE76FF00A01E8E72DE9F04381B004465F
:1032D00000F0D6FD002C00F0758140F26F480546E5
:1032E0002068C4F20208404515DC9F21C4F20201A7
:1032F00088422BDC5721C4F20201884251DC1021A4
:10330000C4F2020188427AD02821C4F20201884224
:1033100075D040216EE045F22F41C5F6020188428A
:1033200027DC40F2B741C4F20201884245DC40F29A
:103330007041C4F20201884261D040F28841C4F277
:10334000020188425BD040F2A04153E040F22741A5
:10335000C4F2020188423FDCA021C4F2020188428B
:103360004DD0B821C4F20201884248D040F2104149
:1033700040E045F26B41C5F60201884200F39080BF
:1033800045F23041C5F60201884200F09C8045F2CA
:103390004441C5F60201884200F0958045F258414B
:1033A0008CE05821C4F20201884228D07021C4F276
:1033B0000201884223D088211CE040F2B841C4F2C7
:1033C000020188421BD045F20841C5F6020188423D
:1033D00079D045F21C4171E040F22841C4F202016B
:1033E00088420CD040F24041C4F20201884206D02B
:1033F00040F25841C4F20201884240F0138240F288
:103400000F420221C4F2020284F8351090424FF0BC
:10341000000184F8341012DC6F21C4F202018842EA
:1034200020DC3F21C4F20201884200F39280102187
:10343000C4F20201884200F0B1802821A8E0404592
:103440001EDC40F23F41C4F20201884200F3888052
:1034500040F21041C4F20201884200F09F8040F225
:10346000284195E09F21C4F20201884200F3818047
:103470007021C4F20201884200F09080882187E028
:1034800040F29F41C4F20201884279DC40F270416F
:10349000C4F20201884200F0818040F2884177E066
:1034A00045F26C41C5F6020188420CD045F28041DC
:1034B000C5F60201884206D045F29441C5F60201E4
:1034C000884240F0AF8104F1080E022084F83500F4
:1034D000002084F8340020689EE80640A1F18003B3
:1034E0004029B3FA83F34FEA5313D4E90579D4E9B9
:1034F000076C05684FEA83336FF3101508BF10237C
:1035000045EAD2014AF6F8321943CAF2FD7241EA9D
:10351000DE014CF6CD4341EAD701024441EAD9012C
:10352000CCF6CC4341EAD601A2FB032341EA1C11AD
:1035300001606FF0030000EA9300E0652046FDF7AC
:10354000E3FAE16D012201F01F0102FA01F141608D
:103550009CE04021C4F2020188421FD0582117E0AC
:1035600040F24041C4F20201884217D040F2584173
:103570000EE0A021C4F2020188420FD0B82107E07A
:1035800040F2B841C4F20201884207D040F2A041A3
:10359000C4F20201884208BF206800E02068016888
:1035A00021F00101016000BF27683868C0070DD015
:1035B00000F066FC401B0628F6D32020606503203F
:1035C00084F83500012001B0BDE8F08348F23F01E6
:1035D00004F108053868CFF6106108402ECD084385
:1035E000A1691043E2691843236A0543606A2943CD
:1035F000042841EA020141EA030103D1D4E90B2383
:103600001143194341F20002C5F600421268B2F1BB
:10361000005F17D36268A2F12903202B06D23F2551
:10362000CCF2C03525FA03F3DB0706D1A2F14F0334
:103630000022042B38BF012200E00122002A18BF1B
:1036400041F4801139600428796921F0070141EAC9
:10365000000510D1D4E90A1045EA010558B1204609
:10366000FDF7B2FB38B140206065012084F83500D9
:1036700001B0BDE8F08320467D61FDF745FAE16DBC
:103680003F2201F01F0102FA01F1816020684045EC
:1036900019DC9F21C4F20201884231DC5721C4F2B7
:1036A0000201884256DC1021C4F20201884200F077
:1036B00091802821C4F20201884200F08B804021D1
:1036C000C4F2020184E045F22F41C5F602018842AE
:1036D0002BDC40F2B741C4F20201884248DC40F2E0
:1036E0007041C4F20201884274D040F28841C4F2B1
:1036F000020188426ED040F2A041C4F2020167E0AC
:1037000040F22741C4F20201884240DCA021C4F209
:10371000020188425ED0B821C4F20201884259D029
:1037200040F21041C4F2020152E045F26B41C5F68D
:10373000020188423CDC45F23041C5F60201884274
:1037400048D045F24441C5F60201884242D045F2D4
:1037500058413BE05821C4F2020188423AD070211E
:10376000C4F20201884235D08821C4F202012FE060
:1037700040F2B841C4F2020188422BD045F2084120
:10378000C5F60201884225D045F21C411EE040F2F8
:103790002841C4F2020188421CD040F24041C4F2E8
:1037A0000201884216D040F25841C4F202010FE0F3
:1037B00045F26C41C5F6020188420BD045F29441B6
:1037C000C5F60201884205D045F28041C5F60201E6
:1037D00088421FD12046FDF727FAA068802801D132
:1037E0000020606004F160036068C7B201380ECB4E
:1037F00007280F60536009D82046FDF78DFA04F1C1
:103800006C02002307CA03604A6003E00020C4E999
:103810001B00606700206065012184F8351001B04D
:10382000BDE8F0834020C9E6F0B581B0A8B30446F6
:1038300090F83400012802D1022001B0F0BD01202F
:1038400084F8340094F83500012820D1022084F84F
:1038500035000020606540F20F462068C4F2020681
:1038600040F26F47B042C4F2020719DC6F25C4F280
:103870000205A84225DC3F25C4F20205A8423BDC34
:103880001025C4F20205A8425BD0282553E04FF46E
:1038900000606065002084F83400012001B0F0BDB4
:1038A000B8421ADC40F23F45C4F20205A8422ADCC5
:1038B00040F21045C4F20205A84242D040F2284529
:1038C00039E09F25C4F20205A84225DC7025C4F228
:1038D0000205A84235D088252DE040F29F45C4F26C
:1038E0000205A8421FDC40F27045C4F20205A8425E
:1038F00027D040F288451EE04025C4F20205A842C8
:103900001FD0582517E040F24045C4F20205A842F6
:1039100017D040F258450EE0A025C4F20205A84297
:103920000FD0B82507E040F2B845C4F20205A8421E
:1039300007D040F2A045C4F20205A84208BF2068A3
:1039400000E02068056825F0010505602046FDF7C8
:1039500063FA2068B04210DC6F21C4F20201884291
:103960001CDC3F21C4F20201884232DC1021C4F287
:103970000201884251D028214AE0B8421ADC40F2C4
:103980003F41C4F2020188422ADC40F21041C4F2F5
:103990000201884241D040F2284139E09F21C4F21F
:1039A0000201884225DC7021C4F20201884234D031
:1039B00088212DE040F29F41C4F2020188421FDCC1
:1039C00040F27041C4F20201884226D040F28841A0
:1039D0001EE04021C4F2020188421ED0582117E0A7
:1039E00040F24041C4F20201884216D040F25841F0
:1039F0000EE0A021C4F2020188420ED0B82107E0F7
:103A000040F2B841C4F20201884206D040F2A0411F
:103A1000C4F20201884240F0298121680B25226C02
:103A20000B6865F344030B601AB10A6842F00802A0
:103A30000A60B84219DC9F21C4F20201884231DCDD
:103A40005721C4F20201884256DC1021C4F202015F
:103A5000884200F091802821C4F20201884200F0DF
:103A60008B804021C4F2020184E045F22F41C5F66B
:103A7000020188422BDC40F2B741C4F202018842C5
:103A800048DC40F27041C4F20201884274D040F236
:103A90008841C4F2020188426ED040F2A041C4F2D3
:103AA000020167E040F22741C4F20201884240DC93
:103AB000A021C4F2020188425ED0B821C4F2020102
:103AC000884259D040F21041C4F2020152E045F25E
:103AD0006B41C5F6020188423CDC45F23041C5F637
:103AE0000201884248D045F24441C5F602018842AD
:103AF00042D045F258413BE05821C4F202018842CD
:103B00003AD07021C4F20201884235D08821C4F233
:103B100002012FE040F2B841C4F2020188422BD0EA
:103B200045F20841C5F60201884225D045F21C4104
:103B30001EE040F22841C4F2020188421CD040F24B
:103B40004041C4F20201884216D040F25841C4F20A
:103B500002010FE045F26C41C5F6020188420BD02C
:103B600045F29441C5F60201884205D045F28041F4
:103B7000C5F60201884272D1216E0A68D20303D5CC
:103B80000A6842F480720A60E16E19B10A6842F470
:103B900080720A60B04210DC6F21C4F202018842D8
:103BA0001CDC3F21C4F20201884232DC1021C4F245
:103BB0000201884252D028214AE0B8421ADC40F281
:103BC0003F41C4F2020188422ADC40F21041C4F2B3
:103BD0000201884242D040F2284139E09F21C4F2DC
:103BE0000201884225DC7021C4F20201884235D0EE
:103BF00088212DE040F29F41C4F2020188421FDC7F
:103C000040F27041C4F20201884227D040F288415C
:103C10001EE04021C4F2020188421FD0582117E063
:103C200040F24041C4F20201884217D040F25841AC
:103C30000EE0A021C4F2020188420FD0B82107E0B3
:103C400040F2B841C4F20201884207D040F2A041DC
:103C5000C4F20201884208BF206800E020680168C1
:103C600041F001010160002001B0F0BD216805258F
:103C7000226C0B68002A65F343030B603FF4D9AE56
:103C80000A6842F00402D3E6B0B5044600F0F8F842
:103C900040F250010546C2F20041621C097818BF8B
:103CA0000C4400BF00F0ECF8401BA042FAD3B0BDBA
:103CB0002DE9F04F83B00C68002C00F0C68000F1B5
:103CC000264242F2004702F1FF72C5F602074FEAB0
:103CD000B22201920A22B84208BF09220025002719
:103CE0004FF0010A009209E00C68043734FA0AF236
:103CF0000AF1010A05F1020500F0A780AAF1010905
:103D0000012202FA09FE14EA0E08EDD0D1F804B03F
:103D10000BF00304A4F1010CBCF1010F11D8032234
:103D20008668AA40CB6826EA0202AB401A4382604A
:103D3000CBF30013426822EA0E0203FA09F31A4396
:103D40004260032C1ED00323C268AB40022C22EA3F
:103D500003028B6803FA05F342EA0302C26011D141
:103D60006FF0030207F01C0602EA59020F23024417
:103D700003FA06F4D2F820C00B692CEA0404B3401D
:103D80002343136203230268AB404E689A4306F054
:103D90000303AB4016F4403F42EA03020260A3D0A3
:103DA00044F2F44340F2084EC5F60203C5F6000E95
:103DB0001A6842F002021A601A6807F00C0302F057
:103DC00002020292029A29F00302019C009E092C31
:103DD00038BF26460F2452F80EC09C402CEA04043B
:103DE00006FA03F34FF0B04C234342F80E30DCF8F0
:103DF00000204B6842EA0806DC0258BF22EA0806A7
:103E00009C02CCF8006040F2040CC5F6000CDCF813
:103E1000002042EA080658BF22EA08069C03CCF8B4
:103E20000060DCF8802042EA080658BF22EA080653
:103E3000DB03CCF88060DCF87C2042EA080658BF3F
:103E400022EA0806CCF87C604EE703B0BDE8F08FAC
:103E50000069084018BF0120704700000000000002
:103E6000002A08BF090481617047000000000000BB
:103E700041F20000C5F600400068000C70470000E9
:103E800041F2FC60C2F20040006870470000000090
:103E900090F84120202A03D190F84020012A01D136
:103EA00002207047242280F841200268136823F022
:103EB00001031360136823F48053136013681943DC
:103EC0001160116841F001011160202180F841105A
:103ED000002180F8401008467047000000000000F4
:103EE00090F84120202A03D190F84020012A01D1E6
:103EF00002207047242280F841200268136823F0D2
:103F000001031360136823F4706343EA0121116015
:103F1000116841F001011160202180F84110002159
:103F200080F840100846704790F841007047000044
:103F300000284CD010B5044690F8410028B9002064
:103F400084F84000204600F063FA242084F8410001
:103F500094E80310E36821F070610268012B22F0FD
:103F60000102026001614FF40442816808BF4FF40E
:103F70000042022B21F4004181604CEA0201816081
:103F800002D14FF400614160416804F1100C41F02E
:103F9000007141F400414160C16821F40041C160F9
:103FA0009CE80E10114341EA0321C160216A41EAF5
:103FB0000C010160016841F00101016000206064B2
:103FC000202184F84110206384F8420010BD0120B4
:103FD00070470000000000002DE9F04F83B000277B
:103FE0000297044690F84100202807D12068806994
:103FF000000403D494F84000012803D1022003B048
:10400000BDE8F08F012084F84000242084F84100AE
:10401000002060640A20894660F39F298A4648F29E
:1040200008001D4660F39F2A90465F1C06E000BF13
:10403000029801300290029840454BD2E068216816
:104040000128484608BF50464860FFF719FF21681D
:10405000064651F8182F0B681B0943EA5212D20783
:1040600008D012E0206881698269120942EA511180
:10407000C90708D1002FF5D0FFF702FF55B3801B09
:10408000A842EFD926E000F11801D1F800B02021B4
:10409000002220462B46009603F01EFD5FEACB610E
:1040A00026D508BB20681021C1612021C161029979
:1040B0004145BDD14168002241F480414160202149
:1040C00020462B46009603F007FD68B920682021A2
:1040D000C161ADE7202084F84100606C40F0200011
:1040E0006064002084F84000012003B0BDE8F08F38
:1040F0000028F9D120682021C161002084F84110F6
:1041000084F8400003B0BDE8F08F0000000000001C
:104110002DE9F04F83B0044690F8410020280FD1DC
:10412000DDF83080B8F1000F0CD0DDF834B0BBF111
:10413000000F07D094F84000012808D1022533E091
:10414000022531E04FF40070606401252CE01F4629
:1041500016468A46012584F84050FFF791FE8146B5
:104160004FF40041012219230090204603F0B4FCD3
:10417000D0B9222084F84100402084F84200204633
:10418000514632463B4600256564C4F82480DDF87C
:104190003880A4F82AB06563CDE9008903F00CFCEF
:1041A00030B184F840500125284603B0BDE8F08FB7
:1041B000608DB0F5807F42F20040C8F2000005D368
:1041C000FF212185FF224FF0807304E0618D4FF0C5
:1041D00000732185CAB200902046514603F064FC6A
:1041E0000025FF260BE0608D4FF000732085C2B2E2
:1041F00020465146009503F057FC608D78B30421AA
:10420000002220464346CDF8009003F065FC20BB19
:104210002068616A406A0870218D606A01306062BE
:1042200001392185608D0904A0F101006085608D50
:10423000E3D10028E1D08021002220464346CDF87A
:10424000009003F049FC90B9608DB0F5807FCAD32F
:104250002685FF224FF08073CAE70125A4E7204698
:1042600041464A4603F078FC18B101259CE7012538
:104270009AE7206820214EF600030025C161CFF6A1
:10428000006342681A40426084F8411084F842504A
:1042900084F8405088E700002DE9F04F83B00446D1
:1042A00090F8410020280FD1DDF83080B8F1000FE0
:1042B0000CD0DDF834B0BBF1000F07D094F840000B
:1042C000012808D1022533E0022531E04FF40070C7
:1042D000606401252CE01F4616468A46012584F8B5
:1042E0004050FFF7CDFD81464FF4004101221923D4
:1042F0000090204603F0F0FBD0B9212084F8410063
:10430000402084F842002046514632463B46002574
:104310006564C4F82480DDF83880A4F82AB06563A9
:10432000CDE9008903F084FB30B184F840500125C9
:10433000284603B0BDE8F08F608DB0F5807F05D3CF
:10434000FF202085FF224FF0807304E0608D4FF046
:1043500000732085C2B2002000902046514603F031
:10436000A3FB0025FF260BE0608D4FF00073208536
:10437000C2B220465146009503F096FB608D50B3C3
:10438000204641464A4603F00FFC10BB606A216894
:1043900010F8012B8A626062608D01386085208D83
:1043A000411E2185608D0904E8D10028E6D08021D6
:1043B000002220464346CDF8009003F08DFB90B9D3
:1043C000608DB0F5807FCFD32685FF224FF08073BC
:1043D000CFE70125ACE7204641464A4603F0BCFB47
:1043E00018B10125A4E70125A2E7206820214EF697
:1043F00000030025C161CFF6006342681A404260A5
:1044000084F8411084F8425084F8405090E700004E
:10441000B0B5B6B0044602A8BC210025CDE934559C
:10442000CDE932553195FCF71FF845F2004120687F
:10443000C4F20001884201D036B0B0BD082002901D
:1044400002A8229500F040FC08B1FCF7C9FF44F235
:10445000E04431A9C5F60204206840F00200206063
:10446000206800F0020001900198C02031901220D5
:1044700032900020CDE933000420359040F2004016
:10448000C5F60200FFF714FCA06840F40010A0601D
:10449000A06800F400100190019836B0B0BD000093
:1044A00040F2500041F2FC61C2F20040C2F2004111
:1044B00000780A681044086070470000000000009F
:1044C00080B5032000F088F801F02AFA44F2184180
:1044D0004CF66033C5F60201C0F600030A680968AD
:1044E00001F00F01C2F30322595C9A5C01F01F0135
:1044F00002F01F02D04040F20802C2F2004220FA4D
:1045000001F1116040F20401C2F200410860032091
:1045100000F00AF800281CBF012080BD00F030F830
:10452000002080BD00000000B0B540F25001C2F292
:104530000041097801B3044640F20400C2F2004091
:104540004FF47A72B2FBF1F10068B0FBF1F002F0C7
:10455000A7F90F2C4FF001050CD858B94FF0FF30D8
:1045600000222146002500F027F840F25400C2F254
:10457000004004602846B0BD0120B0BD000000002E
:1045800080B582B044F2F440C5F60200016841F003
:1045900002010160006800F002000190019805200E
:1045A00000F01AF802B080BD80B507F0ADF980BD0B
:1045B00080B507F0BDF980BD70B514460D460646BE
:1045C00007F0C6F92946224604F022FB0146304690
:1045D00007F0C6F970BD000080B507F0D5F980BDC1
:1045E000B0B544F60C05C5F60205296849072968E7
:1045F00005D401F00701081A18BF0120B0BD21F051
:10460000070108432860FFF73BFC044655F8080CF7
:10461000800407D4FFF734FC001BB0F57A7FF5D98E
:104620000120B0BD0020B0BD80B501F029F944F2F1
:1046300020414CF66032C5F60201C0F6000209685E
:10464000C1F30211515C01F01F01C84080BD0000A0
:1046500080B544F2304EC5F6020E5EF8083C5EF8B6
:10466000081CC1F3051C5EF8041CBCF1000FDEF849
:10467000042016D0C2F3CC0201F00101514303F033
:104680000303022B00EE101AB8EE400A0ED0012BE5
:104690000FD01BB95EF8301C89060DD49FED341A7B
:1046A00018E00021C0E90011816080BD9FED2F1A44
:1046B00010E09FED2D1A0DE05EF8301C49F200026B
:1046C000C0F2D032C1F3C10122FA01F101EE101A99
:1046D000B8EE411ADEF800109FED263A6FF35F2125
:1046E00002EE101ADEF80010C1F34621B8EE422A9D
:1046F00000EE032A00EE10CAB7EE003AB8EE400A08
:1047000081EE000A32EE031A02EE101AB8EE422AC7
:1047100020EE010A32EE031A80EE011ABCEEC11A35
:1047200080ED001ADEF80010C1F3064101EE101A08
:10473000B8EE411A31EE031A80EE011ABCEEC11A2E
:1047400080ED011ADEF80010C1F3066101EE101AC7
:10475000B8EE411A31EE031A80EE010ABCEEC00A2F
:1047600010EE101A816080BD0024744A8096184CA7
:104770000024744C0000003980B544F2384EC5F670
:10478000020E5EF8103C5EF8101CC1F3053C5EF8AA
:104790000C1CBCF1000FDEF8042014D0C1F3001192
:1047A000C2F3CC02514300EE101A03F003010229B8
:1047B000B8EE400A0CD071B95EF8381C89060DD4E9
:1047C0009FED341A18E00021C0E90011816080BD1E
:1047D0009FED2F1A10E09FED2D1A0DE05EF8381CAA
:1047E00049F20002C0F2D032C1F3C10122FA01F154
:1047F00001EE101AB8EE411ADEF800109FED263ACD
:104800006FF35F2102EE101ADEF80010C1F34621AB
:10481000B8EE422A00EE032A00EE10CAB7EE003AC4
:10482000B8EE400A81EE000A32EE031A02EE101AC8
:10483000B8EE422A20EE010A32EE031A80EE011A87
:10484000BCEEC11A80ED001ADEF80010C1F306417B
:1048500001EE101AB8EE411A31EE031A80EE011A79
:10486000BCEEC11A80ED011ADEF80010C1F306613A
:1048700001EE101AB8EE411A31EE031A80EE010A69
:10488000BCEEC00A10EE101A816080BD0024744A8C
:104890008096184C0024744C000000390000000081
:1048A00080B544F2404EC5F6020E5EF8183C5EF844
:1048B000181CC1F3055C5EF8141CBCF1000FDEF897
:1048C000042014D0C1F30021C2F3CC02514300EE06
:1048D000101A03F003010229B8EE400A0CD071B996
:1048E0005EF8401C89060DD49FED341A18E00021B3
:1048F000C0E90011816080BD9FED2F1A10E09FED8F
:104900002D1A0DE05EF8401C49F20002C0F2D032D0
:10491000C1F3C10122FA01F101EE101AB8EE411AF9
:10492000DEF800109FED263A6FF35F2102EE101AB9
:10493000DEF80010C1F34621B8EE422A00EE032A49
:1049400000EE10CAB7EE003AB8EE400A81EE000A57
:1049500032EE031A02EE101AB8EE422A20EE010AD5
:1049600032EE031A80EE011ABCEEC11A80ED001A75
:10497000DEF80010C1F3064101EE101AB8EE411A3C
:1049800031EE031A80EE011ABCEEC11A80ED011A55
:10499000DEF80010C1F3066101EE101AB8EE411AFC
:1049A00031EE031A80EE010ABCEEC00A10EE101AB6
:1049B000816080BD0024744A8096184C0024744C99
:1049C000000000390000000080B584B00146B0F559
:1049D000805F4FF0000023DBB1F5004F5BDB00F0A0
:1049E0007880B1F5803F00F0B380B1F5002F40F042
:1049F0001E8144F20040C5F60200816D01F4403191
:104A0000B1F5003F00F01981B1F5803F00F0FF8063
:104A1000002940F02F810068000140F12B81C5E0A2
:104A2000B1F5806F1CDAB1F5807F00F06B80B1F5D5
:104A3000007F40F0FC8044F20041C5F60201086DA1
:104A4000C0F38212042A00F2158148F20000C0F27D
:104A5000BB00DFE812F09F00A800AF00EC00B80038
:104A600000F06380B1F5006F40F0E18044F2004156
:104A7000C5F60201886DC0F30262042A00F2FA80D2
:104A800048F20000C0F2BB00DFE812F084008D00A5
:104A90009400D1009D00B1F5805F00F06880B1F511
:104AA000804F40F0C48044F20040C5F60200816DA2
:104AB000C1F30271052900F2DD80DFE811F0060084
:104AC000CA00D100D800DE001C00FFF7ADFD04B025
:104AD00080BD44F20040C5F60200016D01F0405176
:104AE000B1F1005F00F09C80B1F1805F00F0A18027
:104AF000002940F0BF80006845F600218003C0F225
:104B00006221C0E044F20041C5F60201086D00F0E8
:104B10000702042A00F2AE8048F20000C0F2BB0097
:104B2000DFE802F038414885510044F20041C5F603
:104B30000201886DC0F34252042A00F29B8048F2C1
:104B40000000C0F2BB00DFE802F0252E35723E0007
:104B500044F20040C5F60200C16C0068C9031AD5D2
:104B6000000140F1878001A8FFF706FE55E044F2FE
:104B70000041C5F60201086DC0F30232042A00F2BA
:104B8000798048F20000C0F2BB00DFE802F0030CBD
:104B900013501C00086880016CD501A8FFF758FD70
:104BA000029804B080BD0868000163D501A8FFF732
:104BB000E3FD05E0086880005CD501A8FFF770FE02
:104BC000019804B080BDC86C0B6810F040520868B2
:104BD0000CD113F0040309D0C0F3C10049F2000165
:104BE000C0F2D03121FA00F004B080BDB2F1805F94
:104BF00002D110F4807050D1086810F400301CBF4E
:104C000045F60020C0F26220B2F1005F57E0006874
:104C100080002FD501A8FFF743FE039804B080BDA4
:104C20000068000126D501A8FFF7A6FD029804B090
:104C300080BD006880011DD5AFE7C16C036811F02D
:104C40004051026823D113F0040320D0C2F3C10005
:104C5000C4E7006800010DD501A8FFF78DFD9FE7AF
:104C60000068800006D501A8FFF71AFE98E70168E2
:104C7000490718D4002004B080BD006840F6001138
:104C8000C005C0F23D0101EAE07004B080BDB1F1A1
:104C9000805F0AD112F4807207D040F60010C0F293
:104CA0003D0004B080BD006896E7006810F4003055
:104CB0001CBF45F60020C0F26220B1F1005F18BFB2
:104CC000002004B080BD00002DE9F04381B004460F
:104CD000C07844F22C490007C5F6020901D4002629
:104CE0002DE0606E4FEA305003280DD80026DFE833
:104CF00000F0020E1613D9F80000002640F4003030
:104D0000C9F800004EB912E0012636B90FE0201DA7
:104D1000022103F0F1FF06464EB1B04611E004F166
:104D20002400022104F078F80646002EF5D1D9F8C7
:104D30002400616E20F440100843C9F824004FF0AD
:104D400000086078C0072FD0606D042807D8DFE81E
:104D500000F00A131B030300F6B1B04624E001265D
:104D6000002EFAD118E0D9F8000040F40030C9F85C
:104D70000000002EF1D10FE0201D002103F0BCFF48
:104D80000646002EE9D107E004F12400002104F0DA
:104D900043F80646002EE0D1D9F82400616D20F0DA
:104DA00007000843C9F824006078800731D5A06D5A
:104DB0004FEAB010042807D8DFE800F00A131B03FD
:104DC0000300F6B1B04624E00126002EFAD118E027
:104DD000D9F8000040F40030C9F80000002EF1D1ED
:104DE0000FE0201D002103F087FF0646002EE9D1C9
:104DF00007E004F12400002104F00EF80646002E1E
:104E0000E0D1D9F82400A16D20F4E0700843C9F87E
:104E100024006078400733D5D4F8A4004FEA7050DE
:104E2000042807D8DFE800F00A131B030300F6B1DB
:104E3000B04625E00126002EFAD118E0D9F800008E
:104E400040F40030C9F80000002EF1D10FE0201D21
:104E5000002103F051FF0646002EE9D107E004F1DE
:104E60002400002103F0D8FF0646002EE0D1D9F837
:104E70002C00D4F8A41020F460000843C9F82C00DA
:104E80006078000733D5D4F8A8004FEA30600428D2
:104E900007D8DFE800F00A131B030300F6B1B046A1
:104EA00025E00126002EFAD118E0D9F8000040F4E0
:104EB0000030C9F80000002EF1D10FE0201D0021C4
:104EC00003F01AFF0646002EE9D107E004F12400A2
:104ED000002103F0A1FF0646002EE0D1D9F82C00F6
:104EE000D4F8A81020F0E0600843C9F82C00E0785E
:104EF000800727D5A06C4FEA3010032806D8DFE8DA
:104F000000F002091202AEB1B0461BE00126002EED
:104F1000FAD10FE0D9F8000040F40030C9F80000E1
:104F2000002EF1D106E0201D022103F0E5FE064629
:104F3000002EE9D1D9F82000A16C20F03000084300
:104F4000C9F820006078C00631D5E06D4FEA3030F6
:104F5000042807D8DFE800F00A131B030300F6B1AA
:104F6000B04624E00126002EFAD118E0D9F800005E
:104F700040F40030C9F80000002EF1D10FE0201DF0
:104F8000002103F0B9FE0646002EE9D107E004F146
:104F90002400002103F040FF0646002EE0D1D9F89E
:104FA0002400E16D20F4E0400843C9F82400607853
:104FB000800625D5206E4FEA3040052807D8DFE867
:104FC00000F0030A0F03030396B1B04618E0012670
:104FD000002EFAD10CE0201D012103F08DFE04E02B
:104FE00004F12400012103F017FF0646002EECD146
:104FF000D9F82400216E20F4E0200843C9F82400E9
:105000006078400627D5D4F8AC004FEA3070052808
:1050100007D8DFE800F0030A0F03030396B1B04698
:1050200019E00126002EFAD10CE0201D012103F029
:1050300063FE04E004F12400012103F0EDFE0646C6
:10504000002EECD1D9F82C00D4F8AC1020F0E040C0
:105050000843C9F82C00607800061FD5E06ED0B177
:10506000B0F1005F12D0B0F1805F24D1D9F8000018
:1050700040F40030C9F800007EB9D9F82400E16E90
:1050800020F040500843C9F8240007E0201D01210A
:1050900003F032FE0646002EEFD0B046E078C0079F
:1050A00029D0606C03280AD8DFE800F0020D160250
:1050B000CEB1B0461FE00126002EEED1DDE701267D
:1050C000002EF6D10FE0D9F8000040F40030C9F806
:1050D0000000002EEDD106E0201D022103F00CFEA1
:1050E0000646002EE5D1D9F82000616C20F00300BF
:1050F0000843C9F82000A078400643D5D9F8D40366
:1051000040F48070C9F8D403FEF7BAFE074600BF2A
:10511000D9F8D403C00505D4FEF7B2FEC01B65283C
:10512000F6D303266EBBD9F84410D4F8B000414042
:1051300011F4407F11D0D9F84410D9F8442042F43A
:105140008032C9F84420D9F8442021F4407122F477
:105150008032C9F84420C9F84410B0F5807F0FD1DF
:10516000FEF78EFE074641F2893500BFD9F84400AC
:10517000800705D4FEF784FEC01BA842F6D30326A1
:1051800086B1B0462078C00741D0A06F4FEAF0004A
:10519000052823D8DFE800F003262B03030376B3AA
:1051A000B04634E04FF6CF73D4F8B00059F81C2C59
:1051B000C0F2FF0300F4407122F47C5203EA1013A2
:1051C000B1F5407F08BF1A436FF31F3049F81C2C1C
:1051D000D9F844100843C9F84400D3E70126002E4B
:1051E000DED10CE0201D012103F086FD04E004F176
:1051F0002400012103F010FE0646002ED0D1D9F87C
:105200002800A16F20F038000843C9F82800207852
:10521000800723D5606F052807D8DFE800F0030A70
:105220000F03030396B1B04618E00126002EFAD111
:105230000CE0201D012103F05FFD04E004F12400D7
:10524000012103F0E9FD0646002EECD1D9F8280033
:10525000616F20F007000843C9F828002078400754
:1052600025D5D4F89000052807D8DFE800F0030A18
:105270000F03030396B1B04619E00126002EFAD1C0
:105280000CE0201D012103F037FD04E004F12400AF
:10529000012103F0C1FD0646002EECD1D9F82C0007
:1052A000D4F8901020F007000843C9F82C002078AB
:1052B000800627D5D4F88C004FEA3070052807D82F
:1052C000DFE800F0030A0F03030396B1B04619E0CC
:1052D0000126002EFAD10CE0201D002103F00CFD68
:1052E00004E004F12400022103F096FD0646002E9E
:1052F000ECD1D9F82800D4F88C1020F0E040084315
:10530000C9F828002078400627D5D4F898004FEA3D
:10531000B020052807D8DFE800F0030A0F030303D5
:1053200096B1B04619E00126002EFAD10CE0201DFE
:10533000002103F0E1FC04E004F12400022103F069
:105340006BFD0646002EECD1D9F82C00D4F898104D
:1053500020F4E0500843C9F82C002078000627D537
:10536000D4F89C004FEA7030052807D8DFE800F039
:10537000030A0F03030396B1B04619E00126002E7D
:10538000FAD10CE0201D002103F0B6FC04E004F18A
:105390002400022103F040FD0646002EECD1D9F88E
:1053A0002C00D4F89C1020F460400843C9F82C006D
:1053B0002078000716D5D4F88000B0F5805F08D1BA
:1053C00004F12400022103F027FD002818BF4FF04C
:1053D0000108D9F82800D4F8801020F44050084380
:1053E000C9F828002078C00616D5D4F89400B0F586
:1053F000807F08D104F12400022103F00DFD002874
:1054000018BF4FF00108D9F82C00D4F8941020F4FC
:1054100040700843C9F82C00A078000721D5D4F8C3
:10542000A000B0F5003F19D0B0F5803F10D0C0BB50
:10543000201D002103F060FC06468EB9D9F82C002F
:10544000D4F8A01020F440300843C9F82C0008E03C
:1054500004F12400022103F0DFFC0646002EEDD00B
:10546000B046A078400729D5D4F88400B0F5401F95
:1054700021D0B0F5001F18D0B0F5801F40F0C180DA
:10548000D9F8000040F40030C9F80000AEB9D9F8EE
:105490002800D4F8841020F440100843C9F82800EC
:1054A0000CE00126002EDBD1C8E704F12400012125
:1054B00003F0B2FC0646002EE9D0B046A078C00743
:1054C0001FD0E06CB0F5803F10D0B0B9D9F8000023
:1054D00040F40030C9F8000096B9D9F82000E16C1A
:1054E00020F480300843C9F820000AE0201D022182
:1054F00003F002FC06461EB9EFE70126002EECD0B1
:10550000B046E078800608D504F12400022103F0BB
:1055100083FC002818BF4FF00108206881031ED4C7
:10552000C10234D4C1003CD4810245D441004DD4E1
:10553000B0F1FF3F5ADD000208D5D9F82800D4F8B1
:10554000881020F440000843C9F82800B8F1000F83
:1055500018BF4FF00108404601B0BDE8F083E16F8D
:105560006FF0010202EB3122022A0AD34FEA312204
:105570003AB1012A4AD1D9F8002042F40032C9F8E0
:105580000020002E45D04FF00108C102CAD5D9F83D
:105590002410226F21F000411143C9F82410C100EA
:1055A000C2D559F81C1CD4F8B42021F48041114311
:1055B00049F81C1C8102B9D5D9F82410A26E21F03B
:1055C00080711143C9F824104100B1D559F81C1C51
:1055D00021F4004149F81C1CD4F8B81059F81C2CCF
:1055E000114349F81C1CB0F1FF3FA4DCD9F820108E
:1055F000226D21F040511143C9F820100002A5D5B9
:105600009BE70126002E7FF458AF40E70126002ECD
:10561000B9D1D9F8282022F440721143C9F82810D2
:10562000C1027FF57FAFB2E72DE9F04381B00028DA
:1056300000F0F48042F200080446C5F200288946D2
:10564000D8F8000000F00F0088420ED2D8F8000011
:1056500020F00F0040EA0900C8F80000D8F8000068
:1056600000F00F00484540F0D980206844F2184708
:105670004107C5F602070AD521693A6802F07002AF
:10568000914204D93A6822F070021143396001074F
:105690000AD561697A6802F07002914204D97A6889
:1056A00022F0700211437960C1060AD5A1697A68B7
:1056B00002F4E062914204D97A6822F4E062114374
:1056C000796081060AD5E169BA6802F070029142F8
:1056D00004D9BA6822F070021143B96081070AD573
:1056E000E1683A6802F00F02914204D93A6822F068
:1056F0000F0211433960C0077ED1206881070AD5A7
:10570000E1683A6802F00F02914204D23A6822F04E
:105710000F0211433960D8F8001001F00F0149451C
:105720000DD9D8F8001021F00F0141EA0901C8F89D
:105730000010D8F8001001F00F0149456ED1410763
:105740000AD521693A6802F07002914204D23A689F
:1057500022F070021143396001070AD561697A6845
:1057600002F07002914204D27A6822F07002114372
:105770007960C1060AD5A1697A6802F4E0629142B3
:1057800004D27A6822F4E0621143796080060AD577
:10579000E069B96801F07001884204D2B96821F06B
:1057A00070010843B86000F0BBF839684CF660320D
:1057B000C0F600023B68C1F3032103F00F03515C04
:1057C000D25C01F01F01C84002F01F0140F2080244
:1057D00020FA01F1C2F20042116040F2040140F2ED
:1057E0005402C2F20041C2F2004208601068FEF7A3
:1057F0009BFE01B0BDE8F083386820F47061D4E905
:105800000102012841EA020139600BD003282BD0A4
:1058100002282ED157F8181C890307D4012001B0A3
:10582000BDE8F08357F8181CC905F7D557F8081CD0
:1058300021F00701084347F8080CFEF721FB064654
:1058400041F2883557F8080C616800F03800B0EB79
:10585000C10F3FF452AFFEF713FB801BA842F1D9F2
:10586000032001B0BDE8F08357F8181C8901D5D595
:10587000DCE757F8181C4907D0D5D7E7000000002F
:1058800080B500F04DF844F218414CF66033C5F68F
:105890000201C0F600030A68096801F00F01C2F3B3
:1058A0000322595C9A5C02F01F0220FA02F201F016
:1058B0001F0040F2080122FA00F0C2F20041086025
:1058C00040F20401C2F200410A6080BD0000000005
:1058D00080B5FFF7D5FF44F21C414CF66032C5F6A7
:1058E0000201C0F600020968C1F30211515C01F027
:1058F0001F01C84080BD000080B5FFF7C1FF44F222
:105900001C414CF66032C5F60201C0F6000209687F
:10591000C1F30221515C01F01F01C84080BD0000AD
:1059200044F20041C5F602010869C0F3C200032831
:105930000FD002282AD070BB0868800649F2000008
:10594000C0F2D03058BF70470968C1F3C101C840E8
:1059500070478A6A886AC0F3051CC86ABCF1000FE8
:105960004B6B1DD0C3F3CC0300F00100584302F091
:105970000302022A00EE100AB8EE400A12D0A2B9C1
:105980000868800614D49FED261A1EE045F6002014
:10599000C0F26220704740F60010C0F23D00704730
:1059A000002070479FED1D1A0FE09FED1B1A0CE0C1
:1059B000086849F20002C0F2D032C0F3C10022FAF6
:1059C00000F001EE100AB8EE411A086B9FED153A8F
:1059D0006FF35F2002EE100A086BC0F34620B8EEAA
:1059E000422A013000EE032A00EE10CAB7EE003A58
:1059F000B8EE400A81EE000A32EE031A20EE010AE8
:105A000001EE100AB8EE411A80EE010ABCEEC00A9F
:105A100010EE100A704700BF0024744A8096184C9C
:105A20000024744C000000392DE9F04381B0F8B136
:105A30008046007844F20049C007C5F602095AD0F2
:105A4000D9F8100000F03801D9F82800102905D045
:105A500018290FD100F0030002280BD1D9F800005B
:105A6000800344D5D8F80400002840D101272FE056
:105A7000012735E2D8F804402CB1B4F5A02F0DD0A1
:105A8000B4F5803F10D0D9F8000020F48030C9F878
:105A90000000D9F8000020F4802009E0D9F80000C7
:105AA00040F48020C9F80000D9F8000040F48030AC
:105AB000C9F80000FEF7E4F90546A4B1D9F80000E2
:105AC000800314D4FEF7DCF9401B6428F6D90327C1
:105AD0000020002800F004820DE000BFFEF7D0F99E
