:020000040800F2
:100000005817002439030008195A0008A1510008A4
:100010005159000829070008196500080000000070
:10002000000000000000000000000000295E000841
:100030000910000800000000515A0008615E000825
:100040005303000853030008530300085303000838
:100050005303000853030008530300085303000828
:100060005303000853030008530300085303000818
:1000700061070008530300085303000853030008F6
:1000800053030008530300085303000853030008F8
:1000900053030008530300085303000853030008E8
:1000A00053030008530300085303000853030008D8
:1000B00053030008530300085303000853030008C8
:1000C00053030008530300085303000853030008B8
:1000D00053030008530300085303000853030008A8
:1000E00053030008530300080000000053030008F6
:1000F0005303000853030008530300085303000888
:100100005303000853030008530300085303000877
:100110005303000853030008530300085303000867
:100120005303000853030008530300085303000857
:100130005303000853030008530300085303000847
:1001400000000000000000000000000000000000AF
:100150005303000853030008530300085303000827
:100160005303000853030008530300085303000817
:100170005303000853030008530300080000000065
:1001800053030008530300085303000853030008F7
:1001900053030008530300085303000853030008E7
:1001A00053030008530300085303000853030008D7
:1001B00053030008530300085303000853030008C7
:1001C00053030008530300085303000853030008B7
:1001D00053030008530300085303000853030008A7
:1001E0005303000853030008530300085303000897
:1001F0005303000853030008530300085303000887
:100200005303000853030008530300085303000876
:100210005303000853030008530300085303000866
:1002200053030008530300085303000800000000B4
:1002300053030008530300080000000053030008A4
:100240005303000853030008530300085303000836
:100250005303000853030008530300085303000826
:100260005303000853030008530300085303000816
:100270005303000853030008530300080000000064
:100280005303000853030008530300080000000054
:10029000000000005303000800F002F800F03CF8F2
:1002A0000AA090E8000C82448344AAF10107DA45D1
:1002B00001D100F031F8AFF2090EBAE80F0013F0E7
:1002C000010F18BFFB1A43F001031847C471000067
:1002D000E4710000103A24BF78C878C1FAD85207F8
:1002E00024BF30C830C144BF04680C6070470000B0
:1002F0000023002400250026103A28BF78C1FBD82F
:10030000520728BF30C148BF0B6070471FB507F0C8
:10031000A9F81FBD10B510BD00F07AF81146FFF71F
:10032000F5FF06F079FA00F098F803B4FFF7F2FF52
:1003300003BC00F09FF800000948804709480047C7
:10034000FEE7FEE7FEE7FEE7FEE7FEE7FEE7FEE785
:10035000FEE7FEE704480549054A064B70470000E2
:10036000815F0008990200085811002458170024E2
:1003700058130024581300244FF000020429C0F041
:10038000128010F0030C00F01B80CCF1040CBCF1C7
:10039000020F18BF00F8012BA8BF20F8022BA1EB19
:1003A0000C0100F00DB85FEAC17C24BF00F8012BFE
:1003B00000F8012B48BF00F8012B70474FF00002F6
:1003C00000B5134694469646203922BFA0E80C504B
:1003D000A0E80C50B1F12001BFF4F7AF090728BF26
:1003E000A0E80C5048BF0CC05DF804EB890028BFA2
:1003F00040F8042B08BF704748BF20F8022B11F0CB
:10040000804F18BF00F8012B704770477047704746
:10041000754600F02BF8AE4605006946534620F0BD
:100420000700854618B020B5FFF794FFBDE82040CF
:100430004FF000064FF000074FF000084FF0000BA0
:10044000AC46ACE8C009ACE8C009ACE8C009ACE80F
:10045000C00921F007018D46704710B50446AFF37F
:1004600000802046BDE81040FFF75FBF004870479E
:100470006000002401491820ABBEFEE72600020000
:100480007047000000000000B0B50446006842F26A
:10049000001140F48070C4F20201884204D142F29B
:1004A0000830C4F2020003E046F20830C5F602004C
:1004B000006810F4403F10D004F046F8616805462B
:1004C000B1F5803F05D0B1F5403F21D0B1F5003FF7
:1004D0001FD1080CB5FBF0F51BE04FF4002003F032
:1004E000D7F861680546A1F580224FEAB2420A2A90
:1004F0000FD8DFE802F0060606060606494B4D4F08
:1005000051006FF0010000EA5140B5FBF0F500E04A
:10051000AD0802F099FD41F2030188420DD8206830
:1005200042F60151C0F231118D4281682CBF41F475
:10053000807121F480718160B0BD4BF62140C0F222
:10054000BE00854205D82068816821F44071816031
:10055000B0BD47F64100C0F27D10854203D8206847
:100560000122816808E020684FF28101C0F2FA217F
:100570008D42816804D8022262F309218160B0BDF6
:1005800041F440718160B0BD2D09C2E76D09C0E73B
:10059000AD09BEE7ED09BCE72D0ABAE7000000008F
:1005A00010B5846B616D11F0500F616D05D0C906F7
:1005B0000ED4E16CC96C884710BD41F400706065D1
:1005C00020680168090707D4C068800716D10AE0CF
:1005D000204600F085FF10BD04F076FF70B1206862
:1005E000C06880040AD4606D20F480706065606D1E
:1005F000C00403D4606D40F001006065204600F047
:1006000067FF10BD0000000080B5806B416D41F0B8
:1006100040014165816D41F00401816500F060FF9A
:1006200080BD00000000000080B5806B00F054FF2A
:1006300080BD00000000000070B540F6D42440F6F4
:10064000D8450026C2F20044C2F2004520462946A1
:1006500005F052FD632E06F10106F7D34FF48270C8
:100660002080288070BD000070B50446006804F04A
:1006700017FF00281CBF002070BD20683F22C8F271
:1006800000028168114209D0606D40F01000606581
:10069000A06D40F00100A065012070BD04F0D8FEFF
:1006A00002F0DAFC42F2000546F20031C4F2020523
:1006B000226805F5807605F54073C5F60201B24261
:1006C00008BF1946AA42054608BF1946084604F065
:1006D000DBFE21680A46B14204BF42F20002C4F2C6
:1006E0000202002818BF8A4203D121680868C007A7
:1006F00008D0002070BD00BF21680868C0074FF017
:10070000000010D1084604F0CBFE10B9206804F0B8
:100710009FFE02F0A1FC401B0328EDD32068006877
:10072000C007E9D1B0E770BDFEE70000000000009F
:10073000B0B504460138B0FA80F00121450940F611
:100740000040C5F602002A4602F076FC782001211E
:100750002A4606F0CDFC204604F05AFEB0BD00004B
:1007600080B540F6C870C2F2004001F0D5F80C2008
:1007700002F07EFD80BD000040F20F420168C4F22D
:100780000202914210DC6F22C4F20202914220DC8C
:100790003F22C4F20202914236DC1022C4F202026D
:1007A000914254D028224EE040F26F42C4F202023D
:1007B00091421ADC40F23F42C4F2020291422ADC2A
:1007C00040F21042C4F20202914240D040F228426C
:1007D00039E09F22C4F20202914225DC7022C4F269
:1007E0000202914233D088222DE040F29F42C4F2AF
:1007F000020291421FDC40F27042C4F202029142B6
:1008000025D040F288421EE04022C4F2020291420A
:100810001DD0582217E040F24042C4F20202914239
:1008200015D040F258420EE0A022C4F202029142DA
:100830000DD0B82207E040F2B842C4F20202914261
:1008400005D040F2A042C4F2020291421AD1D0F87F
:1008500000C06FF00F024AF6AB2352FA8CF2CAF6D0
:10086000AA23A2FB033109A35F2AC1F302115B5C37
:1008700040F2FF312CEA0101C36588BF0431816574
:1008800008467047016821F0FF01F8E700061016DE
:10089000000610160000000010B545F2574201682E
:1008A000C5F6020291420EDC45F22F42C5F6020265
:1008B000914217DC45F20842C5F60202914226D069
:1008C00045F21C421FE045F27F42C5F6020291420A
:1008D00011DC45F25842C5F60202914217D045F2AA
:1008E0006C4210E045F23042C5F6020291420ED051
:1008F00045F2444207E045F29442C5F602029142B5
:1009000005D045F28042C5F60202914219D1017824
:100910004CF6CD42CCF6CC4245F600030839C5F67C
:100920000203A1FB021203F18001120903EB82030F
:1009300002F01F0203660123416603FA02F1816699
:1009400010BD02784AF6AB23CAF6AA234FF0080E70
:10095000103AA2FB032340F20F42C4F202024FEA14
:10096000131C914202F1AA04624688BF0EEB1312D7
:1009700040F60003A142C4F2020303F1800128BF44
:100980006246D3E70000000010B50279511E072926
:1009900088BF10BD45F2574C45F6FC0E0368C5F6FE
:1009A000020CC5F6020E63450EF1440C0EDC45F256
:1009B0002F44C5F60204A34217DC45F20844C5F6ED
:1009C0000204A34226D045F21C441FE045F27F44B6
:1009D000C5F60204A34211DC45F25844C5F60204F0
:1009E000A34217D045F26C4410E045F23044C5F6FE
:1009F0000204A3420ED045F2444407E045F280448D
:100A0000C5F60204A34205D045F29444C5F602049B
:100A1000A34209D10EEB8202C2660122C0F870C067
:100A200002FA01F1416710BD40F6FC0EC4F2020E5D
:100A30000EF1440CEEE700008169B1F5005F07D0CC
:100A400079B9816A022912D0012916D079B112E050
:100A5000816A03290FD8DFE801F0020A02100120A1
:100A60007047816A03293CBF0120704703D1C06AE7
:100A7000C0F30060704700207047C06AA0F1C070EA
:100A8000B0FA80F04009704770B540F26F44D0F87A
:100A900000E0C4F20204D0F858C0A64519DC9F2536
:100AA000C4F20205AE4531DC5725C4F20205AE455D
:100AB00056DC1025C4F20205AE4500F092802825D0
:100AC000C4F20205AE4500F08C804025C4F2020558
:100AD00084E045F22F45C5F60205AE452BDC40F219
:100AE000B745C4F20205AE4548DC40F27045C4F299
:100AF0000205AE4575D040F28845C4F20205AE4508
:100B00006FD040F2A045C4F2020567E040F22745ED
:100B1000C4F20205AE4540DCA025C4F20205AE4594
:100B20005FD0B825C4F20205AE455AD040F2104558
:100B3000C4F2020552E045F26B45C5F60205AE452A
:100B40003CDC45F23045C5F60205AE4549D045F2DC
:100B50004445C5F60205AE4543D045F258453BE055
:100B60005825C4F20205AE453BD07025C4F20205FB
:100B7000AE4536D08825C4F202052FE040F2B845D4
:100B8000C4F20205AE452CD045F20845C5F6020573
:100B9000AE4526D045F21C451EE040F22845C4F281
:100BA0000205AE451DD040F24045C4F20205AE45F7
:100BB00017D040F25845C4F202050FE045F26C45EB
:100BC000C5F60205AE450CD045F29445C5F60205C2
:100BD000AE4506D045F28045C5F60205AE4540F06B
:100BE000C980456EC66E002E866E6E601CBFD0E951
:100BF0001C566E60A64515DC9F24C4F20204A6456F
:100C00002BDC5724C4F20204A6454EDC1024C4F2A7
:100C10000204A64576D02824C4F20204A64571D069
:100C200040246BE045F22F44C5F60204A64527DCBC
:100C300040F2B744C4F20204A64542DC40F27044DC
:100C4000C4F20204A6455DD040F28844C4F2020416
:100C5000A64557D040F2A04450E040F22744C4F2E9
:100C60000204A6453CDCA024C4F20204A64549D0F7
:100C7000B824C4F20204A64544D040F210443DE03A
:100C800045F26B44C5F60204A6454FDC45F23044FC
:100C9000C5F60204A6455BD045F24444C5F60204FD
:100CA000A64555D045F258444EE05824C4F20204FB
:100CB000A64527D07024C4F20204A64522D0882479
:100CC0001CE040F2B844C4F20204A6451AD045F232
:100CD0000844C5F60204A6453AD045F21C4433E068
:100CE00040F22844C4F20204A6450BD040F240442E
:100CF000C4F20204A64505D040F25844C4F20204EE
:100D0000A64537D104683F258668C06D00F01F00F6
:100D1000402E05FA00F0CCF80800206820F480206E
:100D20002060636021D0A160E26070BD45F26C4438
:100D3000C5F60204A6450BD045F28044C5F6020470
:100D4000A64505D045F29444C5F60204A64511D146
:100D50000468C66D806806F01F060125402805FA64
:100D600006F6CCF80460636002D1A260E16070BD59
:100D7000A160E26070BD0000B0B5044600F090F8DC
:100D8000204600F031F890B1002000BF0546012058
:100D900005F04AFC204600F027F8C62D03D80028AD
:100DA00005F10100F2D1C62D01D90120B0BD2046C8
:100DB00000F01AF800281CBF0020B0BD002000BFC2
:100DC0000546012005F030FC204600F00DF8EE2D20
:100DD00003D8002805F10100F2D00020EE2D88BFD5
:100DE0000120B0BD00000000002801D0C0B2704753
:100DF00080B540F600004FF48051C5F6020002F0C5
:100E00000BF9BDE88040C0B2704700000000000050
:100E1000002818BF704780B540F600000A46C5F6A6
:100E200002004FF4805102F007F9BDE8804070479E
:100E3000B0B5044600F0B0F8204600F099F820461E
:100E4000FFF79AFFCC20214600F0B6F8BE202146DD
:100E500000F0B2F8204600F077F80546204600F092
:100E600073F80021072888BF4FF0FF31B6EE041B4E
:100E7000072885EA010281EA0001D2B242EA012193
:100E800009B200EE101AB8EEC00B20EE010BBDEE59
:100E9000C00B10EE100A88BF404200B2B0BD000087
:100EA00080B586B04FF48050019000200290012060
:100EB00003900220049040F6000001A9C5F602004C
:100EC00001F0DAFF06B080BD80B586B04FF48050E7
:100ED0000190012001A9CDE902000220049040F612
:100EE0000000C5F6020001F0C7FF06B080BD00009B
:100EF00080B5002000F03CF80020FFF73DFF80BDEA
:100F000010B50446FFF7E0FF00212046FFF780FF01
:100F1000022005F089FB01212046FFF779FFFFF74A
:100F2000BFFF0C2005F080FB2046FFF75DFF044665
:100F300000284FF0320018BF012405F075FB204651
:100F400010BD00000000000070B504460125002619
:100F50002046FFF7D5FFF1B2C001082D05F10105CC
:100F600040EA5106F4D3F0B270BD0000000000006A
:100F700010B50446FFF7A8FF00212046FFF748FF01
:100F800040F2EE2005F050FB01212046FFF740FF24
:100F90000F2005F049FB10BD10B50446FFF7E8FF30
:100FA0002046FFF7E9FECC20214600F005F844205A
:100FB000214600F001F810BDF0B581B00C460546A1
:100FC000FFF782FF012700BF0021204605F0010640
:100FD0006D08FFF71DFF002E4FF002004FF03C069A
:100FE00004BF3C20022605F01FFB01212046FFF72D
:100FF0000FFF304605F018FB082F07F10107E3D378
:1010000001B0F0BD000000007047000000000000CB
:1010100070B54FF4F07005F0EBFA40F60040012196
:10102000C5F602000022012602F006F804F0BCF822
:10103000FFF75EFF06F088F840F2400440F230050A
:10104000C2F20044C2F200452046294605F0D8FE0F
:1010500006F0A2F82046294605F01AFFFFF7ECFA41
:1010600040F6FE40C2F20040C68270BD00000000A3
:1010700080B540F6FE40C2F20040018A408A013944
:10108000B1FA81F10138B0FA80F04909400908430A
:1010900004F09AF980BD0000EFF3108072B600BF33
:1010A000FEE70000000000002DE9F04182B0044698
:1010B00090F85000012803D1022002B0BDE8F08171
:1010C000012084F8500000200190009042F20007B7
:1010D000C4F202072068B8420BD107F580780D46AC
:1010E000404604F0EDF90646206804F0E9F9304383
:1010F0000AD0606D40F0200060650120002184F876
:10110000501002B0BDE8F08146F200002168C5F63B
:1011100002004145064608BF3E46B94208BF0E469A
:101120002A6841F48071D6F80833002A23F440423B
:1011300015D042F2001C6B68C4F2020C614542EA11
:101140000301C6F808131BD1384604F0ADF9074671
:10115000404604F0A9F93843B0B10020CEE742F28E
:101160000013C6F80823C4F20203994216D1384688
:1011700004F09AF90546404604F096F928430FE03A
:1011800004F092F90028E8D1D6F8080340F61F7160
:1011900088432968AA680843104309E004F084F9E9
:1011A00008B10020AAE7D6F8080340F61F7188436B
:1011B000C6F808030020A1E72DE9F04782B000221D
:1011C0000192044690F85000012803D1022002B099
:1011D000BDE8F08720680D46012684F8506004F0D1
:1011E0006BF928B1606D40F0200060650120DEE001
:1011F0002A6892FAA2F0B0FA80F3100308BF930EA7
:101200002068696803F01F0306FA03F3C7693B43CC
:10121000C36104F069F9206804F04EF906462068BD
:1012200004F036F9304368D120682968AA6804F0D0
:101230007FF941F20000C5F60040006800F0704000
:10124000B0F1805F06D120686A690E21C06801EAAA
:1012500050030CE02068C1686A69C068C9064FEA9B
:10126000500002D400F00E0301E000F008032969E9
:101270002068042928D1016E2A6801F0F841B1EBF9
:10128000826F4FEA826103D1026E22F00042026651
:10129000426E02F0F8428A4203D1426E22F00042CE
:1012A0004266826E02F0F8428A4203D1826E22F0D8
:1012B00000428266C26E02F0F8428A421DD1C16EBF
:1012C00021F00041C16618E002FA03F32A6804F035
:1012D00077F9687E0138B0FA80F120684A092969F7
:1012E000D20704F079F9287E0138B0FA80F120683D
:1012F0004A092969D20204F057F9206804F0D0F8AD
:1013000008B1002053E020682968EA6804F024F955
:101310000021E868C4F2FF71884243D14FF6FF70A4
:101320002968C0F20F004FF0806711EA000C91FAB3
:10133000A1F0B0FA80F2134608BF8B0E20685E1C45
:1013400007EB836306F01E0E06F01F060127BEF1B1
:10135000090F03F0F84307FA06F60DD8BCF1000FA9
:1013600008BF8A0E511C43EA060201F01F0101EB7F
:10137000410142EA015112E0BCF1000F08BF8A0EA0
:10138000511C002201F01F01CFF6206201EB410148
:1013900002EB015146EA0302114341F00071AA68D1
:1013A00004F0C6F82868B0F1FF3F06DD00200021F8
:1013B00084F8501002B0BDE8F08746F2000842F20F
:1013C0000007C5F60208C4F2020708F54079216853
:1013D00007F5807607F540724846B14208BF1046CF
:1013E000B94208BF104604F04BF8216842F20012DF
:1013F00041F48071C4F202029142824608D138461B
:1014000004F04EF80746304604F04AF8384302E04C
:10141000404604F045F800287FF4E4AE5FEA0A2075
:10142000296809D40020CCF68430814204D1206898
:1014300040451DD00020BAE75FEACA1009D4002059
:10144000CCF25270814204D12068404531D0002056
:10145000ADE75FEA4A204FF00000A8D40022CCF6A6
:10146000B8729142A3D12068404527D000209EE762
:101470004AF40001484604F08FF840F2000042F6BA
:101480006351C2F20040C0F23E5100688009A0FBE7
:1014900001018809022101EB40000190019858B137
:1014A000019801380190019800284FF00000F7D111
:1014B0007DE74AF0807103E0002078E74AF480017C
:1014C000484604F069F8002071E7000000000000C1
:1014D000704700000000000070470000000000009E
:1014E0007047000000000000F0B581B004460028FD
:1014F0004FF00000009019D0606D30B9204600F028
:101500000BF90020A06584F85000206803F0C4FFA8
:1015100010B1206803F094FF206803F0C9FF38B1D0
:10152000206803F0C5FFE0B1002523E00125E3E0DA
:10153000206803F099FF40F2000042F66351C2F2C6
:101540000040C0F23E5100688009A0FB010101206B
:1015500000EB9110009000980028E1D0009801382D
:10156000F8E7606D012540F010006065A06D40F067
:101570000100A065206803F09FFF616D01F010017C
:101580000843606D03D040F010000125B3E020F463
:10159000817002306065206803F082FF58BB2068CC
:1015A00042F2001140F48070C4F2020142F20006DF
:1015B0008842C4F2020640F0A280304603F070FF79
:1015C000074606F5807003F06BFF384398B906F5BF
:1015D000807006F54072216846F20003C5F60203EA
:1015E0008142104618BF03F54070B142616808BFE0
:1015F000104603F0C9FF01F027FD41F204018842C3
:101600000CD3A068102809D1607D216B227F41EAAC
:10161000403040EA024040F01C0108E0607D216B50
:10162000227F41EA4030A168084340EA0241207F1E
:10163000012806D1206A0022CFF6FE7202EB40405C
:101640000143606A28B100F47870A26A084340EA56
:10165000020120684CF20303CFF6F073C2681A400F
:101660001143C16003F028FF0646206803F010FF15
:10167000304331D1217D2068E26A44F20307C36818
:1016800042EA813123EA07021143C16094F838101D
:101690000129016914D14FF61E020027CFF600423E
:1016A000CFF6FF771140D4E90F231943636C07EBA2
:1016B00002421143A26C1943114341F0010101E0C0
:1016C00021F0010101610169626B21F07041114358
:1016D00001612046FEF7D8FE2068E1680129026B0F
:1016E00022F00F0102D1A269013A114301630121E5
:1016F000606D61F301006065284601B0F0BD46F2FF
:101700000000C5F6020003F0CBFE00287FF473AFA3
:101710005DE700000000000070B5B6B0044602A806
:10172000BC210025CDE93455CDE932553195FEF780
:1017300045FE42F200012068C4F20201884201D055
:1017400036B070BD4FF4002002900A200390F020C4
:1017500004900820CDE90500022007908020CDE903
:10176000080502A80A952A9502F012F908B1FFF7B8
:1017700093FC44F2D8400026C5F60200016841F00F
:1017800020010160016801F0200101910199816847
:1017900041F001018160806831A900F001000190F1
:1017A00001980320CDE9310000203396C5F60200F0
:1017B00001F062FB40F6C8752820C2F20045C4F271
:1017C000020028600920C5E90106EE604FF4806040
:1017D00028614FF4006068614FF40050A8614FF435
:1017E0008070C5E9070628466E6200F065FE08B104
:1017F000FFF752FCE564AC6336B070BD000000003A
:101800002DE9F04742F200060446C4F202060368DE
:1018100046F2003006F5807706F54075C5F6020001
:10182000BB42904608BF2846B342894608BF2846B7
:1018300003F02AFE8246206803F03EFE18B994F8B1
:101840005000012802D10220BDE8F087BAF1090F4B
:101850004FF0010084F8500058D800FA0AF040F226
:101860002121084252D02046FEF7FEFE30B1054647
:10187000002084F850002846BDE8F0872068616D9C
:1018800040F60172B84221EA020118BF0646BAF1D9
:10189000000F01F58071616518BF864203D1616D4B
:1018A00021F480116165616D40F22967C9044FF030
:1018B000000144BFA16D21F00601C0F6000700221F
:1018C000A16540F2A151E36CC0F60001C3E90F1716
:1018D00040F20967E16AC0F60007DF641C23036079
:1018E00084F85020426842F01002426003F0F4FD98
:1018F0002168E06C40314A46434601F08DF80546C8
:10190000206803F009FE2846BDE8F087002084F82F
:1019100050000120BDE8F0872DE9F04381B000219F
:10192000009140F200010446C2F2004140F26F49CA
:10193000A56DC4F20209086848F2B511C1F64E312E
:101940002668A0FB01084E452F682A6815DC9F20F9
:10195000C4F2020086422BDC5720C4F20200864209
:101960004FDC1020C4F20200864278D02820C4F256
:101970000200864273D040206CE045F22F40C5F64D
:101980000200864227DC40F2B740C4F202008642E1
:1019900043DC40F27040C4F2020086425FD040F265
:1019A0008840C4F20200864259D040F2A04051E083
:1019B00040F22740C4F2020086423DDCA020C4F27F
:1019C000020086424BD0B820C4F20200864246D0C4
:1019D00040F210403EE045F26B40C5F60200864200
:1019E00074DC45F23040C5F60200864200F081808A
:1019F00045F24440C5F6020086427AD045F258408E
:101A000072E05820C4F20200864228D07020C4F24E
:101A10000200864223D088201CE040F2B840C4F285
:101A2000020086421BD045F20840C5F602008642FD
:101A30005FD045F21C4057E040F22840C4F202005B
:101A400086420CD040F24040C4F20200864206D0EA
:101A500040F25840C4F20200864240F0ED84E06D4E
:101A600000F01F01082000FA01F23A4200F0148150
:101A700040F20F40C4F20200864213DC6F20C4F231
:101A80000200864200F38E803F20C4F202008642AC
:101A900000F3CF801020C4F20200864200F0ED80F7
:101AA0002820E5E04E4500F3898040F23F40C4F233
:101AB0000200864200F3C48040F21040C4F20200EB
:101AC000864200F0DA8040F22840D1E045F26C40D6
:101AD000C5F6020086420CD045F28040C5F60200F1
:101AE000864206D045F29440C5F60200864240F098
:101AF000A3842068E16D01F01F010368580727D512
:101B00000420884010EA020722D01904686000F11E
:101B10008780980600F18C8440F20F40C4F20200E6
:101B2000864200F3AB836F20C4F20200864200F3CA
:101B3000E6833F20C4F20200864200F35084102066
:101B4000C4F20200864200F06D84282000F066BCDA
:101B5000980742D50220884010EA02073DD01904B8
:101B6000686000F10E83980600F1988440F20F40FF
:101B7000C4F20200864200F3AF836F20C4F2020079
:101B8000864200F311843F20C4F20200864200F333
:101B900056841020C4F20200864200F0738428208C
:101BA00000F06CBC9F20C4F20200864251DC702021
:101BB000C4F20200864260D0882059E040F29F4083
:101BC000C4F2020086424BDC40F27040C4F20200D4
:101BD000864252D040F288404AE0180740F12C84F7
:101BE00008208840104000F0278440F20F40C4F2E3
:101BF0000200864200F32C836F20C4F2020086426A
:101C000000F34F833F20C4F20200864200F3938327
:101C10001020C4F20200864200F0B1832820A9E31C
:101C2000D80300F1B482A16C002940F00C8300F0CD
:101C300003BC4020C4F2020086421ED0582017E0A8
:101C400040F24040C4F20200864216D040F25840B2
:101C50000EE0A020C4F2020086420ED0B82007E0B9
:101C600040F2B840C4F20200864206D040F2A040E2
:101C7000C4F20200864240F08E822068042300688D
:101C8000184209D02068036823F004030360AA60A7
:101C9000606D40F001006065012000FA01F23A42F7
:101CA00070D040F20F40C4F20200864210DC6F2078
:101CB000C4F2020086421CDC3F20C4F202008642CD
:101CC00032DC1020C4F20200864251D028204AE0C3
:101CD0004E451ADC40F23F40C4F2020086422ADC44
:101CE00040F21040C4F20200864241D040F2284047
:101CF00039E09F20C4F20200864225DC7020C4F245
:101D00000200864234D088202DE040F29F40C4F289
:101D1000020086421FDC40F27040C4F2020086429C
:101D200026D040F288401EE04020C4F202008642E5
:101D30001ED0582017E040F24040C4F20200864214
:101D400016D040F258400EE0A020C4F202008642B5
:101D50000ED0B82007E040F2B840C4F2020086423C
:101D600006D040F2A040C4F20200864240F0168243
:101D70002068406900F0800020B1AA60606D40F0EA
:101D800002006065042000FA01F23A4270D040F28D
:101D90000F40C4F20200864210DC6F20C4F2020041
:101DA00086421CDC3F20C4F20200864232DC102056
:101DB000C4F20200864251D028204AE04E451ADC87
:101DC00040F23F40C4F2020086422ADC40F210405A
:101DD000C4F20200864241D040F2284039E09F2000
:101DE000C4F20200864225DC7020C4F20200864262
:101DF00034D088202DE040F29F40C4F20200864299
:101E00001FDC40F27040C4F20200864226D040F24D
:101E100088401EE04020C4F2020086421ED05820B6
:101E200017E040F24040C4F20200864216D040F271
:101E300058400EE0A020C4F2020086420ED0B82026
:101E400007E040F2B840C4F20200864206D040F2F9
:101E5000A040C4F20200864240F0A68120680068DB
:101E600000F0020020B1AA60606D40F004006065DF
:101E7000102000FA01F139427ED040F20F40C4F246
:101E80000200864210DC6F20C4F2020086421CDC95
:101E90003F20C4F20200864232DC1020C4F202006D
:101EA000864251D028204AE04E451ADC40F23F409D
:101EB000C4F2020086422ADC40F21040C4F2020062
:101EC000864241D040F2284039E09F20C4F202000F
:101ED000864225DC7020C4F20200864234D088207D
:101EE0002DE040F29F40C4F2020086421FDC40F227
:101EF0007040C4F20200864226D040F288401EE0C4
:101F00004020C4F2020086421ED0582017E040F262
:101F10004040C4F20200864216D040F258400EE023
:101F2000A020C4F2020086420ED0B82007E040F2A2
:101F3000B840C4F20200864206D040F2A040C4F28B
:101F40000200864240F0368126680822306810423E
:101F500012D0A960206801684903016806D4C90548
:101F600006D4016821F00801016001E008034FD4A4
:101F7000216C09B120468847E06D202100F01F0048
:101F80008140394200F0AE8040F20F432268C4F233
:101F900002039A4210DC6F23C4F202039A421CDC53
:101FA0003F23C4F202039A4236DC1023C4F2020338
:101FB0009A4255D028234EE04A451ADC40F23F436E
:101FC000C4F202039A422EDC40F21043C4F2020330
:101FD0009A4245D040F228433DE09F23C4F20203D9
:101FE0009A4229DC7023C4F202039A4238D0882333
:101FF00031E040F29F43C4F202039A4223DC40F2F4
:102000007043C4F202039A422AD040F2884322E08D
:10201000A16C0029AED1AFE74023C4F202039A427B
:102020001ED0582317E040F24043C4F202039A4204
:1020300016D040F258430EE0A023C4F202039A42A5
:102040000ED0B82307E040F2B843C4F202039A422C
:1020500006D040F2A043C4F202039A4240F0AC80A2
:102060002268102312681A423CD0A96094F83520E7
:102070002168042A0A681DD122F016020A604A6902
:1020800022F080024A61226C0AB9A26C1AB10A6875
:1020900022F008020A603F2101FA00F0A860012046
:1020A00084F83500216D0020002984F8340040F0C8
:1020B000CA80C1E1500308680CD4C0050ED408687A
:1020C00020F010000860012084F83500002084F81A
:1020D000340003E0000301D4616C00E0E16B09B15E
:1020E00020468847606D002800F0A681606DC0071B
:1020F00000F0A580042084F8350040F20F412068EC
:10210000C4F20201884210DC6F21C4F2020188424D
:102110001CDC3F21C4F2020188424FDC1021C4F2D2
:10212000020188426FD0282167E048451ADC40F25E
:102130003F41C4F20201884247DC40F21041C4F240
:10214000020188425FD040F2284156E09F21C4F24C
:102150000201884242DC7021C4F20201884252D05E
:1021600088214AE040F29F41C4F2020188423CDCEF
:1021700040F27041C4F20201884244D040F28841EA
:102180003BE0D80376D4616C00295CD154E1216C2A
:10219000002958D150E10823304670E5306800200E
:1021A00000287FF4EAADEDE53068002000287FF4D8
:1021B0005AAE5DE60422C9E6022353E74021C4F289
:1021C000020188421FD0582117E040F24041C4F27A
:1021D0000201884217D040F258410EE0A021C4F21B
:1021E000020188420FD0B82107E040F2B841C4F2A2
:1021F0000201884207D040F2A041C4F202018842A5
:1022000008BF206800E020684FEA9821026822F0A9
:1022100001020260009801300090884203D82068D3
:102220000068C007F6D120680068C0074FF00300BF
:1022300008BF012084F83500002084F83400E16CE8
:10224000002900F0F9802046884701B0BDE8F083FE
:102250004E4532DC40F23F40C4F20200864271DC5F
:1022600040F21040C4F20200864200F0888040F242
:1022700028407FE0E16B0029E5D1DDE04E454BDCF5
:1022800040F23F40C4F20200864200F3AF8040F2C9
:102290001040C4F20200864200F0C48040F22840A0
:1022A000BCE09F20C4F20200864254DC7020C4F2DD
:1022B0000200864263D088205CE040F29F40C4F276
:1022C000020086424EDC40F27040C4F202008642B8
:1022D00055D040F288404DE04E4571DC40F23F4021
:1022E000C4F20200864200F3B18040F21040C4F212
:1022F0000200864200F0C68040F22840BEE09F20E7
:10230000C4F2020086427ADC7020C4F202008642E7
:1023100000F08880882081E040F29F40C4F20200F3
:10232000864273DC40F27040C4F20200864279D0EB
:1023300040F2884072E04020C4F2020086421ED083
:10234000582017E040F24040C4F20200864216D006
:1023500040F258400EE0A020C4F2020086420ED0A7
:10236000B82007E040F2B840C4F20200864206D02E
:1023700040F2A040C4F20200864240F094802668F9
:102380006FF01C02306810403060012000FA01F14B
:102390006960606584F835000020E16C84F83400E1
:1023A00000297FF450AF47E09F20C4F2020086422C
:1023B00055DC7020C4F20200864263D088205DE0C4
:1023C00040F29F40C4F2020086424FDC40F270406F
:1023D000C4F20200864255D040F288404EE04020D0
:1023E000C4F2020086421DD0582017E040F240405F
:1023F000C4F20200864215D040F258400EE0A02000
:10240000C4F2020086420DD0B82007E040F2B84086
:10241000C4F20200864205D040F2A040C4F202009D
:10242000864243D126686FF008013068084030606A
:10243000216C00297FF407AF01B0BDE8F083402094
:10244000C4F2020086421DD0582017E040F24040FE
:10245000C4F20200864215D040F258400EE0A0209F
:10246000C4F2020086420DD0B82007E040F2B84026
:10247000C4F20200864205D040F2A040C4F202003D
:10248000864216D126686FF014013068084030602B
:10249000012084F83500002084F83400E16B002925
:1024A0007FF4D1AEC8E76FF00E026BE76FF0040166
:1024B000BBE76FF00A01E8E72DE9F04381B004467D
:1024C00000F0CAFD002C00F0758140F26F4805460F
:1024D0002068C4F20208404515DC9F21C4F20201C5
:1024E00088422BDC5721C4F20201884251DC1021C2
:1024F000C4F2020188427AD02821C4F20201884243
:1025000075D040216EE045F22F41C5F602018842A8
:1025100027DC40F2B741C4F20201884245DC40F2B8
:102520007041C4F20201884261D040F28841C4F295
:10253000020188425BD040F2A04153E040F22741C3
:10254000C4F2020188423FDCA021C4F202018842A9
:102550004DD0B821C4F20201884248D040F2104167
:1025600040E045F26B41C5F60201884200F39080DD
:1025700045F23041C5F60201884200F09C8045F2E8
:102580004441C5F60201884200F0958045F2584169
:102590008CE05821C4F20201884228D07021C4F294
:1025A0000201884223D088211CE040F2B841C4F2E5
:1025B000020188421BD045F20841C5F6020188425B
:1025C00079D045F21C4171E040F22841C4F2020189
:1025D00088420CD040F24041C4F20201884206D049
:1025E00040F25841C4F20201884240F0138240F2A6
:1025F0000F420221C4F2020284F8351090424FF0DB
:10260000000184F8341012DC6F21C4F20201884208
:1026100020DC3F21C4F20201884200F392801021A5
:10262000C4F20201884200F0B1802821A8E04045B0
:102630001EDC40F23F41C4F20201884200F3888070
:1026400040F21041C4F20201884200F09F8040F243
:10265000284195E09F21C4F20201884200F3818065
:102660007021C4F20201884200F09080882187E046
:1026700040F29F41C4F20201884279DC40F270418D
:10268000C4F20201884200F0818040F2884177E084
:1026900045F26C41C5F6020188420CD045F28041FA
:1026A000C5F60201884206D045F29441C5F6020102
:1026B000884240F0AF8104F1080E022084F8350012
:1026C000002084F8340020689EE80640A1F18003D1
:1026D0004029B3FA83F34FEA5313D4E90579D4E9D7
:1026E000076C05684FEA83336FF3101508BF10239A
:1026F00045EAD2014AF6F8321943CAF2FD7241EABC
:10270000DE014CF6CD4341EAD701024441EAD9014A
:10271000CCF6CC4341EAD601A2FB032341EA1C11CB
:1027200001606FF0030000EA9300E0652046FEF7C9
:1027300023F8E16D012201F01F0102FA01F141606D
:102740009CE04021C4F2020188421FD0582117E0CA
:1027500040F24041C4F20201884217D040F2584191
:102760000EE0A021C4F2020188420FD0B82107E098
:1027700040F2B841C4F20201884207D040F2A041C1
:10278000C4F20201884208BF206800E020680168A6
:1027900021F00101016000BF27683868C0070DD033
:1027A00000F05AFC401B0628F6D320206065032069
:1027B00084F83500012001B0BDE8F08348F23F0104
:1027C00004F108053868CFF6106108402ECD0843A3
:1027D000A1691043E2691843236A0543606A2943EB
:1027E000042841EA020141EA030103D1D4E90B23A1
:1027F0001143194341F20002C5F600421268B2F1DA
:10280000005F17D36268A2F12903202B06D23F256F
:10281000CCF2C03525FA03F3DB0706D1A2F14F0352
:102820000022042B38BF012200E00122002A18BF39
:1028300041F4801139600428796921F0070141EAE7
:10284000000510D1D4E90A1045EA010558B1204627
:10285000FEF7F2F838B140206065012084F83500B9
:1028600001B0BDE8F08320467D61FDF785FFE16D95
:102870003F2201F01F0102FA01F18160206840450A
:1028800019DC9F21C4F20201884231DC5721C4F2D5
:102890000201884256DC1021C4F20201884200F095
:1028A00091802821C4F20201884200F08B804021EF
:1028B000C4F2020184E045F22F41C5F602018842CC
:1028C0002BDC40F2B741C4F20201884248DC40F2FE
:1028D0007041C4F20201884274D040F28841C4F2CF
:1028E000020188426ED040F2A041C4F2020167E0CA
:1028F00040F22741C4F20201884240DCA021C4F228
:10290000020188425ED0B821C4F20201884259D047
:1029100040F21041C4F2020152E045F26B41C5F6AB
:10292000020188423CDC45F23041C5F60201884292
:1029300048D045F24441C5F60201884242D045F2F2
:1029400058413BE05821C4F2020188423AD070213C
:10295000C4F20201884235D08821C4F202012FE07E
:1029600040F2B841C4F2020188422BD045F208413E
:10297000C5F60201884225D045F21C411EE040F216
:102980002841C4F2020188421CD040F24041C4F206
:102990000201884216D040F25841C4F202010FE011
:1029A00045F26C41C5F6020188420BD045F29441D4
:1029B000C5F60201884205D045F28041C5F6020104
:1029C00088421FD12046FDF767FFA068802801D10B
:1029D0000020606004F160036068C7B201380ECB6C
:1029E00007280F60536009D82046FDF7CDFF04F19A
:1029F0006C02002307CA03604A6003E00020C4E9B8
:102A00001B00606700206065012184F8351001B06B
:102A1000BDE8F0834020C9E6F0B581B0A8B3044614
:102A200090F83400012802D1022001B0F0BD01204D
:102A300084F8340094F83500012820D1022084F86D
:102A400035000020606540F20F462068C4F202069F
:102A500040F26F47B042C4F2020719DC6F25C4F29E
:102A60000205A84225DC3F25C4F20205A8423BDC52
:102A70001025C4F20205A8425BD0282553E04FF48C
:102A800000606065002084F83400012001B0F0BDD2
:102A9000B8421ADC40F23F45C4F20205A8422ADCE3
:102AA00040F21045C4F20205A84242D040F2284547
:102AB00039E09F25C4F20205A84225DC7025C4F246
:102AC0000205A84235D088252DE040F29F45C4F28A
:102AD0000205A8421FDC40F27045C4F20205A8427C
:102AE00027D040F288451EE04025C4F20205A842E6
:102AF0001FD0582517E040F24045C4F20205A84215
:102B000017D040F258450EE0A025C4F20205A842B5
:102B10000FD0B82507E040F2B845C4F20205A8423C
:102B200007D040F2A045C4F20205A84208BF2068C1
:102B300000E02068056825F0010505602046FDF7E6
:102B4000A3FF2068B04210DC6F21C4F2020188426A
:102B50001CDC3F21C4F20201884232DC1021C4F2A5
:102B60000201884251D028214AE0B8421ADC40F2E2
:102B70003F41C4F2020188422ADC40F21041C4F213
:102B80000201884241D040F2284139E09F21C4F23D
:102B90000201884225DC7021C4F20201884234D04F
:102BA00088212DE040F29F41C4F2020188421FDCDF
:102BB00040F27041C4F20201884226D040F28841BE
:102BC0001EE04021C4F2020188421ED0582117E0C5
:102BD00040F24041C4F20201884216D040F258410E
:102BE0000EE0A021C4F2020188420ED0B82107E015
:102BF00040F2B841C4F20201884206D040F2A0413E
:102C0000C4F20201884240F0298121680B25226C20
:102C10000B6865F344030B601AB10A6842F00802BE
:102C20000A60B84219DC9F21C4F20201884231DCFB
:102C30005721C4F20201884256DC1021C4F202017D
:102C4000884200F091802821C4F20201884200F0FD
:102C50008B804021C4F2020184E045F22F41C5F689
:102C6000020188422BDC40F2B741C4F202018842E3
:102C700048DC40F27041C4F20201884274D040F254
:102C80008841C4F2020188426ED040F2A041C4F2F1
:102C9000020167E040F22741C4F20201884240DCB1
:102CA000A021C4F2020188425ED0B821C4F2020120
:102CB000884259D040F21041C4F2020152E045F27C
:102CC0006B41C5F6020188423CDC45F23041C5F655
:102CD0000201884248D045F24441C5F602018842CB
:102CE00042D045F258413BE05821C4F202018842EB
:102CF0003AD07021C4F20201884235D08821C4F252
:102D000002012FE040F2B841C4F2020188422BD008
:102D100045F20841C5F60201884225D045F21C4122
:102D20001EE040F22841C4F2020188421CD040F269
:102D30004041C4F20201884216D040F25841C4F228
:102D400002010FE045F26C41C5F6020188420BD04A
:102D500045F29441C5F60201884205D045F2804112
:102D6000C5F60201884272D1216E0A68D20303D5EA
:102D70000A6842F480720A60E16E19B10A6842F48E
:102D800080720A60B04210DC6F21C4F202018842F6
:102D90001CDC3F21C4F20201884232DC1021C4F263
:102DA0000201884252D028214AE0B8421ADC40F29F
:102DB0003F41C4F2020188422ADC40F21041C4F2D1
:102DC0000201884242D040F2284139E09F21C4F2FA
:102DD0000201884225DC7021C4F20201884235D00C
:102DE00088212DE040F29F41C4F2020188421FDC9D
:102DF00040F27041C4F20201884227D040F288417B
:102E00001EE04021C4F2020188421FD0582117E081
:102E100040F24041C4F20201884217D040F25841CA
:102E20000EE0A021C4F2020188420FD0B82107E0D1
:102E300040F2B841C4F20201884207D040F2A041FA
:102E4000C4F20201884208BF206800E020680168DF
:102E500041F001010160002001B0F0BD21680525AD
:102E6000226C0B68002A65F343030B603FF4D9AE74
:102E70000A6842F00402D3E62DE9F04F83B00C68F3
:102E8000002C00F0C68000F1264242F2004702F119
:102E9000FF72C5F602074FEAB22201920A22B84237
:102EA00008BF0922002500274FF0010A009209E01F
:102EB0000C68043734FA0AF20AF1010A05F1020536
:102EC00000F0A780AAF10109012202FA09FE14EA22
:102ED0000E08EDD0D1F804B00BF00304A4F1010CFE
:102EE000BCF1010F11D803228668AA40CB6826EAFC
:102EF0000202AB401A438260CBF30013426822EA1D
:102F00000E0203FA09F31A434260032C1ED0032376
:102F1000C268AB40022C22EA03028B6803FA05F375
:102F200042EA0302C26011D16FF0030207F01C06EF
:102F300002EA59020F23024403FA06F4D2F820C031
:102F40000B692CEA0404B340234313620323026891
:102F5000AB404E689A4306F00303AB4016F4403F83
:102F600042EA03020260A3D044F2F44340F2084E66
:102F7000C5F60203C5F6000E1A6842F002021A6096
:102F80001A6807F00C0302F002020292029A29F07A
:102F90000302019C009E092C38BF26460F2452F8DC
:102FA0000EC09C402CEA040406FA03F34FF0B04C28
:102FB000234342F80E30DCF800204B6842EA080652
:102FC000DC0258BF22EA08069C02CCF8006040F2FE
:102FD000040CC5F6000CDCF8002042EA080658BFD5
:102FE00022EA08069C03CCF80060DCF8802042EA64
:102FF000080658BF22EA0806DB03CCF88060DCF83C
:103000007C2042EA080658BF22EA0806CCF87C6019
:103010004EE703B0BDE8F08F0069084018BF0120FB
:103020007047000000000000426902EA010391437A
:1030300041EA034181617047002A08BF09048161A8
:10304000704700000000000041F20000C5F600409B
:103050000068000C7047000041F25410C2F20040BA
:10306000006870470000000090F84120202A03D13A
:1030700090F84020012A01D102207047242280F8D4
:1030800041200268136823F001031360136823F4DE
:1030900080531360136819431160116841F00101F6
:1030A0001160202180F84110002180F8401008466E
:1030B000704700000000000000284CD010B5044606
:1030C00090F8410028B9002084F84000204600F024
:1030D00047F8242084F8410094E80310E36821F0C5
:1030E00070610268012B22F00102026001614FF45D
:1030F0000442816808BF4FF40042022B21F40041D2
:1031000081604CEA0201816002D14FF400614160AC
:10311000416804F1100C41F0007141F4004141603C
:10312000C16821F40041C1609CE80E10114341EADE
:103130000321C160216A41EA0C010160016841F08C
:103140000101016000206064202184F841102063A7
:1031500084F8420010BD012070470000000000000C
:10316000704700000000000040F2580041F2541186
:10317000C2F20040C2F2004100780A6810440860C0
:10318000704700000000000080B5032000F088F8C0
:1031900001F002FA44F2184147F27E43C5F60201FB
:1031A000C0F600030A68096801F00F01C2F30322A8
:1031B000595C9A5C01F01F0102F01F02D04040F2FE
:1031C0000402C2F2004220FA01F1116040F2000153
:1031D000C2F200410860032000F00AF800281CBF7A
:1031E000012080BD00F030F8002080BD000000000C
:1031F000B0B540F25801C2F20041097801B304466B
:1032000040F20000C2F200404FF47A72B2FBF1F1DA
:103210000068B0FBF1F001F0BFFF0F2C4FF001058B
:103220000CD858B94FF0FF3000222146002500F09D
:1032300027F840F25C00C2F2004004602846B0BDAE
:103240000120B0BD0000000080B582B044F2F4401F
:10325000C5F60200016841F002010160006800F05B
:10326000020001900198052000F01AF802B080BD1C
:1032700080B503F055F980BD80B503F065F980BDD8
:1032800070B514460D46064603F06EF929462246EF
:1032900002F0C6FB0146304603F06EF970BD000037
:1032A00080B503F07DF980BDB0B544F60C05C5F6D8
:1032B000020529684907296805D401F00701081AA1
:1032C00018BF0120B0BD21F0070108432860FFF7B7
:1032D000C3FE044655F8080C800407D4FFF7BCFE73
:1032E000001BB0F57A7FF5D90120B0BD0020B0BD3C
:1032F00080B501F029F944F2204147F27E42C5F63B
:103300000201C0F600020968C1F30211515C01F02C
:103310001F01C84080BD000080B544F2304EC5F6A4
:10332000020E5EF8083C5EF8081CC1F3051C5EF84E
:10333000041CBCF1000FDEF8042016D0C2F3CC024E
:1033400001F00101514303F00303022B00EE101AB8
:10335000B8EE400A0ED0012B0FD01BB95EF8301C1E
:1033600089060DD49FED341A18E00021C0E9001140
:10337000816080BD9FED2F1A10E09FED2D1A0DE0AA
:103380005EF8301C49F20002C0F2D032C1F3C10134
:1033900022FA01F101EE101AB8EE411ADEF800101F
:1033A0009FED263A6FF35F2102EE101ADEF800104F
:1033B000C1F34621B8EE422A00EE032A00EE10CAFD
:1033C000B7EE003AB8EE400A81EE000A32EE031A78
:1033D00002EE101AB8EE422A20EE010A32EE031A6B
:1033E00080EE011ABCEEC11A80ED001ADEF8001062
:1033F000C1F3064101EE101AB8EE411A31EE031A7C
:1034000080EE011ABCEEC11A80ED011ADEF8001040
:10341000C1F3066101EE101AB8EE411A31EE031A3B
:1034200080EE010ABCEEC00A10EE101A816080BD69
:103430000024744A8096184C0024744C0000003913
:1034400080B544F2384EC5F6020E5EF8103C5EF8C8
:10345000101CC1F3053C5EF80C1CBCF1000FDEF83B
:10346000042014D0C1F30011C2F3CC02514300EE8A
:10347000101A03F003010229B8EE400A0CD071B90A
:103480005EF8381C89060DD49FED341A18E000212F
:10349000C0E90011816080BD9FED2F1A10E09FED03
:1034A0002D1A0DE05EF8381C49F20002C0F2D0324D
:1034B000C1F3C10122FA01F101EE101AB8EE411A6E
:1034C000DEF800109FED263A6FF35F2102EE101A2E
:1034D000DEF80010C1F34621B8EE422A00EE032ABE
:1034E00000EE10CAB7EE003AB8EE400A81EE000ACC
:1034F00032EE031A02EE101AB8EE422A20EE010A4A
:1035000032EE031A80EE011ABCEEC11A80ED001AE9
:10351000DEF80010C1F3064101EE101AB8EE411AB0
:1035200031EE031A80EE011ABCEEC11A80ED011AC9
:10353000DEF80010C1F3066101EE101AB8EE411A70
:1035400031EE031A80EE010ABCEEC00A10EE101A2A
:10355000816080BD0024744A8096184C0024744C0D
:10356000000000390000000080B544F2404EC5F66E
:10357000020E5EF8183C5EF8181CC1F3055C5EF89C
:10358000141CBCF1000FDEF8042014D0C1F300219C
:10359000C2F3CC02514300EE101A03F003010229DA
:1035A000B8EE400A0CD071B95EF8401C89060DD403
:1035B0009FED341A18E00021C0E90011816080BD40
:1035C0009FED2F1A10E09FED2D1A0DE05EF8401CC4
:1035D00049F20002C0F2D032C1F3C10122FA01F176
:1035E00001EE101AB8EE411ADEF800109FED263AEF
:1035F0006FF35F2102EE101ADEF80010C1F34621CE
:10360000B8EE422A00EE032A00EE10CAB7EE003AE6
:10361000B8EE400A81EE000A32EE031A02EE101AEA
:10362000B8EE422A20EE010A32EE031A80EE011AA9
:10363000BCEEC11A80ED001ADEF80010C1F306419D
:1036400001EE101AB8EE411A31EE031A80EE011A9B
:10365000BCEEC11A80ED011ADEF80010C1F306615C
:1036600001EE101AB8EE411A31EE031A80EE010A8B
:10367000BCEEC00A10EE101A816080BD0024744AAE
:103680008096184C0024744C0000003900000000A3
:1036900080B584B00146B0F5805F4FF0000023DBB9
:1036A000B1F5004F5BDB00F07880B1F5803F00F0B2
:1036B000B380B1F5002F40F01E8144F20040C5F602
:1036C0000200816D01F44031B1F5003F00F0198135
:1036D000B1F5803F00F0FF80002940F02F810068A5
:1036E000000140F12B81C5E0B1F5806F1CDAB1F526
:1036F000807F00F06B80B1F5007F40F0FC8044F2E9
:103700000041C5F60201086DC0F38212042A00F2DE
:10371000158148F20000C0F2BB00DFE812F09F0004
:10372000A800AF00EC00B80000F06380B1F5006FB6
:1037300040F0E18044F20041C5F60201886DC0F31B
:103740000262042A00F2FA8048F20000C0F2BB00D4
:10375000DFE812F084008D009400D1009D00B1F5E7
:10376000805F00F06880B1F5804F40F0C48044F283
:103770000040C5F60200816DC1F30271052900F217
:10378000DD80DFE811F00600CA00D100D800DE00BD
:103790001C00FFF7ADFD04B080BD44F20040C5F64B
:1037A0000200016D01F04051B1F1005F00F09C801A
:1037B000B1F1805F00F0A180002940F0BF80006877
:1037C00045F600218003C0F26221C0E044F20041CE
:1037D000C5F60201086D00F00702042A00F2AE806F
:1037E00048F20000C0F2BB00DFE802F03841488533
:1037F000510044F20041C5F60201886DC0F3425207
:10380000042A00F29B8048F20000C0F2BB00DFE80F
:1038100002F0252E35723E0044F20040C5F602004B
:10382000C16C0068C9031AD5000140F1878001A866
:10383000FFF706FE55E044F20041C5F60201086DAF
:10384000C0F30232042A00F2798048F20000C0F28C
:10385000BB00DFE802F0030C13501C000868800175
:103860006CD501A8FFF758FD029804B080BD086828
:10387000000163D501A8FFF7E3FD05E008688000BB
:103880005CD501A8FFF770FE019804B080BDC86C3C
:103890000B6810F0405208680CD113F0040309D0F3
:1038A000C0F3C10049F20001C0F2D03121FA00F0AA
:1038B00004B080BDB2F1805F02D110F4807050D1AD
:1038C000086810F400301CBF45F60020C0F26220EA
:1038D000B2F1005F57E0006880002FD501A8FFF724
:1038E00043FE039804B080BD0068000126D501A8FE
:1038F000FFF7A6FD029804B080BD006880011DD5C9
:10390000AFE7C16C036811F04051026823D113F096
:10391000040320D0C2F3C100C4E7006800010DD544
:1039200001A8FFF78DFD9FE70068800006D501A87C
:10393000FFF71AFE98E70168490718D4002004B081
:1039400080BD006840F60011C005C0F23D0101EAEB
:10395000E07004B080BDB1F1805F0AD112F48072D2
:1039600007D040F60010C0F23D0004B080BD0068F2
:1039700096E7006810F400301CBF45F60020C0F246
:103980006220B1F1005F18BF002004B080BD0000CC
:103990002DE9F04381B00446C07844F22C49000779
:1039A000C5F6020901D400262DE0606E4FEA3050C2
:1039B00003280DD80026DFE800F0020E1613D9F810
:1039C0000000002640F40030C9F800004EB912E0B3
:1039D000012636B90FE0201D022102F049F8064603
:1039E0004EB1B04611E004F12400022102F0D0F8FB
:1039F0000646002EF5D1D9F82400616E20F440105F
:103A00000843C9F824004FF000086078C0072FD0A1
:103A1000606D042807D8DFE800F00A131B030300D9
:103A2000F6B1B04624E00126002EFAD118E0D9F80C
:103A3000000040F40030C9F80000002EF1D10FE082
:103A4000201D002102F014F80646002EE9D107E0FF
:103A500004F12400002102F09BF80646002EE0D17C
:103A6000D9F82400616D20F007000843C9F824004C
:103A70006078800731D5A06D4FEAB010042807D8D0
:103A8000DFE800F00A131B030300F6B1B04624E0A0
:103A90000126002EFAD118E0D9F8000040F40030D9
:103AA000C9F80000002EF1D10FE0201D002101F027
:103AB000DFFF0646002EE9D107E004F124000021D3
:103AC00002F066F80646002EE0D1D9F82400A16D78
:103AD00020F4E0700843C9F824006078400733D52B
:103AE000D4F8A4004FEA7050042807D8DFE800F0AB
:103AF0000A131B030300F6B1B04625E00126002E91
:103B0000FAD118E0D9F8000040F40030C9F80000FC
:103B1000002EF1D10FE0201D002101F0A9FF064683
:103B2000002EE9D107E004F12400002102F030F872
:103B30000646002EE0D1D9F82C00D4F8A41020F4C9
:103B400060000843C9F82C006078000733D5D4F82A
:103B5000A8004FEA3060042807D8DFE800F00A1315
:103B60001B030300F6B1B04625E00126002EFAD172
:103B700018E0D9F8000040F40030C9F80000002E29
:103B8000F1D10FE0201D002101F072FF0646002E4A
:103B9000E9D107E004F12400002101F0F9FF064615
:103BA000002EE0D1D9F82C00D4F8A81020F0E06065
:103BB0000843C9F82C00E078800727D5A06C4FEAAD
:103BC0003010032806D8DFE800F002091202AEB177
:103BD000B0461BE00126002EFAD10FE0D9F8000014
:103BE00040F40030C9F80000002EF1D106E0201D9D
:103BF000022101F03DFF0646002EE9D1D9F8200050
:103C0000A16C20F030000843C9F820006078C0069D
:103C100031D5E06D4FEA3030042807D8DFE800F0F6
:103C20000A131B030300F6B1B04624E00126002E60
:103C3000FAD118E0D9F8000040F40030C9F80000CB
:103C4000002EF1D10FE0201D002101F011FF0646EA
:103C5000002EE9D107E004F12400002101F098FFD3
:103C60000646002EE0D1D9F82400E16D20F4E040B2
:103C70000843C9F824006078800625D5206E4FEAF5
:103C80003040052807D8DFE800F0030A0F030303DC
:103C900096B1B04618E00126002EFAD10CE0201DA6
:103CA000012101F0E5FE04E004F12400012101F00E
:103CB0006FFF0646002EECD1D9F82400216E20F4C7
:103CC000E0200843C9F824006078400627D5D4F8DE
:103CD000AC004FEA3070052807D8DFE800F0030A8F
:103CE0000F03030396B1B04619E00126002EFAD166
:103CF0000CE0201D012101F0BBFE04E004F12400D2
:103D0000012101F045FF0646002EECD1D9F82C0028
:103D1000D4F8AC1020F0E0400843C9F82C006078DB
:103D200000061FD5E06ED0B1B0F1005F12D0B0F147
:103D3000805F24D1D9F8000040F40030C9F80000B9
:103D40007EB9D9F82400E16E20F040500843C9F84C
:103D5000240007E0201D012101F08AFE0646002E06
:103D6000EFD0B046E078C00729D0606C03280AD8AD
:103D7000DFE800F0020D1602CEB1B0461FE00126CA
:103D8000002EEED1DDE70126002EF6D10FE0D9F8A6
:103D9000000040F40030C9F80000002EEDD106E02C
:103DA000201D022101F064FE0646002EE5D1D9F85F
:103DB0002000616C20F003000843C9F82000A078BF
:103DC000400643D5D9F8D40340F48070C9F8D40331
:103DD000FFF742F9074600BFD9F8D403C00505D460
:103DE000FFF73AF9C01B6528F6D303266EBBD9F856
:103DF0004410D4F8B000414011F4407F11D0D9F8FC
:103E00004410D9F8442042F48032C9F84420D9F84B
:103E1000442021F4407122F48032C9F84420C9F8CA
:103E20004410B0F5807F0FD1FFF716F9074641F235
:103E3000893500BFD9F84400800705D4FFF70CF995
:103E4000C01BA842F6D3032686B1B0462078C0072F
:103E500041D0A06F4FEAF000052823D8DFE800F03A
:103E600003262B03030376B3B04634E04FF6CF733B
:103E7000D4F8B00059F81C2CC0F2FF0300F44071D4
:103E800022F47C5203EA1013B1F5407F08BF1A43B5
:103E90006FF31F3049F81C2CD9F844100843C9F8B7
:103EA0004400D3E70126002EDED10CE0201D0121C5
:103EB00001F0DEFD04E004F12400012101F068FEC0
:103EC0000646002ED0D1D9F82800A16F20F0380086
:103ED0000843C9F828002078800723D5606F05289B
:103EE00007D8DFE800F0030A0F03030396B1B046DA
:103EF00018E00126002EFAD10CE0201D012101F06E
:103F0000B7FD04E004F12400012101F041FE064662
:103F1000002EECD1D9F82800616F20F0070008438B
:103F2000C9F828002078400725D5D4F89000052846
:103F300007D8DFE800F0030A0F03030396B1B04689
:103F400019E00126002EFAD10CE0201D012101F01C
:103F50008FFD04E004F12400012101F019FE064662
:103F6000002EECD1D9F82C00D4F8901020F00700E6
:103F70000843C9F82C002078800627D5D4F88C0097
:103F80004FEA3070052807D8DFE800F0030A0F0376
:103F9000030396B1B04619E00126002EFAD10CE0D9
:103FA000201D002101F064FD04E004F12400022141
:103FB00001F0EEFD0646002EECD1D9F82800D4F829
:103FC0008C1020F0E0400843C9F828002078400613
:103FD00027D5D4F898004FEAB020052807D8DFE8A5
:103FE00000F0030A0F03030396B1B04619E001265F
:103FF000002EFAD10CE0201D002101F039FD04E073
:1040000004F12400022101F0C3FD0646002EECD18C
:10401000D9F82C00D4F8981020F4E0500843C9F8DF
:104020002C002078000627D5D4F89C004FEA703089
:10403000052807D8DFE800F0030A0F03030396B151
:10404000B04619E00126002EFAD10CE0201D002117
:1040500001F00EFD04E004F12400022101F098FDBE
:104060000646002EECD1D9F82C00D4F89C1020F490
:1040700060400843C9F82C002078000716D5D4F812
:104080008000B0F5805F08D104F12400022101F026
:104090007FFD002818BF4FF00108D9F82800D4F898
:1040A000801020F440500843C9F828002078C0064A
:1040B00016D5D4F89400B0F5807F08D104F124001F
:1040C000022101F065FD002818BF4FF00108D9F862
:1040D0002C00D4F8941020F440700843C9F82C0048
:1040E000A078000721D5D4F8A000B0F5003F19D082
:1040F000B0F5803F10D0C0BB201D002101F0B8FCFE
:1041000006468EB9D9F82C00D4F8A01020F440301F
:104110000843C9F82C0008E004F12400022101F052
:1041200037FD0646002EEDD0B046A078400729D5D1
:10413000D4F88400B0F5401F21D0B0F5001F18D08E
:10414000B0F5801F40F0C180D9F8000040F4003085
:10415000C9F80000AEB9D9F82800D4F8841020F4CA
:1041600040100843C9F828000CE00126002EDBD1DE
:10417000C8E704F12400012101F00AFD0646002EE3
:10418000E9D0B046A078C0071FD0E06CB0F5803F02
:1041900010D0B0B9D9F8000040F40030C9F80000E0
:1041A00096B9D9F82000E16C20F480300843C9F8B2
:1041B00020000AE0201D022101F05AFC06461EB92B
:1041C000EFE70126002EECD0B046E078800608D557
:1041D00004F12400022101F0DBFC002818BF4FF09D
:1041E0000108206881031ED4C10234D4C1003CD42C
:1041F000810245D441004DD4B0F1FF3F5ADD0002A9
:1042000008D5D9F82800D4F8881020F440000843D5
:10421000C9F82800B8F1000F18BF4FF00108404658
:1042200001B0BDE8F083E16F6FF0010202EB3122D3
:10423000022A0AD34FEA31223AB1012A4AD1D9F8E7
:10424000002042F40032C9F80020002E45D04FF083
:104250000108C102CAD5D9F82410226F21F000410B
:104260001143C9F82410C100C2D559F81C1CD4F858
:10427000B42021F48041114349F81C1C8102B9D5B6
:10428000D9F82410A26E21F080711143C9F82410CE
:104290004100B1D559F81C1C21F4004149F81C1CFF
:1042A000D4F8B81059F81C2C114349F81C1CB0F173
:1042B000FF3FA4DCD9F82010226D21F040511143BA
:1042C000C9F820100002A5D59BE70126002E7FF437
:1042D00058AF40E70126002EB9D1D9F8282022F4A2
:1042E00040721143C9F82810C1027FF57FAFB2E7D1
:1042F0002DE9F04381B0002800F0F48042F200087C
:104300000446C5F200288946D8F8000000F00F00E6
:1043100088420ED2D8F8000020F00F0040EA0900D1
:10432000C8F80000D8F8000000F00F00484540F041
:10433000D980206844F218474107C5F602070AD51C
:1043400021693A6802F07002914204D93A6822F079
:1043500070021143396001070AD561697A6802F079
:104360007002914204D97A6822F070021143796098
:10437000C1060AD5A1697A6802F4E062914204D9C3
:104380007A6822F4E0621143796081060AD5E16916
:10439000BA6802F07002914204D9BA6822F0700241
:1043A0001143B96081070AD5E1683A6802F00F024B
:1043B000914204D93A6822F00F0211433960C007D4
:1043C0007ED1206881070AD5E1683A6802F00F02C1
:1043D000914204D23A6822F00F0211433960D8F8B2
:1043E000001001F00F0149450DD9D8F8001021F057
:1043F0000F0141EA0901C8F80010D8F8001001F0D7
:104400000F0149456ED141070AD521693A6802F08A
:104410007002914204D23A6822F07002114339606E
:1044200001070AD561697A6802F07002914204D2EC
:104430007A6822F0700211437960C1060AD5A16939
:104440007A6802F4E062914204D27A6822F4E0626F
:104450001143796080060AD5E069B96801F07001FE
:10446000884204D2B96821F070010843B86000F0B6
:1044700093F8396847F27E42C0F600023B68C1F308
:10448000032103F00F03515CD25C01F01F01C8400F
:1044900002F01F0140F2040220FA01F1C2F20042D0
:1044A000116040F2000140F25C02C2F20041C2F22F
:1044B000004208601068FEF79BFE01B0BDE8F08383
:1044C000386820F47061D4E90102012841EA020150
:1044D00039600BD003282BD002282ED157F8181C96
:1044E000890307D4012001B0BDE8F08357F8181CF8
:1044F000C905F7D557F8081C21F00701084347F80C
:10450000080CFEF7A9FD064641F2883557F8080C5D
:10451000616800F03800B0EBC10F3FF452AFFEF716
:104520009BFD801BA842F1D9032001B0BDE8F083B8
:1045300057F8181C8901D5D5DCE757F8181C49072E
:10454000D0D5D7E70000000080B500F025F844F290
:10455000184147F27E43C5F60201C0F600030A681F
:10456000096801F00F01C2F30322595C9A5C02F062
:104570001F0220FA02F201F01F0040F2040122FAA9
:1045800000F0C2F20041086040F20001C2F20041B6
:104590000A6080BD0000000044F20041C5F602013F
:1045A0000869C0F3C20003280FD002282AD070BBCC
:1045B0000868800649F20000C0F2D03058BF70474A
:1045C0000968C1F3C101C84070478A6A886AC0F3AC
:1045D000051CC86ABCF1000F4B6B1DD0C3F3CC03A4
:1045E00000F00100584302F00302022A00EE100A14
:1045F000B8EE400A12D0A2B90868800614D49FED24
:10460000261A1EE045F60020C0F26220704740F6F0
:104610000010C0F23D007047002070479FED1D1A4A
:104620000FE09FED1B1A0CE0086849F20002C0F28F
:10463000D032C0F3C10022FA00F001EE100AB8EE49
:10464000411A086B9FED153A6FF35F2002EE100AD6
:10465000086BC0F34620B8EE422A013000EE032A70
:1046600000EE10CAB7EE003AB8EE400A81EE000A3A
:1046700032EE031A20EE010A01EE100AB8EE411ADA
:1046800080EE010ABCEEC00A10EE100A704700BFAF
:104690000024744A8096184C0024744C00000039A1
:1046A0002DE9F04381B0F8B18046007844F200492A
:1046B000C007C5F602095AD0D9F8100000F0380139
:1046C000D9F82800102905D018290FD100F00300CF
:1046D00002280BD1D9F80000800344D5D8F8040093
:1046E000002840D101272FE0012735E2D8F8044007
:1046F0002CB1B4F5A02F0DD0B4F5803F10D0D9F86F
:10470000000020F48030C9F80000D9F8000020F43F
:10471000802009E0D9F8000040F48020C9F80000AA
:10472000D9F8000040F48030C9F80000FEF794FC8E
:104730000546A4B1D9F80000800314D4FEF78CFC20
:10474000401B6428F6D903270020002800F00482CB
:104750000DE000BFFEF780FC401B6428F3D8D9F8B9
:1047600000008003F6D40120002800F0F58198F8BD
:104770000000800740F18480D9F8100010F0380163
:10478000D9F828001CD0182908BF5FEA807017D01C
:10479000D8F80C00D9F80010002847D021F01901F2
:1047A0000843C9F80000FEF757FC0546D9F8000099
:1047B00040072AD4FEF750FC401B0228F6D91EE021
:1047C000D9F80000400704D5D8F80C00002800F004
:1047D0009181D9F80000D8F80C1020F01900084396
:1047E000C9F80000FEF738FC054600BFD9F8000004
:1047F00040070AD4FEF730FC401B0228F6D90327F5
:104800000024002C00F0A8813AE0FEF71DFC41F2E4
:104810000301884223D8D8F81000D9F804104028A2
:1048200021F47C3124D141F4003023E021F0010057
:10483000C9F80000FEF710FC05460126D9F8000073
:1048400010F0040086EA900417D0FEF705FC401B28
:104850000328F3D30327002C00F07E8110E0D9F861
:104860000400D8F8101020F0FE4040EA016001E09A
:1048700041EA0030C9F804000124002C00F06C81EA
:1048800098F80000C00674D5D9F8100000F038017F
:10489000D9F82800082905D018291CD100F00300F8
:1048A000012818D1D9F80000C00503D5D8F81C009C
:1048B000802859D1FEF7C8FB41F20301884222D873
:1048C000D8F82000D9F80410202821F0F84142D16E
:1048D00041F0804041E0D8F81C000028D9F80000E1
:1048E00020D040F08000C9F80000FEF7B5FB054677
:1048F000D9F80000C005DDD4FEF7AEFB401B02284E
:10490000F6D9032731E0D9F80C00D8F8201020F0B0
:104910007C50012440EA0160C9F80C00002C00F032
:104920001B8126E020F08000C9F80000FEF794FB10
:1049300005460126D9F8000010F4807086EA10249C
:104940000ED0FEF789FB401B0328F3D30327002C6E
:1049500000F002810DE041EA8060C9F80400012402
:10496000002C00F0F98004E001270024002C00F066
:10497000F38098F8000000071CD498F80000800627
:1049800031D498F80000400745D4D8F82440002CD2
:1049900000F0E180D9F8100000F03800182840F04D
:1049A0008880012CD9F82810D9F8300040F0A48074
:1049B0000127D1E0D8F814000028D9F874003ED0BF
:1049C00040F00100C9F87400FEF746FB054600BF41
:1049D000D9F874008007D0D4FEF73EFB401B0228B4
:1049E000F6D90327B8E0D8F818000028D9F8000055
:1049F0004BD040F48050C9F80000FEF72DFB05466F
:104A0000D9F800008004BCD4FEF726FB401B022826
:104A1000F6D90327A0E0D9F8000440F48070C9F863
:104A20000004FEF719FB0546D9F80004C0051AD4A6
:104A3000FEF712FB401B6428F6D903278CE020F018
:104A40000100C9F87400FEF707FB0546032700BF05
:104A5000D9F8740080077FF590AFFEF7FDFA401B90
:104A60000228F5D978E0D8F808401CB1052C77D099
:104A7000012C7BD0D9F8700020F00100C9F870003B
:104A8000D9F8700020F0040074E020F48050C9F8D8
:104A90000000FEF7E1FA0546032700BFD9F8000041
:104AA00080047FF56EAFFEF7D7FA401B0228F5D9D8
:104AB00052E0D9F8000020F08070C9F80000FEF73D
:104AC000CBFA022C05464FF0030709D1D9F80000B4
:104AD000800171D5FEF7C0FA401B0228F6D93BE0F1
:104AE000D9F80000800136D5FEF7B6FA401B02283F
:104AF000F6D931E0012783E601F00302D8F8283027
:104B00009A4240F0D380C1F30511D8F82C2091428D
:104B100040F0CE800146D8F830206FF35F21013A93
:104B2000914240F0C780C0F34622D8F834100139D2
:104B30008A4240F0C180C0F30642D8F838100139EB
:104B40008A4240F0BB80C0F30660D8F83C100139BF
:104B5000884240F0B5800027F8B201B0BDE8F0838C
:104B6000D9F8700040F00400C9F87000D9F870005E
:104B700040F00100C9F87000FEF76EFA002C0546FF
:104B800041F288344FF0030711D000BFD9F870000C
:104B900080073FF5FAAEFEF75FFA401BA042F5D959
:104BA000DAE700BFFEF758FA401BA042D4D8D9F884
:104BB00070008007F6D4E8E608F12807D9F8280045
:104BC00040F2F33188438ECF0843591E40EA021069
:104BD0004FF47E426FF35F21C9F8280002EB4720B3
:104BE0004FF4FE0280B2D8F83C300844D8F83810B0
:104BF00002EB01414FF0FE4201F4FE0102EB0362C1
:104C0000084402F0FE410844C9F83000D9F82C00ED
:104C10004FF6F87120F00100C9F82C00D9F83400E3
:104C2000D8F84820884340EAC200C9F83400D9F8CF
:104C30002C00D8F8401020F00C000843C9F82C00D4
:104C4000D9F82C00D8F8441020F002000843C9F825
:104C50002C00D9F82C0040F48030C9F82C00D9F889
:104C60002C0040F40030C9F82C00D9F82C0040F496
:104C70008020C9F82C00D9F82C0040F00100C9F8B8
:104C80002C00D9F8000040F08070C9F80000FEF751
:104C9000E3F904460327D9F8000080013FF55BAF34
:104CA000FEF7DAF9001B0228F5D955E7012753E78B
:104CB000012751E701274FE701274DE701274BE780
:104CC000012749E7000000002DE9F041002800F02D
:104CD000A580044643F60006C4F2000643F200072E
:104CE000256843F60048B542C4F20107C4F2000843
:104CF0004FF00000A06204D0454518BFBD4240F00F
:104D00008980204601F06CF8B54218BFBD4274D1CD
:104D1000102800F2838094F8810028B9002084F8DC
:104D20008000204600F080F8022084F8810020688E
:104D3000A1690268B1F1806F22F00102026082680D
:104D400002F4F8120FD163682BB1B3F5800F0AD1CA
:104D5000A76B27B13BB9A36BB3F1805F03D10368A5
:104D600043F480530360E369A76A1A43E36B3A4351
:104D70001343D4E90365D4E9012733438360636BAC
:104D8000666A41EA0301A36B41EA060141EA0301B5
:104D9000636941EA0501266A41EA0301E36C41EADD
:104DA0000601A66C41EA020141EA0301A36D41EA52
:104DB000070141EA060141EA0301C1604AB981687D
:104DC000012363F3CC2181608168022363F34A21CC
:104DD0008160016D520221F00101016505D5C168B4
:104DE000626D21F000411143C1600020C4F88400CD
:104DF000012184F88110BDE8F081454518BF0828DD
:104E00000CD8B54218BFBD423FF482AF45453FF4D0
:104E10007FAF80E7E0680F287FF673AF0120BDE821
:104E2000F081000000000000B0B5B6B0044602A852
:104E3000BC210025CDE93455CDE932553195FBF73C
:104E4000BDFA43F200412068C4F2010188422ED02D
:104E500043F60001C4F2000188425BD14FF4805058
:104E600002900020199002A8FEF792FD08B1FCF70D
:104E700013F944F2E040C5F60200816841F4804134
:104E80008160816801F4804101910199016841F0DC
:104E900002010160006800F00200019001984FF4E7
:104EA0006040319040F20040C5F6020028E04FF427
:104EB0000050029002A81A95FEF76AFD08B1FCF7AF
:104EC000EBF844F2E040C5F60200016941F40051FC
:104ED0000161016901F4005101910199016841F0FA
:104EE00010010160006840F2004100F010000190E4
:104EF000C5F6020101984FF4E040319001F54060A1
:104F0000022132910021CDE933110521359131A9DA
:104F1000FDF7B2FF36B0B0BD2DE9F047044690F87A
:104F20008000012802D10220BDE8F0871D46164608
:104F30000F46D4F80090012084F88000FEF78CF82A
:104F400094F88110804601290AD11FB1002E18BFA4
:104F5000002D14D1002084F880000120BDE8F087E6
:104F60006068B0F5800F04D1042902D1A068002840
:104F7000EBD0002084F880000220BDE8F08794F890
:104F80008100042802D0052084F881000021C4F8A3
:104F9000841066664FF6FF73A4F86A50A4F8685050
:104FA000E765A4F862502068A4F860502167616743
:104FB00061684268B1F5800F22EA03022A44426028
:104FC000026842F00101016003D1016841F40071FF
:104FD0000160E068DDF820A0102837D348F2080906
:104FE0000AF101072E4600BF56EA050000F0AC802A
:104FF0002068002D416918BF11F002010BD0E16D4E
:1050000051F8042B0262E165B4F862100139A4F88A
:105010006210B4F86250416911EA090F18BF002EFE
:105020000BD0006B616E41F8040B6166B4F86A0046
:105030000138A4F86A00B4F86A60FEF70DF8002F92
:10504000D2D0A0EB08005045CED36BE00AF10106A8
:105050002F46072832D900BF57EA050074D02068D0
:10506000002D416918BF11F002010CD0E16D31F83B
:10507000022BA9F82020E165B4F862100139A4F8E8
:105080006210B4F862504069C00718BF002F0CD0FE
:10509000B9F83000616E21F8020B6166B4F86A005D
:1050A0000138A4F86A00B4F86A70FDF7D5FF002E45
:1050B000D2D0A0EB08005045CED333E057EA05002C
:1050C00042D02068002D416918BF11F002010DD0B7
:1050D000E16D097880F82010E06D0130E065B4F8EA
:1050E00062000138A4F86200B4F862502068416997
:1050F000C90718BF002F0DD090F83000616E0870FE
:10510000606E01306066B4F86A000138A4F86A0085
:10511000B4F86A70FDF7A0FF002ECFD0A0EB080016
:105120005045CBD3204600F0FFFD002084F88000DE
:10513000D4F8840040F48070C4F88400012084F81E
:1051400081000320BDE8F08720464146524600F02A
:1051500053FE28B1D4F8840040F02000C4F8840045
:10516000204600F0E1FD002084F88000012084F852
:105170008100D4F88400002818BF0120BDE8F08722
:105180004EF210010428CEF200010A6822F0040257
:1051900008BF04320A60704780B500F049FE80BD48
:1051A000FEE700000000000080B500F005F800F008
:1051B00053F880BD0000000070B586B044F2E046B0
:1051C0000020C5F602060590CDE90300CDE90100F7
:1051D000B16840F2004441F40011B160B168C5F615
:1051E000020401F4001100910099316841F00201BC
:1051F0003160316801AD01F0020100910099316820
:1052000041F002013160316801F002010091009922
:1052100040210191122102910221CDE903010420D4
:10522000059020462946FDF727FE80200190204664
:105230002946FDF721FE56F8500C40F4001046F8C0
:10524000500C56F8500C20F4001046F8500C06B0E4
:1052500070BD00000000000010B540F2882445F247
:105260000040C2F2004444F67361C4F20000C4F28C
:105270006001C4E900010020A0600121C4E903101D
:10528000C4E90500C4E907002046FDF715FF002129
:105290002046FDF7E9FE10BDB0B541F20004054619
:1052A000C5F602044FF4006100222046FDF7C4FE5B
:1052B000C5F3074000F018FDC5F3072000F014FD0A
:1052C00005F0F80000F010FD002000F00DFD05468F
:1052D0004FF4006101222046FDF7AEFE2846B0BD26
:1052E000B0B540F200440546C5F602044FF48051C3
:1052F00000222046FDF7A0FEC5F3074000F0D8FCD1
:10530000C5F3072000F0D4FC05F0F80000F0D0FC55
:10531000002000F0CDFC05464FF4805101222046CC
:10532000FDF78AFE2846B0BD70B541F200040D4677
:10533000C5F6020406464FF4006100222046FDF740
:105340007BFEC6F3074000F0CFFCC6F3072000F059
:10535000CBFC46F0040000F0FC0000F0C5FC284641
:1053600000F0C2FC4FF4006101222046FDF764FE0C
:1053700070BD00000000000070B540F200440D4612
:10538000C5F6020406464FF4805100222046FDF780
:1053900053FEC6F3074000F08BFCC6F3072000F075
:1053A00087FC46F0040000F0FC0000F081FC284679
:1053B00000F07EFC4FF4805101222046FDF73CFEB8
:1053C00070BD00000000000010B541F2000402466C
:1053D000C5F6020400284FF01001204618BF012234
:1053E000FDF72AFE202100222046FDF725FE10BDF4
:1053F00010B541F200040421C5F602040022204643
:10540000FDF71AFE08212046FDF70EFE10BD000034
:10541000B0B541F200050446C5F6020500284FF07C
:1054200001014FF00002284618BF0124FDF704FED9
:10543000022128462246FDF7FFFDB0BD0000000016
:105440004FF6C0728168C5F6FF72114081607047E7
:105450004FF6C0728168C7F6FF721140013181605A
:1054600070470000000000004FF6C0728168C6F669
:10547000FF72114001F1805181607047000000000F
:10548000806800F0E0707047806800F01F0070478F
:105490008068C0F3C00070478068C0F340707047F8
:1054A000806800F001007047806800F001007047DC
:1054B0008068C0F3007070478068C0F38000704758
:1054C0008068C0F380007047C06800F44060B0FAA4
:1054D00080F0400970470000C26822F003021143C7
:1054E000C16070470000000080B5C1F3012301F0E6
:1054F0001F01C2F384624FF01F0C00EB83000CFA13
:1055000001F3D0F830E002FA01F12EEA0303194367
:10551000016380BD000000004FF6C0728168C7F6CD
:10552000FF721140043181607047000000000000EC
:1055300080B5C1F340634FF0070CC1F3045100EB99
:1055400083000CFA01F3D0F814E002FA01F12EEA1C
:1055500003031943416180BD80B54FF6FF7ECB4305
:10556000C0F20F0E02F01802D0F8C0C063EA0E03BA
:105570002EFA02F203EA0C0311401943C0F8C010DE
:1055800080BD000000000000826822F47C121143FC
:105590008160704700000000826822F0E0721143D1
:1055A0008160704700000000036901F01F0123F4CF
:1055B000F04302FA01F11943016170470000000055
:1055C00000EB810002F0F8421A43016E01F0004145
:1055D000114301667047000000EB8100016E21F06D
:1055E000004111430166704710B58AB040F66470FF
:1055F00042F20001C2F200400024CDE90844CDE9A6
:105600000644CDE90444CDE90244CDE90044C4F2A6
:105610000201C0E9001484600121C160042101611C
:105620004FF4807181820221816103210477C0E9F6
:105630000944C0E90B14446380F83840FBF754FF79
:1056400008B1FBF729FD40F6647007A9C2F20040DB
:105650000794FBF729FD08B1FBF71EFD0020694602
:10566000C4F252700090062001900520029040F292
:10567000FF70039004200490002005908DF819001D
:1056800040F66470C2F20040FBF796FD08B1FBF7EC
:1056900003FD00206946C4F2213000900C200190E7
:1056A00040F66470C2F20040FBF786FD08B1FBF7DC
:1056B000F3FC40F66474C2F200442046FAF7D4FFCB
:1056C00040F2C0010222C2F200412046FCF798F8E5
:1056D0000AB010BD0000000080B582B044F2D8408E
:1056E0000022C5F60200016841F001010160006876
:1056F000002100F00100019001980C20FDF7C0FD91
:105700000C20FDF7B9FD02B080BD000000000000D4
:105710002DE9F04F87B044F2E0400026C5F60200C4
:105720000696CDE90466CDE90266016840F60048B8
:1057300041F0100101600168C5F6020801F0100196
:1057400001910199016841F004010160016808F5C7
:10575000806401F0040101910199016841F0800128
:1057600001600168002201F0800101910199016846
:1057700041F001010160016848F63F3501F0010187
:1057800001910199016841F040010160016801F057
:10579000400101910199016841F002010160016835
:1057A00001F0020101910199016841F008010160D5
:1057B000006848F63F3100F008000190019820464B
:1057C000FDF73AFCA8F580674FF4E0410022384627
:1057D0004FF4E04BFDF730FCA8F500694FF4E051C1
:1057E00000224846FDF728FC40F2014100224046D5
:1057F000FDF722FC029502AD204629464FF0010A32
:10580000CDE903A60596FDF737FB38462946CDE9D5
:1058100002BACDE90466FDF72FFB4FF6FF7029466B
:10582000CDE9020608F540600496FDF725FB4FF42C
:10583000E0502946CDE9020A4846CDE90466FDF765
:105840001BFB404629464FF48064CDE9024ACDE96E
:105850000466FDF711FB4FF400402946CDE902062E
:1058600040460496FDF708FBA8F540602946CDE9BF
:1058700002460496FDF700FB40462946CDE902AA00
:10588000CDE904A6FDF7F8FA07B0BDE8F08F0000F7
:1058900010B541F2400443F60000C2F20044C4F2E5
:1058A0000000072120604FF4800060600020A060AD
:1058B000E1604FF0007121614FF0807161614FF044
:1058C0008061A1614FF08051C4E90710C4E909006B
:1058D000E06204F134002821FAF770FD2046FFF75A
:1058E000F3F9002808BF10BDFBF7D6FB10BD000080
:1058F00010B541F2C80443F20040C2F20044C4F2C1
:105900000100072120604FF4800060600020A0604B
:10591000E1604FF0007121614FF0807161614FF0E3
:105920008061A1614FF08051C4E90710C4E909000A
:10593000E06204F134002821FAF740FD2046FFF729
:10594000C3F9002808BF10BDFBF7A6FB10BD00007F
:10595000FEE700000000000080B511280FD800EB22
:10596000800040F2C401C2F20041002301EB80023A
:1059700041F820301361D3609360536080BD1228DA
:105980000AD0132818BF80BD40F22C204821C2F253
:105990000040FAF7F1FC80BD40F274200021C2F211
:1059A00000400161C16081604160016080BD000014
:1059B00080B580380A282DD8DFE800F0060F182CB3
:1059C0002C2C212C2C2C270040F6FE40C2F200404B
:1059D0008180C8B2FAF7ACFE80BD40F6FE40C2F24C
:1059E0000040C180C8B200F037F880BD40F6FE40EC
:1059F000C2F200400182084601F0D2FA80BD40F6B2
:105A0000FE40C2F20040418280BD40F6FE40C2F23C
:105A10000040C18280BD0000FEE7000000000000E1
:105A200000F007004FF0FF3C80F00703042B28BF75
:105A30000423033838BF00200CFA03F399430CFA0F
:105A400000F301FA00F022EA030108437047000066
:105A5000704700000000000080B50138B0FA80F007
:105A60004109002001F01CFB80BD00000000000087
:105A7000F0B581B044F22C47C5F6020757F8042C64
:105A800002F00302032A02D1012001B0F0BD054655
:105A900057F82C0C0C4620F0806047F82C0CFDF7D2
:105AA000DBFA064657F82C0C000105D5FDF7D4FAB1
:105AB000801B0228F6D964E057F8040CEE6895E8DC
:105AC0000E0020F47C30012C40EA0130A2F10101EB
:105AD0006FF35F214FF47E4202EB432247F8040C40
