:020000040800F2
:1000000068050020490100083D1400083F1400085D
:1000100043140008471400084B14000800000000B7
:100020000000000000000000000000004F14000865
:100030005114000800000000531400085514000873
:100040006301000863010008630100086301000800
:1000500063010008630100086301000863010008F0
:1000600063010008630100086301000863010008E0
:1000700063010008630100086301000863010008D0
:1000800063010008630100086301000863010008C0
:1000900063010008630100086301000863010008B0
:1000A00063010008630100086301000863010008A0
:1000B0006301000863010008630100086301000890
:1000C0006301000863010008630100086301000880
:1000D0006301000863010008630100086301000870
:1000E0006301000863010008630100086301000860
:1000F0006301000863010008630100086301000850
:10010000630100086301000863010008630100083F
:10011000630100086301000863010008630100082F
:10012000630100086301000863010008630100081F
:10013000DFF810D003F01AFD00480047FD13000857
:10014000AFF3008068050020064880470648004756
:10015000FEE7FEE7FEE7FEE7FEE7FEE7FEE7FEE777
:10016000FEE7FEE74B020008310100080CB5002055
:10017000019000906C48006840F480306A49086043
:1001800000BF6948006800F4003000900198401CEE
:100190000190009818B90198B0F5A06FF1D16248AC
:1001A000006800F4003010B10120009001E0002050
:1001B00000900098012843D15C48006840F010008E
:1001C0005A4908600846006820F0030008600846A5
:1001D000006840F002000860534840685249486097
:1001E0000846406848600846406840F480604860BF
:1001F0000846406820F47C1048600846406840F497
:10020000E81048600846006840F08070086000BF51
:100210004548006800F000700028F9D04248406866
:1002200020F00300404948600846406840F0020062
:10023000486000BF3C48406800F00C000828F9D135
:100240000CBD10B5FFF792FF10BD10B53648006821
:1002500040F00100344908600846406834490840CD
:100260003149486008460068324908402E49086014
:100270000846006820F4802008600846406820F4A2
:10028000FE0048604FF41F008860FFF7DAFF4FF070
:1002900000602949086010BD10B50021002000222F
:1002A000214B5B6803F00C0121B1042906D0082919
:1002B00028D107E0214B224C236027E01F4B204C24
:1002C000236023E0184B5B6803F47010164B5B68E7
:1002D00003F48032022303EB904022B9194B4343CD
:1002E000174C23600DE0104B5B6803F4003323B11F
:1002F000144B4343124C236003E0104B4343104C18
:10030000236003E00D4B0E4C236000BF00BF064B83
:100310005B68C3F303130C4CE15C094B1B68CB40D7
:10032000074C236010BD0000001002400020024076
:100330000000FFF8FFFFF6FE08ED00E000127A0073
:100340000000002000093D000400002010B5044614
:10035000CC48844208D10121042000F02DFB00216B
:10036000042000F029FB46E0C748844208D101215F
:10037000082000F021FB0021082000F01DFB3AE0DE
:10038000C248844208D10121102000F015FB002151
:10039000102000F011FB2EE0BD48844208D101215D
:1003A000202000F009FB0021202000F005FB22E0C6
:1003B000B848844208D10121402000F0FDFA002114
:1003C000402000F0F9FA16E0B348844208D1012138
:1003D000802000F0F1FA0021802000F0EDFA0AE020
:1003E000AE48844207D10121801500F0E5FA0021D2
:1003F000A01500F0E1FA10BD10B50121084600F08B
:10040000DBFA0021012000F0D7FA10BD2DE9F04100
:10041000024600250026002000230024002791F832
:1004200003C00CF00F0591F803C00CF0100CBCF1E8
:10043000000F03D091F802C04CEA050591F800C006
:10044000BCF1000F31D0146800202BE04FF0010CFC
:100450000CFA00F3B1F800C00CEA03069E4220D16A
:1004600083004FF00F0C0CFA03F7BC4305FA03FCB2
:100470004CEA040491F803C0BCF1280F06D14FF0F8
:10048000010C0CFA00FCC2F814C00AE091F803C099
:10049000BCF1480F05D14FF0010C0CFA00FCC2F87A
:1004A00010C0401C0828D1D31460B1F800C0BCF1C2
:1004B000FF0F34DD546800202EE000F1080C4FF0EF
:1004C000010808FA0CF3B1F800C00CEA03069E42DA
:1004D00021D183004FF00F0C0CFA03F7BC4305FA4F
:1004E00003FC4CEA040491F803C0BCF1280F05D1C9
:1004F00000F1080C08FA0CF8C2F8148091F803C057
:10050000BCF1480F07D100F1080C4FF0010808FAC0
:100510000CF8C2F81080401C0828CED35460BDE807
:10052000F0814FF6FF710180022181700421C170BA
:1005300070470246002093680B400BB1012000E099
:10054000002070470146886880B27047024600204C
:10055000D3680B400BB1012000E00020704701463A
:10056000C86880B2704701617047416170470AB145
:10057000016100E041617047C16070474FF4803213
:100580000A438261816182618269826970470246A1
:100590000020434B18684FF68073184040EA021061
:1005A00008433F4B186070473E49C8617047F0B53B
:1005B0000A46002300240021002500F00046B6F181
:1005C000004F02D1364EF16901E0354E7168C0F33B
:1005D000034583B200F44016B6F5401F08D121F060
:1005E00070612F4E766826F070662D4F7E6012E0A7
:1005F00000F48016B6F5801F06D1032606FA05F42E
:10060000A14341F0706106E0460D360103FA06F69B
:10061000B14341F0706122B1460D360103FA06F68E
:10062000314300F00046B6F1004F02D11C4EF1619B
:1006300001E01B4E7160F0BD30B500228B071C0F2E
:100640000F2303FA04F2164B08338C1053F82430AE
:100650009343134C08348D1044F8253023468C10F6
:1006600053F824308C07240F00FA04F423430C4C75
:1006700008348D1044F8253030BD0A49DC3108605B
:100680007047000000080140000C014000100140CC
:100690000014014000180140001C014000200140EE
:1006A0000000014000002042DF48006840F00100E7
:1006B000DD49086008464068DC490840DA4948607E
:1006C00008460068DA490840D749086008460068CB
:1006D00020F4802008600846406820F4FE0048604E
:1006E0004FF41F0088607047CF49096821F48031BA
:1006F000CD4A11601146096821F480211160B0F5DE
:10070000803F03D0B0F5802F0ED106E0C6490968BE
:1007100041F48031C44A116007E0C349096841F4DB
:10072000A021C14A116000E000BF00BF704710B5B2
:1007300001460022002300204A11012A02D1BA4CAE
:10074000236806E0022A02D1B74C236A01E0B64CC6
:10075000636A01F01F02012494401C400CB1012087
:1007600000E0002010BD38B50020009000240025D6
:1007700000BF3120FFF7DBFF05460098401C0090CA
:100780000098B0F5A06F01D0002DF2D03120FFF716
:10079000CEFF08B1012400E00024204638BD014608
:1007A0000020A14A106820F0F80040EAC100106063
:1007B0007047A04908607047024600209A4B58686D
:1007C00020F47C1042EA01031843974B58607047AD
:1007D00098490866704701460020934A506820F007
:1007E00003000843506070478F48406800F00C00D9
:1007F0007047014600208C4A506820F0F000084302
:100800005060704701460020874A506820F4E0603D
:1008100008435060704701460020834A506820F426
:10082000605040EAC1005060704729B17E4A527A58
:1008300002437D4B5A7204E07B4A527A82437A4BE0
:100840005A7270477B49D8310860704701460020D2
:10085000754A506820F440400843506070470021BA
:10086000714A20321170704A82F82010012802D09B
:1008700004280AD104E001216B4A2032117005E0FE
:100880000521694A2032117000E000BF00BF7047A7
:100890006949086070476449096A0143624A116204
:1008A0007047654944390860704730B5002100221F
:1008B000002400235C4D6D6805F00C0121B1042972
:1008C00005D0082923D105E05C4D056022E05B4D91
:1008D00005601FE0544D6D6805F47012524D6D684F
:1008E00005F48034022505EB92421CB9544D554362
:1008F00005600BE04C4D6D6805F400351DB1504DA1
:100900005543056002E04D4D5543056002E04B4DF7
:10091000056000BF00BF444D6D6805F0F001090996
:10092000484D6B5C0568DD4045603F4D6D6805F4E2
:10093000E061090A434D6B5C4568DD4085603A4DD6
:100940006D6805F46051C90A3E4D6B5C4568DD4039
:10095000C560354D6D6805F44041890B3A4D6B5CBF
:10096000C568B5FBF3F5056130BD29B12E4A526962
:1009700002432D4B5A6104E02B4A526982432A4BB1
:100980005A61704729B1284A92690243264B9A61FD
:1009900004E0254A92698243234B9A61704729B14A
:1009A000214AD2690243204BDA6104E01E4AD2692F
:1009B00082431D4BDA61704729B11B4AD26802435A
:1009C000194BDA6004E0184AD2688243164BDA60A9
:1009D000704729B1144A12690243134B1A6104E0AB
:1009E000114A12698243104B1A617047124940390B
:1009F000086070470F49C86470470B49C871704759
:100A00000948406A40F080700749486270470146D3
:100A10000020054A92680A400AB1012000E0002047
:100A20007047014988727047001002400000FFF8CB
:100A3000FFFFF6FE000042428004424200127A00AC
:100A400000093D00140000202400002010B50446D9
:100A5000BE48844208D101218014FFF7ADFF002178
:100A6000A014FFF7A9FF16E0B948844208D101217C
:100A70000014FFF7AEFF00212014FFF7AAFF0AE0E1
:100A8000B448844207D10121C013FFF7A2FF00211F
:100A9000E013FFF79EFF10BD10B50022028802F49C
:100AA00041520B884C8823438C882343CC882343B2
:100AB0000C8923434C8923438C892343CC892343CA
:100AC0001A430280838B4FF2FF74234083830B8A87
:100AD000038210BD2DE9F04F85B005460C464FF05E
:100AE000000902274FF000084FF0010B0026B24624
:100AF000A88B4FF240010840A88302202884B5F853
:100B00001C90A068022801D100BF38E0A08810B96D
:100B10004FF0010B01E04FF0020B8D48854200D1F0
:100B200000E000BF6846FFF7C0FEDDF800A0E088E7
:100B3000B0F5007F0AD14FEA1A2000EB8000400098
:100B4000A168B0FBF1F0401D86B20BE04FEA4B10FC
:100B5000BAFBF0F000EB80004000A168B0FBF1F0C0
:100B6000401D86B20A20B6FBF0F606F00108A6EB9F
:100B70000800C0F34F074FF6FF7000EA0828022F65
:100B800001DBFF2F02DD02274FF00008E08840EA7A
:100B9000080038432884A088A18908436188084355
:100BA0002188084340F4006040EA0909A5F81C9038
:100BB00005B0BDE8F08F0021018041808180C180B7
:100BC000018141818181C18107210182704700211A
:100BD000018041808180C18002218160002181816A
:100BE000704721B1028842F04002028004E002888E
:100BF0004FF6BF731A400280704721B1828B42F4D6
:100C00008062828304E0828B4FF6FF331A40828336
:100C1000704730B5002400230C110125A540ABB26C
:100C20001AB185881D43858002E085889D438580B3
:100C300030BD1AB183880B43838002E083888B43E5
:100C400083807047818170470146888970474FF6DD
:100C5000FF62914204D0028842F48072028004E074
:100C600002884FF6FF631A400280704721B18288E4
:100C700042F00402828004E082884FF6FB731A403F
:100C80008280704702884FF2FF731A400280028808
:100C90000A4302807047018841F480510180704707
:100CA00021B1028842F40052028004E002884DF62D
:100CB000FF731A400280704702460020012901D0CC
:100CC000108B00E0908A70470146088A7047B1F5A2
:100CD000804F04D1028842F48042028004E00288FE
:100CE0004BF6FF731A4002807047024600201389BA
:100CF0000B400BB1012000E000207047CA43028185
:100D00007047F0B50246002000240023002501F0C2
:100D10000F070126BE40B4B20B1101269E40B3B2AC
:100D2000968806EA03051689264016B10DB1012002
:100D300000E00020F0BD10B5002201F00F040123F7
:100D4000A3409AB2D343038110BD0000003001409C
:100D500000380040003C004001684FF6FE72114030
:100D600001600021016041608160C1608D4988425D
:100D700008D18C490839496841F00F01894A083A7D
:100D800051608AE087491431884208D18549083981
:100D9000496841F0F001834A083A51607DE0814999
:100DA0002831884208D17F490839496841F4706187
:100DB0007C4A083A516070E07A493C31884208D157
:100DC00078490839496841F47041764A083A5160D7
:100DD00063E074495031884208D172490839496842
:100DE00041F470216F4A083A516056E06D49643110
:100DF000884208D16B490839496841F47001694A51
:100E0000083A516049E067497831884208D165491C
:100E10000839496841F07061624A083A51603CE023
:100E20006149884206D1011F096841F00F01021F84
:100E3000116032E05C491431884208D15A49091FD7
:100E4000096841F0F001584A121F116025E0564927
:100E50002831884208D15449091F096841F470615A
:100E6000514A121F116018E04F493C31884208D1A5
:100E70004D49091F096841F470414B4A121F116026
:100E80000BE049495031884207D14749091F096899
:100E900041F47021444A121F1160704710B50022BE
:100EA000026847F6F0739A430C6A8B6823430C6917
:100EB00023434C6923438C692343CC6923434C6A05
:100EC00023438C6A23431A430260CB6843600B6858
:100ED00083604B68C36010BD002101604160816088
:100EE000C160016141618161C161016241628162F0
:100EF000704721B1026842F00102026004E002681A
:100F00004FF6FE731A40026070471AB103680B4334
:100F1000036002E003688B430360704741607047E1
:100F20000146486880B2704701460020002201F067
:100F300080531BB11C4B083B1A6802E0194B083B5D
:100F40001A6802EA01030BB1012000E0002070479B
:100F500000F0805119B11449091F086002E01149DD
:100F600008394860704701460020002201F0805394
:100F70001BB10D4B083B1A6802E00A4B083B1A688C
:100F800002EA01030BB1012000E00020704700F0ED
:100F9000805119B10449091F086002E0014908396C
:100FA00048607047080002400804024010B504463B
:100FB000FA48844208D101214015FFF7FDFC0021C9
:100FC0006015FFF7F9FC17E0F548844208D10121CC
:100FD0000015FFF7F1FC00212015FFF7EDFC0BE0F9
:100FE000F048844208D10121C803FFF7E5FC002145
:100FF0004FF40040FFF7E0FC10BD30B50246002082
:1010000000235068E84C20400D790C6844EA052420
:10101000204350609068E54C2040D1E902542C43B5
:101020004D7944EA450420439060D06A20F4700072
:101030000C7C641EE4B2234340EA0350D06230BD0E
:1010400000210160017141718160C1600121017461
:10105000704721B1826842F00102826003E0826839
:1010600022F001028260704721B1826842F48072EE
:10107000826003E0826822F480728260704710B55B
:101080000023CBB21AB144681C43446002E04468B8
:101090009C43446010BD816841F008018160704745
:1010A000014600208A6802F008020AB1012000E02F
:1010B00000207047816841F004018160704701465B
:1010C00000208A6802F004020AB1012000E000203A
:1010D000704721B1826842F4A002826003E0826816
:1010E00022F4A00282607047014600208A6802F460
:1010F00080020AB1012000E00020704710B50A46C6
:1011000000210023416821F46041531E41EA43312C
:10111000416010BD21B1426842F40062426003E0C8
:10112000426822F4006242607047F0B504460D4602
:1011300000200021092D11DDE068A5F10A0606EB6B
:101140004607072606FA07F18843A5F10A0606EBCB
:10115000460603FA06F10843E0600CE0206905EB5F
:101160004507072606FA07F1884305EB450603FA0B
:1011700006F108432061072A0FDA606B561E06EB62
:1011800086071F2606FA07F18843561E06EB8606D9
:1011900005FA06F10843606322E00D2A0FDA206B9E
:1011A000D61F06EB86071F2606FA07F18843D61FCF
:1011B00006EB860605FA06F10843206310E0E06AB4
:1011C000A2F10D0606EB86071F2606FA07F18843F3
:1011D000A2F10D0606EB860605FA06F10843E06269
:1011E000F0BD21B1826842F48012826003E082681F
:1011F00022F48012826070470146C86C80B270474A
:1012000066484C300068704721B1426842F4806201
:10121000426003E0426822F480624260704721B17C
:10122000426842F48052426003E0426822F48052F5
:10123000426070470A460021816821F4E041114371
:101240008160704721B1826842F40042826003E00D
:10125000826822F400428260704721B1826842F4C1
:101260000212826003E0826822F4021282607047F8
:10127000014600208A6802F400120AB1012000E051
:1012800000207047F0B504461546002000220026D5
:10129000092911DDE068A1F10A0707EB470C0727D0
:1012A00007FA0CF29043A1F10A0707EB470703FA8C
:1012B00007F21043E0600CE0206901EB410C0727C6
:1012C00007FA0CF2904301EB410703FA07F21043CF
:1012D0002061A06BC0F30156EF1C06F1010CA7EBD7
:1012E0000C0707EB870C1F2707FA0CF29043EF1C43
:1012F00006F1010CA7EB0C0707EB870701FA07F2D1
:101300001043A063F0BD10B50A4600210023816B95
:1013100021F44011531E41EA0351816310BD08B509
:10132000002300930090009B0B440093009B1A60E5
:1013300008BD08B5024600200090009201F1280087
:10134000009B184400900098006880B208BD0A46CF
:1013500000214168164B19401143416070474162BA
:10136000826270470A460021416821F01F01114343
:101370004160704740B109490831096841F40001F2
:10138000064A0832116007E004490831096821F46F
:101390000001024A08321160704700000024014039
:1013A00000280140003C0140FFFEF0FFFDF7F1FF87
:1013B000FFFD3FFF0246002013680B400BB10120E8
:1013C00000E000207047CA430260704770B50246D3
:1013D0000020002300240B125568CEB205EA060453
:1013E00015681D4015B10CB1012000E0002070BD52
:1013F00000220A12D343036070470000482001F026
:10140000C7FC01F0EAFE01F0C3FE01F0EDFF00F0C1
:1014100032FB00F05FF901F06CF90649064800F074
:1014200041FF05E000F08CFC00F0FEF800F068FDE4
:10143000F8E700004E00002046000020704700BF83
:10144000FEE700BFFEE700BFFEE700BFFEE7704714
:10145000704770477047000010B596480078FF2825
:101460007DD0944800789449887692480078012885
:1014700003D1022000F095F902E0022000F0BCF94F
:101480008D4800788B49085C00F0080028B14FF4C3
:1014900000718A48FFF767F804E04FF4007187484D
:1014A000FFF763F8844800788249085C00F0040084
:1014B00028B14FF480618148FFF755F804E04FF4FC
:1014C00080617E48FFF751F87B4800787949085CD5
:1014D00000F0020028B14FF400617848FFF743F8AC
:1014E00004E04FF400617548FFF73FF87248007858
:1014F0007049085C00F0010028B14FF480516F483A
:10150000FFF731F804E04FF480516C48FFF72DF8F5
:101510006848407C68490978884203D1032000F07C
:1015200040F902E0032000F067F96248807C6249DC
:101530000978884203D1042000F033F902E0042046
:1015400000F05AF95B48C07C5B490978884203D1B6
:10155000052000F026F902E0052000F04DF910BD4D
:1015600054490978564A1170524949785170514985
:10157000897891704F49C978D1704E4909791171B4
:101580004C49C97A032202EB41014D4A51714A4943
:10159000097891710321D1714649C97A4906090E2A
:1015A00011720112517290724349098B0912D17262
:1015B0004149097E11734049498A091251733E49D4
:1015C000897C91733C49898A0912D1733A49097D12
:1015D00011743949C98A091251743749897D917446
:1015E000354949890912D1743349897A11753249CB
:1015F0008989091251753049097B91752E49C9892C
:101600000912D1752C49897B11762B49098A091257
:1016100051762949097C91762749898B0912D1761F
:101620002549097F1177704738B50024002000F064
:1016300070FD10B122283BD107E000232148028829
:101640000221184601F090F832E0002000F04DFD34
:1016500000F0040018B10421002000F04FFD1A48EA
:101660000088401C1849088008460088B0F5FA6FC9
:101670000EDB00200880FFF773FF14480088144B2E
:101680001E220F490090002001F006FA00F0DFF85A
:10169000002000F071FD041E09DD0C480C4B2246B1
:1016A00004490090002001F07DFAFFF7D5FE00BF4D
:1016B00000BF38BD7C000020C400002000080140AD
:1016C0009C0000206C0000202A00002072000020F6
:1016D0006E00002038B5002401210420FFF752F9E4
:1016E00001211020FFF74EF901214020FFF74AF9B0
:1016F0004FF47740ADF8000002208DF8020048203A
:101700008DF8030069465948FEF780FE4FF480715A
:101710005648FEF70EFF10B904F18000C4B24FF432
:1017200000715248FEF705FF10B904F14000C4B241
:101730004FF480614D48FEF7FCFE10B904F1200023
:10174000C4B24FF400614948FEF7F3FE10B904F14A
:101750001000C4B24FF480514448FEF7EAFE10B9BD
:1017600004F10800C4B24FF400514048FEF7E1FE16
:1017700008B9201DC4B24FF480413C48FEF7D9FEA1
:1017800008B9A01CC4B24FF400413848FEF7D1FE9E
:1017900008B9601CC4B20CB9601CC4B234480470EF
:1017A00038BD10B50446072C23D2DFE804F022042C
:1017B000090E13181D0002212C48FEF7D4FE19E073
:1017C00004212A48FEF7CFFE14E008212748FEF73F
:1017D000CAFE0FE010212548FEF7C5FE0AE02021D1
:1017E0002248FEF7C0FE05E040212048FEF7BBFE80
:1017F00000E000BF00BF10BD10B50446072C23D287
:10180000DFE804F02204090E13181D000221174816
:10181000FEF7ABFE19E004211448FEF7A6FE14E023
:1018200008211248FEF7A1FE0FE010210F48FEF735
:101830009CFE0AE020210D48FEF797FE05E04021BE
:101840000A48FEF792FE00E000BF00BF10BD10B5D1
:1018500040210648FEF77AFE18B10620FFF7CCFFBC
:1018600002E00620FFF79DFF10BD000000180140B8
:10187000C400002008B50820ADF8000048208DF80D
:10188000030002208DF802006946AF48FEF7BEFD56
:1018900008BD08B50820ADF8000010208DF8030041
:1018A00002208DF802006946A748FEF7AFFD08BD8B
:1018B00070B504460D46012C05D12A460821A248E0
:1018C000FEF755FE16E0022C05D12A4620219F483E
:1018D000FEF74DFE0EE0032C05D12A4640219B4821
:1018E000FEF745FE06E0042C04D12A46E1029848A2
:1018F000FEF73DFE70BD70B50446012C05D10821F0
:101900009148FEF716FE054616E0022C05D120216F
:101910008E48FEF70EFE05460EE0032C05D1402151
:101920008A48FEF706FE054606E0042C04D1E102D3
:101930008748FEF7FEFD0546284670BD10B50446F3
:10194000FFF7A7FF00212046FFF7B2FF40F2EE208D
:1019500001F061FA01212046FFF7AAFF0F2001F0F4
:101960005AFA10BD70B505460024FFF783FF04E066
:10197000601CC4B2012001F04EFA2846FFF7BBFFFD
:1019800008B1642CF4DB642C01DB012070BD002461
:1019900004E0601CC4B2012001F03DFA2846FFF7C4
:1019A000AAFF08B9F02CF4DBF02C01DB0120EDE7F5
:1019B0000020EBE770B50546FFF76BFF00212846D6
:1019C000FFF776FF0A2001F026FAFFF753FF022007
:1019D00001F021FA2846FFF78EFF012801D10124EA
:1019E00000E000242D2001F016FA204670BD2DE9FC
:1019F000F04107460026002409E03846FFF7DAFFE9
:101A0000054605FA04F03043C6B2601CC4B2082C87
:101A1000F3DB3046BDE8F0812DE9F04107460C4686
:101A2000FFF737FF002522E004F00106641076B1CD
:101A300000213846FFF73CFF082001F0ECF90121B6
:101A40003846FFF735FF3A2001F0E5F90DE00021B7
:101A50003846FFF72DFF462001F0DDF90121384619
:101A6000FFF726FF022001F0D6F9681CC5B2082D49
:101A7000DADBBDE8F08110B501F0C8FB0120FFF70B
:101A80005DFF0120FFF76EFF10BD2DE9F14F0098BB
:101A9000FFF754FF0098FFF765FFCC210098FFF790
:101AA000BBFF44210098FFF7B7FF0098FFF746FF00
:101AB0000098FFF757FFCC210098FFF7ADFFBE213C
:101AC0000098FFF7A9FF0098FFF791FF8346009861
:101AD000FFF78DFF82464FEA0A2004B244EA0B0466
:101AE000002C0DDAE043401C01F0F8FE074600220E
:101AF000184B01F004FE054601F041FF81460BE062
:101B0000204601F0EBFE05460022124B01F0F7FDE6
:101B1000074601F034FF81460F49484601F0D8FCE2
:101B2000BDE8F88F70B50546002433210120FFF78A
:101B300073FF00BF05E00120FFF759FF2855601C27
:101B4000C4B2082CF7DB70BD00140140001801403E
:101B5000001001400000B03F000020412DE9F04F8F
:101B60008FB004460D461646362C05DDA4F136002E
:101B700001F0A6FE814601E04FF00009362D05DD9B
:101B8000A5F1360001F09CFE824601E04FF0000A0C
:101B9000B42E05DDA6F1B40001F092FE834601E00B
:101BA0004FF0000B484601F0D7FE0746E04AE14BF4
:101BB00001F0A5FDCDE90A01484601F0CDFECDE9D1
:101BC0000601484601F0C8FE0746DB4ADB4B01F040
:101BD00096FDCDE90401DDE9062301F090FDCDE994
:101BE0000801DDE90A2301F084FDCDE90C0101F0D3
:101BF0009AFED3498882504601F0AEFE0746CC4A91
:101C0000CC4B01F07CFDCDE90A01504601F0A4FE69
:101C1000CDE90601504601F09FFE0746C64AC74B74
:101C200001F06DFDCDE90401DDE9062301F067FD5A
:101C3000CDE90801DDE90A2301F05BFDCDE90C01E6
:101C400001F071FEBE49C882BE49584601F0BEFE91
:101C500035D2584601F080FE0746BB4ABB4B01F027
:101C60004EFDCDE90601584601F076FECDE90201B0
:101C7000584601F071FE0746B54AB64B01F03FFDEC
:101C8000CDE90001DDE9022301F039FDCDE90401D0
:101C9000DDE9062301F08CFC0022AF4BCDE9080101
:101CA00001F02DFD0022AC4BCDE90A0101F099FDB8
:101CB000CDE90C0101F037FEA149488234E05846D5
:101CC00001F04AFE0746A54AA54B01F018FDCDE9F3
:101CD0000601584601F040FECDE90201584601F0E8
:101CE0003BFE07469F4AA04B01F009FDCDE90001EC
:101CF000DDE9022301F003FDCDE90401DDE906235E
:101D000001F056FC0022944BCDE9080101F0F7FCEC
:101D10000022914BCDE90A0101F063FDCDE90C01F0
:101D200001F001FE864948820021484601F044FE48
:101D300003D1002082498882C8820FB0BDE8F08FAD
:101D40002DE9F0470024002500268848408888496E
:101D50000988884203DD8548408885490880834892
:101D6000008884490988884203DD804800888149C9
:101D7000088081480088401C7F4908800846008808
:101D8000B0F5FA6F32D17D480088401C7B4908804D
:101D90007B48006876490988084479490860794891
:101DA00000687449098808447649086073480088C7
:101DB000082818DB72480068C0F3CF0408460068A2
:101DC000C0F3CF050026324629462046FFF7C6FE5F
:101DD000002067490880674908806A4908606849A7
:101DE0000860664908800020634908800020664931
:101DF00008801CE065486449098830F811105B4A86
:101E000061480088001D32F8100081420ADC11464A
:101E10005D480088001D31F810005C495A4A12885C
:101E200021F8120058480088401C5749088056483D
:101E300000880528DEDB56480088401C544908808D
:101E400008460088B0F5FA6F58D15049088801F06B
:101E500040FD81464FF08B41484601F06BFB8246C6
:101E60004C4901F035FB80464B4901F031FB0746F8
:101E700001F045FD3249088301204349088024E0F0
:101E80004249414A128831F8120001F022FD814690
:101E90004249484601F01CFB82464FF08B4101F05D
:101EA00049FB80463E4901F013FB074601F027FD40
:101EB00082B235480088401E21490A3121F810209D
:101EC00031480088401C304908802F480088052888
:101ED000D6DB00202E4908802B4908800AE000202C
:101EE0002A49294A128821F8120027480088401CF4
:101EF00025490880244800880528F0DBBDE8F087E4
:101F000010B528480088401C2649088008460088EB
:101F1000B0F5FA6F0ADB0120FFF7B7FD044601F0C8
:101F2000EEFC0749888300201E49088010BD000090
:101F3000925CFE43FAEDC33F462575029A086B3F5B
:101F4000C400002000007A4421B0726891EDBC3FCB
:101F50000FD6FF39CC97373F00408F40894160E56D
:101F6000D022AB3FBC79AA436E863B3F560100208E
:101F700036000020380000202E0000203400002011
:101F8000400000203C00002030000020E200002043
:101F9000320000200A57864200002041333353406C
:101FA0000000A0424400002010B504462146002055
:101FB00000F005FB10BD10B58020FFF7F5FF10BD48
:101FC0000146D84830F8110070470146D64830F82D
:101FD0001100704710B5044604222146900100F01C
:101FE0002CFB10BD10B5044604222146900100F0E0
:101FF00051FB10BD10B50446042221464FF4A060E9
:1020000000F01BFB10BD10B50446062221464FF41C
:10201000106000F012FB10BD10B5044604222146EA
:102020004FF4706000F009FB10BD10B504460422A7
:1020300021464FF4A06000F02DFB10BD10B5044602
:10204000062221464FF4106000F024FB10BD10B5AD
:102050000446042221464FF4706000F01BFB10BDC3
:1020600010B54FF4A85000F0C9FA10BD10B50446E1
:10207000210A4FF4C85000F0A2FAE1B24FF4D05058
:1020800000F09DFA10BD10B5044621464FF4D8501B
:1020900000F095FA10BD70B50446FFF7E1FF60EA65
:1020A0000400C5B229464FF4A85000F088FA70BD6C
:1020B00070B504460D46290A41F2082202EB44108D
:1020C00000F07DFAE9B241F2083202EB441000F070
:1020D00076FA70BD70B504460D4641F2086101EB19
:1020E0004410294600F06BFA70BD10B504464FF459
:1020F000027101EB441000F081FA10BD70B5044686
:102100000D464FF4027101EB4410294600F057FAD6
:1021100070BD10B504464FF4427101EB441000F05D
:102120006DFA10BD70B504460025002600BF42F2CE
:10213000080101EB441000F061FA064642F2081172
:1021400001EB441000F05AFA00EB062086B27EB193
:1021500042F2080101EB441000F050FA054642F249
:10216000081101EB441000F049FA00EB052085B29C
:10217000B542DCD1284670BD70B504460025002666
:1021800000BF42F2086101EB441000F037FA064646
:1021900042F2087101EB441000F030FA00EB062027
:1021A00086B27EB142F2086101EB441000F026FADB
:1021B000054642F2087101EB441000F01FFA00EBF3
:1021C000052085B2B542DCD1284670BD2DE9F0412D
:1021D00004460F4616460025A8460EB9BDE8F08114
:1021E00042F2084101EB441000F008FA054642F2C1
:1021F000085101EB441000F001FA00EB052085B214
:10220000280200EB441000F11008324639464046DF
:1022100000F013FAA81985B2290A42F2084202EB2B
:10222000441000F0CCF9E9B242F2085202EB44103B
:1022300000F0C5F900BFD1E72DE9F04104460F4693
:1022400016460025A8460EB9BDE8F08142F6080101
:1022500001EB441000F0D2F9054642F6081101EBFB
:10226000441000F0CBF900EB052085B2280200EB0A
:10227000441000F1180832463946404600F00AFA88
:10228000A81985B2290A42F6080202EB441000F0B0
:1022900096F9E9B242F6081202EB441000F08FF909
:1022A00000BFD1E72DE9F04105460E460027B846AC
:1022B000002433E0295D41F6087202EB441000F07F
:1022C0007EF9315D41F6086202EB441000F077F9C7
:1022D0000020154921F81400124921F81400B7F51F
:1022E000804F07DC285D4FF6FF7101EA80200E4920
:1022F00021F81400B8F5804F07DC305D4FF6FF7110
:1023000001EA8020074921F81400074830F814003A
:102310000744044830F814008044641C082CC9DBCE
:10232000BDE8F081FC000020EC000020F7480078B8
:1023300011287BD2DFE800F07A0910171E252C3314
:102340003A41484F565D646B73001120F049487163
:102350006520F049C8706AE01220ED494871662096
:10236000EC49C87063E01320E94948716720E949E6
:10237000C8705CE01420E64948716820E549C870DF
:1023800055E01520E24948716920E249C8704EE0E5
:102390001620DF4948716A20DE49C87047E01720DF
:1023A000DB4948716B20DB49C87040E01820D849F0
:1023B00048716C20D749C87039E01920D449487158
:1023C0006D20D449C87032E01A20D14948716E207E
:1023D000D049C8702BE01B20CD4948716F20CD49F2
:1023E000C87024E01C20CA4948717020C949C870CF
:1023F0001DE01D20C64948717120C649C87016E00D
:102400001E20C34948717220C249C8700FE01F20C6
:10241000BF4948717320BF49C87008E006E020201A
:10242000BB4948717420BB49C87000E000BF00BFC1
:10243000704710B5B848B6490A680260898881803B
:10244000B4490968C0F80610B4490968C0F80A1010
:10245000B3490968C0F80E10B2490968C0F81210F3
:102460000A30FFF7C7FDAC480E30FFF7B3FDAA48AE
:10247000801DFFF7D1FDA748FFF7E9FDA748FFF74B
:10248000D4FDA748FFF7AEFD10BD10B5A248A04986
:102490000A68026089888180FFF7B5FD10BD00B52C
:1024A00087B001212820FEF76DFA01218803FEF78D
:1024B00076FA4FF46040ADF8040003208DF8060072
:1024C00018208DF8070001A99748FDF79FFF4FF4EA
:1024D0008050ADF8040003208DF8060010208DF820
:1024E000070001A99048FDF791FF4FF40070ADF887
:1024F000040001208DF8060010208DF8070001A9C6
:102500008A48FDF783FF4FF400718848FEF72BF8E7
:102510000020ADF808004FF48270ADF80A000020EA
:10252000ADF80C000220ADF80E000120ADF810004F
:102530004002ADF812000020ADF81400ADF816000E
:102540000720ADF8180002A97948FEF7A5FA012185
:102550007748FEF746FB07B000BD10B5044600BF44
:1025600002217348FEF7C1FB0028F9D021467048CC
:10257000FEF768FB00BF01216D48FEF7B6FB00289F
:10258000F9D06B48FEF760FBC0B210BD10B54FF438
:1025900000716648FDF7E9FF022000F015FC4FF4DA
:1025A00000716248FDF7DFFF4FF4C86000F00CFCDB
:1025B00010BD10B504462046FFF7CFFF10BD70B523
:1025C00004460D464FF480515748FDF7CEFFC4F343
:1025D0000740FFF7EEFFC4F30720FFF7EAFF04F020
:1025E000F801091DC8B2FFF7E4FF2846FFF7E1FF35
:1025F0004FF480514C48FDF7B6FF70BD70B50446EE
:1026000000254FF480514848FDF7AFFFC4F3074061
:10261000FFF7CFFFC4F30720FFF7CBFF04F0F8006C
:10262000FFF7C7FF0020FFF7C4FF05464FF48051B6
:102630003D48FDF798FF284670BD2DE9F04104465E
:102640000F46154600264FF480513748FDF78DFFA1
:10265000C4F30740FFF7ADFF0646C4F30720FFF7BA
:10266000A8FF064604F0F801091DC8B2FFF7A1FF54
:102670000646002604E0B85DFFF79BFF701C86B29B
:10268000AE42F8DB4FF480512748FDF76CFF284637
:10269000BDE8F0812DE9F04104460F4615460026BD
:1026A0004FF480512048FDF760FFC4F30740FFF767
:1026B00080FFC4F30720FFF77CFF04F0F800FFF76A
:1026C00078FF00BF05E00020FFF773FFB855701CCE
:1026D00086B2AE42F7DB4FF480511348FDF743FF5B
:1026E0002846BDE8F08170B5002044682546A8471B
:1026F00070BD10B5FFF71AFEFFF7D1FEFFF746FFDA
:10270000FFF7C3FEFFF795FE10BD0000C4000020D8
:10271000560000205C0000200C010020600000201A
:102720006400002068000020000C014000140140FB
:102730000038004010B504464FF4847101EB44109A
:102740001021FFF73CFF00BF4FF4847101EB4410F0
:10275000FFF754FF0028F7D14FF4027101EB44104A
:10276000FF21FFF72CFF10BD2DE9F04104460D4677
:102770001646984605F00F0001280FD005F00F000F
:1027800002280BD005F00F00032807D005F00F003A
:10279000042803D005F00F00052841D12046FFF79B
:1027A000C9FF45EA0801082202EB4410FFF707FFC2
:1027B00076B1310A4FF4816202EB4410FFF7FFFE5D
:1027C000F1B24FF4A16202EB4410FFF7F8FE15E0FE
:1027D000FE480088401CFD4908800A461288110AFC
:1027E0004FF4816202EB4410FFF7E9FEF74A1178DB
:1027F0004FF4A16202EB4410FFF7E1FE4FF4847145
:1028000001EB44100121FFF7DAFE00BF4FF48471A1
:1028100001EB4410FFF7F2FE0028F7D1012700E09A
:1028200000273846BDE8F08170B504464FF4427188
:1028300001EB4410FFF7E2FE132811D14FF484712D
:1028400001EB44100221FFF7BAFE00BF4FF4847180
:1028500001EB4410FFF7D2FE0028F7D1012500E07C
:102860000025284670BD2DE9F04105460C46164668
:102870002078FF2808D16078FF2805D1A078FF28AC
:1028800002D1E078FF2808D0207828B9607818B9FC
:10289000A07808B9E07800B10EB900275CE0012704
:1028A000217840F6084202EB4510FFF788FE617878
:1028B00040F6085202EB4510FFF781FEA17840F682
:1028C000086202EB4510FFF77AFEE17840F60872E5
:1028D00002EB4510FFF773FE310A41F2080202EBEA
:1028E0004510FFF76CFEF1B241F2081202EB451001
:1028F000FFF765FE4FF4847101EB45100421FFF7EB
:102900005EFE00BF4FF4847101EB4510FFF776FEC9
:102910000028F7D117E04FF4427101EB4510FFF7A3
:102920006DFE172800D116E02846FFF7DEFB00F009
:10293000080040B14FF4027101EB45100821FFF788
:102940003EFE002707E04FF4427101EB4510FFF710
:1029500055FE1528DFD100BF3846BDE8F08110B51F
:1029600004464FF4847101EB44100821FFF727FE61
:1029700000BF4FF4847101EB4410FFF73FFE0028C5
:10298000F7D110BD2DE9F0470446884616460025CC
:102990000027A9462046FFF718FBB04204DA20467C
:1029A000FFF713FB074600E0374600BF2046FFF75E
:1029B000B9FB81464FF4427101EB4410FFF71EFE54
:1029C0000546172D03D01C2D01D0002701E0B94585
:1029D000ECDB00BF3A4641462046FFF7F7FB4FF4D9
:1029E000847101EB44102021FFF7E9FD00BF4FF493
:1029F000847101EB4410FFF701FE0028F7D110E0CD
:102A00004FF4427101EB4410FFF7F8FD0546172D16
:102A100007D01C2D05D02046FFF78CFE0020BDE816
:102A2000F0874FF4027101EB4410FFF7E7FD00F06F
:102A300010001028E4D14FF4027101EB4410102172
:102A4000FFF7BDFD4FF4027101EB44101021FFF7B9
:102A5000B6FD3846E3E72DE9F04104460E4615463B
:102A60000027002D15DD2A4631462046FFF7E4FBFE
:102A70004FF4847101EB44104021FFF7A0FD00BF2B
:102A80004FF4847101EB4410FFF7B8FD0028F7D133
:102A90002F463846BDE8F0812DE9F04704468946C7
:102AA00016461D46089F4FF000082046FFF78DFA96
:102AB000B04204DA2046FFF788FA804600E0B046CC
:102AC000287828B9687818B9A87808B9E87800B1E2
:102AD00017B94FF0000863E0297840F6084202EB8E
:102AE0004410FFF76CFD697840F6085202EB441081
:102AF000FFF765FDA97840F6086202EB4410FFF786
:102B00005EFDE97840F6087202EB4410FFF757FDCE
:102B1000390A41F2080202EB4410FFF750FDF9B206
:102B200041F2081202EB4410FFF749FD42464946C4
:102B30002046FFF74BFB4FF4847101EB441020213A
:102B4000FFF73DFD00BF4FF4847101EB4410FFF728
:102B500055FD0028F7D112E04FF4027101EB44104B
:102B6000FFF74CFD00F0080048B14FF4027101EB93
:102B700044101821FFF723FD0020BDE8F0874FF433
:102B8000027101EB4410FFF739FD00F0100010282E
:102B9000E2D14FF4027101EB44101021FFF70FFD59
:102BA0004046EAE72DE9FC5F05468A4691461E4607
:102BB000DDF830800020009001900027002483463B
:102BC000B9F1000F7DDD42F6080101E06C00002044
:102BD00001EB4510FFF712FD044642F6081101EB28
:102BE0004510FFF70BFD00EB042084B2200200EB40
:102BF000451000F1180B082101EB4510FFF7FEFC12
:102C000000F00700022804D0032844D0042879D11A
:102C100079E0082269465846FFF73CFD04F10800B8
:102C200084B29DF8000030709DF8010070709DF82E
:102C30000200B0709DF80300F0709DF80400A8F841
:102C400000009DF8050098F8001000EB0120A8F89E
:102C500000009DF806709DF8070000EB072087B282
:102C6000200200EB451000F1180B3A465146584639
:102C7000FFF710FDE01984B2210A42F6080202EBC8
:102C80004510FFF79CFCE1B242F6081202EB45103A
:102C9000FFF795FC68E0062269465846FFF7FAFC04
:102CA000A01D84B29DF8000030709DF80100707086
:102CB0009DF80200B0709DF80300F0709DF804705C
:102CC00000E062E09DF8050000EB072087B22002DB
:102CD00000EB451000F1180B3A4651465846FFF7F5
:102CE000D9FCE01984B2210A42F6080202EB451031
:102CF000FFF765FCE1B242F6081202EB4510FFF760
:102D00005EFC31E02FE0022269465846FFF7C2FC24
:102D1000A01C84B29DF800709DF8010000EB072014
:102D2000801E87B240F2EA50874201DD00BFFEE715
:102D3000200200EB451000F1180B3A465146584668
:102D4000FFF7A8FCE01984B2210A42F6080202EB60
:102D50004510FFF734FCE1B242F6081202EB4510D1
:102D6000FFF72DFC00E000BF00BF4FF4847101EBC2
:102D700045104021FFF723FC00BF4FF4847101EBA5
:102D80004510FFF73BFC0028F7D13846BDE8FC9F13
:102D90004FF0E021096921F004014FF0E0221161B8
:102DA000C21700EB5272C2F3C702F44B1A701946F5
:102DB000097801EB4102C2EBC1114FF6FF7202EA42
:102DC000C101EF4A118070470146ED4A12884A431B
:102DD0004FF0E0235A6100229A6101221A6100BF7C
:102DE0004FF0E022106900F001021AB100F48032C5
:102DF000002AF5D000224FF0E0231A619A61704753
:102E000010B5044604E04FF47A70FFF7DDFF641E4E
:102E1000002CF8D110BD0146D84A12784A434FF031
:102E2000E0235A6100229A6101221A6100BF4FF02B
:102E3000E022106900F001021AB100F48032002A89
:102E4000F5D000224FF0E0231A619A6170470146E5
:102E5000302905DB392903DCA1F13000C0B270470D
:102E6000612905DB662903DCA1F15700C0B2F6E752
:102E7000412905DB462903DCA1F13700C0B2EEE7AA
:102E80000846ECE730B502460B46002405E012F890
:102E9000010BFFF7DCFF04FB030410780028F6D1D8
:102EA000A0B230BD30B502460B46002405E012F852
:102EB000010BFFF7CCFF04FB030410780028F6D1C8
:102EC000204630BD2DE9F04104460D461646701EE1
:102ED000C7B220223146284600F098FA00BF0A20E7
:102EE00094FBF0F100FB11403030C2B23846791E3D
:102EF000CFB22A540A2094FBF0F080B2041EEEDC1C
:102F0000BDE8F0812DE9F04104460F469046264683
:102F10000CB1207810B90020BDE8F0810BE03078CA
:102F2000FFF795FF0546002D03DBBD4201DA761C55
:102F300001E00020F0E730780028F0D1B9B2204657
:102F4000FFF7A0FFC8F800000120E5E710B50B4629
:102F5000002104E0445C9C4200D14254491C445C82
:102F6000002CF7D110BD014600200A06100C40EAE3
:102F700011207047014600200806C1F3072240EAED
:102F80000240C1F3074240EA022040EA1160704764
:102F90002DE9F04781460E4617461D463146484604
:102FA00000F046FA0446304600F060FA0444394620
:102FB000204600F03DFA8246AAEB04001FFA80F892
:102FC00042462146284600F045FA002005F8080050
:102FD000BDE8F0872DE9F04188B006460F4631463E
:102FE000684600F04AFA6C4600251BE065A12046C1
:102FF00000F04CFA04462078302809D1607878280F
:1030000006D11021A01CFFF73DFF00F0FF0805E0EE
:103010000A212046FFF736FF00F0FF0807F8058079
:1030200000246D1C042DE1DB08B0BDE8F08110B573
:1030300004462021544800F0F0F9534810BD10B563
:1030400004461021514800F0E8F9504810BDF0B591
:103050008FB006460F4601AC314601A800F00DFACC
:1030600000252AE047A1204600F010FA044614B9D2
:1030700000200FB0F0BD207830280AD16078782881
:1030800007D10EAA1021A01CFFF73CFF48B9002071
:10309000EFE70EAA0A212046FFF734FF08B9002007
:1030A000E7E70E9878550E98002802DB0E98FF2867
:1030B00001DD0020DDE700246D1C042DD2DB0120A2
:1030C000D7E700B503461846FFF74DFF00BD00B532
:1030D00003461846FFF74EFF00BD10B504462046D4
:1030E000FFF7EFFF10BD10B504462046FFF7EFFFD6
:1030F00010BDF0B502460D46C5F34F060024002171
:103100000EE012F811304FF6FF7707EA032301278C
:1031100007EB4107D75D1F44BBB21C444F1CB9B23B
:10312000B142EEDB05F001071FB112F8113004EBDC
:103130000324A0B200EB1447FF43B8B2F0BDF1B5D1
:1031400000246D4600BF15E004F5A060FFF756FAB5
:10315000295D00EA010704F57060FFF74FFA0646A3
:1031600004F5A060FFF74AFA0640B74201D00120FB
:10317000F8BD641C042CE7DB0020F9E77400002094
:10318000760000202E0000002601002046010020CD
:1031900008B501214020FDF7F5FB7E20ADF80000C9
:1031A00002208DF8020010208DF8030069461548B2
:1031B000FDF72CF90120FEF7F4FA0220FEF71CFBC4
:1031C0000320FEF719FB0420FEF716FB0520FEF78F
:1031D00013FB0620FEF710FB08BD08B501210420F3
:1031E000FDF7D0FB4FF4F050ADF8000002208DF851
:1031F000020010208DF8030069460348FDF706F928
:1032000008BD0000001801400008014008B500207A
:10321000009001214020FDF7B5FB01212020FDF7A2
:10322000B1FB01211020FDF7ADFB0820ADF8000037
:1032300010208DF8030002208DF802006946044832
:10324000FDF7E4F8012208210148FDF790F908BDD7
:103250000014014008B501210846FDF786FB012155
:103260004FF40770FDF78EFB0F20ADF80000002033
:103270008DF8030069465F48FDF7C8F80320ADF8F4
:10328000000000208DF8030069465B48FDF7BEF89A
:103290003820ADF8000000208DF80300694657483B
:1032A000FDF7B4F808BD00B591B05548FDF754FDE1
:1032B000544806905448079000200890092009902F
:1032C00000200A9080200B9040000C9080000D9010
:1032D00020200E90C0010F900020109006A94848B1
:1032E000FDF7DCFD01214648FDF703FE00200190BB
:1032F00001208DF808008DF809004FF4602003903C
:103300000020049009208DF8140001A93D484C3894
:10331000FDF773FE4FF44040FDF798FA01231A467B
:103320000E2138484C38FDF700FF012302220F21FF
:1033300034484C38FDF7F9FE0123032209213148B6
:103340004C38FDF7F2FE0123042208212D484C38A9
:10335000FDF7EBFE012305220D212A484C38FDF72D
:10336000E4FE01230622002126484C38FDF7DDFE4D
:1033700001230722194623484C38FDF7D6FE0123C6
:10338000082202211F484C38FDF7CFFE01230922F5
:1033900003211C484C38FDF7C8FE012119484C3860
:1033A000FDF762FE012117484C38FDF752FE154823
:1033B0004C38FDF770FE00BF12484C38FDF770FE28
:1033C0000028F9D10F484C38FDF774FE00BF0D48B6
:1033D0004C38FDF774FE0028F9D1012109484C381A
:1033E000FDF777FE11B000BD10B5FFF733FFFFF713
:1033F0005AFF10BD00080140000C014000100140C0
:10340000080002404C24014056010020D2B201E0E5
:1034100000F8012B491EFBD270470022F6E710B5D9
:1034200013460A4604461946FFF7F0FF204610BD32
:1034300030B505462A460B4612F8010B13F8014B2E
:1034400008B1A042F8D01CB1002802D06D1CF1E7F1
:10345000284630BD10B5044604E00B7800F8013B67
:1034600003B1491C521EF8D2204610BD421C10F870
:10347000011B0029FBD1801A7047034611F8012B6C
:1034800000F8012B002AF9D11846704770B50F4D8E
:1034900000B92868002412E00A4602E09E4203D0E8
:1034A000521C1378002BF9D1DAB2224305D02BB18C
:1034B00024B1002100F8011B04E00446401C0678FA
:1034C000002EE9D12860204670BD00007800002061
:1034D00080EA010210B502F00043400022D04A0009
:1034E0001FD0010E01EB1261C0F35600C2F3560269
:1034F00040F4000042F40002A0FB022000047F39E7
:10350000140400D0401C50EA124001D44000491E6F
:10351000C2B20C0604EBD010401C4008802A02D036
:1035200003E0002010BD20F00100002900DA002097
:10353000184310BD30B480EA010202F0004530F0BB
:10354000004221F0004013D090B1C30DD40DC2F35E
:103550001601C0F31600E41A41F4000140F4000221
:103560007D34914201D3641C00E04900002C02DA52
:1035700030BC002070474FF400000023914201D37B
:10358000891A034340084FEA4101F7D151B19142F2
:1035900002D14FF0004105E002D24FF0010101E0FD
:1035A0006FF0010103EBC450284430BC00F049BA6D
:1035B0002DE9FE4F804681EA0300C00F0C460090C3
:1035C00021F0004123F00045B8EB0200A94105D2EB
:1035D0004046214690461C460B46024623F00040DA
:1035E000104347D0270DC7F30A00C3F30A510290D6
:1035F000401A019040286BDAC3F3130040F4801B9B
:103600000098924620B10023D2EB030A63EB0B0B28
:1036100001985946C0F14002504600F0E1F90646D3
:103620000D4650465946019A00F0F9F910EB080092
:103630006141002487EA115284EAE7731A4340D0BB
:10364000009A62B3019A012A4FEA075215DC001B67
:1036500061EB02014FF0004202EA0752CDE900425D
:10366000001C41F5801132462B4600F030FA03B0C1
:10367000BDE8F08F40462146F9E7001B61EB0201EF
:10368000001C41F5801300185B412018A2F50017BB
:1036900047EB030140EAD570B6196D4111E06D08A2
:1036A0004FEA360645EAC0754FEA0752001B61EB48
:1036B0000201001C41F5801149084FEA3000001951
:1036C000514132462B4603B0BDE8F04F00F0F0B94F
:1036D0000098012240000023D0EB020263EBE0736C
:1036E000009821464FEAE074B8EB000061EB04015A
:1036F000E9E783F000435BE781F0004158E72DE9FB
:10370000FE4F81EA030404F0004421F000410094DC
:103710004FF0000B23F0004350EA01045ED052EA60
:1037200003045BD0C3F30A54C1F30A552C44A4F23A
:10373000F3340194A0FB0254C1F3130141F480114E
:10374000C3F3130343F4801301FB024400FB034E55
:10375000840A970A44EA815447EA8357A4FB07681E
:1037600002958D0A05FB07854FEA932C04FB0C5448
:103770002705029D4FEA065847EA1637B5EB0805BC
:103780006EEB070C870E920E47EA811742EA83120E
:10379000A7FB0201B6EB0B0164EB00042B0D43EA1F
:1037A0000C335E1844EB1C50DA465146E7FB02012D
:1037B000C5F313044FEA0B3343EA14534FEA0432C0
:1037C000019C43EA0603A4F10C040294009CCDE999
:1037D00000B400F07CF903B0BDE8F08F0020014692
:1037E000F9E72DE9F04D81EA030404F0004B21F0E4
:1037F000004514464FF0000A23F0004150EA05024C
:1038000020D054EA01021DD0C5F30A570246C5F381
:103810001303C1F31300C1F30A5640F4801543F4B7
:103820008013A7EB0608101BD64608F2FD3873EB91
:10383000050002D308F1010801E092185B41B8F1DC
:10384000000F03DA00200146BDE8F08D00204FF4A0
:103850008011064684460EE0171B73EB050705D35F
:10386000121B63EB050306434CEA010C49084FEABF
:10387000300092185B4150EA0107EDD152EA030093
:1038800012D082EA040083EA0501084305D0101B28
:10389000AB4106D20122002306E000224FF0004394
:1038A00002E06FF0010253101AEB06004CEB0851D6
:1038B00010EB0A0041EB0B01BDE8F04D00F0F8B849
:1038C000C10F80EAE0700844CA079623002100F087
:1038D000C1B896230022114600F0BCB80EB5C10F46
:1038E00080EAE0700844CA07002140F233438DE8C3
:1038F0000E000A460B4600F0EAF803B000BD20F0C7
:103900000040C10DC0F3160040F400007F2901DA29
:1039100000207047962903DCC1F19601C84070472A
:10392000963988407047C1F30A5210B5C1F31301AC
:1039300040F2FF3341F480119A4201DA002010BDB9
:1039400040F233439A42A2F2334203DC524200F087
:1039500056F810BD904010BD00F0004230F000401D
:103960000AD0C10D01F56071C0F3160042EA0151A1
:10397000C20840071143704700200146704701F01C
:10398000004330B421F0004150EA010206D00A0D94
:10399000A2F56072C1F31301002A02DC30BC0020E2
:1039A0007047440F44EAC104C100E01830BC00EB8A
:1039B000C25000F046B80000002801DBC0F1004012
:1039C000002901DBC1F1004181427047002801DB81
:1039D000C0F10040002901DBC1F10041884270477D
:1039E000202A04DB203A00FA02F1002070479140BF
:1039F000C2F1200320FA03F3194390407047202AB4
:103A000004DB203A21FA02F00021704721FA02F388
:103A1000D040C2F120029140084319467047202A45
:103A200006DBCB17203A41FA02F043EAE07306E0E6
:103A300041FA02F3D040C2F12002914008431946F6
:103A400070470029A8BF7047401C490008BF20F0FC
:103A50000100704710B4B0FA80FC00FA0CF050EA94
:103A6000010404BF10BC704749B1CCF1200421FA15
:103A700004F411FA0CF118BF012121430843A3EB10
:103A80000C01CB1D4FEA00614FEA102042BF00201D
:103A900010BC704700EBC35010440029A4BF10BCF9
:103AA0007047401C490008BF20F0010010BC70475F
:103AB00010B5141E73F1000408DA401C41F1000136
:103AC00092185B411A4301D120F0010010BD2DE98D
:103AD000F04D92469B4611B1B1FA81F202E0B0FA84
:103AE00080F220329046FFF77BFF04460F4640EA03
:103AF0000A0041EA0B0153465A46084313D01146C7
:103B000053EA010019D0C8F140025046FFF777FF91
:103B100005460E46504659464246FFF761FF0843A8
:103B200005D0012004E020463946BDE8F08D002094
:103B3000054346EAE0762C4337430A986305E40AD6
:103B4000A0EB08000022FD0A44EA47540A3002D5DF
:103B500000200146E9E7010510196941DDE9084542
:103B600000196941BDE8F04DA2E70000064C074D81
:103B700006E0E06840F0010394E80700984710343D
:103B8000AC42F6D3FCF7D8FAB03B0008D03B0008B3
:103B900002E008C8121F08C1002AFAD17047704716
:103BA000002001E001C1121F002AFBD17047000074
:103BB000D03B0008000000207C000000903B000883
:103BC0004C3C00087C000020EC040000A03B0008F6
:103BD00000A24A04000000000000000001020304EB
:103BE00006070809000000000102030401020304A3
:103BF0000607080902040608000000000000000093
:103C000000000000000000000000000000000000B4
:103C10000000000000000202020202020202020290
:103C20000202020202020008DC111111C0A80165A3
:103C3000FFFFFF00C0A8010172727272A01FC0A82E
:0C3C400001648813000000000000000078
:0400000508000131BD
:00000001FF
