:020000040800F2
:1000000038070020CD0100085D18000881150008A0
:10001000591800083D030008151D000800000000E5
:10002000000000000000000000000000BD180008F3
:1000300041030008000000008D180008F1180008B6
:10004000E7010008E7010008E7010008E7010008F0
:10005000E7010008E7010008E7010008E7010008E0
:10006000E7010008E7010008E7010008E7010008D0
:10007000E7010008E7010008E7010008E7010008C0
:10008000E7010008E7010008E7010008E7010008B0
:10009000E7010008E7010008E7010008E7010008A0
:1000A0007D190008AD1900089D1900088D19000878
:1000B000E7010008BD190008E7010008E701000892
:1000C000E7010008E7010008E7010008E701000870
:1000D000E7010008E7010008E7010008E701000860
:1000E000E7010008E7010008E7010008E701000850
:1000F000E7010008E7010008E7010008D502000851
:10010000E7010008E7010008E7010008E70100082F
:10011000E7010008E7010008E7010008E70100081F
:10012000E7010008E7010008E7010008E70100080F
:1001300000F002F800F03AF80AA090E8000C8244BF
:100140008344AAF10107DA4501D100F02FF8AFF29C
:10015000090EBAE80F0013F0010F18BFFB1A43F0A5
:1001600001031847581E0000781E0000103A24BFF3
:1001700078C878C1FAD8520724BF30C830C144BF0C
:1001800004680C607047000000230024002500264E
:10019000103A28BF78C1FBD8520728BF30C148BFEA
:1001A0000B6070471FB51FBD10B510BD00F058F8AB
:1001B0001146FFF7F7FF01F0E3FE00F076F803B415
:1001C000FFF7F2FF03BC00F07DF80000094880470C
:1001D00009480047FEE7FEE7FEE7FEE7FEE7FEE729
:1001E000FEE7FEE7FEE7FEE704480549054A064B41
:1001F000704700007919000831010008380100201B
:100200003807002038030020380300204FF0000298
:1002100000B5134694469646203922BFA0E80C50FC
:10022000A0E80C50B1F12001BFF4F7AF090728BFD7
:10023000A0E80C5048BF0CC05DF804EB890028BF53
:1002400040F8042B08BF704748BF20F8022B11F07C
:10025000804F18BF00F8012B7047704770477047F8
:10026000754600F02BF8AE4605006946534620F06F
:100270000700854618B020B5FFF7B6FFBDE820405F
:100280004FF000064FF000074FF000084FF0000B52
:10029000AC46ACE8C009ACE8C009ACE8C009ACE8C1
:1002A000C00921F007018D46704710B50446AFF331
:1002B00000802046BDE81040FFF781BF004870472E
:1002C0001000002001491820ABBEFEE72600020006
:1002D0007047000080B540F27400C2F2000000F0E8
:1002E000C3F880BDB0B5044600688168C90709D06D
:1002F000816821F00101816000F01AFB21688968A2
:10030000C90701D10020B0BD054603E02068806820
:10031000C007F7D000F00CFB401B0328F6D3206881
:100320008068C007F2D0A06A40F01000A062E06AC6
:1003300040F00100E0620120B0BD0000FEE70000D7
:1003400070470000EFF3108072B600BFFEE70000B8
:1003500070470000B0B581B00022009290F82420D0
:10036000012A01D1022179E04A680123062A80F896
:10037000243005D803686FF0040C03F1340E0AE052
:1003800003680C2A87BF03F12C0E6FF0400C03F1B9
:10039000300E6FF0220C02EB8202DEF80050624455
:1003A0001F230C68934025EA030304FA02F21A4360
:1003B000CEF80020D1F800E002680EEB4E051024C4
:1003C000BEF1090F88BF1E3D88BF0C2452F804C03F
:1003D00007238968AB402CEA0303A9401943115154
:1003E0002EF001014FF0000C10294FF0000133D125
:1003F000016842F20042C4F20102914205D0816AD2
:1004000041F020018162012126E09268120222D48B
:100410008A68BEF1100F42F400028A601BD140F2DC
:100420000001C2F2000109684DF68362C4F21B327A
:10043000A1FB0212910C01EB81014900009100998E
:1004400049B100BF009901390091009900294FF08E
:100450000001F7D100E0002180F824C0084601B077
:10046000B0BD00007047000010B504460068416848
:10047000890644BF01685FEA81711BD42068416826
:10048000090644BF01685FEA417139D420684168B8
:1004900049060ED50068C00708BF10BDA06A40F429
:1004A0008030A062204600F0FDF820686FF0010166
:1004B000016010BDA16AC90603D4A16A41F40071AC
:1004C000A162816801F46021B1F5602F10D1217B18
:1004D00071B9416821F020014160A06A20F4807068
:1004E000A062A06AC00403D4A06A40F00100A06228
:1004F0002046FFF7B7FF20686FF012010160BDE7EB
:10050000A16AC90603D4A16A41F40051A1628168BD
:1005100001F4E041B1F5E04F0FD1416821F08001D5
:100520004160A06A20F48050A062A06AC00510D487
:10053000A06A40F00100A0620BE04168490508D4C0
:10054000816801F46021B1F5602F02D1217B00297F
:10055000E3D02046FFF7FCFE20686FF00C0101603D
:1005600094E70000002804BF012070472DE9F04106
:100570008046044658F8280F30B90020E06284F81D
:100580002400204600F090F82046FFF7ABFEA26A58
:10059000A16A002808BF12F0100206D041F0100135
:1005A0000120C8F80010BDE8F08141F20212914329
:1005B0000231A162D4E90013E66981F08045A268A6
:1005C00085F49E3586F440272F4308BF4FF400265C
:1005D00046EA0307531EB3FA83F35E091346B2F5E6
:1005E000807F18BF3302267D257B012E47EA450C0C
:1005F00013D145B1A76A47F02007A762E76A47F021
:100600000107E76209E0A7694EF20006CFF6FF7620
:1006100006EB47373B4343F400634F68B2F5807FF6
:1006200027F4694743EA07034B608B684FF2FD7775
:10063000CFF6E17703EA070343EA0C038B6001D0AE
:10064000012A06D122690023CFF6F07303EB025290
:1006500000E00022CB6A23F470031A43CA6289685F
:1006600040F6FE62CFF61F721140614509D10021AC
:10067000E162A16A012262F30101C8F80010BDE83D
:10068000F081A06A40F0100020F00200A06254F84F
:100690002C0F40F001010120A046C8F80010BDE871
:1006A000F08100007047000080B586B0014640F63A
:1006B0000000C4F20100096800F5505291424FF069
:1006C0000001CDE90411CDE9021101D006B080BDD1
:1006D00041F21801C4F202010A6842F400420A60C1
:1006E0000A6802F400420192019A0A6842F0040288
:1006F0000A60096801F00401019101990221029147
:100700000321039102A900F00BF82F200121002200
:1007100000F088F92F2000F081F906B080BD0000BC
:100720002DE9F04F83B00C68002C00F0EA80A0F1B6
:100730008042A2F5843240F2004E4FEAB22241F6E6
:100740000047C4F2010E0092C4F201070622002500
:100750004FF001094FF0000B4FF0000AB84208BFFC
:100760000522019209E000BF0C680BF1010B34FA7D
:100770000BF205F1040500F0C48009FA0BF814EA45
:10078000080CF1D04C684FF6FF72C1F2100294428F
:1007900010DC122C50D8DFE804F0330A41454F4FEB
:1007A0004F4F4F4F4F4F4F4F4F4F4F484C00D1F887
:1007B0000CA041E04FF6FF72C1F2210294420FDC1F
:1007C0000022C1F2110294421AD00022C1F2120298
:1007D000944215D00022C1F22102944210D02BE0A5
:1007E0000022C1F2220294420AD00022C1F2310258
:1007F000944205D00022C1F2320294421CD100BFC3
:100800008C6844B1012C14BFC0F81480C0F810806B
:100810004FF0080A10E04FF0040A0DE0CC6804F134
:10082000080A09E04FF0000A06E0CC6804F1040A67
:1008300002E0CC6804F10C0A2C460746BCF5807F28
:1008400024BF203C04373A680F2303FA04F6B2436E
:100850000AFA04F422433A60CA79D2067FF584AFDB
:1008600041F21804C4F2020422684FF6084842F02C
:10087000010222602268CFF6FF7802F001020292A4
:10088000029A2BF00302724452F8084005F00C065D
:1008900003FA06F7009BBC43019F052B38BF1F4698
:1008A00007FA06F6344342F808404C68E203DEF8E3
:1008B000002054BF22EA0C0742EA0C07A203CEF83C
:1008C0000070DEF8042054BF22EA0C0742EA0C074D
:1008D000E202CEF80470DEF8082054BF22EA0C07CA
:1008E00042EA0C07A20240F20C44CEF80870C4F2AF
:1008F0000104226854BF22EA0C0242EA0C02226080
:1009000032E703B0BDE8F08F8068084018BF0120CF
:1009100070470000C26802EA0103914341EA0341C3
:1009200001617047002A08BF090401617047000097
:1009300040F23410C2F200000068704740F2040038
:1009400040F23411C2F20000C2F2000100780A68DD
:10095000104408607047000080B542F20000C4F205
:100960000200016841F010010160032000F06AF804
:10097000032000F005F800F02BF8002080BD0000F7
:10098000B0B540F20402C2F2000240F20001127857
:10099000C2F200014FF47A730968B3FBF2F2044625
:1009A000B1FBF2F1084600F045FB0F2C4FF00105BA
:1009B0000CD858B94FF0FF3021460022002500F036
:1009C00031F840F20800C2F2000004602846B0BDD1
:1009D00080B582B041F21800C4F20200016841F013
:1009E00001010160016801F0010101910199416873
:1009F00041F080514160406800F0805000900098C4
:100A0000052000F01FF80420C4F201000168022252
:100A100062F31A61016002B080BD000080B501F090
:100A20007BF980BD70B514460D46064601F084F989
:100A30002946224600F014FF0146304601F084F9B1
:100A400070BD000080B501F091F980BD2DE9F04145
:100A500082B00446007841F21C06C007C4F20206C8
:100A60004AD0306810F0805808D1306840F080508B
:100A70003060306800F080500190019847F2000724
:100A8000C4F200073868C00512D4386840F480709A
:100A90003860FFF74DFF05463868C00508D4FFF7FA
:100AA00047FF401B6428F7D9032002B0BDE8F0815E
:100AB000706810F4407012D0616801F4407188428F
:100AC0000DD0706840F24042C4F24222012320F46B
:100AD000407113600023C0071360716029D17068F2
:100AE000616820F440700843B8F1000F706003D1D2
:100AF000306820F0805030602068810707D556F8B4
:100B0000181CA26821F44041114346F8181CC00685
:100B100003D4002002B0BDE8F08156F8180C6169DA
:100B200020F48000084346F8180C002002B0BDE80D
:100B3000F081FFF7FDFE054641F2883770688007B7
:100B4000CDD4FFF7F5FE401BB8424FF00300F5D9B6
:100B5000ECE700002DE9F04381B0002800F0898027
:100B600042F20008C4F202080446D8F800000D461C
:100B700000F0070088420CD2D8F8000020F00700EF
:100B80002843C8F80000D8F8000000F00700A84289
:100B90006FD1206841F204098107C4F2020917D518
:100BA000410705D5D9F8001041F4E061C9F80010FB
:100BB000010705D5D9F8001041F46051C9F80010BB
:100BC000D9F80010A26821F0F0011143C9F8001013
:100BD000C00745D1D8F8000000F00700A8420CD9A2
:100BE000D8F8000020F007002843C8F80000D8F823
:100BF000000000F00700A8423BD12068410707D55C
:100C0000D9F80010E26821F4E0611143C9F800103E
:100C1000000708D5D9F80000216920F4605040EAA7
:100C2000C100C9F8000000F04FF8D9F8001041F6F3
:100C3000AA72C1F30311C0F60002515C40F2000237
:100C400020FA01F140F20800C2F200000068C2F28E
:100C500000021160FFF794FE002001B0BDE8F083B0
:100C60006068022809D0012829D159F8041C890399
:100C700007D4012001B0BDE8F08359F8041C8901B4
:100C8000F7D5D9F8001021F003010843C9F8000096
:100C9000FFF74EFE064641F2883700BFD9F8000044
:100CA000616800F00C00B0EB810F93D0FFF740FEBD
:100CB000801BB842F2D9032001B0BDE8F08359F897
:100CC000041C8907D5D5DCE741F2040CC4F2020C00
:100CD000DCF8003003F00C00082841F20020C0F2DC
:100CE0007A0018BF7047C3F383420AA18A5CD90314
:100CF00005D440F60010C0F23D0050437047DCF8C8
:100D0000001008A3C1F34041595C5043B0FBF1F01F
:100D1000704700BF02030405060708090A0B0C0D03
:100D20000E0F1010010200002DE9F04182B00028E2
:100D300000F0C4800446007841F20006C007C4F207
:100D4000020643D0706800F00C00042817D07068C9
:100D500000F00C00082802D17068C0030FD4656849
:100D60002DB1B5F5A02F10D0B5F5803F11D030686A
:100D700020F480303060306820F480200CE030684F
:100D8000800323D5606808BB98E0306840F4802079
:100D90003060306840F480303060FFF7C9FD002DCE
:100DA000054610D03068800310D4FFF7C1FD401B0A
:100DB0006428F7D904E100BFFFF7BAFD401B64289F
:100DC0004FF0030077D830688003F5D4207880078F
:100DD00018D5706810F00C0F07D0706800F00C0088
:100DE000082826D17068C00323D43068800702D554
:100DF0002069012862D13068616920F0F80040EA7A
:100E0000C1003060207800073DD5A06938B30020CC
:100E1000C4F242200121C0F88014FFF789FD054685
:100E2000706A80072DD4FFF783FD401B0228F7D995
:100E3000C6E02069002840F20000C4F2422000F021
:100E4000968001210160FFF773FD05463068800739
:100E5000D1D4FFF76DFD401B0228F7D9B0E0002088
:100E6000C4F242200021C0F88014FFF761FD05465E
:100E7000706A800707D5FFF75BFD401B0228F7D992
:100E80009EE000F005FD207840071BD4E5698DB198
:100E9000706800F00C00082847D1012D0ED0706852
:100EA000216A00F480328A4208D1616A00F470102D
:100EB000884203D1002002B0BDE8F081012002B0D9
:100EC000BDE8F081F06910F0805808D1F06940F079
:100ED0008050F061F06900F080500190019847F275
:100EE0000007C4F200073868C00510D4386840F421
:100EF00080703860FFF71CFD054600BF3868C005EC
:100F000005D4FFF715FD401B6428F7D958E0E568C4
:100F10001DB1052D3CD0012D3ED0306A20F00100DE
:100F20003062306A20F0040039E00027C4F2422722
:100F300000203866FFF7FCFC022D05460CD100BFEF
:100F40003068800154D5FFF7F3FC401B02284FF0B6
:100F50000300F5D9AFE700BF30688001AAD5FFF7DD
:100F6000E7FC401B02284FF00300F5D9A3E700215E
:100F70000160FFF7DDFC0546306880077FF542AF72
:100F8000FFF7D6FC401B02284FF00300F4D992E78C
:100F9000306A40F004003062306A40F00100306294
:100FA000FFF7C6FC002D054641F2883714D000BF7C
:100FB000306A800713D4FFF7BBFC401BB842F7D957
:100FC000032002B0BDE8F081FFF7B2FC401BB8423D
:100FD0004FF003003FF66FAF306A8007F4D4B8F1EA
:100FE000000F7FF453AFF06920F08050F0614DE7BF
:100FF000206AB0F5803F05D17168A26821F4003104
:10100000114371607168626A21F4741110430843DE
:10101000706001203866FFF78BFC04463068800161
:101020003FF548AFFFF784FC001B02284FF0030098
:10103000F4D940E780B500F043FC80BD7047000064
:1010400070470000B0B590F83C20012A04BF022090
:10105000B0BD01F108053CCDD1E900CE23F47C53AD
:1010600022F470521A432EF4F0431A432CF4E04356
:101070001A4324F4C0431A432A43C96922F4804224
:10108000036811435964002180F83C100846B0BD44
:1010900010B590F83C20012A4FF0020241D0012304
:1010A00080F83C3080F83D200268D2F804E0D2F8A5
:1010B00008C00C682EF07003234340F6FF34C4F2DE
:1010C0000004A24253600FDCB2F1804F1ED040F208
:1010D0000043C4F200039A4218D040F60003C4F261
:1010E00000039A4212D016E040F60043C4F2000317
:1010F0009A420BD043F20043C4F201039A4205D056
:1011000042F60043C4F201039A4204D149682CF02C
:101110008003194391600121002280F83D1080F87E
:101120003C20104610BD0000002804BF012070477D
:1011300010B5044690F83D0028B9002084F83C0022
:10114000204600F01FF8022084F83D002068211D91
:1011500000F03CFC012084F8460084F83E0084F84E
:101160003F0084F8400084F8410084F8420084F88D
:10117000430084F8440084F8450084F83D000020D2
:1011800010BD000080B582B0006840F20041C4F29A
:101190000001884201D002B080BD41F21C00C4F2BF
:1011A00002000168002241F0020101600068032191
:1011B00000F00200019001981D20FFF733FC1D2074
:1011C000FFF72CFC02B080BD10B5044690F83C003F
:1011D00001284FF0020008BF10BD012284F83C2016
:1011E00084F83D0020684FF6777382689A438260E6
:1011F0000A683F2A14DD5F2A18DD602A28D0B2F57C
:10120000005F2DD0702A40D1D1E9012CCB68614616
:1012100000F048FC2068816841F07701816034E08B
:101220001F2A0FDC92B1102A10D02EE0402A23D0C2
:10123000502A2AD14B68CA68194600F01DFD206863
:10124000502120E0202A01D0302A1ED111461AE078
:101250004B68CA68194600F021FD2068602112E041
:10126000D1E9012CCB68614600F01CFC2068816844
:1012700041F48041816008E04B68CA68194600F07B
:10128000FBFC2068402100F019FC012084F83D009F
:10129000002084F83C0010BD7047000010B50446E3
:1012A00000680169890744BFC1685FEA817138D469
:1012B00020680169490744BFC1685FEA41713CD4B5
:1012C00020680169090744BFC1685FEA017141D420
:1012D00020680169C90644BFC1685FEAC16145D49D
:1012E00020680169C9071CBFC1685FEAC1714AD1A2
:1012F00020680169090644BFC1685FEA016149D4F9
:1013000020680169490644BFC1685FEA416148D469
:1013100020680169890644BFC1685FEA816147D4DA
:1013200010BD6FF002010161012121778069800702
:1013300045D02046FFF7B0FF47E06FF004010161A0
:1013400002212177806910F4407F41D02046FFF7C9
:10135000A3FF43E06FF00801016104212177C06918
:1013600080073ED02046FFF797FF40E06FF0100166
:10137000016108212177C06910F4407F3AD02046EE
:10138000FFF78AFF3CE06FF001010161204600F0A9
:10139000F3F8ADE76FF0800101612046FFF74EFEE4
:1013A000AEE76FF040010161204600F0E7F8AFE7DB
:1013B0006FF0200101612046FFF742FE10BD20467C
:1013C00000F022F8204600F0D5F8002020776FE7E3
:1013D000204600F019F8204600F0CCF800202077D5
:1013E0006EE7204600F010F8204600F0C3F8002019
:1013F00020776DE7204600F007F8204600F0BAF8A5
:10140000002020776CE7000070470000B0B504466C
:1014100090F83C00012804BF0220B0BD4FEAB200A2
:101420000D460121032884F83C1036D8DFE800F08F
:10143000020A12222068294600F048FB206850F872
:10144000181F0EE02068294600F076FB206850F84F
:10145000181F16E02068294600F0A8FB206850F805
:101460001C1F41F008010160016821F004010160C6
:1014700029690FE02068294600F0D2FB206850F867
:101480001C1F41F400610160016821F4806101606A
:1014900029690902026811430160002084F83C00B8
:1014A000B0BD0000002804BF0120704710B50446FD
:1014B00090F83D0028B9002084F83C00204600F058
:1014C0001FF8022084F83D002068211D00F07EFAFC
:1014D000012084F8460084F83E0084F83F0084F838
:1014E000400084F8410084F8420084F8430084F806
:1014F000440084F8450084F83D00002010BD000041
:1015000080B582B0006842F60041C4F20101884211
:1015100001D002B080BD41F21800C4F2020001689F
:10152000002241F4006101600068002100F40060C5
:10153000019001981820FFF775FA1820FFF76EFA4E
:10154000192000210022FFF76DFA1920FFF766FA33
:101550001A2000210022FFF765FA1A20FFF75EFA31
:101560001B2000210022FFF75DFA1B20FFF756FA2F
:1015700002B080BD70470000704700007047000057
:10158000FEE70000B0B584B040F2740043F60041BD
:101590000024C2F20000C4F201014FF460220125D0
:1015A0000394CDE9014404730475C261C0E90014D9
:1015B00084600561FEF7D6FF002818BFFEF7C2FE63
:1015C00040F27400C2F2000001A9CDE90155039474
:1015D000FEF7C0FE002818BFFEF7B4FE04B0B0BD91
:1015E0002DE9F04F85B0002441F21800CDE9034405
:1015F000CDE90144C4F20200016840F6000841F060
:10160000400101600168C4F2010801F0400100914D
:101610000099016808F5006741F010010160016858
:10162000002201F010010091009901684FF6FF7946
:1016300041F004010160016801F00401009100998A
:10164000016841F008010160016801F008010091A2
:101650000099016841F02001016000684FF6FF71B8
:1016600000F02000009000983846FFF75BF94046F4
:101670004FF41F710022FFF755F908F580652846E1
:101680004FF4F8410022FFF74DF901AE08F5805004
:101690003146CDE901940394FFF742F84FF0010A77
:1016A0004FF0030B38463146CDF80490CDE902A443
:1016B000CDF810B0FFF734F84FF41F70CDE9010AF0
:1016C00040463146CDE9034BFFF72AF88020CDE9AB
:1016D0000104404631460394FFF722F84FF4F840E6
:1016E000CDE9010A28463146CDE9034BFFF718F84A
:1016F0004FF40040CDE90104284631460394FFF73A
:101700000FF808F540603146CDE901940394FFF7E6
:1017100007F805B0BDE8F08F10B592B040F2A40014
:1017200042F600410024C2F20000C4F201014FF66B
:10173000FF721194CDE90F44CDE90D44CDE90B447E
:10174000CDE90944CDE90744CDE90544CDE9034499
:10175000CDE90144C0E90014C0E90242C0E90444F3
:101760008461FFF79FFE002818BFFEF7EBFD40F2F3
:10177000A400C2F2000010A9CDE91044FFF788FCD4
:10178000002818BFFEF7DEFD6020099040F2A4009B
:101790000024C2F2000009A90C22CDE90A44CDE9D7
:1017A0000D440F94FFF732FE002818BFFEF7CAFD64
:1017B0004FF400500594CDE90344CDE9014406906F
:1017C00040F2A400C2F2000001A90894FFF73AFC1D
:1017D000002818BFFEF7B6FD12B010BD80B586B068
:1017E00040F2EC0040F200420021C2F20000C4F2DC
:1017F00000024FF6FF73CDE90411CDE90211CDE9E6
:101800000011C0E90021C0E9021301618161FFF705
:101810008BFC002818BFFEF795FD4FF48050029016
:1018200040F2EC00C2F2000002A9FFF7CDFC002854
:1018300018BFFEF787FD0020CDE9000040F2EC0064
:10184000C2F200006946FFF723FC002818BFFEF72C
:1018500079FD06B080BD0000FEE70000FEE7000055
:1018600000F0070080F00703042B28BF04234FF08B
:10187000FF3C03380CFA03F338BF00209943814042
:101880000CFA00F022EA000008437047704700009D
:1018900081B040F20000C2F20000006844F6D3516B
:1018A000C1F26201A0FB0101480A009000BF00984C
:1018B000411E00280091F9D101B070477047000027
:1018C000B0B501380024B4EB106F1CBF0120B0BDCF
:1018D0004EF21005CEF2000568604FF0FF300F2188
:1018E00000F032FA0720AC6028602046B0BD00004E
:1018F00080B5FFF723F880BD70B596B00CAC2046DC
:101900002821FEF783FC002501204FF480310C9044
:10191000CDE90D15109002264FF4E010CDE91361CA
:10192000159020460B95CDE90955CDE90755CDE930
:101930000555CDE90355CDE90155FFF7F5F9C0B9D6
:101940000F20CDE907064FF480600995CDE90A051F
:1019500007A80221FFF7FEF858B9022001904FF4C2
:101960000040039001A8FFF771F8002804BF16B0EB
:1019700070BDFEF7E7FC00007047000080B540F244
:10198000A400C2F20000FFF789FC80BD80B540F2E0
:10199000A400C2F20000FFF781FC80BD80B540F2D8
:1019A000A400C2F20000FFF779FC80BD80B540F2D0
:1019B000A400C2F20000FFF771FC80BD80B540F2C8
:1019C000EC00C2F20000FFF769FC80BD10B540F6E4
:1019D000FF3E0368C4F2000E43F2004C7045C4F2AF
:1019E000010C20DCB0F1804F2BD040F20042C4F259
:1019F0000002904225D040F60002C4F2000290425C
:101A00001FD0704523DCB0F1804F2ED040F2004251
:101A1000C4F20002904228D040F60002C4F2000254
:101A2000904222D025E040F60042C4F200029042EB
:101A300007D0604505D042F60042C4F20102904250
:101A4000DFD14A6823F0700313437045DBDD40F6B5
:101A50000042C4F20002904207D0604505D042F631
:101A60000042C4F20102904203D1CA6823F44073D9
:101A7000134323F080024B69D1F800E08C681A43CD
:101A800060450260C462C0F828E005D042F600421A
:101A9000C4F20102904201D109690163012141614F
:101AA00010BD0000D0F808C011432CF47F4C41EA6F
:101AB000032141EA0C01816070470000826822F036
:101AC0007002114341F007018160704770B5026AEE
:101AD00043F2004522F001020262026A4368D0F834
:101AE00018E08C6822F00202D1F800C02243C4F250
:101AF000010542F60044A842C4F2010401D0A0420C
:101B000005D1CE6822F00C0226F004063243A8422A
:101B100001D0A04205D1D1E9054523F44073234308
:101B20002B432EF0730646EA0C0643608661496833
:101B30004163026270BD0000F0B5026A43F20045E5
:101B400022F010020262036A4268D0F818C08C6862
:101B500023F02003D1F800E043EA0413C4F20105A6
:101B600042F60044A842C4F2010401D0A04207D1C9
:101B7000CE686FF0400723F0C00307EA0616334330
:101B8000A84201D0A04207D1D1E9054522F4406224
:101B900042EA840242EA85022CF4E64747EA0E272D
:101BA00042608761496881630362F0BDF0B5026AF3
:101BB00043F2004522F480720262036A4268D0F860
:101BC0001CC08C6823F40073D1F800E043EA0423BE
:101BD000C4F2010542F60044A842C4F2010401D057
:101BE000A04207D1CE6840F2FF47360223F440639B
:101BF000BE433343A84201D0A04207D1D1E90545F5
:101C000022F4405242EA041242EA05122CF0730711
:101C100047EA0E074260C7614968C1630362F0BDCD
:101C2000B0B5026A43F2004522F480520262026AB1
:101C30004368D0F81CE00C68D1F808C0C4F2010574
:101C4000A84205D042F60045C4F20105A84204D1DD
:101C50004D6923F4804343EA85132EF4E64545EAB3
:101C600004254360C56122F40052496842EA0C32FF
:101C700001640262B0BD0000D0F820C0036A23F006
:101C800001030362836923F0F00343EA02122CF09C
:101C90000A0319438261016270470000036A23F05E
:101CA000100303628369D0F820C023F4704343EA31
:101CB00002322CF0A00343EA0111826101627047F5
:101CC00010B540F60004C4F2010420464FF4007140
:101CD000FEF720FE20464FF40071FEF715FE40F29D
:101CE0007001C2F20001012818BF0231088841F2D8
:101CF0000C01C4F20101086010BD000010B500F035
:101D00002DF940F27004C2F20004208000F014F9B2
:101D1000608010BDFEE70000002848BF704700F05B
:101D20001F01012202FA01F14EF200124009CEF227
:101D3000000242F8201070474EF60C50CEF2000020
:101D40000068C0F3022070474EF6145300F00F02F3
:101D5000CEF2000309011A4400F16043B0F1FF3FE5
:101D6000C8BF03F564421170704700004EF60C5175
:101D7000CEF200010A684FF6FF031A4060F30A2210
:101D800042F0806040F0FD700860704780B500F060
:101D90004DF8052000F0B0F841F20840C4F201000F
:101DA000006880B280BD000080B500F075F80520A5
:101DB00000F0A2F841F60800C4F20100006880B209
:101DC00080BD000010B540F60044C4F20104204676
:101DD0004FF480610022FEF7A5FD20464FF48041BC
:101DE0000022FEF79FFD052000F088F820464FF402
:101DF00080410122FEF796FD10BD000010B540F6AF
:101E00000004C4F20104204604210022FEF78AFDEA
:101E1000204640210022FEF785FD052000F06EF8E7
:101E2000204640210122FEF77DFD10BD10B540F691
:101E30000044C4F2010400BF20464FF40041FEF705
:101E400063FD0028F8D120464FF480610022FEF7A0
:101E500069FD20464FF400510022FEF763FD204645
:101E60004FF400610022FEF75DFD20464FF48051E3
:101E70000122FEF757FD032000F03EF820464FF404
:101E800080510022FEF74EFD20464FF40041FEF740
:101E90003BFD0028F8D110BD10B540F60004C4F297
:101EA000010400BF20468021FEF72EFD0028F9D155
:101EB000204604210022FEF735FD20462021002285
:101EC000FEF730FD204608210022FEF72BFD2046BC
:101ED00010210122FEF726FD032000F00DF8204618
:101EE00010210022FEF71EFD20468021FEF70CFD8A
:101EF0000028F9D110BD0000704700004EF210011B
:101F0000272828BF27204FF4E152CEF2000150438A
:101F1000486000208860086840F00100086000BF49
:101F2000086800F001100128FAD0086820F00100CC
:101F3000086000208860704770B5002448F6B70537
:101F4000002600BFFFF722FF844238BF0446AE429E
:101F500006F10106F6D3A0B270BD000070B50024F2
:101F600048F6B705002600BFFFF71EFF844238BFC2
:101F70000446AE4206F10106F6D3A0B270BD0000E1
:101F8000FEF7EAFCFFF7B8FCFFF72AFBFFF7FAFAC7
:101F9000FFF724FCFFF7C0FBFFF714FFFFF72EFF4E
:101FA000FFF7ACFEFFF78CFEFAE700000000000030
:101FB000000001020304060708090000E01F0008F2
:101FC00000000020100000006C010008F01F000855
:101FD0001000002028070000880100080000000011
:101FE0000024F400010000001000000000000000C8
:0400000508000131BD
:00000001FF
