:020000040800F2
:1000000078080020C5010008F905000871050008FE
:10001000F505000831020008AF0A000800000000E2
:10002000000000000000000000000000D1070008F0
:100030006902000800000000FB05000869090008CB
:10004000DF010008DF010008DF010008DF01000810
:10005000DF010008DF010008DF010008DF01000800
:10006000DF010008DF010008DF010008DF010008F0
:10007000DF010008DF010008DF010008DF010008E0
:10008000DF010008DF010008DF010008DF010008D0
:10009000DF010008DF010008DF010008DF010008C0
:1000A000DF010008DF010008DF010008DF010008B0
:1000B000DF010008DF010008DF010008DF010008A0
:1000C000DF010008DF010008DF010008DF01000890
:1000D000DF010008DF010008DF010008DF01000880
:1000E000DF010008DF010008DF010008DF01000870
:1000F000DF010008DF010008DF010008DF01000860
:10010000DF010008DF010008DF010008DF0100084F
:10011000DF010008DF010008DF010008DF0100083F
:10012000DF010008DF010008DF010008DF0100082F
:10013000DF010008DF010008DF010008DF0100081F
:10014000DF010008DF010008DF010008DF0100080F
:10015000DF010008DF010008DF010008DF010008FF
:10016000DF010008DF010008DF010008DF010008EF
:10017000DF010008DF010008DF010008DF010008DF
:10018000DF010008DF010008DF010008DF010008CF
:10019000DF010008DF010008DF010008DF010008BF
:1001A000DF010008DF010008DF010008DFF810D0E0
:1001B00000F02CF8004800479D0E0008AFF30080C7
:1001C000780800200648804706480047FEE7FEE71B
:1001D000FEE7FEE7FEE7FEE7FEE7FEE7FEE7FEE7F7
:1001E0006D090008AD010008D2B201E000F8012B52
:1001F000491EFBD270470022F6E710B513460A46A7
:1002000004461946FFF7F0FF204610BD064C074D87
:1002100006E0E06840F0010394E8070098471034D6
:10022000AC42F6D3FFF7C6FF701400089014000824
:1002300000BFFEE7F0B505460E460024AF1905E005
:1002400015F8011BA0B200F019FC0446BD42F7D31B
:10025000A0B2002100F012FC04462046002100F06C
:100260000DFC04462046F0BD7047000001490860BF
:10027000704700000C3C024070B504460A46002658
:10028000092502B909E0012A01D1160205E0022A76
:1002900001D1160201E04FF4407600F0EDF805467A
:1002A000092D28D11548006820F4407013490860D2
:1002B00008460068304308600846006820F0F800EF
:1002C00008600846006844F0020108430B490860D2
:1002D0000846006840F48030086000F0CDF805461C
:1002E0000648006820F002000449086008460068DB
:1002F00020F0F8000860284670BD0000103C024065
:1003000009201349096801F48031B1F5803F01D11A
:1003100001201CE00E49096801F0100109B1062016
:1003200015E00B49096801F4807109B102200EE063
:100330000749096801F0E00109B1072007E0044915
:10034000096801F0020109B1082000E009207047A6
:100350000C3C024070B505460E46002400F07AF8C9
:100360002C4608E002212046FFF786FF092801D02D
:10037000012070BD0834B442F4D900F039F80020EF
:10038000F7E710B500F066F8F320FFF76FFF00F015
:100390002FF810BD2DE9F04104460E461746002502
:1003A00000F058F800BF16E056F82510206800F05D
:1003B00029F809280CD12068006856F825108842D1
:1003C00002D00220BDE8F0812068001D206001E01D
:1003D0000120F7E76D1CBD4203D220680349884223
:1003E000E2D900F005F80020ECE70000FBFF0F0861
:1003F0000348006840F00040014908607047000071
:10040000103C024030B502460C46092500F034F895
:100410000546092D19D10E48006820F440700C499A
:1004200008600846006840F40070086008460068EC
:1004300040F001000860146000F01EF80546044812
:10044000006820F0010002490860284630BD000025
:10045000103C02400548006800F0004028B1044804
:1004600002490C390860034808607047103C02409C
:1004700023016745AB89EFCD08B509200090FFF750
:100480003FFF009002E0FFF73BFF00909DF8000067
:100490000128F8D09DF8000008BDF0B50A460021FB
:1004A0000023002400BF3DE0012505FA01F3156893
:1004B00005EA03049C4234D105684F000326BE4080
:1004C000B543056015794E00B540066835430560B3
:1004D0001579012D02D01579022D16D185684F00AE
:1004E0000326BE40B543856055794E00B540866809
:1004F00035438560456801268E40B54345604568B3
:1005000096798E40B6B235434560C5684F000326E4
:10051000BE40B543C560D5794E00B540C668354389
:10052000C560491C1029BFD3F0BDF0B500230024DD
:100530004D07ED0E02FA05F3CE1000F1200555F837
:1005400026504E07F70E0F26BE40B543CF1000F1E0
:10055000200646F82750CE1000F1200555F8265009
:1005600045EA0304CE1000F1200545F82640F0BD11
:1005700000BFFEE770B5044600254FF480500C49DB
:100580000880C4F3074000F0CFF8C4F3072000F060
:10059000CBF804F0F80000F0C7F8002000F0C4F831
:1005A00005464FF480500249891E0880284670BDD8
:1005B0001A04024070B504460D464FF480500C49B1
:1005C0000880C4F3074000F0AFF8C4F3072000F040
:1005D000ABF804F0F801091DC8B200F0A5F82846F0
:1005E00000F0A2F84FF480500149891E088070BDC8
:1005F0001A04024000BFFEE77047704729B1064A5F
:1006000012680243044B1A6004E0034A12688243F2
:10061000014B1A60704700003038024029B1064A89
:1006200012680243044B1A6004E0034A12688243D2
:10063000014B1A6070470000403802402DE9F05F1E
:1006400004460F4693460025002038604FF4427060
:10065000FFF790FF8246BAF1170F1BD14FF40270DB
:10066000FFF788FF00F0010020B101214FF4027074
:10067000FFF7A0FF002000F09DFB05464DB1AAB298
:10068000611C002000F044FC002594F80180002645
:1006900000E00126002E43D1B8F1180F17D009DC75
:1006A000B8F1010F0DD0B8F1020F0CD0B8F1040F62
:1006B00019D10BE0B8F1410F12D0B8F1610F12D18E
:1006C0000FE0802511E04FF480650EE00DE0B8F1F9
:1006D000180F03D194F80280022500E0012604E0FF
:1006E00000BF022601E0012600BF00BF802D17D306
:1006F000A078E17881F0FF01884202D00025012630
:100700000EE0281D205C4FEA0029681D205C814412
:100710002946201DFFF78EFD484501D00025012602
:100720003D603046BDE8F09F10B5044600BF022191
:100730000A4800F021F80028F9D02146074800F0C7
:1007400027F800BF0121054800F016F80028F9D06D
:10075000024800F01AF8C0B210BD00000038004096
:1007600021B1028842F04002028004E002884FF684
:10077000BF731A40028070470246002013890B4065
:100780000BB1012000E000207047014688897047C6
:100790008181704710B50022028802F441520B8813
:1007A0004C8823438C882343CC8823430C892343E0
:1007B0004C8923438C892343CC8923431A430280E9
:1007C000838B4FF2FF74234083830B8A038210BD17
:1007D0007047000010B58AB0002009901C2101A8C4
:1007E000FFF709FD1348006800901348089009A816
:1007F00000F060F90446CCB918210846FFF7AAFDBD
:100800000122694608A8FFF7C5FD0C4840680C495D
:100810000860084600680B4908600849086880F3CA
:10082000088800BF07480068804701E00AB010BD93
:1008300000BFFBE76C14000800C0000800000108BE
:1008400004000020000000200CB500200190009062
:100850004148006840F480303F49086000BF3E488E
:10086000006800F4003000900198401C019000984E
:1008700018B90198B0F5A04FF1D13748006800F4DD
:10088000003010B10120009001E00020009000989D
:10089000012860D130484030006840F080502E4937
:1008A000403108602D48006840F440402B49086002
:1008B000294808300068284908310860084600685F
:1008C00040F4004008600846006840F4A05008600A
:1008D0002348091F0860081F006840F08070091F46
:1008E000086000BF1C48006800F000700028F9D0C4
:1008F0001A48006840F480301849086000BF174863
:10090000406800F480300028F9D01448006840F4B2
:1009100000301249086000BF1048406800F4003001
:100920000028F9D040F205700E4908600A480830E6
:10093000006820F003000849083108600846006894
:1009400040F00200086000BF03480830006800F073
:100950000C000828F8D10CBD00380240007000409F
:10096000285A4007003C02407047000010B5154867
:10097000006840F47000134908601348006840F0B4
:1009800001001149086000200F49083108600E4835
:1009900000680E4908400C4908600D48091D0860B0
:1009A000081F006820F48020091F08600020064905
:1009B0000C310860FFF748FF4FF0006001498039B3
:1009C000086010BD88ED00E000380240FFFFF6FE31
:1009D0001030002408B50020009000F0C9FC244924
:1009E000244800F0A1FB41E04FF44270FFF7C2FD44
:1009F000054635B1132D0CD0172D0ED01C2D28D146
:100A000023E020231C4802880121002000F0D0FBB5
:100A100020E0002000F022FA1CE04FF40270FFF703
:100A2000A9FD00F0010020B101214FF40270FFF791
:100A3000C1FD002000F0BEF90446002C04DD224672
:100A40006946002000F064FA04E0002000F07BF921
:100A500000E000BF00BF9DF80000532804D1FFF75D
:100A6000B9FE0020009000E000BF00BFBCE700001E
:100A7000440000203C0000203400002010B5034654
:100A80000C46194644F4807200BF4900520002F43B
:100A9000807000B1491C01F4803010B141F2210096
:100AA000414002F480300028EFD088B210BD00BF72
:100AB000FEE700002DE9F04F9DB0064600201B9098
:100AC0008146199080468346944818904FF4FA70F6
:100AD00000F053F943200190012201A9002000F009
:100AE00083FA10E1002700201A9006E14FF47A7291
:100AF0001CA98B48FFF7A2FD10B102287ED1D3E0DC
:100B00004FF000091C9858B1022829D10620019005
:100B1000012201A9002000F067FA4FF00208C1E0AD
:100B2000BBF1000F0BD115200190012201A900207B
:100B300000F05AFA0BF1010000F0FF0B0DE0062067
:100B40000190012201A9002000F04EFA43200190FB
:100B5000012201A9002000F047FA01201A90A1E02B
:100B60006F488078F9B2884207D0152001900122A1
:100B700001A9002000F038FA93E0002F6DD16848F9
:100B8000007900285ED00025654C241D05E014F88E
:100B9000012B28466D1C02A90A54207808B1402D6B
:100BA000F5D3002228466D1C02A90A540025641CB6
:100BB00005E014F8012B28466D1C13A90A5420786F
:100BC000202801D0102DF4D3002228466D1C13A933
:100BD0000A545449306888420DD9182012900122D5
:100BE00012A9002000F000FA012212A9002000F052
:100BF000FBF94FF005080620019000E063E00122B8
:100C000001A9002000F0F0F943200190012201A980
:100C1000002000F0E9F938212020FFF79BFB012894
:100C20000DD118201290012212A9002000F0DCF949
:100C3000012212A9002000F0D7F94FF004081798FC
:100C400030602BE006200190012201A9002000F075
:100C5000CBF901201A901B9024E0DFF8C4A00AF120
:100C6000040A1C988208514618A8FFF793FB38B96C
:100C700006200190012201A9002000F0B5F90DE045
:100C800018200190012201A9002000F0ADF90122F5
:100C900001A9002000F0A8F94FF004087F1C0020F3
:100CA000199000BF00BF27E018200190012201A980
:100CB000002000F099F9012201A9002000F094F928
:100CC0004FF0020818E0199808B109F1010941F242
:100CD000883081450DD918200190012201A90020FA
:100CE00000F082F9012201A9002000F07DF94FF007
:100CF00001080120199000BF00BF1A9818B9B8F177
:100D0000000F3FF4F3AE1B9818B9B8F1000F3FF491
:100D1000E9AE40461DB0BDE8F08F000000000108BC
:100D20006C00002001000F0002E008C8121F08C17B
:100D3000002AFAD170477047002001E001C1121F5C
:100D4000002AFBD1704710B504464FF4847101EBC3
:100D500044101021FFF72EFC00BF4FF4847101EB0B
:100D60004410FFF707FC0028F7D14FF4027101EBA4
:100D70004410FF21FFF71EFC10BD00B5034605E03F
:100D800040F2DE3000F005F8581E83B2002BF7D198
:100D900000BD00EBC002D10000E0491E0029FCD1DB
:100DA000704700000146024830F81100704700000B
:100DB0004C00002070B504460025002600BF42F21A
:100DC000086101EB4410FFF7D5FB064642F20871BB
:100DD00001EB4410FFF7CEFB00EB062086B27EB19C
:100DE00042F2086101EB4410FFF7C4FB054642F2F2
:100DF000087101EB4410FFF7BDFB00EB052085B245
:100E0000B542DCD1284670BD70B5044600250026E9
:100E100000BF42F2080101EB4410FFF7ABFB0646AE
:100E200042F2081101EB4410FFF7A4FB00EB06208F
:100E300086B27EB142F2080101EB4410FFF79AFB43
:100E4000054642F2081101EB4410FFF793FB00EB5B
:100E5000052085B2B542DCD1284670BD70B5044688
:100E60004FF4427101EB4410FFF784FB132811D1BA
:100E70004FF4847101EB44100221FFF79BFB00BF8C
:100E80004FF4847101EB4410FFF774FB0028F7D195
:100E9000012500E00025284670BD000010B5FFF7D1
:100EA00070FA1548406800F07F40B0F1006F1ED125
:100EB000124800681249884217D10F48006811494A
:100EC0000840B0F1005F14D10B4840680E4908603B
:100ED000084600680D4908600749086880F30888DB
:100EE00000BF0A480068804703E0FFF773FDFFF783
:100EF00071FD002010BD00000000010800C00008C6
:100F0000000327430000F02F040000200000002011
:100F10002DE9F04104460E4615460027002D15DD4B
:100F20002A463146204600F014F84FF4847101EB54
:100F300044104021FFF73EFB00BF4FF4847101EBEA
:100F40004410FFF717FB0028F7D12F463846BDE8BD
:100F5000F0812DE9F04104460F4616460025A846CB
:100F60000EB9BDE8F08142F6080101EB4410FFF72D
:100F700001FB054642F6081101EB4410FFF7FAFAAF
:100F800000EB052085B2280200EB441000F11808A0
:100F900032463946404600F011FAA81985B2290AAE
:100FA00042F6080202EB4410FFF704FBE9B242F6F6
:100FB000081202EB4410FFF7FDFA00BFD1E7000072
:100FC00010B54FF48060074908800220FFF7E1FE6A
:100FD0004FF480600349891E08804FF4C860FFF712
:100FE000CCFE10BD1A0402402DE9F04704468846A5
:100FF000164600250027A9462046FFF7D3FEB0423B
:1010000004DA2046FFF7CEFE074600E0374600BF71
:101010002046FFF7F9FE81464FF4427101EB441080
:10102000FFF7A8FA0546172D03D01C2D01D0002785
:1010300001E0B945ECDB00BF3A464146204600F0EE
:101040003CF84FF4847101EB44102021FFF7B2FA11
:1010500000BF4FF4847101EB4410FFF78BFA0028B6
:10106000F7D110E04FF4427101EB4410FFF782FA20
:101070000546172D07D01C2D05D02046FFF763FE2F
:101080000020BDE8F0874FF4027101EB4410FFF738
:1010900071FA00F010001028E4D14FF4027101EB56
:1010A00044101021FFF786FA4FF4027101EB44104F
:1010B0001021FFF77FFA3846E3E72DE9F0410446B7
:1010C0000F4616460025A8460EB9BDE8F08142F24B
:1010D000084101EB4410FFF74DFA054642F2085172
:1010E00001EB4410FFF746FA00EB052085B2280219
:1010F00000EB441000F1100832463946404600F03B
:1011000087F9A81985B2290A42F2084202EB441075
:10111000FFF750FAE9B242F2085202EB4410FFF72F
:1011200049FA00BFD1E700002DE9F04105460E461F
:101130000027B846002433E0295D41F6087202EB2F
:101140004410FFF737FA315D41F6086202EB4410B4
:10115000FFF730FA0020144921F81400134921F850
:101160001400B7F5804F07DC285D4FF6FF7101EAE8
:1011700080200D4921F81400B8F5804F07DC305D60
:101180004FF6FF7101EA8020084921F81400064853
:1011900030F814000744054830F814008044641CFB
:1011A000082CC9DBBDE8F0814C0000205C00002069
:1011B0002DE9F04104460D461646984605F00F000D
:1011C00001280FD005F00F0002280BD005F00F000A
:1011D000032807D005F00F00042803D005F00F0006
:1011E00005283ED14FF4847101EB44101021FFF724
:1011F000E1F900BF4FF4847101EB4410FFF7BAF935
:101200000028F7D14FF4027101EB4410FF21FFF7E2
:10121000D1F945EA0801082202EB4410FFF7CAF9A8
:101220006EB1310A4FF4816202EB4410FFF7C2F94C
:10123000F1B24FF4A16202EB4410FFF7BBF94FF497
:10124000847101EB44100121FFF7B4F900BF4FF4A2
:10125000847101EB4410FFF78DF90028F7D10127C5
:1012600000E000273846BDE8F081000000B587B0F7
:1012700001210220FFF7C2F901218803FFF7CEF90F
:1012800005220F213848FFF750F905220D21364875
:10129000FFF74BF905220E213348FFF746F94FF4CB
:1012A0000050009002208DF805008DF80400002009
:1012B0008DF806008DF8070069462B48FFF7EDF81A
:1012C0004FF48040009069462748FFF7E6F84FF456
:1012D0000040009069462448FFF7DFF84FF4805043
:1012E000009001208DF8040069461F48FFF7D5F8EB
:1012F0004FF48060009001208DF8040000208DF8EC
:10130000060069461848FFF7C8F84FF40050164920
:101310001A310880C010891E0880800008800020D3
:10132000ADF808004FF48270ADF80A000020ADF867
:101330000C000220ADF80E000120ADF810004002B4
:10134000ADF812000020ADF81400ADF8160007202B
:10135000ADF8180002A90548FFF71CFA012103485F
:10136000FFF7FEF907B000BD00040240003800405E
:1013700010B5FFF77BFFFFF723FE06220B494FF462
:10138000106000F045F8042209494FF4A06000F015
:101390003FF804220749900100F03AF80422064978
:1013A0004FF4706000F034F810BD00000E00002013
:1013B0002C00002030000020280000202DE9F04102
:1013C00004460F46154600264FF480500F4908800A
:1013D000C4F30740FFF7A8F9C4F30720FFF7A4F907
:1013E00004F0F800FFF7A0F900BF05E00020FFF7C8
:1013F0009BF9B855701C86B2AE42F7DB4FF48050B3
:101400000249891E08802846BDE8F0811A0402407E
:101410002DE9F04104460F46154600264FF4805052
:1014200011490880C4F30740FFF77EF90646C4F36C
:101430000720FFF779F9064604F0F801091DC8B244
:10144000FFF772F90646002604E0B85DFFF76CF975
:10145000701C86B2AE42F8DB4FF480500249891E00
:1014600008802846BDE8F0811A04024000032743A3
:1014700090140008000000204C000000280D000817
:10148000DC1400084C0000202C080000380D000877
:1014900000000000000000000008DC11112301081A
:1014A000DC111122C0A80163FFFFFF00C0A80101E9
:1014B0008813C0A801698813C0A801C0FFFFFF00FE
:1014C000C0A801018813FFFFFFFF88130202020278
:0C14D000020202020202020202020202F8
:04000005080001AD41
:00000001FF
