:020000040800F2
:100000006805002049010008391500083B15000863
:100010003F150008431500084715000800000000C0
:100020000000000000000000000000004B15000868
:100030004D150008000000004F150008511500087C
:100040006301000863010008630100086301000800
:1000500063010008630100086301000863010008F0
:1000600063010008630100086301000863010008E0
:1000700063010008630100086301000863010008D0
:1000800063010008630100086301000863010008C0
:1000900063010008630100086301000863010008B0
:1000A00063010008630100086301000863010008A0
:1000B0006301000863010008630100086301000890
:1000C0006301000863010008630100086301000880
:1000D0006301000863010008630100086301000870
:1000E0006301000863010008630100086301000860
:1000F0006301000863010008630100086301000850
:10010000630100086301000863010008630100083F
:10011000630100086301000863010008630100082F
:10012000630100086301000863010008630100081F
:10013000DFF810D004F0DEF800480047E9140008AA
:10014000AFF3008068050020064880470648004756
:10015000FEE7FEE7FEE7FEE7FEE7FEE7FEE7FEE777
:10016000FEE7FEE74B020008310100080CB5002055
:10017000019000906C48006840F480306A49086043
:1001800000BF6948006800F4003000900198401CEE
:100190000190009818B90198B0F5A06FF1D16248AC
:1001A000006800F4003010B10120009001E0002050
:1001B00000900098012843D15C48006840F010008E
:1001C0005A4908600846006820F0030008600846A5
:1001D000006840F002000860534840685249486097
:1001E0000846406848600846406840F480604860BF
:1001F0000846406820F47C1048600846406840F497
:10020000E81048600846006840F08070086000BF51
:100210004548006800F000700028F9D04248406866
:1002200020F00300404948600846406840F0020062
:10023000486000BF3C48406800F00C000828F9D135
:100240000CBD10B5FFF792FF10BD10B53648006821
:1002500040F00100344908600846406834490840CD
:100260003149486008460068324908402E49086014
:100270000846006820F4802008600846406820F4A2
:10028000FE0048604FF41F008860FFF7DAFF4FF070
:1002900000602949086010BD10B50021002000222F
:1002A000214B5B6803F00C0121B1042906D0082919
:1002B00028D107E0214B224C236027E01F4B204C24
:1002C000236023E0184B5B6803F47010164B5B68E7
:1002D00003F48032022303EB904022B9194B4343CD
:1002E000174C23600DE0104B5B6803F4003323B11F
:1002F000144B4343124C236003E0104B4343104C18
:10030000236003E00D4B0E4C236000BF00BF064B83
:100310005B68C3F303130C4CE15C094B1B68CB40D7
:10032000074C236010BD0000001002400020024076
:100330000000FFF8FFFFF6FE08ED00E000127A0073
:100340000000002000093D00040000203549014361
:10035000354A11607047012080F3108800BF314892
:10036000001D31490860704770B5002100230F223D
:10037000C47804B32C4C246804F4E064C4F5E0644D
:10038000210AC1F10403CA40447804FA03F18478D5
:10039000144021430901254C0678A155047804F046
:1003A0001F050124AC4005786D11AD0005F1E02575
:1003B000C5F8004109E0047804F01F050124AC40B1
:1003C0001B4D0678761145F8264070BD194A0A4043
:1003D0000243154B1B1F1A60704739B1124A121D98
:1003E00012680243104B1B1D1A6006E00E4A121DD4
:1003F000126882430C4B1B1D1A607047042808D1F9
:100400004FF0E021096941F004014FF0E022116151
:1004100007E04FF0E021096921F004014FF0E022EC
:10042000116170470000FA050CED00E000E400E007
:1004300080E100E080FFFF1F10B50446CC488442F5
:1004400008D10121042000F02DFB0021042000F040
:1004500029FB46E0C748844208D10121082000F06A
:1004600021FB0021082000F01DFB3AE0C248844235
:1004700008D10121102000F015FB0021102000F010
:1004800011FB2EE0BD48844208D10121202000F05C
:1004900009FB0021202000F005FB22E0B84884423F
:1004A00008D10121402000F0FDFA0021402000F099
:1004B000F9FA16E0B348844208D10121802000F007
:1004C000F1FA0021802000F0EDFA0AE0AE48844203
:1004D00007D10121801500F0E5FA0021A01500F0F8
:1004E000E1FA10BD10B50121084600F0DBFA002149
:1004F000012000F0D7FA10BD2DE9F0410246002599
:100500000026002000230024002791F803C00CF0EF
:100510000F0591F803C00CF0100CBCF1000F03D0D4
:1005200091F802C04CEA050591F800C0BCF1000F3B
:1005300031D0146800202BE04FF0010C0CFA00F3CE
:10054000B1F800C00CEA03069E4220D183004FF0B0
:100550000F0C0CFA03F7BC4305FA03FC4CEA040445
:1005600091F803C0BCF1280F06D14FF0010C0CFA32
:1005700000FCC2F814C00AE091F803C0BCF1480FB7
:1005800005D14FF0010C0CFA00FCC2F810C0401C61
:100590000828D1D31460B1F800C0BCF1FF0F34DDDE
:1005A000546800202EE000F1080C4FF0010808FA12
:1005B0000CF3B1F800C00CEA03069E4221D183007F
:1005C0004FF00F0C0CFA03F7BC4305FA03FC4CEA9E
:1005D000040491F803C0BCF1280F05D100F1080C08
:1005E00008FA0CF8C2F8148091F803C0BCF1480F67
:1005F00007D100F1080C4FF0010808FA0CF8C2F816
:100600001080401C0828CED35460BDE8F0814FF61E
:10061000FF710180022181700421C1707047024680
:10062000002093680B400BB1012000E000207047D0
:100630000146886880B2704702460020D3680B40AC
:100640000BB1012000E0002070470146C86880B26D
:10065000704701617047416170470AB1016100E074
:1006600041617047C16070474FF480320A43826134
:100670008161826182698269704702460020434B32
:1006800018684FF68073184040EA021008433F4B49
:10069000186070473E49C8617047F0B50A460023AC
:1006A00000240021002500F00046B6F1004F02D1E1
:1006B000364EF16901E0354E7168C0F3034583B2EF
:1006C00000F44016B6F5401F08D121F070612F4E9E
:1006D000766826F070662D4F7E6012E000F480167A
:1006E000B6F5801F06D1032606FA05F4A14341F0B2
:1006F000706106E0460D360103FA06F6B14341F09B
:10070000706122B1460D360103FA06F6314300F05E
:100710000046B6F1004F02D11C4EF16101E01B4EC4
:100720007160F0BD30B500228B071C0F0F2303FA58
:1007300004F2164B08338C1053F824309343134CB7
:1007400008348D1044F8253023468C1053F824309B
:100750008C07240F00FA04F423430C4C08348D104A
:1007600044F8253030BD0A49DC310860704700008C
:1007700000080140000C014000100140001401403D
:1007800000180140001C0140002001400000014011
:1007900000002042DF48006840F00100DD490860A9
:1007A00008464068DC490840DA4948600846006865
:1007B000DA490840D74908600846006820F48020DC
:1007C00008600846406820F4FE0048604FF41F00AF
:1007D00088607047CF49096821F48031CD4A1160A3
:1007E0001146096821F480211160B0F5803F03D0E3
:1007F000B0F5802F0ED106E0C649096841F480317A
:10080000C44A116007E0C349096841F4A021C14A04
:10081000116000E000BF00BF704710B50146002224
:10082000002300204A11012A02D1BA4C236806E0B5
:10083000022A02D1B74C236A01E0B64C636A01F088
:100840001F02012494401C400CB1012000E0002054
:1008500010BD38B5002000900024002500BF3120D5
:10086000FFF7DBFF05460098401C00900098B0F5AC
:10087000A06F01D0002DF2D03120FFF7CEFF08B1DC
:10088000012400E00024204638BD01460020A14A92
:10089000106820F0F80040EAC10010607047A049DD
:1008A00008607047024600209A4B586820F47C107C
:1008B00042EA01031843974B58607047984908660D
:1008C000704701460020934A506820F00300084317
:1008D000506070478F48406800F00C007047014638
:1008E00000208C4A506820F0F000084350607047A8
:1008F00001460020874A506820F4E06008435060B9
:10090000704701460020834A506820F4605040EA56
:10091000C1005060704729B17E4A527A02437D4B34
:100920005A7204E07B4A527A82437A4B5A72704779
:100930007B49D8310860704701460020754A5068ED
:1009400020F440400843506070470021714A203233
:100950001170704A82F82010012802D004280AD1B0
:1009600004E001216B4A2032117005E00521694A3B
:100970002032117000E000BF00BF70476949086075
:1009800070476449096A0143624A116270476549C8
:1009900044390860704730B500210022002400234C
:1009A0005C4D6D6805F00C0121B1042905D00829C2
:1009B00023D105E05C4D056022E05B4D05601FE042
:1009C000544D6D6805F47012524D6D6805F4803415
:1009D000022505EB92421CB9544D554305600BE0CE
:1009E0004C4D6D6805F400351DB1504D5543056003
:1009F00002E04D4D5543056002E04B4D056000BFE0
:100A000000BF444D6D6805F0F0010909484D6B5C6D
:100A10000568DD4045603F4D6D6805F4E061090AF9
:100A2000434D6B5C4568DD4085603A4D6D6805F46B
:100A30006051C90A3E4D6B5C4568DD40C560354D6F
:100A40006D6805F44041890B3A4D6B5CC568B5FB98
:100A5000F3F5056130BD29B12E4A526902432D4B91
:100A60005A6104E02B4A526982432A4B5A6170470B
:100A700029B1284A92690243264B9A6104E0254A2B
:100A800092698243234B9A61704729B1214AD26906
:100A90000243204BDA6104E01E4AD26982431D4BB7
:100AA000DA61704729B11B4AD2680243194BDA60F8
:100AB00004E0184AD2688243164BDA60704729B1C5
:100AC000144A12690243134B1A6104E0114A126975
:100AD0008243104B1A6170471249403908607047D1
:100AE0000F49C86470470B49C87170470948406A8C
:100AF00040F0807007494862704701460020054A6F
:100B000092680A400AB1012000E0002070470149C4
:100B100088727047001002400000FFF8FFFFF6FEE9
:100B2000000042428004424200127A0000093D0067
:100B3000140000202400002010B50446BE48844262
:100B400008D101218014FFF7ADFF0021A014FFF7A9
:100B5000A9FF16E0B948844208D101210014FFF72B
:100B6000AEFF00212014FFF7AAFF0AE0B448844238
:100B700007D10121C013FFF7A2FF0021E013FFF707
:100B80009EFF10BD10B50022028802F441520B886E
:100B90004C8823438C882343CC8823430C892343EC
:100BA0004C8923438C892343CC8923431A430280F5
:100BB000838B4FF2FF74234083830B8A038210BD23
:100BC0002DE9F04F85B005460C464FF0000902278D
:100BD0004FF000084FF0010B0026B246A88B4FF2F1
:100BE00040010840A88302202884B5F81C90A06822
:100BF000022801D100BF38E0A08810B94FF0010BE6
:100C000001E04FF0020B8D48854200D100E000BFAB
:100C10006846FFF7C0FEDDF800A0E088B0F5007F71
:100C20000AD14FEA1A2000EB80004000A168B0FB17
:100C3000F1F0401D86B20BE04FEA4B10BAFBF0F02A
:100C400000EB80004000A168B0FBF1F0401D86B2CF
:100C50000A20B6FBF0F606F00108A6EB0800C0F388
:100C60004F074FF6FF7000EA0828022F01DBFF2F25
:100C700002DD02274FF00008E08840EA0800384310
:100C80002884A088A18908436188084321880843F3
:100C900040F4006040EA0909A5F81C9005B0BDE8E1
:100CA000F08F0021018041808180C18001814181DC
:100CB0008181C1810721018270470021018041802B
:100CC0008180C1800221816000218181704721B132
:100CD000028842F04002028004E002884FF6BF73AF
:100CE0001A400280704721B1828B42F48062828375
:100CF00004E0828B4FF6FF331A408283704730B591
:100D0000002400230C110125A540ABB21AB185883F
:100D10001D43858002E085889D43858030BD1AB1E2
:100D200083880B43838002E083888B4383807047F2
:100D3000818170470146888970474FF6FF62914272
:100D400004D0028842F48072028004E002884FF6E8
:100D5000FF631A400280704721B1828842F004028A
:100D6000828004E082884FF6FB731A4082807047CD
:100D700002884FF2FF731A40028002880A43028001
:100D80007047018841F480510180704721B1028889
:100D900042F40052028004E002884DF6FF731A40CC
:100DA0000280704702460020012901D0108B00E02C
:100DB000908A70470146088A7047B1F5804F04D188
:100DC000028842F48042028004E002884BF6FF73FE
:100DD0001A40028070470246002013890B400BB175
:100DE000012000E000207047CA4302817047F0B53F
:100DF0000246002000240023002501F00F070126F1
:100E0000BE40B4B20B1101269E40B3B2968806EAEA
:100E100003051689264016B10DB1012000E000201F
:100E2000F0BD10B5002201F00F040123A3409AB2D7
:100E3000D343038110BD0000003001400038004062
:100E4000003C004001684FF6FE7211400160002135
:100E5000016041608160C1608D49884208D18C4940
:100E60000839496841F00F01894A083A51608AE01F
:100E700087491431884208D185490839496841F0C9
:100E8000F001834A083A51607DE081492831884267
:100E900008D17F490839496841F470617C4A083AB1
:100EA000516070E07A493C31884208D1784908396C
:100EB000496841F47041764A083A516063E07449E8
:100EC0005031884208D172490839496841F470218B
:100ED0006F4A083A516056E06D496431884208D142
:100EE0006B490839496841F47001694A083A516010
:100EF00049E067497831884208D16549083949682D
:100F000041F07061624A083A51603CE061498842B0
:100F100006D1011F096841F00F01021F116032E084
:100F20005C491431884208D15A49091F096841F0C7
:100F3000F001584A121F116025E0564928318842B5
:100F400008D15449091F096841F47061514A121FC0
:100F5000116018E04F493C31884208D14D49091FC2
:100F6000096841F470414B4A121F11600BE0494976
:100F70005031884207D14749091F096841F470215F
:100F8000444A121F1160704710B50022026847F6EC
:100F9000F0739A430C6A8B6823430C6923434C69B2
:100FA00023438C692343CC6923434C6A23438C6AD3
:100FB00023431A430260CB6843600B6883604B682D
:100FC000C36010BD0021016041608160C1600161AA
:100FD00041618161C161016241628162704721B1F9
:100FE000026842F00102026004E002684FF6FE73FC
:100FF0001A40026070471AB103680B43036002E0B5
:1010000003688B430360704741607047014648683E
:1010100080B2704701460020002201F080531BB1CE
:101020001C4B083B1A6802E0194B083B1A6802EA9D
:1010300001030BB1012000E00020704700F0805157
:1010400019B11449091F086002E0114908394860C4
:10105000704701460020002201F080531BB10D4B68
:10106000083B1A6802E00A4B083B1A6802EA0103CF
:101070000BB1012000E00020704700F0805119B151
:101080000449091F086002E00149083948607047B7
:10109000080002400804024010B50446FA488442A1
:1010A00008D101214015FFF7FDFC00216015FFF775
:1010B000F9FC17E0F548844208D101210015FFF73B
:1010C000F1FC00212015FFF7EDFC0BE0F048844215
:1010D00008D10121C803FFF7E5FC00214FF40040CF
:1010E000FFF7E0FC10BD30B5024600200023506839
:1010F000E84C20400D790C6844EA052420435060F8
:101100009068E54C2040D1E902542C434D7944EAE3
:10111000450420439060D06A20F470000C7C641E6B
:10112000E4B2234340EA0350D06230BD00210160A5
:10113000017141718160C16001210174704721B169
:10114000826842F00102826003E0826822F00102BC
:101150008260704721B1826842F48072826003E04D
:10116000826822F480728260704710B50023CBB28F
:101170001AB144681C43446002E044689C434460E4
:1011800010BD816841F00801816070470146002070
:101190008A6802F008020AB1012000E000207047CE
:1011A000816841F0040181607047014600208A682F
:1011B00002F004020AB1012000E00020704721B1D2
:1011C000826842F4A002826003E0826822F4A002F6
:1011D00082607047014600208A6802F480020AB1EA
:1011E000012000E00020704710B50A4600210023CE
:1011F000416821F46041531E41EA4331416010BD12
:1012000021B1426842F40062426003E0426822F485
:10121000006242607047F0B504460D460020002190
:10122000092D11DDE068A5F10A0606EB4607072641
:1012300006FA07F18843A5F10A0606EB460603FA0B
:1012400006F10843E0600CE0206905EB450707263E
:1012500006FA07F1884305EB450603FA06F1084351
:101260002061072A0FDA606B561E06EB86071F26E1
:1012700006FA07F18843561E06EB860605FA06F1C4
:101280000843606322E00D2A0FDA206BD61F06EBBD
:1012900086071F2606FA07F18843D61F06EB860647
:1012A00005FA06F10843206310E0E06AA2F10D069A
:1012B00006EB86071F2606FA07F18843A2F10D0602
:1012C00006EB860605FA06F10843E062F0BD21B19F
:1012D000826842F48012826003E0826822F4801205
:1012E000826070470146C86C80B2704766484C30D7
:1012F0000068704721B1426842F48062426003E0B6
:10130000426822F480624260704721B1426842F430
:101310008052426003E0426822F48052426070478B
:101320000A460021816821F4E04111438160704741
:1013300021B1826842F40042826003E0826822F4B4
:1013400000428260704721B1826842F402128260DA
:1013500003E0826822F40212826070470146002096
:101360008A6802F400120AB1012000E000207047F0
:10137000F0B504461546002000220026092911DD9B
:10138000E068A1F10A0707EB470C072707FA0CF200
:101390009043A1F10A0707EB470703FA07F210434E
:1013A000E0600CE0206901EB410C072707FA0CF222
:1013B000904301EB410703FA07F210432061A06B51
:1013C000C0F30156EF1C06F1010CA7EB0C0707EB6D
:1013D000870C1F2707FA0CF29043EF1C06F1010C53
:1013E000A7EB0C0707EB870701FA07F21043A0638E
:1013F000F0BD10B50A4600210023816B21F4401195
:10140000531E41EA0351816310BD08B500230093C8
:101410000090009B0B440093009B1A6008BD08B528
:10142000024600200090009201F12800009B184421
:1014300000900098006880B208BD0A46002141680B
:10144000164B1940114341607047416282627047F8
:101450000A460021416821F01F0111434160704795
:1014600040B109490831096841F40001064A0832CF
:10147000116007E004490831096821F40001024ABB
:10148000083211607047000000240140002801402C
:10149000003C0140FFFEF0FFFDF7F1FFFFFD3FFFC5
:1014A0000246002013680B400BB1012000E0002031
:1014B0007047CA430260704770B50246002000239F
:1014C00000240B125568CEB205EA060415681D40CB
:1014D00015B10CB1012000E0002070BD00220A12FD
:1014E000D34303607047000001F0A9FB482000F0DF
:1014F00083FF4FF4A060FEF729FF01F0BAFB00F074
:10150000C8F801F0A2FA01F0D5FF01F0B8FC00F034
:1015100024FC0749074800F04DFA07E002F079F88B
:1015200002F0EAF802F0BBFA02F071F9F6E7000007
:101530003000002028000020704700BFFEE700BFF9
:10154000FEE700BFFEE700BFFEE770477047704749
:101550007047000008B501210846FFF77CFA012119
:101560004FF40770FFF784FACF20ADF80000002099
:101570008DF8030069464A48FEF7BEFF0320ADF828
:10158000000000208DF8030069464648FEF7B4FFCE
:101590003820ADF8000000208DF80300694642486D
:1015A000FEF7AAFF08BD00B591B04048FFF74AFC1E
:1015B0003F4806903F480790002008900620099079
:1015C00000200A9080200B9040000C9080000D902D
:1015D00020200E90C0010F900020109006A93348E3
:1015E000FFF7D2FC01213148FFF7F9FC0020019000
:1015F00001208DF808008DF809004FF46020039059
:101600000020049006208DF8140001A928484C38C9
:10161000FFF769FD4FF44040FFF78EF905230122E3
:101620000E2123484C38FFF7F6FD052302220F2137
:101630001F484C38FFF7EFFD0523032204211C4807
:101640004C38FFF7E8FD052304220D2118484C38DB
:10165000FFF7E1FD05231A46002115484C38FFF736
:10166000DAFD05230622092111484C38FFF7D3FD86
:1016700001210F484C38FFF76DFD01210C484C3813
:10168000FFF75DFD01210A484C38FFF798FD11B0C6
:1016900000BD10B5FFF75EFFFFF785FF10BD00002E
:1016A00000080140000C0140001001400800024009
:1016B0004C2401407800002010B50446214600204B
:1016C00000F0B1FA10BD10B58020FFF7F5FF10BD96
:1016D0000146D84830F8110070470146D64830F826
:1016E0001100704710B5044604222146900100F015
:1016F000D8FA10BD10B5044604222146900100F02E
:10170000FDFA10BD10B50446042221464FF4A06036
:1017100000F0C7FA10BD10B50446062221464FF46A
:10172000106000F0BEFA10BD10B504460422214638
:101730004FF4706000F0B5FA10BD10B504460422F5
:1017400021464FF4A06000F0D9FA10BD10B5044650
:10175000062221464FF4106000F0D0FA10BD10B5FB
:101760000446042221464FF4706000F0C7FA10BD11
:1017700010B54FF4A85000F075FA10BD10B504462E
:10178000210A4FF4C85000F04EFAE1B24FF4D050A5
:1017900000F049FA10BD10B5044621464FF4D85068
:1017A00000F041FA10BD70B50446FFF7E1FF60EAB2
:1017B0000400C5B229464FF4A85000F034FA70BDB9
:1017C00070B504460D46290A41F2082202EB441086
:1017D00000F029FAE9B241F2083202EB441000F0BD
:1017E00022FA70BD70B504460D4641F2086101EB66
:1017F0004410294600F017FA70BD10B504464FF4A6
:10180000027101EB441000F02DFA10BD70B50446D2
:101810000D464FF4027101EB4410294600F003FA23
:1018200070BD10B504464FF4427101EB441000F056
:1018300019FA10BD70B504460025002600BF42F21B
:10184000080101EB441000F00DFA064642F20811BF
:1018500001EB441000F006FA00EB062086B27EB1E0
:1018600042F2080101EB441000F0FCF9054642F297
:10187000081101EB441000F0F5F900EB052085B2EA
:10188000B542DCD1284670BD70B50446002500265F
:1018900000BF42F2086101EB441000F0E3F9064694
:1018A00042F2087101EB441000F0DCF900EB062075
:1018B00086B27EB142F2086101EB441000F0D2F929
:1018C000054642F2087101EB441000F0CBF900EB41
:1018D000052085B2B542DCD1284670BD2DE9F04126
:1018E00004460F4616460025A8460EB9BDE8F0810D
:1018F00042F2084101EB441000F0B4F9054642F20F
:10190000085101EB441000F0ADF900EB052085B261
:10191000280200EB441000F11008324639464046D8
:1019200000F0BFF9A81985B2290A42F2084202EB79
:10193000441000F078F9E9B242F2085202EB441088
:1019400000F071F900BFD1E72DE9F04104460F46E0
:1019500016460025A8460EB9BDE8F08142F60801FA
:1019600001EB441000F07EF9054642F6081101EB48
:10197000441000F077F900EB052085B2280200EB57
:10198000441000F1180832463946404600F0B6F9D6
:10199000A81985B2290A42F6080202EB441000F0A9
:1019A00042F9E9B242F6081202EB441000F03BF9AA
:1019B00000BFD1E72DE9F04105460E460027B846A5
:1019C000002433E0295D41F6087202EB441000F078
:1019D0002AF9315D41F6086202EB441000F023F968
:1019E0000020154921F81400124921F81400B7F518
:1019F000804F07DC285D4FF6FF7101EA80200E4919
:101A000021F81400B8F5804F07DC305D4FF6FF7108
:101A100001EA8020074921F81400074830F8140033
:101A20000744044830F814008044641C082CC9DBC7
:101A3000BDE8F0819400002084000020CD480078AB
:101A4000062827D2DFE800F026030A11181F11200C
:101A5000C94948716520C949C8701CE01220C649AF
:101A600048716620C549C87015E01320C249487105
:101A70006720C249C8700EE01420BF494871682031
:101A8000BE49C87007E01520BB4948716920BB49B1
:101A9000C87000E000BF00BF704710B5B848B64935
:101AA0000A68026089888180B4490968C0F8061014
:101AB000B4490968C0F80A10B3490968C0F80E10A3
:101AC000B2490968C0F812100A30FFF71BFEAC4893
:101AD0000E30FFF707FEAA48801DFFF725FEA74836
:101AE000FFF73DFEA748FFF728FEA748FFF702FED5
:101AF00010BD10B5A248A0490A680260898881809B
:101B0000FFF709FE10BD00B587B001212820FEF7C0
:101B1000AFFF01218803FEF7B8FF4FF46040ADF836
:101B2000040003208DF8060018208DF8070001A995
:101B30009748FEF7E1FC4FF48050ADF80400032015
:101B40008DF8060010208DF8070001A99048FEF7D7
:101B5000D3FC4FF40070ADF8040001208DF80600AE
:101B600010208DF8070001A98A48FEF7C5FC4FF444
:101B700000718848FEF76DFD0020ADF808004FF4B5
:101B80008270ADF80A000020ADF80C000220ADF81C
:101B90000E000120ADF810004002ADF81200002048
:101BA000ADF81400ADF816000720ADF8180002A932
:101BB0007948FEF7E7FF01217748FFF788F807B07B
:101BC00000BD10B5044600BF02217348FFF703F9BA
:101BD0000028F9D021467048FFF7AAF800BF01217C
:101BE0006D48FFF7F8F80028F9D06B48FFF7A2F826
:101BF000C0B210BD10B54FF400716648FEF72BFD62
:101C0000022000F015FC4FF400716248FEF721FD40
:101C10004FF4C86000F00CFC10BD10B5044620461F
:101C2000FFF7CFFF10BD70B504460D464FF480514D
:101C30005748FEF710FDC4F30740FFF7EEFFC4F36B
:101C40000720FFF7EAFF04F0F801091DC8B2FFF70B
:101C5000E4FF2846FFF7E1FF4FF480514C48FEF7C0
:101C6000F8FC70BD70B5044600254FF4805148481B
:101C7000FEF7F1FCC4F30740FFF7CFFFC4F30720E2
:101C8000FFF7CBFF04F0F800FFF7C7FF0020FFF7D6
:101C9000C4FF05464FF480513D48FEF7DAFC284664
:101CA00070BD2DE9F04104460F46154600264FF45D
:101CB00080513748FEF7CFFCC4F30740FFF7ADFF74
:101CC0000646C4F30720FFF7A8FF064604F0F80114
:101CD000091DC8B2FFF7A1FF0646002604E0B85D63
:101CE000FFF79BFF701C86B2AE42F8DB4FF48051C9
:101CF0002748FEF7AEFC2846BDE8F0812DE9F0410B
:101D000004460F46154600264FF480512048FEF742
:101D1000A2FCC4F30740FFF780FFC4F30720FFF7DE
:101D20007CFF04F0F800FFF778FF00BF05E000201B
:101D3000FFF773FFB855701C86B2AE42F7DB4FF465
:101D400080511348FEF785FC2846BDE8F08170B548
:101D5000002044682546A84770BD10B5FFF76EFE09
:101D6000FFF7D1FEFFF746FFFFF7C3FEFFF795FE33
:101D700010BD000038000020390000203F00002086
:101D8000A400002043000020470000204B0000205A
:101D9000000C0140001401400038004010B504461A
:101DA0004FF4847101EB44101021FFF73CFF00BF9A
:101DB0004FF4847101EB4410FFF754FF0028F7D172
:101DC0004FF4027101EB4410FF21FFF72CFF10BD0F
:101DD0002DE9F04104460D461646984605F00F00E1
:101DE00001280FD005F00F0002280BD005F00F00DE
:101DF000032807D005F00F00042803D005F00F00DA
:101E0000052841D12046FFF7C9FF45EA080108220D
:101E100002EB4410FFF707FF76B1310A4FF48162FD
:101E200002EB4410FFF7FFFEF1B24FF4A16202EBA8
:101E30004410FFF7F8FE15E0FE480088401CFD49FD
:101E400008800A461288110A4FF4816202EB44109E
:101E5000FFF7E9FEF74A11784FF4A16202EB441054
:101E6000FFF7E1FE4FF4847101EB44100121FFF70D
:101E7000DAFE00BF4FF4847101EB4410FFF7F2FE6D
:101E80000028F7D1012700E000273846BDE8F0819F
:101E900070B504464FF4427101EB4410FFF7E2FEC7
:101EA000132811D14FF4847101EB44100221FFF784
:101EB000BAFE00BF4FF4847101EB4410FFF7D2FE6D
:101EC0000028F7D1012500E00025284670BD2DE946
:101ED000F04105460C4616462078FF2808D1607868
:101EE000FF2805D1A078FF2802D1E078FF2808D08C
:101EF000207828B9607818B9A07808B9E07800B1DE
:101F00000EB900275CE00127217840F6084202EB79
:101F10004510FFF788FE617840F6085202EB451045
:101F2000FFF781FEA17840F6086202EB4510FFF74B
:101F30007AFEE17840F6087202EB4510FFF773FE77
:101F4000310A41F2080202EB4510FFF76CFEF1B2D4
:101F500041F2081202EB4510FFF765FE4FF4847161
:101F600001EB45100421FFF75EFE00BF4FF48471C2
:101F700001EB4510FFF776FE0028F7D117E04FF48C
:101F8000427101EB4510FFF76DFE172800D116E0F6
:101F90002846FFF732FC00F0080040B14FF4027110
:101FA00001EB45100821FFF73EFE002707E04FF444
:101FB000427101EB4510FFF755FE1528DFD100BF38
:101FC0003846BDE8F08110B504464FF4847101EB4A
:101FD00044100821FFF727FE00BF4FF4847101EB86
:101FE0004410FFF73FFE0028F7D110BD2DE9F04760
:101FF00004468846164600250027A9462046FFF7D6
:102000006CFBB04204DA2046FFF767FB074600E0AE
:10201000374600BF2046FFF70DFC81464FF4427162
:1020200001EB4410FFF71EFE0546172D03D01C2DB3
:1020300001D0002701E0B945ECDB00BF3A4641463C
:102040002046FFF74BFC4FF4847101EB4410202134
:10205000FFF7E9FD00BF4FF4847101EB4410FFF777
:1020600001FE0028F7D110E04FF4427101EB44105B
:10207000FFF7F8FD0546172D07D01C2D05D020468B
:10208000FFF78CFE0020BDE8F0874FF4027101EBF2
:102090004410FFF7E7FD00F010001028E4D14FF4E2
:1020A000027101EB44101021FFF7BDFD4FF40271E6
:1020B00001EB44101021FFF7B6FD3846E3E72DE9A8
:1020C000F04104460E4615460027002D15DD2A4630
:1020D00031462046FFF738FC4FF4847101EB441081
:1020E0004021FFF7A0FD00BF4FF4847101EB4410C5
:1020F000FFF7B8FD0028F7D12F463846BDE8F0813C
:102100002DE9F0470446894616461D46089F4FF0C4
:1021100000082046FFF7E1FAB04204DA2046FFF754
:10212000DCFA804600E0B046287828B9687818B90B
:10213000A87808B9E87800B117B94FF0000863E053
:10214000297840F6084202EB4410FFF76CFD6978ED
:1021500040F6085202EB4410FFF765FDA97840F6FF
:10216000086202EB4410FFF75EFDE97840F6087262
:1021700002EB4410FFF757FD390A41F2080202EB67
:102180004410FFF750FDF9B241F2081202EB44107F
:10219000FFF749FD424649462046FFF79FFB4FF4B3
:1021A000847101EB44102021FFF73DFD00BF4FF487
:1021B000847101EB4410FFF755FD0028F7D112E0C0
:1021C0004FF4027101EB4410FFF74CFD00F00800E2
:1021D00048B14FF4027101EB44101821FFF723FDC1
:1021E0000020BDE8F0874FF4027101EB4410FFF7C7
:1021F00039FD00F010001028E2D14FF4027101EB1C
:1022000044101021FFF70FFD4046EAE72DE9FC5F7F
:1022100005468A4691461E46DDF830800020009033
:102220000190002700248346B9F1000F7DDD42F6BE
:10223000080101E05000002001EB4510FFF712FDFE
:10224000044642F6081101EB4510FFF70BFD00EBC9
:10225000042084B2200200EB451000F1180B082185
:1022600001EB4510FFF7FEFC00F00700022804D048
:10227000032844D0042879D179E0082269465846D9
:10228000FFF73CFD04F1080084B29DF800003070B7
:102290009DF8010070709DF80200B0709DF8030079
:1022A000F0709DF80400A8F800009DF8050098F86B
:1022B000001000EB0120A8F800009DF806709DF8C2
:1022C000070000EB072087B2200200EB451000F169
:1022D000180B3A4651465846FFF710FDE01984B2F4
:1022E000210A42F6080202EB4510FFF79CFCE1B21E
:1022F00042F6081202EB4510FFF795FC68E0062253
:1023000069465846FFF7FAFCA01D84B29DF800000C
:1023100030709DF8010070709DF80200B0709DF85B
:102320000300F0709DF8047000E062E09DF8050085
:1023300000EB072087B2200200EB451000F1180BDC
:102340003A4651465846FFF7D9FCE01984B2210AB3
:1023500042F6080202EB4510FFF765FCE1B242F6D7
:10236000081202EB4510FFF75EFC31E02FE002227D
:1023700069465846FFF7C2FCA01C84B29DF8007065
:102380009DF8010000EB0720801E87B240F2EA5062
:10239000874201DD00BFFEE7200200EB451000F19F
:1023A000180B3A4651465846FFF7A8FCE01984B28C
:1023B000210A42F6080202EB4510FFF734FCE1B2B5
:1023C00042F6081202EB4510FFF72DFC00E000BFBB
:1023D00000BF4FF4847101EB45104021FFF723FC4F
:1023E00000BF4FF4847101EB4510FFF73BFC002860
:1023F000F7D13846BDE8FC9F4FF0E021096921F094
:1024000004014FF0E0221161C21700EB5272C2F3D7
:10241000C702F44B1A701946097801EB4102C2EB6E
:10242000C1114FF6FF7202EAC101EF4A11807047F5
:102430000146ED4A12884A434FF0E0235A610022D8
:102440009A6101221A6100BF4FF0E022106900F08A
:1024500001021AB100F48032002AF5D000224FF0B8
:10246000E0231A619A61704710B5044604E04FF406
:102470007A70FFF7DDFF641E002CF8D110BD014615
:10248000D84A12784A434FF0E0235A6100229A61F9
:1024900001221A6100BF4FF0E022106900F0010232
:1024A0001AB100F48032002AF5D000224FF0E02368
:1024B0001A619A6170470146302905DB392903DC2E
:1024C000A1F13000C0B27047612905DB662903DC49
:1024D000A1F15700C0B2F6E7412905DB462903DC2C
:1024E000A1F13700C0B2EEE70846ECE730B502468E
:1024F0000B46002405E012F8010BFFF7DCFF04FB9C
:10250000030410780028F6D1A0B230BD30B50246E1
:102510000B46002405E012F8010BFFF7CCFF04FB8B
:10252000030410780028F6D1204630BD2DE9F04193
:1025300004460D461646701EC7B220223146284674
:1025400001F00AFB00BF0A2094FBF0F100FB1140F0
:102550003030C2B23846791ECFB22A540A2094FBDA
:10256000F0F080B2041EEEDCBDE8F0812DE9F04110
:1025700004460F46904626460CB1207810B900203C
:10258000BDE8F0810BE03078FFF795FF0546002DA0
:1025900003DBBD4201DA761C01E00020F0E7307871
:1025A0000028F0D1B9B22046FFF7A0FFC8F800001C
:1025B0000120E5E710B50B46002104E0445C9C4295
:1025C00000D14254491C445C002CF7D110BD014697
:1025D00000200A06100C40EA112070470146002036
:1025E0000806C1F3072240EA0240C1F3074240EA6D
:1025F000022040EA116070472DE9F04781460E46FF
:1026000017461D463146484601F0B8FA04463046A2
:1026100001F0D2FA04443946204601F0AFFA82466E
:10262000AAEB04001FFA80F842462146284601F032
:10263000B7FA002005F80800BDE8F0872DE9F04161
:1026400088B006460F463146684601F0BCFA6C4633
:1026500000251BE065A1204601F0BEFA0446207863
:10266000302809D16078782806D11021A01CFFF706
:102670003DFF00F0FF0805E00A212046FFF736FF86
:1026800000F0FF0807F8058000246D1C042DE1DB35
:1026900008B0BDE8F08110B504462021544801F08F
:1026A00062FA534810BD10B504461021514801F09C
:1026B0005AFA504810BDF0B58FB006460F4601AC2F
:1026C000314601A801F07FFA00252AE047A1204603
:1026D00001F082FA044614B900200FB0F0BD207852
:1026E00030280AD16078782807D10EAA1021A01CC2
:1026F000FFF73CFF48B90020EFE70EAA0A21204669
:10270000FFF734FF08B90020E7E70E9878550E98D8
:10271000002802DB0E98FF2801DD0020DDE7002401
:102720006D1C042DD2DB0120D7E700B50346184607
:10273000FFF74DFF00BD00B503461846FFF74EFFFB
:1027400000BD10B504462046FFF7EFFF10BD10B5E1
:1027500004462046FFF7EFFF10BDF0B502460D46D8
:10276000C5F34F06002400210EE012F811304FF699
:10277000FF7707EA0323012707EB4107D75D1F44D3
:10278000BBB21C444F1CB9B2B142EEDB05F00107ED
:102790001FB112F8113004EB0324A0B200EB144770
:1027A000FF43B8B2F0BDF1B500246D4600BF15E09F
:1027B00004F5A060FFF756FA295D00EA010704F569
:1027C0007060FFF74FFA064604F5A060FFF74AFA7B
:1027D0000640B74201D00120F8BD641C042CE7DBA1
:1027E0000020F9E7580000205A0000202E000000C9
:1027F000BE000020DE00002008B501210820FEF701
:1028000037F9C020ADF8000010208DF80300032038
:102810008DF802006946F148FDF76EFEC021EF48D1
:10282000FDF717FF08BD10B5EC48006820F07040B8
:10283000EA4908600846006840F0405008600120FE
:10284000E7490860E749C1F898010420FFF717FE3F
:102850000020E34908600420FFF711FE0020E14951
:10286000C1F8980110BD10B5DC48006820F0704038
:10287000DA4908600846006840F0405008600020CF
:10288000D749091F0860D749C1F89C010420FFF708
:10289000F6FD0120D249091F0860D249C1F89C0108
:1028A0000420FFF7ECFD10BD10B50024CB480068F4
:1028B00020F07040C94908600846006840F00040B8
:1028C00008600120C6490860FFF7D9FD0120C5490D
:1028D000C1F89801FFF7D3FD07E0601CC4B2FA2CE1
:1028E00003DDFFF7C0FF012010BDBD488038006840
:1028F0000028F2D1BA49091F086000BFF4E710B5FB
:102900000020B749091F0860B448006820F07040F3
:10291000B24908600846006840F040500860002056
:10292000B049C1F89C010220FFF7A9FD0120AC4984
:10293000091F08600220FFF7A2FD0020A949C1F885
:10294000980110BD10B50020A549091F0860A348D3
:10295000006820F07040A14908600846006840F017
:102960004050086001209F49C1F89C010220FFF7F8
:1029700086FD01209A49091F08600220FFF77FFDAC
:1029800000209849C1F8980110BD70B504469348DD
:10299000006820F07040914908600846006840F0E7
:1029A0004050086000208E49091F0860002517E08C
:1029B000E0098B4908606006040E0220FFF75FFD06
:1029C00001208849C1F898010220FFF758FD002036
:1029D0008349091F08600220FFF751FD681CC5B23A
:1029E000082DE5DB70BD70B5054600247B48006806
:1029F00020F07040794908600846006840F00040C7
:102A00000860002617E000207549091F08600220B1
:102A1000FFF735FD01207349C1F898016006040EE7
:102A20006F488038006808B1601CC4B20120FFF70D
:102A300026FD701CC6B2082EE5DB15B9FFF782FF34
:102A400001E0FFF75CFF204670BD10B5FFF7D4FE34
:102A500010BD70B504460026FFF7E5FE2546E117D8
:102A600004EB11610912A02202EB4101C8B2FFF789
:102A70008CFFFFF719FFE11704EB11610912A4EBBA
:102A80000121C8B2FFF781FFFFF70EFFFFF7CBFE72
:102A9000A120FFF77AFFFFF707FF0020FFF7A3FF52
:102AA0000646FFF7E0FE304670BD70B504460E46A0
:102AB000FFF7B9FE2546E11704EB11610912A022C8
:102AC00002EB4101C8B2FFF760FFFFF7EDFEE1172F
:102AD00004EB11610912A4EB0121C8B2FFF755FF05
:102AE000FFF7E2FE3046FFF750FFFFF7DDFEFFF78E
:102AF000BAFE0A20FFF79CFC70BD2DE9F0410546A7
:102B00000E461746002409E0E20026FA02F2D1B28E
:102B10002A1990B2FFF7C9FF601CC4B2BC42F3DBB4
:102B2000BDE8F0812DE9F04107460C46002600255E
:102B300009E036023919491B491E88B2FFF789FF9F
:102B40000644681CC5B2A542F3DB3046BDE8F081FF
:102B500010B5FF20FFF77DFF0446552C01D1002062
:102B600010BD5521FF20FFF7A0FFFF20FFF771FFE9
:102B70000446552C01D10020F2E70120F0E770B5A2
:102B800006460C46154608E03046721C96B2FFF722
:102B900060FF04F8010B681E85B2002DF4D170BDF2
:102BA00070B505460C46164606E021782846FFF724
:102BB0007CFF681C85B2641C301EA6F101018EB238
:102BC000F3D170BD70B505460C4621122846FFF7BB
:102BD0006CFFE1B2681CFFF768FF70BD000C01409C
:102BE0009C8121420080214210B50446072C23D24B
:102BF000DFE804F02204090E13181D0002216F48BB
:102C0000FDF727FD19E004216C48FDF722FD14E0D3
:102C100008216A48FDF71DFD0FE010216748FDF708
:102C200018FD0AE020216548FDF713FD05E040216D
:102C30006248FDF70EFD00E000BF00BF10BD08B503
:102C400001214020FDF714FF7E20ADF80000022096
:102C50008DF8020010208DF8030069465748FDF7F3
:102C60004BFC7E215548FDF7F6FC0620FFF7BCFF24
:102C700008BD08B501210820FDF7FAFE012140201A
:102C8000FDF7F6FE01211020FDF7F2FE4FF448702B
:102C9000ADF8000002208DF8020010208DF803002E
:102CA00069464748FDF728FC0120ADF800000220E6
:102CB0008DF8020010208DF8030069463F48FDF7AB
:102CC0001BFC4FF48040ADF8000002208DF802009C
:102CD00010208DF8030069463A48FDF70DFC08BD49
:102CE00010B50446BCB120213548FDF7B2FC4FF4C5
:102CF00080713348FDF7ADFC4FF400713048FDF7AB
:102D0000A8FC01212D48FDF7A4FC4FF480412D487B
:102D1000FDF79FFC16E020212948FDF79CFC4FF4AD
:102D200080712748FDF797FC4FF400712448FDF7A8
:102D300092FC01212148FDF78EFC4FF4804121488F
:102D4000FDF789FC10BD10B50446072C23D2DFE83F
:102D500004F02204090E13181D0002211748FDF784
:102D60007AFC19E004211548FDF775FC14E00821F0
:102D70001248FDF770FC0FE010211048FDF76BFCC6
:102D80000AE020210D48FDF766FC05E040210B48D4
:102D9000FDF761FC00E000BF00BF10BD10B50821C9
:102DA0000648FDF749FC20B108210448FDF753FC13
:102DB00003E008210148FDF74CFC10BD001801405C
:102DC000000C01400010014008B5FF20ADF80000E4
:102DD00010208DF8030003208DF802006946FE489C
:102DE000FDF78AFB08BD08B5FF20ADF800004820BC
:102DF0008DF803006946F848FDF77EFB08BD10B565
:102E0000F548FDF715FCC4B2204610BD10B5FFF71C
:102E1000DBFFFF21F048FDF71EFC40F2EE20FFF73C
:102E20002EFBFF21EC48FDF714FC0120FFF727FBE8
:102E300010BD10B50024FFF7D6FF04E0601CC4B23B
:102E40000120FFF71CFBFFF7DAFF08B1C82CF5DB08
:102E5000C82C01DB012010BD002404E0601CC4B2BA
:102E60000120FFF70CFBFFF7CAFFFF2801D0F02C71
:102E7000F4DBF02C01DB0120EDE70020EBE708B5E7
:102E800001212020FDF7F4FDFF20ADF80000102007
:102E90008DF8030002208DF802006946CE48FDF748
:102EA0002BFBFFF7B3FFFFF7C4FFC0B208BD70B53F
:102EB0000446FFF789FF002522E004F001066410B4
:102EC00076B1FF21C448FDF7C6FB0520FFF7D7FA0E
:102ED000FF21C148FDF7BDFB3C20FFF7D0FA0DE014
:102EE000FF21BD48FDF7B7FB3C20FFF7C8FAFF21E3
:102EF000B948FDF7AEFB0520FFF7C1FA681CC5B263
:102F0000082DDADB70BDF8B50746002603208DF8E2
:102F10000200082F2FD2DFE807F0042F5A85AFDA1E
:102F2000FEFD002425E08020ADF8000010208DF883
:102F300003006946A848FDF7DFFA8021A648FDF79F
:102F40008AFB0220FFF79BFA48208DF803006946B0
:102F5000A148FDF7D1FA80219F48FDF760FB0546A7
:102F600005FA04F03043C6B22D20FFF788FA601C42
:102F7000C4B2082CD7DB2EE1002425E04020ADF8B8
:102F8000000010208DF8030069469348FDF7B4FA5D
:102F900040219148FDF75FFB0220FFF770FA4820BF
:102FA0008DF8030069468C48FDF7A6FA40218A484F
:102FB000FDF735FB054605FA04F03043C6B22D2077
:102FC000FFF75DFA601CC4B2082CD7DB03E10024D4
:102FD00025E02020ADF8000010208DF803006946A0
:102FE0007D48FDF789FA20217B48FDF734FB02205C
:102FF000FFF745FA48208DF8030069467648FDF74B
:103000007BFA20217448FDF70AFB054605FA04F017
:103010003043C6B22D20FFF732FA601CC4B2082C30
:10302000D7DBD8E0002424E01020ADF800008DF8B4
:10303000030069466848FDF75FFA10216648FDF70E
:103040000AFB0220FFF71BFA48208DF803006946AF
:103050006148FDF751FA10215F48FDF7E0FA054697
:1030600005FA04F03043C6B22D20FFF708FA601CC1
:10307000C4B2082CD8DBAEE0002425E00820ADF86F
:10308000000010208DF8030069465348FDF734FA1C
:1030900008215148FDF7DFFA0220FFF7F0F9482038
:1030A0008DF8030069464C48FDF726FA08214A4886
:1030B000FDF7B5FA054605FA04F03043C6B22D20F7
:1030C000FFF7DDF9601CC4B2082CD7DB83E00024D5
:1030D00028E00420ADF8000010208DF803006946B8
:1030E0003D48FDF709FA04213B48FDF7B4FA0220F8
:1030F000FFF7C5F948208DF8030069463648FDF70B
:10310000FBF904213448FDF78AFA054605FA04F074
:10311000304301E034E008E0C6B22D20FFF7AFF9FC
:10312000601CC4B2082CD4DB55E0002425E002204A
:10313000ADF8000010208DF8030069462648FDF721
:10314000DBF902212448FDF786FA0220FFF797F900
:1031500048208DF8030069461F48FDF7CDF902218C
:103160001D48FDF75CFA054605FA04F03043C6B287
:103170002D20FFF784F9601CC4B2082CD7DB2AE0AD
:10318000002425E00120ADF8000010208DF8030098
:1031900069461148FDF7B0F901210F48FDF75BFAC8
:1031A0000220FFF76CF948208DF8030069460A48B1
:1031B000FDF7A2F901210848FDF731FA054605FAA5
:1031C00004F03043C6B22D20FFF759F9601CC4B299
:1031D000082CD7DB00BF01E00014014000BF3046DF
:1031E000F8BD2DE9F05FFFF711FEFFF722FECC20BE
:1031F000FFF75DFE4420FFF75AFEFFF707FEFFF7DB
:1032000018FECC20FFF753FEBE20FFF750FE00242F
:103210002FE02046FFF777FE81462046FFF773FE3A
:103220000646300205B245EA0905002D10DAE843EA
:10323000401C00F0C7FE074600229B4B00F0D3FD68
:10324000824600F0F1FE00B2984921F814000EE029
:10325000284600F0B7FE82460022934B00F0C3FDE3
:10326000074600F0E1FE00B2904921F81400601C0E
:10327000C4B2082CCDDBBDE8F09F08B501211020B9
:10328000FDF7F6FB4FF48050ADF8000010208DF8EC
:10329000030002208DF8020069468548FDF72CF9ED
:1032A0004FF480518248FDF7D4F908BD08B54FF4BA
:1032B0008050ADF8000048208DF8030069467C4836
:1032C000FDF71AF908BD08B54FF48050ADF80000BD
:1032D00010208DF8030003208DF802006946744821
:1032E000FDF70AF908BD10B5FFF7EDFF4FF4805167
:1032F0006F48FDF7B0F940F2EE20FFF7C0F84FF449
:1033000080516B48FDF7A5F90F20FFF7B8F810BD05
:1033100010B50024FFF7CAFF04E0601CC4B201200E
:10332000FFF7ADF84FF480516148FDF778F908B127
:10333000642CF2DB642C01DB012010BD002404E0CE
:10334000601CC4B20120FFF79AF84FF4805158482E
:10335000FDF765F908B9F02CF2DBF02C01DB012058
:10336000EBE70020E9E710B5FFF7ADFF4FF4805120
:103370004F48FDF770F90A20FFF781F8FFF796FF35
:103380004FF480514A48FDF74AF9012801D1012440
:1033900000E000242D20FFF772F8204610BD70B524
:1033A0000026002408E0FFF7DEFF054605FA04F0DA
:1033B0003043C6B2601CC4B2082CF4DB304670BD8A
:1033C00070B50446FFF77FFF002526E004F00106F4
:1033D000641086B14FF480513548FDF73CF9082060
:1033E000FFF74DF84FF480513148FDF732F93A209C
:1033F000FFF745F80FE04FF480512D48FDF72BF90A
:103400004620FFF73CF84FF480512948FDF721F999
:103410000220FFF734F8681CC5B2082DD6DB70BD5A
:1034200010B5FFF760FFFFF773FFCC20FFF7C8FF71
:103430004420FFF7C5FF10BD10B5FFF71EFFFFF7D3
:1034400052FFFFF765FF10BD2DE9F05FFFF74BFF5F
:10345000FFF75EFFCC20FFF7B3FF4420FFF7B0FF7C
:10346000FFF741FFFFF754FFCC20FFF7A9FFBE2075
:10347000FFF7A6FFFFF793FF8246FFF790FF814615
:103480004FEA092004B244EA0A04204600F09AFDFB
:1034900007460022044B00F0A6FC054600F00FFE94
:1034A00083465846BDE8F09F0000E43FEE00002050
:1034B0000010014000B58BB00A2201A90020FFF7DF
:1034C0005EFB9DF805009DF8041000EB012000B2A2
:1034D000124948839DF807009DF8061000EB012073
:1034E0000E4908839DF809009DF8081000EB0120A3
:1034F00000B20A49C8829DF80B009DF80A1000EB43
:103500000120064988829DF80D009DF80C1000EB03
:103510000120024988830BB000BD0000000100209B
:103520002DE9F04F8FB083468A46C449B1F91600A1
:1035300000F03AFD0746C24900F070FB064600F075
:10354000ABFDCDE90A01584600F04DFDCDE906017D
:1035500000F05EFF8046BB4ABB4B00F044FC0646D1
:103560004FF03332B94B00F038FCCDE90801DDE90A
:103570000A2300F091FB04460022B54B00F033FC17
:10358000CDE90C0100F050FD00B2AC49C880888A3A
:1035900000F029FDCDE90801504600F024FD044665
:1035A000AC4AAD4B00F01FFCCDE90401504600F0E1
:1035B0001AFD04460D46504600F015FDA74AA84BDB
:1035C000CDE9000100F00FFC064622462B4600F034
:1035D0000AFCCDE90201DDE9042300F05DFBCDE941
:1035E0000601DDE9082300F0FEFB804600229D4B2A
:1035F00000F06BFC0022964BCDE90A0100F0F3FBD2
:10360000CDE90C0100F02FFD8C4908810FB0BDE819
:10361000F08F2DE9F84F94484089944909888842F1
:1036200003DD91484089914908808F48008890497E
:103630000988884203DD8C4800888D4908808A48C3
:1036400080888C490988884203DD874880888949B9
:10365000088089480088401C8749088008460088FF
:10366000B0F5006F46D100200880814801887F486E
:103670000088FFF755FF7C49C88800F09EFC834610
:103680004FF08B4100F0CAFA824600F005FD064675
:103690004FF06632794B00F0A6FB80460022784B53
:1036A00000F0A1FB044600F0DEFC6449888071480C
:1036B000008800F082FC009000F0EEFC82464FF0A3
:1036C00066326E4B00F08FFB064600226D4B00F019
:1036D000FCFB804600226C4B00F085FB044600F0AA
:1036E000C2FC5649888100206049088060490880F2
:1036F00060490880BDE8F88F10B55048B0F9060061
:103700004E49B1F91A10884214DD60480088401C07
:103710005E4908800846008841F28831884213DB00
:1037200000205A4908804548408840F0100043492D
:10373000488009E0002055490880404840884FF6FD
:10374000EF7108403D4948803C4800890A2190FBC0
:10375000F1F03A49098B884214DD4C484088401CFE
:103760004A4948800846408841F28831884213DB44
:103770000020464948803148408840F008002F49E1
:10378000488009E00020414948802C4840884FF695
:10379000F7710840294948802849888B00F00DFCC2
:1037A000044626480169204600F0A6FC17D2374897
:1037B0008088401C354988800846808841F28831DD
:1037C000884219DB0020314988800420FFF70CFA79
:1037D0001A48408840F00100184948800CE0042055
:1037E000FFF7B1FA002029498880144840884FF635
:1037F000FE710840114948801048408818B10120E6
:103800000E49088002E000200C49088010BD10B568
:103810001F480088401C1E49088008460088B0F5F3
:10382000FA7F0ADB00200880FFF7DBFC1949B1F9B9
:103830000C0000F0B9FB0149086110BD0001002037
:1038400000002041FBCBEEC9C3821E4033434F40F2
:103850000000244067D5E76A2BF6873F2D431CEB19
:10386000E2360A3F00408F40780000205E000020D2
:1038700060000020620000205C00002066660A40B4
:10388000000059400000B040000054406400002097
:103890006C000020EE00002010B5A8480078FF283A
:1038A0007DD1A6484078052819D1A4488078012800
:1038B00016D1A2480079A149C97800EB012000B2D5
:1038C0009F4948839D48C1780020FFF7EEF8052006
:1038D000FEF7AEFD994801790120FFF7E6F87DE09B
:1038E00096488078022815D1944800799349C97880
:1038F00000EB0120924908839048C1780220FFF72D
:10390000D4F80520FEF794FD8C4801790320FFF7D9
:10391000CCF863E089488078032816D1874800797D
:103920008649C97800EB012000B28549C8828348E6
:10393000C1780420FFF7B9F80520FEF779FD7F482C
:1039400001790520FFF7B1F848E07C488078042829
:1039500015D17A4800797949C97800EB0120784976
:1039600088827648C1780620FFF79FF80520FEF789
:103970005FFD724801790720FFF797F82EE06F4846
:10398000807805282AD16D4800796C49C97800EB08
:1039900001206B4988836948C178082000E00AE06B
:1039A000FFF783F80520FEF743FD644801790920FD
:1039B000FFF77BF812E061480078012805D1FFF796
:1039C0008FF90120FFF710F908E05C48007828B96A
:1039D0000020FFF785F90120FFF7B5F910BD10B5FC
:1039E0005748007857490870554840880012487079
:1039F000534880788870524880880012C8705048B8
:103A0000007908714E48C088000A48714C48807996
:103A100088714B4800890012C8714948007A0872C1
:103A200047484089001248724548807A8872444865
:103A300080890012C8724248007B087340490869B7
:103A400000F0DEFA000A3F4948733D49086900F07A
:103A5000D7FA3C4988733A48408B000AC873384803
:103A6000807E08743648008B001248743448007E0B
:103A700088743348C08A000AC8743148807D08754C
:103A80002F48808A001248752D48007D88752C4883
:103A9000808B0012C8752A48007F087610BD3EB59D
:103AA0004FF44270FEF7DEF802909DF8080010B166
:103AB000222840D107E0002323480288022118462B
:103AC000FEF786F937E04FF40270FEF7CBF800F00E
:103AD000040020B104214FF40270FEF7A4F81B4843
:103AE0000088401C194908800846008840F6B83113
:103AF00088420DDB002015490880FFF770FF14484D
:103B00000088144B19220F4900900020FEF7F8FAA4
:103B10000020FDF7B9FE0446002C0BDD0C4801AB7C
:103B20002246064900900020FEF770FBFFF7B4FE26
:103B3000FFF734F900BF00BF3EBD000020010020A8
:103B40000001002040010020500000206E000020F5
:103B50005600002052000020D2B201E000F8012BF4
:103B6000491EFBD270470022F6E710B513460A46FD
:103B700004461946FFF7F0FF204610BD30B5054654
:103B80002A460B4612F8010B13F8014B08B1A0426C
:103B9000F8D01CB1002802D06D1CF1E7284630BDDA
:103BA00010B5044604E00B7800F8013B03B1491C52
:103BB000521EF8D2204610BD421C10F8011B0029ED
:103BC000FBD1801A7047034611F8012B00F8012B36
:103BD000002AF9D11846704770B50F4D00B9286812
:103BE000002412E00A4602E09E4203D0521C1378E1
:103BF000002BF9D1DAB2224305D02BB124B1002138
:103C000000F8011B04E00446401C0678002EE9D1B0
:103C10002860204670BD00007000002030B480EAAB
:103C2000010202F0004530F0004221F0004013D0C4
:103C300090B1C30DD40DC2F31601C0F31600E41AFF
:103C400041F4000140F400027D34914201D3641C30
:103C500000E04900002C02DA30BC002070474FF42D
:103C600000000023914201D3891A034340084FEA20
:103C70004101F7D151B1914202D14FF0004105E02D
:103C800002D24FF0010101E06FF0010103EBC450DB
:103C9000284430BC00F06BBA2DE9FE4F804681EA23
:103CA0000300C00F0C46009021F0004123F00045B6
:103CB000B8EB0200A94105D24046214690461C4679
:103CC0000B46024623F00040104347D0270DC7F3B0
:103CD0000A00C3F30A510290401A019040286BDA9F
:103CE000C3F3130040F4801B0098924620B10023D8
:103CF000D2EB030A63EB0B0B01985946C0F140026B
:103D0000504600F003FA06460D4650465946019AC1
:103D100000F01BFA10EB08006141002487EA115201
:103D200084EAE7731A4340D0009A62B3019A012AE9
:103D30004FEA075215DC001B61EB02014FF0004215
:103D400002EA0752CDE90042001C41F580113246DB
:103D50002B4600F052FA03B0BDE8F08F40462146F2
:103D6000F9E7001B61EB0201001C41F5801300180C
:103D70005B412018A2F5001747EB030140EAD5701C
:103D8000B6196D4111E06D084FEA360645EAC07577
:103D90004FEA0752001B61EB0201001C41F5801144
:103DA00049084FEA30000019514132462B4603B012
:103DB000BDE8F04F00F012BA009801224000002345
:103DC000D0EB020263EBE073009821464FEAE07407
:103DD000B8EB000061EB0401E9E783F000435BE727
:103DE00081F0004158E72DE9FE4F81EA030404F019
:103DF000004421F0004100944FF0000B23F00043F9
:103E000050EA01045ED052EA03045BD0C3F30A54C3
:103E1000C1F30A552C44A4F2F3340194A0FB0254DC
:103E2000C1F3130141F48011C3F3130343F480136E
:103E300001FB024400FB034E840A970A44EA8154C2
:103E400047EA8357A4FB076802958D0A05FB07859F
:103E50004FEA932C04FB0C542705029D4FEA0658A9
:103E600047EA1637B5EB08056EEB070C870E920E86
:103E700047EA811742EA8312A7FB0201B6EB0B0166
:103E800064EB00042B0D43EA0C335E1844EB1C502A
:103E9000DA465146E7FB0201C5F313044FEA0B3340
:103EA00043EA14534FEA0432019C43EA0603A4F1A7
:103EB0000C040294009CCDE900B400F09EF903B01C
:103EC000BDE8F08F00200146F9E72DE9F04D81EAC9
:103ED000030404F0004B21F0004514464FF0000AA3
:103EE00023F0004150EA050220D054EA01021DD01F
:103EF000C5F30A570246C5F31303C1F31300C1F318
:103F00000A5640F4801543F48013A7EB0608101BF3
:103F1000D64608F2FD3873EB050002D308F101081C
:103F200001E092185B41B8F1000F03DA002001466E
:103F3000BDE8F08D00204FF48011064684460EE067
:103F4000171B73EB050705D3121B63EB0503064331
:103F50004CEA010C49084FEA300092185B4150EAE4
:103F60000107EDD152EA030012D082EA040083EA8D
:103F70000501084305D0101BAB4106D201220023E6
:103F800006E000224FF0004302E06FF00102531000
:103F90001AEB06004CEB085110EB0A0041EB0B0149
:103FA000BDE8F04D00F01AB9C10F80EAE070084496
:103FB000CA079623002100F0E3B896230022114699
:103FC00000F0DEB80EB5C10F80EAE0700844CA0701
:103FD000002140F233438DE80E000A460B4600F004
:103FE0000CF903B000BD0EB540F23341029100213F
:103FF000CDE900110A460B4600F0FFF803B000BD02
:1040000020F00040C10DC0F3160040F400007F29ED
:1040100001DA00207047962903DCC1F19601C840FF
:10402000704796398840704770B5C1F30A5201F065
:1040300000450024C1F3130140F2FF3341F4801125
:104040009A4201DA002070BD40F233439A42A2F254
:10405000334203DC524200F068F800E090402C4309
:10406000F1D0404270BDC1F30A5210B5C1F3130143
:1040700040F2FF3341F480119A4201DA002010BD72
:1040800040F233439A42A2F2334203DC524200F040
:104090004CF810BD904010BD00F0004230F00040E0
:1040A0000AD0C10D01F56071C0F3160042EA01515A
:1040B000C20840071143704700200146704701F0D5
:1040C000004330B421F0004150EA010206D00A0D4D
:1040D000A2F56072C1F31301002A02DC30BC00209B
:1040E0007047440F44EAC104C100E01830BC00EB43
:1040F000C25000F03CB80000002801DBC0F10040D5
:10410000002901DBC1F1004181427047202A04DB14
:10411000203A00FA02F1002070479140C2F12003DA
:1041200020FA03F3194390407047202A04DB203A19
:1041300021FA02F00021704721FA02F3D040C2F1C7
:1041400020029140084319467047202A06DBCB170E
:10415000203A41FA02F043EAE07306E041FA02F342
:10416000D040C2F12002914008431946704700290F
:10417000A8BF7047401C490008BF20F001007047ED
:1041800010B4B0FA80FC00FA0CF050EA010404BF4D
:1041900010BC704749B1CCF1200421FA04F411FAA3
:1041A0000CF118BF012121430843A3EB0C01CB1DE7
:1041B0004FEA00614FEA102042BF002010BC704758
:1041C00000EBC35010440029A4BF10BC7047401C32
:1041D000490008BF20F0010010BC704710B5141E44
:1041E00073F1000408DA401C41F1000192185B41B0
:1041F0001A4301D120F0010010BD2DE9F04D924687
:104200009B4611B1B1FA81F202E0B0FA80F220329D
:104210009046FFF77BFF04460F4640EA0A0041EA5A
:104220000B0153465A46084313D0114653EA010086
:1042300019D0C8F140025046FFF777FF05460E46F9
:10424000504659464246FFF761FF084305D001201A
:1042500004E020463946BDE8F08D0020054346EADB
:10426000E0762C4337430A986305E40AA0EB080084
:104270000022FD0A44EA47540A3002D500200146D4
:10428000E9E7010510196941DDE9084500196941AF
:10429000BDE8F04DA2E770B521F0004303430CD018
:1042A000C1F30A550024D5EB040564EB0403D617CB
:1042B000AD1AB34102DB0020014670BD201841EB6E
:1042C000025170BD30B5041E71F1000404DB4FF0E3
:1042D0000044404264EB0101141E73F1000405DB4D
:1042E0001C464FF00043524263EB04038B4208BF6D
:1042F000824230BD064C074D06E0E06840F0010305
:1043000094E8070098471034AC42F6D3FBF714FF4B
:10431000B0470008D04700082DE9F0414F1E00EBE0
:10432000C7010446D1E9000115461E4637F00602D2
:104330000DD02A463346FFF756FD7F1E04EBC70318
:10434000D3E90023FFF7A8FC37F00602F1D1022FD2
:1043500025D0042F13D0062F18BFBDE8F0812A46C0
:104360003346FFF740FDD4E90A23FFF795FC2A46C0
:104370003346FFF738FDD4E90823FFF78DFC2A46C2
:104380003346FFF730FDD4E90623FFF785FC2A46C4
:104390003346FFF728FDD4E90423FFF77DFC2A46C6
:1043A0003346FFF720FDD4E90223FFF775FC2A46C8
:1043B0003346FFF718FDD4E90023BDE8F041FFF7CD
:1043C0006BBC00000022134610460149FFF77DBD7B
:1043D0000000F03F0122FFF75EBF002213461046A7
:1043E0001146FFF772BD02E008C8121F08C1002A7B
:1043F000FAD170477047002001E001C1121F002A66
:10440000FBD170470149086070470000740000202C
:104410002DE9F04DC84A002490B0914205DA21F010
:104420000043934201D805D120B110B0BDE8F04D52
:10443000FFF7D0BFB1F5801F1BDA53EA000209D0A5
:10444000002911DA0120FFF7DDFF10B0BDE8F04DC3
:10445000FFF7C3BF0220FFF7D5FFFFF7B3FF10B090
:1044600081F00041BDE8F08D6FF035043622FFF792
:1044700012FF04EB2152C1F31308B049A2F2FF333B
:10448000414401F4801282F07F6103EB225281F0FB
:104490004051009241EA08010022A94BFFF79DFC20
:1044A000044608F10200A74EC0F313000D467E44F7
:1044B000032867D2D6E900232046FFF703FF1ED169
:1044C0000098002802BFD6E9000110B0BDE8F08DC9
:1044D000FFF778FD07460C469B4A9C4BFFF783FC91
:1044E00006460D469A4A9B4B38462146FFF77BFC11
:1044F00010B032462B46BDE8F04DFFF7CDBB4FF074
:104500005532954B20462946FFF76DFC0022934B10
:10451000FFF766FC06460F4622462B461046194614
:10452000FFF761FC32463B46FFF75DFC064600980C
:104530000F46F0B1FFF746FD80468A46824A834B1C
:10454000FFF751FC32463B46FFF74AFC22462B461A
:10455000FFF743FC05460C467D4A7E4B40465146DC
:10456000FFF741FC10B02A462346BDE8F04DFFF7A7
:1045700034BC0B4610B0324620462946BDE8F04D0B
:10458000FFF72BBC00224FF080432046FFF784FB4F
:1045900002460B4620462946FFF797FC06460F4683
:1045A0000098FFF70FFDCDE9040132463B46104667
:1045B0003946FFF718FC0C9069480C9A404401906A
:1045C00009910B461046FFF70EFC824602466548ED
:1045D0008B46C8F151080B4608F5D72803217844CB
:1045E000FFF79AFE52465B46FFF7FDFB0A905E48D6
:1045F0000D9152465B4604217844FFF78DFE099BDE
:104600000C9AFFF7F0FB844601980D9B40EA0808DE
:1046100060460A9AFFF740FB83460891B8F1000F05
:104620004EDD4FF0FF3220462946FFF734FE22468A
:104630002B46FFF7D8FB804600988A4660B3DDE939
:104640000401414A414BFFF7CEFB099100905A46C5
:1046500040465146089BFFF71FFB32463B46FFF79B
:10466000C2FB099B009AFFF717FB42465346FFF730
:10467000B7FB22462B46FFF7B0FB04460D46DDE9AB
:104680000401334A334BFFF7AEFB10B022462B46F2
:10469000BDE8F04DFFF7A1BB5A464046089BFFF727
:1046A000FBFA32463B46FFF79EFB42465346FFF776
:1046B00097FB10B022462B46BDE8F04DFFF790BBAC
:1046C000009840B3DDE904011F4A204BFFF78BFB44
:1046D00080468A465A4620462946089BFFF77DFBBE
:1046E00032463B46FFF77FFB42465346FFF775FBDA
:1046F00022462B46FFF771FB04460D46DDE9040117
:10470000134A144BFFF76FFB10B022462B46BDE84F
:10471000F04DFFF762BB0B465A4620462946FFF78D
:104720005CFB32463B46FFF75EFB10B022462B4651
:10473000BDE8F04DFFF754BB0000F07F645F090057
:104740000000F03FF6020000763C7935EF39EA3D93
:104750000000E0FE422EE63F5555D53F0000E03F09
:1047600086EBF9FF8E0100008C01000000000000C4
:1047700004FA97999999D93FAF788E1DC571CC3FAE
:104780009FC678D0099AC33F935555555555E53F77
:10479000599322942449D23FDE03CB966446C73F07
:1047A00044523EDF12F1C23F000000000000000052
:1047B000D04700080000002078000000E643000811
:1047C0004848000878000020F0040000F643000884
:1047D00000A24A04000000000000000001020304DF
:1047E0000607080900000000010203040102030497
:1047F0000607080902040608020202020202020277
:104800000202020202020202050008DC111111C0BC
:10481000A80165FFFFFF00C0A8010172727272005B
:104820008813C0A801648813000000000000000085
:104830000000000000000000000000000000000078
:08484000000000000000000070
:0400000508000131BD
:00000001FF
