:020000040800F2
:1000000080910020C501000811260008311A00085F
:100010000D260008F10C00086B40000800000000ED
:100020000000000000000000000000002D3100086A
:10003000BD17000800000000C9260008753300083D
:10004000DF010008DF010008DF010008DF01000810
:10005000DF010008DF010008DF010008DF01000800
:10006000DF010008DF010008DF010008DF010008F0
:10007000ED0F0008DF01000821100008DF01000873
:1000800071110008C5110008DF010008DF01000838
:10009000DF010008DF010008DF010008DF010008C0
:1000A000DF010008DF010008DF010008DF010008B0
:1000B00015350008DF010008DF010008DF01000836
:1000C000DF010008DF010008DF010008DF01000890
:1000D000DF010008793A00081D3D0008D93D0008FD
:1000E000DF010008DF010008DF010008DF01000870
:1000F000DF010008DF010008DF010008DF01000860
:10010000DF010008DF010008DF010008DF0100084F
:10011000DF010008DF010008DF010008DF0100083F
:10012000DF010008DF010008DF010008DF0100082F
:10013000DF010008DF010008DF010008DF0100081F
:10014000DF010008DF010008DF010008DF0100080F
:100150003D120008DF01000871120008DF010008ED
:10016000DF010008DF010008DF010008DF010008EF
:10017000DF010008DF010008DF010008DF010008DF
:10018000DF010008DF010008DF010008DF010008CF
:10019000DF010008DF010008DF010008DF010008BF
:1001A000DF010008DF010008DF010008DFF810D0E0
:1001B00000F056FB004800476B5C0008AFF300807E
:1001C000809100200648804706480047FEE7FEE78A
:1001D000FEE7FEE7FEE7FEE7FEE7FEE7FEE7FEE7F7
:1001E00079330008AD01000840EA01039B0703D002
:1001F00009E008C9121F08C0042AFAD203E011F866
:10020000013B00F8013B521EF9D27047D2B201E027
:1002100000F8012B491EFBD270470022F6E710B50B
:1002200013460A4604461946FFF7F0FF204610BD64
:1002300030B504460020034600E05B1C934203D225
:10024000E05CCD5C401BF8D030BD2DE9FE4F804610
:1002500081EA0300C00F0C46009021F0004123F01A
:100260000045B8EB0200A94105D240462146904620
:100270001C460B46024623F00040104347D0270D92
:10028000C7F30A00C3F30A510290401A01904028B4
:100290006BDAC3F3130040F4801B0098924620B140
:1002A0000023D2EB030A63EB0B0B01985946C0F114
:1002B0004002504600F0BDF906460D4650465946EC
:1002C000019A00F0D5F910EB08006141002487EA9B
:1002D000115284EAE7731A4340D0009A62B3019A3C
:1002E000012A4FEA075215DC001B61EB02014FF0B7
:1002F000004202EA0752CDE90042001C41F580119C
:1003000032462B4600F00CFA03B0BDE8F08F4046B1
:100310002146F9E7001B61EB0201001C41F5801347
:1003200000185B412018A2F5001747EB030140EAD3
:10033000D570B6196D4111E06D084FEA360645EAF1
:10034000C0754FEA0752001B61EB0201001C41F52A
:10035000801149084FEA30000019514132462B46BE
:1003600003B0BDE8F04F00F0CCB900980122400086
:100370000023D0EB020263EBE073009821464FEAC2
:10038000E074B8EB000061EB0401E9E783F000439F
:100390005BE781F0004158E72DE9FE4F81EA030455
:1003A00004F0004421F0004100944FF0000B23F0D2
:1003B000004350EA01045ED052EA03045BD0C3F369
:1003C0000A54C1F30A552C44A4F2F3340194A0FB5F
:1003D0000254C1F3130141F48011C3F3130343F436
:1003E000801301FB024400FB034E840A970A44EA8F
:1003F000815447EA8357A4FB076802958D0A05FBE1
:1004000007854FEA932C04FB0C542705029D4FEA05
:10041000065847EA1637B5EB08056EEB070C870E52
:10042000920E47EA811742EA8312A7FB0201B6EB5C
:100430000B0164EB00042B0D43EA0C335E1844EB14
:100440001C50DA465146E7FB0201C5F313044FEA9C
:100450000B3343EA14534FEA0432019C43EA060388
:10046000A4F10C040294009CCDE900B400F058F90A
:1004700003B0BDE8F08F00200146F9E72DE9F04D0B
:1004800081EA030404F0004B21F0004514464FF0CC
:10049000000A23F0004150EA050220D054EA01028C
:1004A0001DD0C5F30A570246C5F31303C1F3130069
:1004B000C1F30A5640F4801543F48013A7EB0608F5
:1004C000101BD64608F2FD3873EB050002D308F185
:1004D000010801E092185B41B8F1000F03DA002037
:1004E0000146BDE8F08D00204FF480110646844699
:1004F0000EE0171B73EB050705D3121B63EB050317
:1005000006434CEA010C49084FEA300092185B415F
:1005100050EA0107EDD152EA030012D082EA04004A
:1005200083EA0501084305D0101BAB4106D2012226
:10053000002306E000224FF0004302E06FF00102CA
:1005400053101AEB06004CEB085110EB0A0041EB7C
:100550000B01BDE8F04D00F0D4B80EB5C10F80EA34
:10056000E0700844CA07002140F233438DE80E00D2
:100570000A460B4600F0D4F803B000BD0EB540F2B9
:10058000334102910021CDE900110A460B4600F0EB
:10059000C7F803B000BD70B5C1F30A5201F00045C1
:1005A0000024C1F3130140F2FF3341F480119A4259
:1005B00001DA002070BD40F233439A42A2F2334286
:1005C00003DC524200F044F800E090402C43F1D0AC
:1005D000404270BD00F0004230F000400AD0C10D32
:1005E00001F56071C0F3160042EA0151C2084007EC
:1005F0001143704700200146704701F0004330B4BA
:1006000021F0004150EA010206D00A0DA2F5607205
:10061000C1F31301002A02DC30BC00207047440FF4
:1006200044EAC104C100E01830BC00EBC25000F045
:1006300031B8202A04DB203A00FA02F1002070478A
:100640009140C2F1200320FA03F319439040704710
:10065000202A04DB203A21FA02F00021704721FA17
:1006600002F3D040C2F1200291400843194670477E
:10067000202A06DBCB17203A41FA02F043EAE07366
:1006800006E041FA02F3D040C2F120029140084353
:10069000194670470029A8BF7047401C490008BF91
:1006A00020F00100704710B4B0FA80FC00FA0CF0A2
:1006B00050EA010404BF10BC704749B1CCF12004DA
:1006C00021FA04F411FA0CF118BF01212143084367
:1006D000A3EB0C01CB1D4FEA00614FEA102042BF93
:1006E000002010BC704700EBC35010440029A4BF89
:1006F00010BC7047401C490008BF20F0010010BC2E
:10070000704710B5141E73F1000408DA401C41F163
:10071000000192185B411A4301D120F0010010BD85
:100720002DE9F04D92469B4611B1B1FA81F202E0FB
:10073000B0FA80F220329046FFF77BFF04460F4666
:1007400040EA0A0041EA0B0153465A46084313D0D7
:10075000114653EA010019D0C8F140025046FFF794
:1007600077FF05460E46504659464246FFF761FF61
:10077000084305D0012004E020463946BDE8F08D4D
:100780000020054346EAE0762C4337430A98630588
:10079000E40AA0EB08000022FD0A44EA47540A30AC
:1007A00002D500200146E9E7010510196941DDE99C
:1007B000084500196941BDE8F04DA2E72DE9F04D6B
:1007C00000231A461B1A8A4103DB00200146BDE8BC
:1007D000F08DC1F30A52C1F3130141F480154FF0BB
:1007E000000BD10702D100186D41521E00270446AC
:1007F00040F2FF11384601EB620A3E46804602464F
:1008000000204FF48011FFF723FFC2197141BB187C
:1008100046EB0100B4EB030C75EB000C04D3E41AB7
:1008200065EB000517460E46241908F101006D41DD
:1008300080463428E3DDF91946EB0600091BA84180
:1008400003D24FF0FF32134601E0002213461BEBA8
:10085000070046EB0A51BDE8F04DFFF752BF00001C
:10086000064C074D06E0E06840F0010394E80700FD
:1008700098471034AC42F6D3FFF79CFC88880008F8
:10088000A888000870B58D1810F8014B14F0030209
:1008900001D110F8012B231106D110F8013B03E020
:1008A00010F8016B01F8016B521EF9D1ABB110F8D1
:1008B000012B04F00C048A1A0C2C03D0A2EB841236
:1008C0009B1C08E010F8014BA2EB0422F8E712F899
:1008D000014B01F8014B5B1EF9D5A942D4D300208E
:1008E00070BD21B1826842F00102826003E082683B
:1008F00022F00102826070470021084A1168084A0C
:100900001140D0E900231A4383681A43C3681A438D
:100910001143044AC2F80413704700000423014045
:10092000E030FCFF0020014010B500F019F800F0A5
:1009300061F810BD21B1826842F48072826003E0E8
:10094000826822F480728260704721B1826842F42A
:100950000072826003E0826822F400728260704755
:100960001CB50121042002F00FF80121022002F041
:100970000BF803208DF8040000208DF807003620C6
:1009800000906946044800F01AFF01200090694673
:10099000024800F014FF1CBD0008024000040240A1
:1009A00030B50246002000235068104C20400D79DD
:1009B0000C6844EA05242043506090680C4C2040A9
:1009C000D1E903542C438D682C434D7944EA450406
:1009D00020439060D06A20F470000C7D641EE4B265
:1009E000234340EA0350D06230BD0000FFFEFFFC0D
:1009F000FDF7FFC000B599B00121880501F0C4FFE3
:100A00000121080201F0E0FF3B480B903B480C90AD
:100A100000200D9005200E9000200F904FF4806074
:100A200010904000119080001290401113904002ED
:100A30001490002015900120169000201790189017
:100A40000A900AA92E4800F063FD01212C4800F00D
:100A500057FC002000900190029003906846FFF739
:100A60004BFF0020049001208DF814008DF8150034
:100A7000002006900790089005208DF8240004A916
:100A80001D484C38FFF78CFF032301220E211A4822
:100A90004C3800F037F803230222082116484C385E
:100AA00000F030F803231A460F2113484C3800F0A9
:100AB00029F8032304220B210F484C3800F022F8B8
:100AC000032305220C210C484C3800F01BF80121AF
:100AD00009484C38FFF739FF012107484C38FFF728
:100AE00029FF012104484C38FFF7FBFE02484C382F
:100AF00000F064F819B000BD4C200140D64600203B
:100B000010640240F0B504460D4600200021092D76
:100B100011DDE068A5F10A0606EB4607072606FA8E
:100B200007F18843A5F10A0606EB460603FA06F12B
:100B30000843E0600CE0206905EB4507072606FA4C
:100B400007F1884305EB450603FA06F108432061E7
:100B5000072A0FDA606B561E06EB86071F2606FA79
:100B600007F18843561E06EB860605FA06F1084390
:100B7000606322E00D2A0FDA206BD61F06EB860792
:100B80001F2606FA07F18843D61F06EB860605FAEC
:100B900006F10843206310E0E06AA2F10D0606EBBF
:100BA00086071F2606FA07F18843A2F10D0606EB19
:100BB000860605FA06F10843E062F0BD816841F05F
:100BC00080418160704700001CB50121042001F0C4
:100BD000DBFE0121082001F0D7FE4FF4E050009029
:100BE00001208DF8040000208DF8060001208DF80A
:100BF00007008DF805006946134800F0E0FD01206C
:100C000000908DF8040000208DF8060001208DF87A
:100C100007008DF8050069460C4800F0D0FD0C482F
:100C200001880A4800F04AFE0A480188064800F098
:100C300043FE09480188044800F03EFE0748018849
:100C4000014800F039FE1CBD00080240000C0240C3
:100C5000562000205A200020582000205420002038
:100C60000246002000BF03E00B5C1354431CD8B2C3
:100C70000528F9DB7047000010B501F095FC00F085
:100C80000DF900F0CBFC02F05BFF01F0F5F805F088
:100C900011F8FFF749FE00F033F901F08FFF07F07C
:100CA00065FA1149114807F017F807F085FA0E495F
:100CB0000E4807F055F803F0AFFF4FF4FA7100202B
:100CC00000F084F94FF4FA71002000F06FF9FFF79B
:100CD0007BFF00F0F5FD02F0DBFC00F003FE01F00D
:100CE000F7FE00F07DFE10BDD8200020D0200020AF
:100CF00000BFFEE724480079401D234908710846DB
:100D000000793C283FDB084600793C2190FBF1F25A
:100D100001FB12001C4908710846C078401CC870CD
:100D20000846C07818282EDB0846C078182190FBAA
:100D3000F1F201FB12001449C87008468078401C8B
:100D40008870084680781E281DDB084680781E21A2
:100D500090FBF1F201FB12000B49887008464078C5
:100D6000401C4870084640780C280CDB0846407848
:100D70000C2190FBF1F201FB120003494870084678
:100D80000078401C087070476820002040F2DC5159
:100D9000C1800021018041800171704701460888AF
:100DA0004A88904203D1087908B901207047002091
:100DB000FCE7014608884A88904203D10879012857
:100DC00000D170470020FCE710B503460C461846DA
:100DD000FFF7E4FF10B14FF0FF3010BD198803F1A9
:100DE000080030F8110020801888401CD98890FB3A
:100DF000F1F201FB1200188058881988884201D14D
:100E000000201871198803F1080030F81100608083
:100E10001888401CD98890FBF1F201FB1200188061
:100E200058881988884201D100201871187940B279
:100E3000D3E710B503460C461846FFF7BAFF10B1CA
:100E40004FF0FF3010BD21885A8803F1080020F8C8
:100E500012105888401CD98890FBF1F201FB120057
:100E6000588058881988884201D1012018716188FA
:100E70005A8803F1080020F812105888401CD988BD
:100E800090FBF1F201FB12005880588819888842C3
:100E900001D101201871187940B2D3E71CB50121A6
:100EA000084601F071FD01208DF8040000208DF846
:100EB000060001208DF8070000208DF805000220B3
:100EC00000906946034800F07AFC0221014800F0D6
:100ED000F3FC1CBD0000024039B1084A126801232E
:100EE00083401A43054B1A6006E0044A1268012346
:100EF00083409A43014B1A60704700000074004021
:100F000000B587B00121084601F03EFD01214807E8
:100F100001F04AFD1020059003208DF818000020F4
:100F20008DF81B0005A9134800F049FC202005900E
:100F300005A9104800F043FC0020019002900490A5
:100F400001A900F019F801210020FFF7C5FF01A950
:100F5000102000F011F801211020FFF7BDFF002143
:100F6000084600F033F80021084600F01FF807B0EB
:100F700000BD00000000024030B5002200230A4CF2
:100F8000226840F6FE748440A243D1E900452C4318
:100F90008D682C43CD6844EA050303FA00F422432C
:100FA000014C226030BD00000074004008B50022F2
:100FB0000092054A009200F10802009B1A44009238
:100FC000009A116008BD00000074004008B50022BE
:100FD0000092054A009200F11402009B1A4400920C
:100FE000009A116008BD00000074004010B5094966
:100FF000094800F03DFA18B10649074800F066F9C3
:101000000649054800F034FA18B10449024800F0D6
:101010005DF910BD00880010286002400022001019
:1010200010B54B494B4800F023FAC0B14FF4FA60B9
:1010300004F074F801221021464800F04BFA4449AC
:10104000444800F043F9002043490870002141481A
:1010500000F056F94FF48041404800F02DFC404923
:101060003C4800F005FAC0B14FF4FA6004F056F8BD
:1010700001221021374800F02DFA3949354800F097
:1010800025F90020344908700021324800F038F971
:101090004FF48041314800F00FFC32492D4800F0F8
:1010A000E7F9C0B14FF4FA6004F038F801221021DA
:1010B000284800F00FFA2B49264800F007F90020D5
:1010C000254908700021234800F01AF94FF48041A7
:1010D000224800F0F1FB24491E4800F0C9F9C0B1D4
:1010E0004FF4FA6004F01AF801221021194800F0B8
:1010F000F1F91D49174800F0E9F800201649087079
:101100000021144800F0FCF84FF48041134800F02F
:10111000D3FB16490F4800F0ABF9C0B14FF4FA60A9
:1011200003F0FCFF012210210A4800F0D3F90F4917
:10113000084800F0CBF80020074908700021054856
:1011400000F0DEF84FF48041044800F0B5FB10BD1C
:1011500000800018586002407220002000140240F5
:101160000040001400200012001000110000409008
:1011700010B51149114800F07BF958B10E490F48DC
:1011800000F0A4F840200D49091D086001210B481A
:1011900000F0B6F80A49094800F06AF958B1084960
:1011A000064800F093F840200449091D0860012119
:1011B000024800F0A5F810BD0088002088600240B9
:1011C0000022002010B51949194800F051F998B1D2
:1011D0001849174800F07AF81449154800F076F8D5
:1011E0000021134800F08CF801221021104800F073
:1011F00071F90020104908700E490D4800F038F9C7
:1012000098B10C490A4800F061F80849084800F014
:101210005DF80021064800F073F80122102104480F
:1012200000F058F900200449087010BD008020200B
:10123000A0600240004010207020002010B5094935
:10124000094800F015F918B10649074800F03EF8C2
:101250000649054800F00CF918B10449024800F0AD
:1012600035F810BD0088002088640240002200206C
:1012700010B51149114800F0FBF890B14FF4FA6035
:1012800003F04CFF0C490D4800F020F800210B48FA
:1012900000F036F800200A4908700121094800F0E2
:1012A0000BFB0949054800F0E3F818B1064903486B
:1012B00000F00CF810BD000000800028B864024067
:1012C0007120002000180240004000240246094B13
:1012D0009A4201D2084801E00648103801F0005354
:1012E0001BB1064B0B40C36002E0044B0B40836014
:1012F0007047000010640240006002407D0F7D0FC7
:1013000021B1026842F00102026003E0026822F0AB
:101310000102026070470000016821F001010160D4
:101320000021016041608160C16001612121416152
:101330004A49884204D13D21484A103A91608CE0E4
:1013400046491831884205D14FF47461434A103A36
:10135000916082E041493031884205D14FF47411E7
:101360003E4A103A916078E03C494831884205D1C4
:101370004FF07461394A103A91606EE0374960313C
:10138000884204D13649354A103AD16065E0334984
:101390007831884204D13349304A103AD1605CE058
:1013A0002E499031884204D12F492C4A103AD160FD
:1013B00053E02A49A831884205D14FF03D51274AD0
:1013C000103AD16049E02949884204D13D21274A99
:1013D000083A116041E025491831884205D14FF49F
:1013E0007461224A083A116037E02049303188425E
:1013F00005D14FF474111D4A083A11602DE01B49C4
:101400004831884205D14FF07461184A083A11609A
:1014100023E016496031884204D11149134A121F52
:1014200011601AE011497831884204D10D490F4A00
:10143000121F116011E00D499031884204D10A4910
:101440000A4A121F116008E00849A831884204D1F5
:101450004FF03D51054A121F116070471060024065
:101460003D000020400F002000003D20106402409D
:1014700070B50246002000240025124EB24201D26F
:10148000114B01E00F4B103B104E0E4036B11E26A3
:1014900006EAD124166806EA040502E0566906F059
:1014A000800501F000560EB15C6800E01C68084E33
:1014B000344004EA010616B10DB1012000E000201D
:1014C00070BD000010640240006002403C0F3C0F01
:1014D0007D0F7D0F10B501F080034BB122B1436940
:1014E00043F08003436103E0436923F080034361D9
:1014F00080290BD02AB1036801F01E042343036046
:1015000004E0036801F01E04A343036010BD000063
:1015100010B500220268134B1A40CC680B682343B5
:101520004C6923438C692343CC6923430C6A2343CE
:101530004C6A23438C6A23434C6B23438C6B2343B9
:101540001A430260426922F00702D1E90B342343B7
:101550001A4342610B6943604B6883608B68C360C8
:1015600010BD00003F801CF0416070471CB5012198
:10157000082001F029FA0820009001208DF80400CD
:1015800000208DF8060001208DF8070000208DF85E
:1015900005006946034800F012F90821014800F0EF
:1015A0008DF91CBD000C02402DE9F0412DED048B9E
:1015B00000F0C0F800F060F8CC2000F0D1F8442032
:1015C00000F0CEF800F0B6F800F056F8CC2000F0AD
:1015D000C7F8BE2000F0C4F800F09AF8064600F004
:1015E00097F80546280204B234432046FEF7B5FFBB
:1015F00041EC190B9FED070B53EC102BFEF7CCFEC3
:1016000041EC180BFEF7C7FF07B23846BDEC048B60
:10161000BDE8F081FA7E6ABC7493E43F10B5FFF731
:10162000A5FF00F087F800F027F810BD1CB50820D2
:10163000009000208DF8040001208DF80700694615
:10164000014800F0BCF81CBD000C02401CB508208D
:10165000009001208DF8040000208DF80600012084
:101660008DF8070000208DF805006946014800F05C
:10167000A6F81CBD000C024010B50024FFF7D6FFF1
:1016800004E0601CC4B2012003F048FD08210F48AB
:1016900000F000F908B1642CF3DB642C01DB0120BD
:1016A00010BD002404E0601CC4B2012003F036FD2C
:1016B0000821064800F0EEF808B9F02CF3DBF02C16
:1016C00001DB0120ECE70020EAE70000000C02400B
:1016D00010B5FFF7BBFF08210C4800F0EDF80A2019
:1016E00003F01CFDFFF7A2FF022003F017FD082105
:1016F000064800F0CFF8012801D1012400E00024C1
:101700002D2003F00BFD204610BD0000000C024010
:1017100070B50026002408E0FFF7DAFF054605FA59
:1017200004F03043C6B2601CC4B2082CF4DB30466F
:1017300070BD000010B5FFF789FF0821074800F0D1
:10174000BBF840F2EE2003F0E9FC0821034800F06A
:10175000B5F80F2003F0E2FC10BD0000000C0240C1
:1017600070B50446FFF772FF002522E004F0010681
:10177000641076B10821104800F09EF8082003F0AC
:10178000CDFC08210C4800F099F83A2003F0C6FC83
:101790000DE00821084800F08FF8462003F0BEFC59
:1017A0000821054800F08AF8022003F0B7FC681C05
:1017B000C5B2082DDADB70BD000C02407047F0B5F1
:1017C0000A4600210023002400BF3DE0012505FA60
:1017D00001F3156805EA03049C4234D105684F0003
:1017E0000326BE40B543056015794E00B540066836
:1017F000354305601579012D02D01579022D16D1DA
:1018000085684F000326BE40B543856055794E007C
:10181000B540866835438560456801268E40B543EE
:101820004560456896798E40B6B235434560C568D7
:101830004F000326BE40B543C560D5794E00B54084
:10184000C6683543C560491C1029BFD3F0BDF0B54B
:10185000002300244D07ED0E02FA05F3CE1000F12F
:10186000200555F826504E07F70E0F26BE40B5430B
:10187000CF1000F1200646F82750CE1000F12005C9
:1018800055F8265045EA0304CE1000F1200545F82E
:101890002640F0BD0246002013690B400BB1012029
:1018A00000E0002070470246002053690B400BB156
:1018B000012000E00020704741837047018370479A
:1018C00010B503F043FA0A2003F028FC03F03EFAB7
:1018D0000A2003F023FC03F039FA0A2003F01EFC6F
:1018E00010BD000030B587B0002400250020049012
:1018F0000590069001900290039036490870487058
:101900008870C870087100BF5DE004A9284601F026
:10191000E7F89DF81000FF280FD09DF81100FF2870
:101920000BD09DF81200FF2807D09DF81300FF2868
:1019300003D09DF81400FF2800D147E000243DE0CB
:1019400004A8005D01A9095D884200DA38E004A816
:10195000005D01A9095D88422EDD1F480088401CFA
:101960001D49088004A901A8FFF77AF99DF8100025
:10197000184908709DF8110048709DF81200887091
:101980009DF81300C8709DF814000871084640784F
:10199000097800EB01201149A1F820010D48C07819
:1019A0000C49897800EB01200C49A1F82201094873
:1019B0000079A1F8240103E0601CC4B2052CBFDB50
:1019C00000BF681C85B2B5F5FA6F9EDB00BF07B09B
:1019D00030BD0000682000206E200020B6310020BD
:1019E00010B52DED028B9FED0F0AB0EE408A0E4828
:1019F0000078401C0C490870FFF7D6FD00EE100A75
:101A0000B8EEC00AB0EE408A07480078062805DB29
:101A10000A2005490870054880ED008ABDEC028B5C
:101A200010BD0000000000005C200020C800002065
:101A300000BFFEE721B1028842F48062028004E028
:101A400002884FF6FF331A400280704770B5024695
:101A50000024002500230020958A138B1B0445EAEF
:101A6000030626F07F4404EA01068E4201D10120DC
:101A700000E0002070BD002221F07F42D34383822A
:101A8000704721B1028842F00102028004E002881E
:101A90004FF6FE731A4002807047000070B505468D
:101AA0000E4614464FF420406549086009E0644939
:101AB0000868411E624A116018B9092000F0C3FB92
:101AC00070BD4FF400315F4800F0ECFA0028EED111
:101AD00001215C4800F0CEFA4FF48050584908606C
:101AE00009E057490868411E554A116018B90A2093
:101AF00000F0A9FBE4E754495248FFF7A7FF00288C
:101B0000EFD05248017800224E4800F092FB4FF48B
:101B100080504B49086009E049490868411E484A1D
:101B2000116018B90B2000F08EFBC9E74849454801
:101B3000FFF78CFF0028EFD001214248FFF7A1FFFB
:101B40003146404800F07DFB4FF480503C4908602E
:101B500009E03B490868411E394A116018B90C2058
:101B600000F071FBACE73A49891C3648FFF76EFF7D
:101B70000028EED00121334800F07CFA4FF4805069
:101B80002F49086009E02E490868411E2C4A11605F
:101B900018B90D2000F057FB92E72B492948FFF7B1
:101BA00055FF0028EFD0294801780122254800F090
:101BB00040FB4FF480502249086009E02049086842
:101BC000411E1F4A116018B90E2000F03CFB77E758
:101BD0001D49491C1B48FFF739FF0028EED026E0BD
:101BE000012C07D100211748FFF724FF01211548D8
:101BF00000F04CFA4FF420401149086009E0104908
:101C00000868411E0E4A116018B9032000F01BFB42
:101C100056E70D493F310B48FFF718FF0028EED07B
:101C2000084800F002FB28706D1C601E84B2002C76
:101C3000D6D101210348FFF7FDFE012040E7000057
:101C400064200020005400400100030060200020B8
:101C5000820007002DE9F04707460D4614464FF075
:101C60000008C146C24600262846E91705EB517117
:101C7000C910A5EBC10101F0FF0ACAF10800C6B204
:101C80002046E11704EB5171C1F3C708E11704EBDB
:101C90005171C910A4EBC10101F0FF09BAF1000FA5
:101CA00028D1B8F1000F07D14A462946384600F03E
:101CB000EFF800F087F960E00AE00822294638468C
:101CC00000F0E6F800F07EF905F10800C5B208372B
:101CD000B8F10000A8F1010101F0FF08EDD1B9F160
:101CE000000F4AD04A462946384600F0D1F800F0A5
:101CF00069F942E0B8F1000F07D14A462946384653
:101D000000F0C6F800F05EF937E0A01B84B2204670
:101D1000E11704EB5171C1F3C708E11704EB5171EE
:101D2000C910A4EBC10101F0FF094EB132462946AA
:101D3000384600F0ADF800F045F9A819C5B23744AF
:101D40000AE008222946384600F0A2F800F03AF9E5
:101D500005F10800C5B20837B8F10000A8F101018B
:101D600001F0FF08EDD1B9F1000F06D04A4629462F
:101D7000384600F08DF800F025F9BDE8F087000046
:101D800070B504460D460121364800F073F94FF452
:101D900080503549086009E033490868411E324ADD
:101DA000116018B9002000F04EFA70BD2F492D487F
:101DB000FFF74CFE0028EFD02D480178002229487B
:101DC00000F037FA4FF480502749086009E02649AF
:101DD0000868411E244A116018B9012000F033FA46
:101DE000E3E724491F48FFF731FE0028EFD02946DA
:101DF0001C4800F026FA4FF480501B49086009E0A7
:101E000019490868411E184A116018B9022000F0EB
:101E10001AFACAE71749891C1248FFF717FE00286B
:101E2000EED021780F4800F00CFA4FF480500E49A4
:101E3000086009E00C490868411E0B4A116018B996
:101E4000032000F000FAB0E70A49891C0548FFF7B3
:101E5000FDFD0028EED00121024800F017F9012015
:101E6000A3E70000005400406420002001000300AC
:101E7000602000208200070010B500F0CDF800F0CF
:101E8000A3F9A0200149088010BD000060200020B7
:101E900070B504460E4615464FF42040444908608C
:101EA00009E043490868411E414A116018B90420FD
:101EB00000F0C9F970BD4FF400313E4800F0F2F86F
:101EC0000028EED101213B4800F0D4F84FF48050B7
:101ED0003749086009E036490868411E344A1160F4
:101EE00018B9052000F0AFF9E4E733493148FFF7AE
:101EF000ADFD0028EFD03148017800222D4800F0D8
:101F000098F94FF480502A49086009E02849086888
:101F1000411E274A116018B9062000F094F9C9E75C
:101F200027492448FFF792FD0028EFD03146214889
:101F300000F087F94FF480501D49086009E01C4902
:101F40000868411E1A4A116018B9072000F07BF991
:101F5000B0E71B49891C1748FFF778FD0028EED031
:101F60001AE02178134800F06CF9641C4FF480509B
:101F70000F49086009E00E490868411E0C4A1160CB
:101F800018B9082000F05FF994E70D49891C094849
:101F9000FFF75CFD0028EED0281EA5F10101CDB2AF
:101FA000DFD10121034800F071F8012082E7000031
:101FB0006420002000540040010003006020002045
:101FC0008200070008B50020009000BF01210F48E3
:101FD00000F050F814210D4800F01CF900900C4856
:101FE00001780022094800F024F91421074800F084
:101FF00011F900F002000028E8D006490348FFF775
:102000003AFD0121014800F041F808BD00540040AC
:1020100060200020000400101CB50121480500F0DC
:10202000C3FC0121022000F0AFFC0422062110486D
:10203000FFF70DFC042207210D48FFF708FC4020A4
:10204000009002208DF804008DF8050001208DF825
:10205000060000208DF8070069460548FFF7AFFB32
:102060008020009069460248FFF7A9FB1CBD0000D4
:102070000004024021B1028842F48072028004E030
:1020800002884FF6FF631A400280704721B1028830
:1020900042F40072028004E002884FF6FF531A40B7
:1020A000028070470CB50246002000230193009384
:1020B00000920B0F019321F07F41019B1BB1009B0C
:1020C0001433009303E0090C009B18330093009B2A
:1020D0001B680B400BB1012000E000200CBD00008C
:1020E0002DE9FF4704460D460026B1460427DFF8D8
:1020F000CC80A6884FF6C0700640684600F074FC9D
:10210000DDF808802E48B8FBF0F01FFA80F946EAA7
:102110000906A68020884FF6FE7108402080002620
:102120002849286888420CD828684000B8FBF0F09D
:1021300087B2042F00DA04273E4309F1010020840E
:1021400027E0E8884BF6FF71884206D1286800EB4B
:102150004000B8FBF0F087B209E0286800EBC0014E
:1021600001EB0010B8FBF0F087B247F48047C7F3EB
:102170000B0008B947F0010747F4004006434FF44D
:10218000967009FB00F04FF47A7190FBF1F0401C5F
:102190002084A683208840F00100208026884FF606
:1021A000F5300640A8886989084306432680A88937
:1021B000298908432081BDE8FF87000000127A00CA
:1021C00040420F00A08601001FB50020ADF80400BA
:1021D0004BF6FF70ADF806000A20ADF808004FF48A
:1021E0008060ADF80A000001ADF80C0007480090CF
:1021F00069460748FFF774FF01210548FFF741FCD6
:1022000001210348FFF716FC1FBD0000801A0600DD
:102210000054004008B5024600200090009200984B
:10222000084400900098008808BD0146088AC0B2A2
:10223000704712B141F0010101E001F0FE0101829D
:10224000704701827047014600207047F0B5AFB07B
:1022500007460C4616462078722828D160786528F3
:1022600025D1A078612822D1E07864281FD1207977
:1022700079281CD160790006A17940EA0140E17912
:1022800040EA0120217A0843384908600020384993
:1022900008803849086072208DF8AC0065208DF800
:1022A000AD0002222BA9384605F042F85BE0207809
:1022B000662838D16078692835D1A0786E2832D167
:1022C000E07869282FD1207973282CD101202A4960
:1022D00008600846006801902448006802900222C5
:1022E00001A9264800F0A6FE66208DF8AC00692002
:1022F0008DF8AD0002222BA9384605F019F8C82048
:1023000002F000FF00BFBFF34F8F1D48006800F4CC
:10231000E0601C490843001D19490860BFF34F8F56
:1023200000BF00BFFEE7207873281CD160787728B3
:1023300019D1002505E0A81C205C03A94855681C9C
:10234000C5B2B01EA842F6DC81B203A806F036FA88
:102350006F208DF8AC006B208DF8AD0002222BA908
:10236000384604F0E5FF2FB0F0BD0000200000204B
:102370002C000020280000202400002000C00008BD
:102380000CED00E00000FA0570B5044600254FF49E
:1023900000600C494883C4F3074000F0E7FBC4F336
:1023A000072000F0E3FB04F0F80000F0DFFB002062
:1023B00000F0DCFB05464FF4006002490883284624
:1023C00070BD00000010024070B5044600254FF4B7
:1023D00080500C490880C4F3074000F0ABFBC4F305
:1023E000072000F0A7FB04F0F80000F0A3FB00209A
:1023F00000F0A0FB05464FF480500249891E08807A
:10240000284670BD1A04024070B504460D464FF4CC
:1024100000600C494883C4F3074000F0A7FBC4F3F5
:10242000072000F0A3FB04F0F801091DC8B200F07A
:102430009DFB284600F09AFB4FF400600149088399
:1024400070BD00000010024070B504460D464FF408
:1024500080500C490880C4F3074000F06BFBC4F3C4
:10246000072000F067FB04F0F801091DC8B200F076
:1024700061FB284600F05EFB4FF480500149891E45
:10248000088070BD1A04024010B520210648FFF7ED
:102490000AFA20B120210448FFF70EFA03E02021B8
:1024A0000148FFF70BFA10BD0018024010B50446B2
:1024B0000C2C74D2DFE804F0060F18212A333C45B7
:1024C0004E57606904213748FFF7F6F9082135486F
:1024D000FFF7F2F964E004213248FFF7EFF9082131
:1024E0003048FFF7E9F95BE004212E48FFF7E4F9F3
:1024F00008212C48FFF7E2F952E004212948FFF7B0
:10250000DDF908212748FFF7D9F949E010212548CE
:10251000FFF7D2F920212348FFF7CEF940E0102140
:102520002048FFF7CBF920211E48FFF7C5F937E017
:1025300010211C48FFF7C0F920211A48FFF7BEF907
:102540002EE010211748FFF7B9F920211548FFF7B1
:10255000B5F925E040211348FFF7AEF98021114875
:10256000FFF7AAF91CE040210E48FFF7A7F98021E8
:102570000C48FFF7A1F913E040210A48FFF79CF946
:1025800080210848FFF79AF90AE040210548FFF743
:1025900095F980210348FFF791F901E0FFE700BFBB
:1025A00000BF10BD001802401CB50121402000F002
:1025B000EBF901208DF8040000208DF806000120C1
:1025C0008DF8070000208DF80500FC20009069467A
:1025D0000D48FFF7F4F804210B48FFF76DF90821C7
:1025E0000948FFF769F910210748FFF765F920212D
:1025F0000548FFF761F940210348FFF75DF98021A5
:102600000148FFF759F91CBD0018024000BFFEE762
:102610007047000070B5002100230F22C4781CB35E
:10262000174C246804F4E064C4F5E064C4F30721A3
:10263000C1F10404E3B20A4144789C40E1B28478D9
:10264000144021430C07210E0E4C05786155047887
:1026500004F01F050124AC4005786D11AD0005F1B3
:10266000E025C5F8004109E0047804F01F050124C5
:10267000AC40054D0678761145F8264070BD000047
:102680000CED00E000E400E080E100E002490143DD
:10269000024A1160704700000000FA050CED00E0EE
:1026A000BFF34F8F0648006800F4E0600549084317
:1026B000001D03490860BFF34F8F00BFFEE7000015
:1026C0000CED00E00000FA057047000010B58E48E0
:1026D00000788E490978084000287CD08C48007822
:1026E0000028FAD08B4800880028F6D08948008856
:1026F00000EE100AB8EE400A8748D0ED000A30EE2E
:10270000600A864880ED000A82480088B0F5487F5C
:102710002CDC824890ED000A8148D0ED000A30EEB2
:10272000600ADFED800A20EE200A7C48D0ED000A26
:102730009FED7D1A01EE200AD0ED000A784890ED59
:10274000001AF0EE001A41EEC10A784890ED001A26
:1027500070EE810A9FED761A01EE200A7548D0EDE1
:10276000000A30EE200A80ED000A64E06948008823
:10277000B0F5C86F33DC67480088B0F5487F2EDDC0
:10278000664890ED000A6648D0ED000A30EE600A17
:10279000DFED640A20EE200A6048D0ED000A9FEDCC
:1027A000661A01EE200AD0ED000A5D4890ED001A8D
:1027B000F0EE001A41EEC10A5C4890ED001A70EE8E
:1027C000810A9FED5B1A01EE200A5A48D0ED000AFB
:1027D00030EE200A00E06BE080ED000A2BE04F486D
:1027E00090ED000A4E48D0ED000A30EE600ADFEDB1
:1027F0004D0A20EE200A4948D0ED000A9FED4F1AFD
:1028000001EE200AD0ED000A454890ED001AF0EEE6
:10281000001A41EEC10A454890ED001A70EE810A97
:102820009FED431A01EE200A4248D0ED000A30EE37
:10283000200A80ED000A3A4890ED000A3B4880EDFE
:10284000000A364890ED000A354880ED000A394804
:1028500090ED000ADFED3A0AB4EEE00AF1EE10FA6C
:1028600003DD9FED370A80ED000A324890ED000A43
:10287000B5EEC00AF1EE10FA03D29FED320A80EDF8
:10288000000A2C4890ED000ABCEEC00A10EE100AB7
:1028900081B20020FEF79AFB264890ED000ABCEEBC
:1028A000C00A10EE100A81B20020FEF77FFB29E07B
:1028B0009FED250A1F4880ED000A9FED220A174868
:1028C00080ED000A9FED1F0A154880ED000A9FED7C
:1028D0001D0A164880ED000A164890ED000ABCEE6D
:1028E000C00A10EE100A81B20020FEF76FFB1148FB
:1028F00090ED000ABCEEC00A10EE100A81B2002072
:10290000FEF754FB10BD0000770000207600002089
:10291000A20000207A000020B00000201400002057
:10292000180000206F12033B39B4C83D1C00002082
:102930006F12833B100000204260653D4260E53C21
:1029400000007A45000000000000164410B50B4856
:102950000078012807D102210948FEF7AFFF0220C5
:10296000FFF7A4FD09E00020064908800221044881
:10297000FEF7A2FF0020FFF799FD10BD77000020B1
:10298000000002407A00002029B1064A1268024382
:10299000044B1A6004E0034A12688243014B1A6038
:1029A000704700003038024029B1064A12680243DD
:1029B000044B1A6004E0034A12688243014B1A6018
:1029C000704700004038024029B1064A12680243AD
:1029D000044B1A6004E0034A12688243014B1A60F8
:1029E0007047000044380240F0B500210022002466
:1029F000022500260223324F3F6807F00C0121B167
:102A0000042905D0082937D105E02E4F076036E0AC
:102A10002D4F076033E02A4F3F1F3F68C7F38056B2
:102A2000274F3F1F3F6807F03F036EB1264FB7FBAC
:102A3000F3F7DFF88CC0ACF1040CDCF800C0CCF389
:102A4000881C07FB0CF40CE01E4FB7FBF3F7DFF814
:102A500070C0ACF1040CDCF800C0CCF3881C07FBA0
:102A60000CF4174F3F1F3F68C7F301477F1C7D00E1
:102A7000B4FBF5F7076002E0124F076000BF00BF2C
:102A80000F4F3F6807F0F0010909104F7A5C0768A3
:102A9000D74047600A4F3F6807F4E051890A0B4F5F
:102AA0007A5C4768D7408760054F3F6807F460410C
:102AB000490B064F7A5C4768D740C760F0BD0000FD
:102AC000083802400024F400005A6202000000208E
:102AD00010B50248FEF75AF910BD0000163B002061
:102AE00070B504460D464FF4FA6094FBF0F100FB1C
:102AF000114006030A223146284604F069FF70BDE2
:102B000018B504460020009054B1ADF800400648C6
:102B100030F81400ADF8020069460448FEF789F960
:102B200000200349088018BDB6310020163B002064
:102B30003000002010B5044600BF02210A4800F012
:102B40001FF90028F9D02146074800F025F900BFF9
:102B50000121054800F014F90028F9D0024800F0DE
:102B600018F9C0B210BD00000038004010B504468E
:102B700000BF02210A4800F003F90028F9D02146DD
:102B8000074800F009F900BF0121054800F0F8F8F6
:102B90000028F9D0024800F0FCF8C0B210BD0000D7
:102BA0000034014021B1028842F04002028004E07A
:102BB00002884FF6BF731A400280704700B587B095
:102BC00001212020FFF7E0FE01210805FFF7FCFEB0
:102BD000052207212E48FEF73AFE052208212C483F
:102BE000FEF735FE052209212948FEF730FE802038
:102BF000009002208DF805008DF8040000208DF86B
:102C000006008DF8070069462148FEF7D8FD4FF40D
:102C10008070009069461E48FEF7D1FD4FF40070A9
:102C2000009069461A48FEF7CAFD40200090012036
:102C30008DF8040069461648FEF7C1FD402014498E
:102C4000183108800020ADF808004FF48270ADF80C
:102C50000A000020ADF80C000220ADF80E000120A3
:102C6000ADF810004002ADF812000020ADF81400DD
:102C7000ADF816000720ADF8180002A9054800F0CD
:102C80008DF801210348FFF78DFF07B000BD00005C
:102C9000001402400050014010B504464FF480502B
:102CA000194908600AE018490868411E164A11606F
:102CB00020B9002000F090F8C0B210BD02211348E6
:102CC00000F05EF80028EED02146104800F064F8CD
:102CD0004FF480500C4908600AE00B490868411E17
:102CE000094A116020B9012000F076F8C0B2E4E78B
:102CF0000121064800F044F80028EED0034800F017
:102D000048F8C0B2D9E700009020002000500140F0
:102D100010B500244020114908800520FFF7BCFFB2
:102D20004FF480500E49086000BFFF20FFF7B4FF4A
:102D300004460B490868411E094A116018B904206D
:102D400000F04AF810BD04F001000028EDD1402049
:102D50000249891E088000BFF4E700001A140240EF
:102D60009020002010B54020044908800620FFF77D
:102D700093FF40200149891E088010BD1A140240AB
:102D80000246002013890B400BB1012000E0002017
:102D900070470146888970478181704710B50022CD
:102DA000028802F441520B884C8823438C882343C9
:102DB000CC8823430C8923434C8923438C892343A8
:102DC000CC8923431A430280838B4FF2FF74234044
:102DD00083830B8A038210BD0146002070470000E8
:102DE00070B505460024194800F010F9044654BB9C
:102DF0001748006820F440701549086008460068CC
:102E000040F4007008600846006820F0F800086090
:102E10000846006840EAC50008600846006840F0BF
:102E2000020008600846006840F4803008600748E7
:102E300000F0ECF80446012C05D00548006820F0AD
:102E4000020003490860204670BD0000400D0300E9
:102E5000103C024001463A48814201D200207047AE
:102E60003848814201D20120F9E73748814201D236
:102E70000220F4E73548814201D20320EFE73448CD
:102E8000814201D20420EAE73248814201D2052082
:102E9000E5E73148814201D20620E0E72F48814230
:102EA00001D20720DBE72E48814201D20820D6E775
:102EB0002C48814201D20920D1E72B48814201D21E
:102EC0000A20CCE7B1F1016F01D20B20C7E72748F8
:102ED000814201D20C20C2E72548814201D20D2057
:102EE000BDE72448814201D20E20B8E72248814242
:102EF00001D20F20B3E72148814201D21020AEE772
:102F00001F48814201D21120A9E71E48814201D207
:102F10001220A4E71C48814201D213209FE71B48DE
:102F2000814201D214209AE71948814201D215202A
:102F300095E71848814201D2162090E717208EE7C6
:102F4000004000080080000800C0000800000108E0
:102F5000000002080000040800000608000008083D
:102F600000000A0800000C0800000E0800401008CD
:102F70000080100800C010080000110800001208AE
:102F800000001408000016080000180800001A08C5
:102F900000001C0800001E0800210E48016801F412
:102FA000803008B10120704701F0100008B1022004
:102FB000F9E701F0200008B10220F4E701F0400039
:102FC00008B10220EFE701F0800008B10220EAE733
:102FD0000020E8E70C3C02400348006840F0004055
:102FE0000149086070470000103C02400146086833
:102FF00070470000024803490860034808607047B2
:1030000023016745043C0240AB89EFCD70B504460F
:1030100000BFFFF7C1FF0546012D00D005E00A20E3
:1030200002F07CF8641E002CF3D100BF04B9FF2528
:10303000284670BD2DE9F04704460E4617464FF06E
:1030400000080025A946B4F1006F02D304F0030084
:1030500008B1BDE8F087FFF7CDFF1D48006820F4F8
:1030600080601B490860254604EB870919488542A2
:1030700014D210E02846FFF7B9FF401C50B1284693
:10308000FFF7E8FE8246FFF7ABFE8046B8F1000F7F
:1030900001D002E02D1D4D45ECD300BFB8F1000F6B
:1030A0000BD107E02046316800F016F800B103E0CC
:1030B000241D361D4C45F5D300BF0548006840F47B
:1030C000806003490860FFF787FF00BFC1E7000089
:1030D000003C02400000FF1F70B505460E46FF2071
:1030E000FFF794FF0446E4B90F48006820F44070ED
:1030F0000D4908600846006840F400700860084602
:10310000006840F0010008602E60FF20FFF77EFF9E
:103110000446012C05D00448006820F00100024953
:103120000860204670BD0000103C0240704700005F
:103130001CB50020009001900024154800788DF8FF
:103140000000134840788DF80100114880788DF810
:1031500002000F48C0788DF803000D4800798DF803
:1031600004000C4800884FF4FA6190FBF1F201FB77
:1031700012000849088008460088040308460088B1
:10318000401C088005222146684604F077FC1CBDDF
:10319000682000206E20002010B596B00024502139
:1031A00002A8FDF73AF8174800788DF8080015488E
:1031B00040788DF80900134880788DF80A0011488E
:1031C000C0788DF80B00104800788DF80E000320B1
:1031D0008DF80F0000BF07E00C48015D02AA04F162
:1031E00008001154601CC4B2322CF5DB084800887A
:1031F000084B3C2202A90090002004F0F4F916B01C
:1032000010BD0000443100208900002054880008CF
:10321000CE200020CA20002038B50446FF200949EE
:103220000870084644700848C07988700648007ADB
:10323000C87006480088064B04220090002004F065
:103240004CF938BD14310020E0460020BA2000209F
:10325000B62000200CB50020019000904148006885
:1032600040F480303F49086000BF3E48006800F4E9
:10327000003000900198401C0190009818B9019806
:10328000B0F5A04FF1D13748006800F4003010B11C
:103290000120009001E0002000900098012860D1FA
:1032A00030484030006840F080502E49403108607E
:1032B0002D48006840F440402B49086029480830F8
:1032C00000682849083108600846006840F400405A
:1032D00008600846006840F4A05008602348091FB1
:1032E0000860081F006840F08070091F086000BF78
:1032F0001C48006800F000700028F9D01A480068E7
:1033000040F480301849086000BF1748406800F456
:1033100080300028F9D01448006840F40030124989
:10332000086000BF1048406800F400300028F9D061
:1033300040F205700E4908600A480830006820F025
:1033400003000849083108600846006840F00200A0
:10335000086000BF03480830006800F00C0008282F
:10336000F8D10CBD0038024000700040285A4007D8
:10337000003C02407047000010B51548006840F45A
:103380007000134908601348006840F001001149BB
:10339000086000200F49083108600E4800680E4997
:1033A00008400C4908600D48091D0860081F0068A6
:1033B00020F48020091F0860002006490C310860B5
:1033C000FFF748FF4FF0006001498039086010BDE9
:1033D00088ED00E000380240FFFFF6FE10300024C8
:1033E00038B50025002441480078022821D100206A
:1033F0003E49087001F04EFE012001F04BFE3C48B2
:10340000C0783C49487106224FF4106004F07CFFFC
:10341000042239494FF4A06004F076FF04223749B2
:10342000900104F071FF042231494FF4706004F000
:103430006BFF4FF44270FEF7C7FF054635B1132D01
:103440000CD0172D0ED01C2D4ED149E020232C4836
:1034500002880121002004F0C7FC45E0002002F0B2
:10346000E5FB41E04FF40270FEF7AEFF00F0010013
:1034700020B101214FF40270FEF7E6FF002001F0B9
:1034800089FE0446002C1CDD00201E490880402CCB
:1034900000DD402422461C49002002F031FE1B487A
:1034A0001B4B224618490090002002F006FF02F054
:1034B0008BFF224614490020FEF7C8FEFEF7E4FF0A
:1034C0000DE010480088401C0E490880084600881E
:1034D000B0F5FA6F03DD0020088001F0DBFD03E0AA
:1034E000002001F0D7FD00BF00BF38BD87000020DD
:1034F000BC200020A2200020C0200020C4200020EA
:10350000C8200020A400002044310020CE2000204C
:10351000CA20002010B50121880700F037F8E8B173
:10352000FDF7E8FBFFF704FE0D4840780C490978E9
:1035300000EB01200B49A1F820010948C078084997
:10354000897800EB01200749A1F82201044800799D
:10355000A1F824010121880700F009F810BD00003E
:1035600068200020B6310020CA4302827047CA4357
:103570000282704721B1028842F00102028004E019
:1035800002884FF6FE731A400280704730B502463B
:10359000002000230024158A05EA0103958905EA25
:1035A000010413B10CB1012000E0002030BD1AB1BC
:1035B00083890B43838102E083898B438381704736
:1035C0000EB501210846FFF7EFF90F48019042F2CE
:1035D0002730ADF800000020ADF80800ADF802007B
:1035E00069464FF0804000F011F801218807FFF78D
:1035F000BBFF012211469007FFF7D9FF0121880781
:10360000FFF7B8FF0EBD0000BFC62D0000220288E4
:10361000184B98420ED0184B98420BD0B0F1804F07
:1036200008D0164B984205D0154B984202D0154B46
:10363000984204D14FF68F731A404B881A43124BAD
:10364000984207D0114B984204D04FF6FF431A40DE
:103650000B891A4302804B68C3620B880385054BB4
:10366000984202D0044B984201D18B7A0386012301
:1036700083827047000001400004014000040040C4
:1036800000080040000C0040001000400014004002
:1036900010B500F003F8FFF793FF10BD08B54FF425
:1036A000E060FEF7F3FF1C208DF8000003208DF88A
:1036B00001008DF8020001208DF803006846FEF736
:1036C000A9FF08BD1CB501214020FFF75DF90120CD
:1036D0008DF8040000208DF8060001208DF8070009
:1036E00000208DF805000120009069460948FEF78A
:1036F00066F80220009069460648FEF760F84FF42D
:1037000080410548FEF7D8F801210248FEF7D4F8B9
:103710001CBD0000001802400014024000B587B034
:103720000020039004900590069002904D48007888
:103730008DF80C004C4800788DF80D0000208DF8B5
:103740000E008DF80F008DF810008DF811008DF827
:1037500012008DF813004548008800128DF81400FF
:10376000424800788DF81500414800788DF8160021
:10377000404800788DF817003F48008800128DF807
:1037800018003D4800788DF819003C48FDF706FB0D
:10379000002852D102A93948FDF716FBBDF80800F0
:1037A00040F21512811A90422AD007DC80280AD0F4
:1037B00081280ED0A0F2111098BB27E002290ED06C
:1037C00006292FD116E0BDF80A00C0B28DF80C0012
:1037D00029E0BDF80A00C0B28DF80D0023E0BDF865
:1037E0000A0000128DF81400BDF80A00C0B28DF86E
:1037F000150018E0BDF80A00C0B28DF8160012E0FE
:10380000BDF80A00C0B28DF817000CE0BDF80A0040
:1038100000128DF81800BDF80A00C0B28DF819002A
:1038200001E0FFE700BF00BF15480088154B0E22DE
:1038300003A90090002003F050FE1348007878B1EF
:103840000E48FDF7ABFA58B100200F4908700C483C
:1038500000880C4B04220D490090002003F03DFE2F
:1038600007B000BD76000020770000205600002041
:10387000520000205300002054000020163B00207E
:10388000BA200020B6200020A6000020A7000020BB
:1038900070B59EB000260024002500201D90302128
:1038A00011A8FCF7BAFC402101A8FCF7B6FC4FF4C4
:1038B0004270FEF769FD064616B1222E07D107E0D9
:1038C00000234C4802880221184604F08FF98EE04C
:1038D0004FF40270FEF758FD00F0040020B10421FF
:1038E0004FF40270FEF790FD4348008E401C4249A1
:1038F00008860846008E40F2262188423ADB0020E6
:103900003D4908863D4800788DF844003C480078E1
:103910008DF8450000208DF846008DF847008DF8A1
:1039200048008DF849008DF84A008DF84B00354865
:10393000008800128DF84C00324800788DF84D0058
:10394000314800788DF84E00304800788DF84F00EF
:103950002F48008800128DF850002D4800788DF80F
:1039600051002C4800882C4B0E2211A900900020F9
:1039700003F0B3FDFFF7D2FE002001F0E1FB0546A6
:10398000002D19DD01202549087022481DAB2A466B
:1039900001A90090002002F00AFC9DF8771065391B
:1039A000C8B201A904F096FE00219DF877006538A1
:1039B000114A22F8101019E0002415E00E4830F8E2
:1039C0001400401C0C4921F81400084630F814007B
:1039D000B0F57A7F06DB204604F064FE002006493D
:1039E00021F81400601CC4B2082CE7DB00BF00BF44
:1039F0001EB070BDB420002084310020760000206D
:103A000077000020560000205200002053000020C4
:103A100054000020BA200020B6200020A200002080
:103A20001FB5044600940020ADF80400ADF8060070
:103A3000ADF80800ADF80C000C20ADF80A0069469E
:103A4000014800F0A3FA1FBD001001401FB5044655
:103A500000940020ADF80400ADF80600ADF80800B1
:103A6000ADF80C000C20ADF80A006946014800F0E2
:103A70008DFA1FBD0048004010B540F224411C489B
:103A800000F034FA90B31A4800F0EAFA40F2244108
:103A9000174800F007FA03E000211648FDF730FC54
:103AA0001448006800F001000028F5D101E000F0A2
:103AB000DFFA114800780028F9D102F0DFFF0FE0AB
:103AC0000E490C48FDF702FC0D490A48FDF7FEFBC4
:103AD00040200849091D086001210648FDF710FC37
:103AE0000448006800F001000028E9D010BD000083
:103AF00000100140886402407120002000880020EE
:103B00000022002010B5044600BF0A4800780028B3
:103B1000FBD101210848FDF7D1FE012005490870BD
:103B200021460648FDF720FD01210448FDF7E8FB8A
:103B300010BD00007120002000180240B86402404F
:103B400000B597B001210846FEF71EFF0121480489
:103B5000FEF72AFF01214805FEF716FF00208DF829
:103B6000560001208DF8570002208DF855008DF881
:103B700054000420149014A96348FDF720FE02208D
:103B80008DF854000820149014A95F48FDF717FE23
:103B9000072202215C48FDF75AFE072203215A48FA
:103BA000FDF755FE4FF4E13010900020ADF84400D1
:103BB000ADF84600ADF84800ADF84C000C20ADF86B
:103BC0004A0010A9514800F0E1F95148FDF7A4FB63
:103BD0004FF0006001904D48001D02904D48039049
:103BE0000020049040200590002006904FF4806053
:103BF00007900020089009900A904FF480300B90B5
:103C000000200C9001200D9000200E900F9001A933
:103C10003F48FDF77DFC01213D48FDF771FB012286
:103C200010213B48FDF756FC39481830FDF774FB6E
:103C30004FF0006001903548001D02903648039017
:103C4000402004900590002006904FF4806007907B
:103C50000020089009900A904FF400300B9000204B
:103C60000C9001200D9000200F9001A928481830D9
:103C7000FDF74EFC0122102125481830FDF72AFCE3
:103C800011208DF8580001208DF8590002208DF880
:103C90005A0001208DF85B0016A8FEF7BBFC10202F
:103CA0008DF8580003208DF8590002208DF85A0035
:103CB00001208DF85B0016A8FEF7ACFC26208DF8DD
:103CC000580002208DF859008DF85A0001208DF817
:103CD0005B0016A8FEF79EFC012280210B4800F035
:103CE000FCF801224021094800F0F7F801210748BB
:103CF00000F0E7F8012240F22441044800F020F9E6
:103D0000FFF7E0FC17B000BD000002400044004097
:103D100088600240E04600202047002010B540F2B5
:103D200024411C4800F0E2F8002832D0194800F085
:103D300097F940F22441174800F0B4F803E000215D
:103D40001548FDF7DDFA1448006800F0010000286E
:103D5000F5D101E000F0D2F9104800780028F9D13F
:103D600001F0BEFA0FE00E490B48FDF7AFFA0D491E
:103D70000948FDF7ABFA40200749091D08600121F9
:103D80000548FDF7BDFA0448006800F0010000286E
:103D9000E9D010BD0044004088600240702000203F
:103DA000008800200022002010B5044601200849A8
:103DB000087021460748FDF7D7FB01210548FDF7AC
:103DC0009FFA012210210348FDF784FB10BD00007B
:103DD00070200020A060024010B540F224411D4830
:103DE00000F084F8A0B31B4800F03AF940F22441F7
:103DF000184800F057F803E000211748FDF780FA53
:103E000015482838806A00F001000028F4D101E04C
:103E100000F0B0F9114800780028F9D103F046F815
:103E20000FE00F490C48FDF751FA0E490A48FDF71B
:103E30004DFA402008492839C86201210648FDF79B
:103E40005FFA05482838806A00F001000028E8D0B1
:103E500010BD000000480040286002407220002091
:103E6000008800100022001010B5044600BF0A4868
:103E700000780028FBD14FF480410848FDF71EFD73
:103E800001200549087021460548FDF76DFB012119
:103E90000348FDF735FA10BD7220002000140240DF
:103EA0005860024010B50022002340F66A14A14277
:103EB00000D100BF0A1201249440A3B2DC43048065
:103EC00010BD21B1828942F40052828104E08289CE
:103ED0004DF6FF731A40828170471AB1838A0B43F3
:103EE000838202E0838A8B438382704770B50246E7
:103EF000002400230025002040F66A16B14200D1BC
:103F000000BFC1F3421501F01F03012606FA03F3B7
:103F1000012D02D19689334006E0022D02D1168A86
:103F2000334001E0968A33400C12012606FA04F46D
:103F30001688344013B10CB1012000E0002070BDA0
:103F4000F0B50346002400260025002040F66A173D
:103F5000B94200D100BF1846C1F3421401F01F0658
:103F6000012707FA06F5012C01D10C3004E0022CE0
:103F700001D1103000E014301AB107682F430760F8
:103F800002E00768AF430760F0BD00002DE9FF477E
:103F900005460E460024A14600BFA046B08900B1E8
:103FA00000BF2C8A24F44054F08804432C82AC894E
:103FB00041F20C608443B088318908437189084319
:103FC0000443AC81AC8A24F44074B0890443AC82CD
:103FD0006846FEF709FD2048854202D01F48854209
:103FE00002D1DDF80C9001E0DDF80890A88900F41A
:103FF000004040B109EBC90000EB091031684900ED
:10400000B0FBF1F707E009EBC90000EB09103168DC
:104010008900B0FBF1F76420B7FBF0F00401200940
:10402000642101FB1078A88900F4004040B13220DF
:1040300000EBC800B0FBF1F000F00700044308E01B
:10404000322000EB08106421B0FBF1F000F00F000B
:1040500004432C81BDE8FF8700100140001401409B
:1040600001468888C0F30800704700BFFEE70000E3
:1040700010B51D491D48FDF7FBF9B8B1012210210B
:104080001A48FDF727FA1A491848FDF71FF916498B
:104090001648FDF71BF90020164908700021134847
:1040A000FDF72EF901211448FDF706FC10490F48D1
:1040B000FDF7DEF9B8B1012210210C48FDF70AFA2C
:1040C0000B490A48FDF702F907490848FDF7FEF8D1
:1040D00000200849087000210448FDF711F901216A
:1040E0000548FDF7E9FB10BD00800028B8640240D8
:1040F00000400024712000200018024010B519492A
:104100001948FDF7B5F998B1012210211648FDF7BD
:10411000E1F916491448FDF7D9F812491248FDF79C
:10412000D5F800201249087000210F48FDF7E8F883
:104130000E490D48FDF79CF998B1012210210A485B
:10414000FDF7C8F909490848FDF7C0F805490648D0
:10415000FDF7BCF800200649087000210248FDF771
:10416000CFF810BD00802020A06002400040102049
:104170007020002010B563496348FDF779F9C0B19C
:104180004FF4FA6000F0CAFF012210215E48FDF7EB
:10419000A1F95C495C48FDF799F800205B4908707B
:1041A00000215948FDF7ACF84FF480415848FDF71D
:1041B00083FB58495448FDF75BF9C0B14FF4FA60EE
:1041C00000F0ACFF012210214F48FDF783F951495F
:1041D0004D48FDF77BF800204C49087000214A4803
:1041E000FDF78EF84FF480414948FDF765FB4A49D9
:1041F0004548FDF73DF9C0B14FF4FA6000F08EFF7D
:10420000012210214048FDF765F943493E48FDF77A
:104210005DF800203D49087000213B48FDF770F82B
:104220004FF480413A48FDF747FB3C493648FDF7DB
:104230001FF9C0B14FF4FA6000F070FF01221021A5
:104240003148FDF747F935492F48FDF73FF8002081
:104250002E49087000212C48FDF752F84FF4804198
:104260002B48FDF729FB2E492748FDF701F9C0B17E
:104270004FF4FA6000F052FF012210212248FDF7AE
:1042800029F927492048FDF721F800201F49087027
:1042900000211D48FDF734F84FF480411C48FDF71C
:1042A0000BFB1A48007848B31E480078401C1D4993
:1042B00008704FF4FA6000F031FF1A480078FA28CD
:1042C0001FDD002017490870012210210E48FDF75C
:1042D00001F910490C48FCF7F9FF0A490A48FCF7B4
:1042E000F5FF00200949087000210748FDF708F88C
:1042F0004FF480410648FDF7DFFA02E0002009494B
:10430000087010BD00800018586002407220002024
:1043100000140240004000140020001200100011A0
:10432000000040908C2000203248007832494884B8
:1043300032480078888432480078C8843148007850
:10434000A1F8000130480078A1F802012F48008848
:10435000A1F804012E480088A1F806012D4890ED2F
:10436000000ABCEEC00A10EE100AA1F842012A4869
:1043700090ED000ABCEEC00A10EE100AA1F844014C
:10438000264890ED000ABCEEC00A10EE100AA1F813
:104390004601234890ED000ABCEEC00A10EE100A58
:1043A000A1F8480117480078A1F85E011648007886
:1043B000A1F8600115480088A1F86201194890ED44
:1043C000000ABCEEC00A10EE100AA1F864011648FB
:1043D00090ED000ABCEEC00A10EE100AA1F86801C8
:1043E000124890ED000ABCEEC00A10EE100AA1F8C7
:1043F0006A01704789000020B63100207320002038
:104400007420002076000020770000207A00002031
:1044100092000020B0000020B4000020B80000206E
:10442000C0000020BC000020C8000020C400002004
:1044300000B52DED048BB0EE409AF0EE609A83B09B
:1044400051EC190BFCF7BAF941EC180B18EE100AF5
:1044500018EE901A8DED008B002818BF012008433C
:1044600020F00040C0F17F6000F1E040C00F14D0A8
:1044700019EE101A19EE900A8DED009B002918BF55
:104480000121084320F00040C0F17F6000F1E040CE
:10449000C00F04BF012000F017F8B0EE480A03B0C7
:1044A000F0EE680ABDEC048B00BD02E008C8121FE4
:1044B00008C1002AFAD170477047002001E001C10D
:1044C000121F002AFBD170470149086070470000A5
:1044D000E020002070B52DED108B86B004460D460F
:1044E00016469FEDFA0AF0EE408A9FEDF80AB0EE0C
:1044F000408AF748007800287ED0F64800880028D7
:10450000FAD000EE104AB8EE400ADFEDF30A60EE92
:10451000200A00EE104AB8EE400A60EE800A00EE73
:10452000104AB8EE400A9FEDED1A41EE400A9FEDA9
:10453000EC0A70EEC00AEB48008800EE100AB8EEF4
:10454000400A20EE800ADFEDE80A80EE201AE748F4
:1045500080ED001A90ED000AB5EEC00AF1EE10FAF7
:1045600003D29FEDDA0A80ED000A00EE105AB8EE91
:10457000400ADFEDD90A60EE200A00EE105AB8EECC
:10458000400A60EE800A00EE105AB8EE400A9FED35
:10459000D31A41EE400A9FEDD20A70EEC00AD44809
:1045A000008800EE100AB8EE400A20EE800ADFED27
:1045B000CE0A80EE201ACF4880ED001A90ED000A56
:1045C000B5EEC00AF1EE10FA03D29FEDC00A80EDFD
:1045D000000AC8480068FBF7FDFF41EC1C0BB0EE79
:1045E0004C0AF0EE6C0AFFF723FFB0EE40AAF0EEA3
:1045F00060AABE48006800E080E0FBF7EBFF41ECFA
:104600001C0BB0EE4C0AF0EE6C0AFFF711FFB0EE97
:1046100040BAF0EE60BA53EC1A2B51EC1B0BFBF7CF
:1046200014FE41EC190BFBF7E8FF08EE900AB148C5
:104630000068FBF7CFFF41EC1C0BB0EE4C0AF0EE2C
:104640006C0AFFF7F5FEB0EE40BAF0EE60BAA7488C
:104650000068FBF7BFFF41EC1C0BB0EE4C0AF0EE1C
:104660006C0AFFF7E5FEB0EE40AAF0EE60AA53EC4C
:104670001B2B51EC1A0BFBF789FE41EC190BFBF7D6
:10468000BCFF08EE100AB5EEC08AF1EE10FA09DDA3
:1046900088EE880AF2EE040A20EE200A964880EDA1
:1046A000000A04E09FED950A934880ED000A9248C5
:1046B00090ED000ADFED910AB4EEE00AF1EE10FA97
:1046C00003DD9FED8E0A80ED000A8B4890ED000A15
:1046D000F2EE040AB4EEE00AF1EE10FA03D2B2EE02
:1046E000040A80ED000A7B480088B0F5967F14DC50
:1046F000B2EE040A804880ED000A0EE09FED730AD6
:104700007A4880ED000A9FED710A7A4880ED000A30
:10471000B2EE040A784880ED000A6D48007800285F
:104720007DD077480078864201DC002603E074489B
:104730000078301A86B273480088FBF71FFFCDE976
:1047400004013046FBF71AFF41EC1D0B9FED6E0B89
:1047500053EC102BFBF720FE41EC1C0B3046FBF713
:104760000DFF41EC1D0B3046FBF708FF41EC1F0B22
:104770009FED670B53EC102BFBF70EFE41EC1E0B6D
:1047800053EC1D2BFBF708FE53EC1C2BCDE900016D
:104790009DED000B51EC100BFBF757FD9FED5E0BF1
:1047A00053EC102BCDE902019DED020B51EC100BE7
:1047B000FBF7ECFD41EC1B0B9DED040B53EC102BB8
:1047C000FBF7EAFD41EC1A0B9FED550B53EC102B58
:1047D000FBF754FE41EC190BFBF70FFF5249086041
:1047E000084690ED000AB5EEC00AF1EE10FA03D2C9
:1047F0009FED360A80ED000A4B480068FBF7EAFEA1
:1048000041EC1C0BB0EE4C0AF0EE6C0AFFF710FE08
:10481000B0EE40AAF0EE60AA3448006800E0B3E0D1
:10482000FBF7D8FE41EC1C0BB0EE4C0AF0EE6C0A24
:10483000FFF7FEFDB0EE409AF0EE609A53EC1A2BB3
:1048400051EC190BFBF701FD41EC1B0BFBF7D5FEFF
:1048500008EE900A34480068FBF7BCFE41EC1C0BE4
:10486000B0EE4C0AF0EE6C0AFFF7E2FDB0EE40AAA3
:10487000F0EE60AA1D480068FBF7ACFE41EC1C0B93
:10488000B0EE4C0AF0EE6C0AFFF7D2FDB0EE40BA83
:10489000F0EE60BA53EC1A2B51EC1B0BFBF776FDD4
:1048A00041EC190BFBF7A9FE08EE100AB5EEC08A21
:1048B000F1EE10FA3CDD88EE880AF2EE040A20EEF2
:1048C000200A1A4880ED000A37E0000000000000CE
:1048D000770000207A000020FAED6B3A3480373AF6
:1048E000C9F66342CC00002000803B45B0000020A8
:1048F000CE000020B4000020B800002000C07944A1
:10490000D4000020D0000020014D840D4FAFBC3FEB
:104910005473B9C15087453FF8FC304278D25440B7
:10492000000000000070A740BC000020C000002074
:104930001FED0E0A1C4880ED000A1B4890ED000A8E
:104940005FED120AB4EEE00AF1EE10FA03DD1FED9E
:10495000150A80ED000A144890ED000AF2EE040AF0
:10496000B4EEE00AF1EE10FA03D2B2EE040A80EDE2
:10497000000A0E480088B0F5967F0FDCB2EE040AFC
:10498000094880ED000A09E0B2EE040A064880ED0D
:10499000000A1FED320A064880ED000AFDF796FE78
:1049A00006B0BDEC108B70BDC00000207A00002066
:1049B000BC00002070B52DED028B002400250026E0
:1049C0009FED860AB0EE408A9FED840AF0EE408AA1
:1049D0008348008883490968084482490860804800
:1049E00040888149096808447F4908607C4880887C
:1049F0007E49096808447D4908607D480078401C6C
:104A00007B49087008460078402817D1754800682F
:104A1000C0F38F1474480068C0F38F1573480068A2
:104A2000C0F38F16324629462046FFF753FD00207B
:104A30006E4908606C4908606A4908606C480078F3
:104A4000012828D100206B49087020E000206A4925
:104A5000684A127841F8220066480078C01C604914
:104A600031F810106548634A127840F82210614806
:104A70000078C01C5A4931F8100061495D4A12782B
:104A800041F822005B480078401C5A490870594898
:104A900000780228DADB00205649087045E05648C5
:104AA0005449097850F8211052480078C01C4C4AEB
:104AB00032F81000084450494E4A127841F822005A
:104AC0004E484C49097850F821104A480078C01CDB
:104AD000434A32F8100081420AD846480078C01C88
:104AE000114631F810004549424A127841F8220037
:104AF00043484049097850F821103E480078C01CCE
:104B0000374A32F8100081420AD33A480078C01C74
:104B1000114631F810103A48364A127840F82210FF
:104B200034480078401C3349087032480078022825
:104B3000B5DB2F48007840284CD100202C49087064
:104B40002F4800682D49096808442B490968081A4C
:104B500029490860084600683E21B0FBF1F000EEEC
:104B6000100AB8EE400AB0EE408A9FED260A28EE01
:104B7000000A254880ED000A214840681F4949681D
:104B800008441D494968081A1B494860084640689E
:104B90003E21B0FBF1F000EE100AB8EE400AF0EE54
:104BA000408A9FED1A0A28EE800A194880ED000A13
:104BB00090ED000ABCEEC00A10EE100A1549A1F8EB
:104BC0006801114890ED000ABCEEC00A10EE100A10
:104BD000A1F86A01BDEC028B70BD0000000000006E
:104BE000D6460020D8000020DC000020E000002095
:104BF000D6000020D7000020E4000020F4000020B0
:104C0000EC0000204772F93DC400002011C77A3E35
:104C1000C8000020B631002010B5002028490870D7
:104C20001CE028480088284909680844264908608B
:104C300024484088254909680844244908602148D7
:104C40008088234909680844214908600A2000F047
:104C500065FA1B480078401C19490870184800780C
:104C60004028DEDB18480088C0F387101949087017
:104C700008460078C82801DDC8200870134800885D
:104C8000C0F387101449087008460078C82801DD71
:104C9000C82008700E480088C0F387100F490870BC
:104CA00008460078C82801DDC820087000200449A3
:104CB000087007490860054908600349086010BD8D
:104CC000FC000020D6460020000100200401002046
:104CD00008010020D2000020D3000020D4000020D2
:104CE00010B50446144951F8240000F061F80A2078
:104CF00000F014FA114951F8240000F059F80A2084
:104D000000F00CFA0E4800F053F80A2000F006FA02
:104D100040F2B34000F04CF80A2000F0FFF90948D7
:104D200000F046F80A2000F0F9F9074800F040F8D2
:104D30000A2000F0F3F910BD0C010020B010002093
:104D4000425E0060FC0088000500580010B5134862
:104D500000F02EF80A2000F0E1F9114800F028F8E0
:104D60000A2000F0DBF90F4800F022F80A2000F0DA
:104D7000D5F940F2B34000F01BF80A2000F0CEF95C
:104D8000094800F015F80A2000F0C8F9074800F0BB
:104D90000FF80A2000F0C2F910BD000008804C0096
:104DA00041800008425E0060FC0088000500580059
:104DB00070B504460025344801883448FCF77CFD72
:104DC000042000F0ABF9324801883048FCF774FD4C
:104DD000042000F0A3F900BF35E02D4801882B48DE
:104DE000FCF76AFD022000F099F904F00040B0F1F0
:104DF000004F05D1274801882448FCF75FFD04E0F7
:104E0000244801882148FCF757FD214801881F48A4
:104E1000FCF752FD022000F081F91D4801881B4873
:104E2000FCF74CFD022000F079F919480188174879
:104E3000FCF742FD022000F071F96400022000F04E
:104E40006DF9681CC5B21F2DC7DD0F4801880F48DA
:104E5000FCF732FD042000F061F90B4801880B4893
:104E6000FCF72CFD042000F059F907480188074899
:104E7000FCF722FD042000F051F9054801880348A1
:104E8000FCF71AFD70BD00005A2000200008024007
:104E9000542000205820002010B500BF02210B48EC
:104EA000FDF76EFF0028F9D000210848FDF774FFD8
:104EB00000BF01210548FDF763FF0028F9D0034832
:104EC000FDF767FFC4B2204610BD0000005001404E
:104ED00010B5044600BF02210948FDF751FF002824
:104EE000F9D021460648FDF757FF00BF01210448CD
:104EF000FDF746FF0028F9D00148FDF74AFF10BD35
:104F00000050014070B50546002401E0FFF7F6F8B7
:104F10005E4800780028F9D1A5205D4908705A2024
:104F200048701B2088708220C870182D73D2DFE86B
:104F300005F00C12181E242A30363C42484E545AB2
:104F400060666C73797F858B919701205049087159
:104F5000002048718BE001204D49087110204871F4
:104F600085E001204A490871202048717FE0012036
:104F7000474908713020487179E00120444908719F
:104F80004020487173E00120414908715020487168
:104F90006DE001203E4908716020487167E0012002
:104FA0003B4908717020487161E00120384908715F
:104FB000802048715BE001203549087190204871DC
:104FC00055E0012032490871A02048714FE00120CE
:104FD0002F490871B020487149E001202C4908711F
:104FE000C020487143E0012029490871D020487150
:104FF0003DE0012026490871E020487137E001209A
:1050000023490871F020487131E0022020490871DD
:10501000002048712BE029E002201D490871102072
:10502000487124E002201A490871202048711EE0CE
:105030000220174908713020487118E002201449F5
:1050400008714020487112E0022011490871502077
:1050500048710CE002200E4908716020487106E09A
:1050600002200B4908717020487100E000BF00BFAA
:10507000002405E00021A01D054A1154601CC4B2A3
:10508000182CF7DB1E20FEF78FFE70BD702000206D
:105090002047002010B504464FF4847101EB441002
:1050A0001021FDF7D1F900BF4FF4847101EB4410DA
:1050B000FDF78AF90028F7D14FF4027101EB441093
:1050C000FF21FDF7C1F910BD30B502460B464FF682
:1050D000FF7011E012F8014B604000210AE000F07F
:1050E000010424B14AF2010484EA600000E04010A7
:1050F0004C1CE1B20829F2DB1C1EA3F10105EBB246
:10510000E8D130BD00B5034605E040F2DE3000F0E6
:1051100005F8581E83B2002BF7D100BD00BF00EB8D
:10512000C002D10000E0491E0029FCD170470000F8
:105130000146024830F8110070470000605B002013
:1051400070B504460025002600BF42F2086101EB5D
:105150004410FDF719F9064642F2087101EB4410BC
:10516000FDF712F900EB062086B27EB142F208612B
:1051700001EB4410FDF708F9054642F2087101EB16
:105180004410FDF701F900EB052085B2B542DCD1F2
:10519000284670BD70B504460025002600BF42F2C7
:1051A000086101EB4410FDF70FF9064642F2087161
:1051B00001EB4410FDF708F900EB062086B27EB142
:1051C00042F2086101EB4410FDF7FEF8054642F299
:1051D000087101EB4410FDF7F7F800EB052085B2EC
:1051E000B542DCD1284670BD70B5044600250026C6
:1051F00000BF42F2080101EB4410FDF7E5F8064656
:1052000042F2081101EB4410FDF7DEF800EB062036
:1052100086B27EB142F2080101EB4410FDF7D4F8EA
:10522000054642F2081101EB4410FDF7CDF800EB02
:10523000052085B2B542DCD1284670BD2DE9F05F6E
:105240000746884691460025BB464446AA461DE0CF
:10525000E0780606A07846EA0046607846EA00262E
:1052600020780643241D2846691C8DB20C4941F85C
:105270002060B5F5007F07D100254FF40072584635
:10528000FDF7D8FE0BF5006B0AF1040ACA45DFD31F
:1052900025B12A4602495846FDF7CCFEBDE8F09FED
:1052A000E420002010B5044601E0FEF727FF0A487D
:1052B00000780028F9D1A520084908705A204870C4
:1052C000032088708020C87004200871084644714B
:1052D0000620FEF769FD10BD702000202047002049
:1052E00010B5FE480078A5286FD1FC4840785A28B0
:1052F000FAD1FA48C0788328F6D1F8480079002816
:10530000F2D1F648007AF549C97900EB012084B260
:10531000F24840792B287DD019DCA0F10400272821
:1053200052D2DFE800F0455360A1A4F6515151512B
:1053300051F4F3F2F1F0EFEEEDECEBEAE9515151FB
:105340005151E8E7E6E5E4E3E2E1E0DFDE009B2837
:105350007ED01BDC94287CD010DC90287AD006DC30
:105360002C2878D08E2877D08F282DD19BE29128B9
:1053700073D0922872D09328F7D1BAE295380628D4
:10538000CED2DFE800F0F6F5F4F3F2F19C380D2808
:10539000C6D2DFE810F0D202D602DA02DE02E20262
:1053A000E602EA02EE02F202F602FA02FE0202034C
:1053B0008020CB490880C948007ACA49C84A128867
:1053C00021F81200C8490870EBE2EFE28120C449DD
:1053D0000880C248017AC348C14A128820F81210D6
:1053E000C2480170DDE242F60410844202DCC0488B
:1053F000048022E04FF6FE70844213D1BC4800883E
:10540000BC490988884209DBB9480088B94909883C
:10541000401A00E00FE2B64908800EE00020B449CF
:1054200008800AE04FF6FF70844206D1B048008839
:10543000B04909880844AE490880AD48008842F662
:105440000411884202DD0846A9490880062106E0C9
:105450006FE252E236E200E216E242E245E2A4489E
:10546000008800F0C3FA9CE2A248048099E240F66A
:105470009210844202DCA048048016E04FF6FE70D1
:10548000844207D19C4800889C490988401A9A495F
:1054900008800AE04FF6FF70844206D196480088E3
:1054A000964909880844944908809348008840F642
:1054B0009211884202DA08468F4908808E48008897
:1054C00040F69211884202DD08468B490880082187
:1054D0008948008800F08AFA8748008802F00AF9B3
:1054E0005FE296E17CE16CE15CE154E142E130E1B4
:1054F000E4E0D2E0C0E0B1E0A6E0A2E099E090E014
:1055000087E07EE075E06CE054E03CE032E00EE0E5
:10551000FFE77A4804800088052802DD05207749E6
:10552000088009217548008800F060FA39E2012CF2
:1055300002D100F07DFA16E0022C02D100F0D0FA80
:1055400011E0B4F5E16F0ED10920FFF7ABFE8F2219
:105550006B4801886B48008800F042FB8E216A4846
:10556000008800F043FA1CE2DFE1DAE1D5E1D0E1A6
:10557000CBE1C6E15948007A6449087000216348CC
:10558000FCF7FEFB0DE25548007A6149087061485E
:10559000097850F821006049086001215C48FCF757
:1055A000EFFB00215D48FEF78CFC5B480068FEF7CE
:1055B00037FAF6E14948007A5949087055480978A0
:1055C00050F821005449086002215548FCF7D8FBE7
:1055D00000215448FEF775FC4F480068FEF736FA84
:1055E000DFE13E48C079504908703C48007A487075
:1055F000D7E13A48C0794C4988703848007AC87079
:10560000CFE13648C079494908703448007A48707B
:10561000C7E13248C079454988703048007AC8707F
:10562000BFE12E48C079424908702C48007A487082
:10563000B7E12A48C0793E4988702848007AC87086
:10564000AFE13C480480ACE12CB102203A4908703B
:1056500002F02AFD01E000F0C9FCA2E1CA202049C5
:1056600008802048098820F8114034490C70142122
:105670003248FCF785FB94E1C8201949088030497D
:105680000C70084600781749154A128821F8120054
:1056900015212B48FCF774FB83E1CC2010490880CE
:1056A00028490C70084601780E480D4A128820F8E7
:1056B000121016212348FCF763FB72E122490C709B
:1056C000C52007490880204800780649044A128806
:1056D00021F8120017211C4838E00000E0460020A5
:1056E00030000020B6310020760000207700002036
:1056F0007A000020340000209200002036000020B4
:10570000CC000020D0000020CE0000208900002026
:1057100073200020782000208C0000200010014021
:105720007420002000480040BC200020C020002041
:10573000C4200020C8200020870000203B0000205B
:105740003D0000203C00002040000020FCF718FB3A
:1057500027E1C0209649088096490C7008460078D9
:105760009549934A128821F8120018219148FCF7B4
:1057700007FB16E1C2208E49088090490C7008464C
:1057800001788D488A4A128820F8121019218B4816
:10579000FCF7F6FA05E18A490C701A218848FCF7F3
:1057A000EFFAFEE0874804801B218748FCF7E8FAFF
:1057B0000A20FFF7A7FC1C218348401CFCF7E0FAF5
:1057C000EFE0824804801D217F48FCF7D9FA0A20C7
:1057D000FFF798FC1E217C48401CFCF7D1FAE0E062
:1057E00040F2171072490880794804800088724995
:1057F0006F4A128821F812001F217348FCF7C0FA83
:105800000A20FFF77FFC20216F48401CFCF7B8FA04
:10581000C7E040F21B10664908806E490C700846CC
:1058200000786549624A128821F8120021216948EE
:10583000FCF7A6FAB5E040F215105D49088066490C
:105840000C70084600785C49594A128821F8120009
:1058500022216148FCF794FAA3E040F21110544968
:1058600008805E48048000885349A1F82202232161
:105870005548FCF785FA0A20FFF744FC24215248DA
:10588000401CFCF77DFA8CE05548048029214E48E5
:10589000FCF776FA0A20FFF735FC2A214A48401C1B
:1058A000FCF76EFA7DE04F48048025214648FCF75E
:1058B00067FA0A20FFF726FC26214348401CFCF724
:1058C0005FFA6EE04848048027213F48FCF758FA09
:1058D0000A20FFF717FC28213B48401CFCF750FA30
:1058E0005FE00120FDF798FC5BE00220FDF794FCEF
:1058F00057E00320FDF790FC53E00420FDF78CFCFB
:105900004FE00520FDF788FC4BE00620FDF784FC06
:1059100047E00720FDF780FC43E00820FDF77CFC12
:105920003FE00920FDF778FC3BE00A20FDF774FC1E
:1059300037E00B20FDF770FC33E00C20FDF76CFC2A
:105940002FE00D20FDF768FC2BE00E20FDF764FC36
:1059500027E00F20FDF760FC23E01020FDF75CFC42
:105960001FE01120FDF758FC1BE01220FDF754FC4E
:1059700017E01320FDF750FC13E01420FDF74CFC5A
:105980000FE01520FDF748FC0BE01620FDF744FC66
:1059900007E01720FDF740FC03E01820FDF73CFC72
:1059A00000BF00BF02480088FDF7AAF810BD000044
:1059B000300000203E000020B63100203F000020D3
:1059C000480000204A000020E74600204C0000204C
:1059D00056000020520000205300002054000020F8
:1059E000CE000020D0000020CC00002070B504467E
:1059F0000D4601E0FEF782FB0B4800780028F9D144
:105A0000A5200A4908705A20487005208870822015
:105A1000C870281208714D7120128871CC7108204D
:105A2000FEF7C2F970BD0000702000202047002062
:105A300010B501E0FEF762FB204800780028F9D19C
:105A4000A5201F4908705A204870172088708220AE
:105A5000C870002008711020487100208871194812
:105A60000078C8710020087217480078487200203A
:105A7000887216480078C872002411E01448015D4D
:105A80000F4A04F10C0011541248015D04F110009A
:105A900011541148015D04F114001154601CC4B28A
:105AA000042CEBDB0D4800880012054908760B48F2
:105AB000007848761A20FEF777F910BD7020002094
:105AC000204700208900002073200020742000203F
:105AD000BC200020C0200020C4200020C8200020BE
