:020000040800F2
:1000000028650020C5010008E1400008051F000820
:10001000DD400008490A0008D16C0008000000001B
:10002000000000000000000000000000475400082D
:10003000E11B0008000000007D410008115C000881
:10004000DF010008DF010008DF010008DF01000810
:10005000DF010008DF010008DF010008DF01000800
:10006000DF010008DF010008DF010008DF010008F0
:10007000A10F0008D50F000809100008651000083E
:10008000C110000819110008DF010008DF01000895
:10009000DF010008DF010008DF010008DF010008C0
:1000A000DF010008DF010008DF010008DF010008B0
:1000B000DF010008DF010008DF010008DF010008A0
:1000C000DF010008DF010008DF010008DF01000890
:1000D000DF010008496200080D650008B5670008E7
:1000E000DF010008DF010008DF010008DF01000870
:1000F000DF010008DF010008DF010008DF01000860
:10010000DF010008DF010008DF010008DF0100084F
:10011000E95F0008DF010008DF010008DF010008D7
:10012000DF010008DF010008DF010008DF0100082F
:10013000DF010008DF010008DF010008DF0100081F
:10014000DF010008DF010008DF010008DF0100080F
:1001500091110008DF010008C5110008DF01000847
:10016000DF010008DF010008DF010008DF010008EF
:10017000DF010008DF010008DF010008DF010008DF
:10018000DF010008DF010008DF010008DF010008CF
:10019000DF010008DF010008DF010008DF010008BF
:1001A000DF010008DF010008DF010008DFF810D0E0
:1001B00000F082F900480047698A0008AFF3008028
:1001C000286500200648804706480047FEE7FEE70E
:1001D000FEE7FEE7FEE7FEE7FEE7FEE7FEE7FEE7F7
:1001E000155C0008AD01000840EA01039B0703D03D
:1001F00009E008C9121F08C0042AFAD203E011F866
:10020000013B00F8013B521EF9D27047D2B201E027
:1002100000F8012B491EFBD270470022F6E710B50B
:1002200013460A4604461946FFF7F0FF204610BD64
:1002300030B504460020034600E05B1C934203D225
:10024000E05CCD5C401BF8D030BD2DE9FE4F81EA6B
:10025000030404F0004421F0004100944FF0000B2F
:1002600023F0004350EA01045ED052EA03045BD05D
:10027000C3F30A54C1F30A552C44A4F2F334019495
:10028000A0FB0254C1F3130141F48011C3F3130323
:1002900043F4801301FB024400FB034E840A970AD7
:1002A00044EA815447EA8357A4FB076802958D0A04
:1002B00005FB07854FEA932C04FB0C542705029D90
:1002C0004FEA065847EA1637B5EB08056EEB070C00
:1002D000870E920E47EA811742EA8312A7FB0201BA
:1002E000B6EB0B0164EB00042B0D43EA0C335E18F4
:1002F00044EB1C50DA465146E7FB0201C5F31304F8
:100300004FEA0B3343EA14534FEA0432019C43EAA9
:100310000603A4F10C040294009CCDE900B400F0A3
:100320007CF803B0BDE8F08F00200146F9E70EB578
:1003300040F2334102910021CDE900110A460B46FB
:1003400000F06BF803B000BDC1F30A5210B5C1F361
:10035000130140F2FF3341F480119A4201DA002088
:1003600010BD40F233439A42A2F2334203DC5242C0
:1003700000F034F810BD904010BD2DE9F05F054647
:10038000002092469B4688460646814640241BE054
:10039000284641464746224600F020F853465A4632
:1003A000C01A914110D311461846224600F096F823
:1003B0002D1A67EB01084F4622460120002100F06C
:1003C0008DF817EB00094E41201EA4F10104DFDC7B
:1003D000484631462A464346BDE8F09F202A04DBC2
:1003E000203A21FA02F00021704721FA02F3D040AE
:1003F000C2F12002914008431946704710B5141EFF
:1004000073F1000408DA401C41F1000192185B41CD
:100410001A4301D120F0010010BD2DE9F04D9246A4
:100420009B4611B1B1FA81F202E0B0FA80F22032BB
:10043000904600F053F804460F4640EA0A0041EAAD
:100440000B0153465A46084313D0114653EA0100A4
:1004500019D0C8F140025046FFF7C0FF05460E46CE
:1004600050465946424600F039F8084305D001206D
:1004700004E020463946BDE8F08D0020054346EAF9
:10048000E0762C4337430A986305E40AA0EB0800A2
:100490000022FD0A44EA47540A3002D500200146F2
:1004A000E9E7010510196941DDE9084500196941CD
:1004B000BDE8F04DA2E70000064C074D06E0E068FD
:1004C00040F0010394E8070098471034AC42F6D39B
:1004D000FFF770FE00A9000820A90008202A04DB0D
:1004E000203A00FA02F1002070479140C2F1200347
:1004F00020FA03F319439040704770B58C1810F838
:10050000015B15F0070301D110F8013B2A1106D158
:1005100010F8012B03E010F8016B01F8016B5B1E72
:10052000F9D12B0705D40023521E0DD401F8013B4D
:10053000FAE710F8013BCB1A921C03E013F8015BB9
:1005400001F8015B521EF9D5A142D8D3002070BD3D
:1005500021B1826842F00102826003E0826822F0E9
:1005600001028260704700000021084A1168084AB1
:100570001140D0E900231A4383681A43C3681A4321
:100580001143044AC2F804137047000004230140D9
:10059000E030FCFF0020014010B500F019F800F039
:1005A00065F810BD21B1826842F48072826003E078
:1005B000826822F480728260704721B1826842F4BE
:1005C0000072826003E0826822F4007282607047E9
:1005D0001CB50020009001900121042003F038FF99
:1005E00003208DF8040000208DF8070020200090E3
:1005F0006946084801F06CFB0220009069460548F6
:1006000001F066FB042000906946024801F060FB9F
:100610001CBD00000008024030B502460020002347
:100620005068104C20400D790C6844EA05242043A2
:10063000506090680C4C2040D1E903542C438D68E5
:100640002C434D7944EA450420439060D06A20F45D
:1006500070000C7D641EE4B2234340EA0350D06274
:1006600030BD0000FFFEFFFCFDF7FFC000B599B0F4
:100670003C210AA8FFF7D1FD182104A8FFF7CDFD02
:10068000002000900190029003900121880503F062
:10069000DFFE0121080203F0FBFE35480B903548D0
:1006A0000C9000200D9003200E9000200F904FF42E
:1006B00080601090400011908000129040111390C3
:1006C00040021490002015900120169000201790F1
:1006D00018900A900AA9284800F0BEFE0121264879
:1006E00000F0B2FD00200090019002900390684657
:1006F000FFF73AFF0020049001208DF814008DF8D8
:100700001500002006900790089003208DF8240023
:1007100004A917484C38FFF77FFF032301220F215C
:1007200013484C3800F02AF8032302220B2110480A
:100730004C3800F023F803231A460C210C484C389F
:1007400000F01CF801210A484C38FFF736FF012160
:1007500007484C38FFF726FF012105484C38FFF7C2
:10076000F7FE03484C3800F065F819B000BD0000F2
:100770004C2001402401002010640240F0B50446E2
:100780000D4600200021092D11DDE068A5F10A06C3
:1007900006EB4607072606FA07F18843A5F10A0685
:1007A00006EB460603FA06F10843E0600CE0206918
:1007B00005EB4507072606FA07F1884305EB4506D2
:1007C00003FA06F108432061072A0FDA606B561E10
:1007D00006EB86071F2606FA07F18843561E06EB2E
:1007E000860605FA06F10843606322E00D2A0FDA57
:1007F000206BD61F06EB86071F2606FA07F18843F3
:10080000D61F06EB860605FA06F10843206310E0C2
:10081000E06AA2F10D0606EB86071F2606FA07F12D
:100820008843A2F10D0606EB860605FA06F1084399
:10083000E062F0BD816841F0804181607047000056
:1008400010B5044634B1012C17D0022C28D0032C4B
:100850004CD138E04021274801F0B9FA80212548E1
:1008600001F0B3FA4FF48071224801F0AEFA4FF470
:100870008071214801F0A9FA39E040211D4801F0BA
:10088000A4FA80211B4801F0A0FA4FF480711948A6
:1008900001F09DFA4FF48071174801F098FA26E0B4
:1008A0004021144801F091FA8021124801F08FFA9A
:1008B0004FF480710F4801F088FA4FF480710E48B0
:1008C00001F083FA13E040210A4801F07EFA80210A
:1008D000084801F07AFA4FF48071064801F075FA81
:1008E0004FF48071044801F070FA00E000BF00BFCF
:1008F00010BD000000080240001802401CB5012194
:10090000042003F0A5FD0121402003F0A1FD0120FA
:10091000164908708DF8040000208DF806000120AB
:100920008DF8070000208DF805004FF4E07000906E
:1009300069460F4801F0CCF94FF480700090694689
:100940000C4801F0C5F94021094801F040FA802126
:10095000074801F03AFA4FF48071054801F035FA82
:100960004FF48071034801F030FA1CBD4C010020A7
:10097000000802400018024010B54FF4A06003F0D8
:10098000EDFB03F025FB03F033FD00F0C9FA03F0A3
:10099000E7FFFFF7B3FF4FF4E13005F017FE4FF428
:1009A000E13005F0C5FC4FF4E13005F063FB01F0E8
:1009B000CDFC04F013FA04F035FCFFF7EDFD01F077
:1009C000AFFE002009F08EFE01F0E6FE002009F0E7
:1009D000A4FE01F01BFF002009F0BAFE03F0F9FFAE
:1009E00009F0CCFB1649174809F04CF909F0ECFB6B
:1009F0001349144809F08AF901F012FA4FF496707D
:100A000007F082F801F062FAC82007F07DF804F0E0
:100A100083F902F04BF904F0D9F904F029FF16210B
:100A2000002002F055F9052007F06EF86A21002039
:100A300003F016FA4FF4FA7007F066F810BD0000E4
:100A4000A00100209801002000BFFEE710B54FF480
:100A5000487430E005F006FA0A2007F055F805F072
:100A60004DF91C48B0F86A011B490988884204DD29
:100A700004211A4800F008FA22E01021184801F079
:100A800092F950B10020174908701249A1F80001ED
:100A90000421154801F099F912E00A2094FBF0F1C5
:100AA00000FB114028B9114801781148007804F082
:100AB000A3FA601E84B21CB10A4800780028C9D18C
:100AC00000BF0449B1F81601042101F0A3F9C0B236
:100AD00010BD0000C40300206E000020DA040020D6
:100AE0000010024018000020000C024022000020EC
:100AF0002300002010B54FF4C87424E005F0B2F9CB
:100B00000A2007F001F805F0F9F8601E84B20A2007
:100B100094FBF0F100FB114028B9194801781948FD
:100B2000007804F069FA1021174801F03CF950B13F
:100B30000020164908701649A1F800010421154843
:100B400001F043F904E01CB1104800780028D5D129
:100B500000BF0F48B0F868010F490988884207DADA
:100B60000B48B0F8680118B105210C4800F08CF969
:100B70000749B1F81601052101F04CF9C0B210BDCA
:100B80002200002023000020001002401800002056
:100B9000C4030020000C024072000020DA04002090
:100BA00010B54FF448742CE005F05CF90A2006F00B
:100BB000ABFF05F0A3F81021194801F0F4F850B18B
:100BC0000020184908701849A1F8000104211748AD
:100BD00001F0FBF81AE01449B1F81601012101F007
:100BE00019F900B912E00A2094FBF0F100FB114062
:100BF00028B90F4801780F48007804F0FDF9601E0D
:100C000084B21CB1074800780028CDD100BF064946
:100C1000B1F81601012101F0FDF8C0B210BD0000CD
:100C20000010024018000020C4030020000C024005
:100C3000220000202300002010B54FF448742BE060
:100C400006F024FD1B48B0F86E011B490988884254
:100C500004DD0221194800F017F922E0102118489C
:100C600001F0A1F850B10020164908701149A1F80F
:100C700000010421144801F0A8F812E00A2094FBB6
:100C8000F0F100FB114028B91048017810480078B5
:100C900004F0B2F9601E84B21CB10A480078002842
:100CA000CED100BF0349B1F81601022101F0B2F81C
:100CB000C0B210BDC403002076000020DA0400207A
:100CC0000010024018000020000C0240220000200A
:100CD0002300002010B54FF496741FE006F0D6FCF8
:100CE000601E84B20A2094FBF0F100FB114028B989
:100CF000194801781948007804F07EF91021184845
:100D000001F051F850B10020164908701649A1F8B9
:100D100000010421154801F058F804E01CB1114805
:100D200000780028DAD100BF0F48B0F86C011049F4
:100D30000988884207DA0C48B0F86C0118B1032121
:100D40000C4800F0A1F80849B1F81601032101F0A0
:100D500061F8C0B210BD0000220000202300002076
:100D60000010024018000020C4030020000C0240C4
:100D70007A000020DA04002040F2DC51C18000211A
:100D80000180418001717047014608884A8890427D
:100D900003D1087908B9012070470020FCE701461B
:100DA00008884A88904203D10879012800D1704709
:100DB0000020FCE710B503460C461846FFF7E4FF99
:100DC00010B14FF0FF3010BD198803F1080030F862
:100DD000110020801888401CD98890FBF1F201FB9B
:100DE0001200188058881988884201D10020187193
:100DF000198803F1080030F8110060801888401C41
:100E0000D98890FBF1F201FB1200188058881988EC
:100E1000884201D100201871187940B2D3E710B58B
:100E200003460C461846FFF7BAFF10B14FF0FF30EB
:100E300010BD21885A8803F1080020F81210588844
:100E4000401CD98890FBF1F201FB120058805888B1
:100E50001988884201D10120187161885A8803F1EC
:100E6000080020F812105888401CD98890FBF1F235
:100E700001FB1200588058881988884201D101204E
:100E80001871187940B2D3E7028801238B409A4346
:100E90000280704708B580211B4800F096FF1021A2
:100EA0001A4800F094FF502000231A46194600907B
:100EB000184607F001FD32220021084607F08EFD9A
:100EC00036220021084607F089FD002210480178EB
:100ED0001048007807F018FC052006F015FE41F2D6
:100EE0000231002002F0BCFF00200B4908700B49C2
:100EF000A1F80201A1F81801A1F84001FFF7A0FC38
:100F0000082002F0E7FF08BD000002400008024090
:100F1000860000208500002019000020C403002066
:100F20001CB50121022003F093FA0121084603F0C9
:100F30008FFA0121042003F08BFA01208DF80400C0
:100F400000208DF8060001208DF807008DF80500BF
:100F50008020009069460F4800F0BAFE10200090F3
:100F600069460D4800F0B4FE0120009000208DF885
:100F7000040002208DF805006946084800F0A8FE2C
:100F80001021054800F023FF8021024800F01DFFDA
:100F90001CBD0000000002400008024000040240A6
:100FA00010B50949094800F007FA18B10649074881
:100FB00000F030F90649054800F0FEF918B104497F
:100FC000024800F027F910BD008800102860024098
:100FD0000022001010B50949094800F0EDF918B1D8
:100FE0000649074800F016F90649054800F0E4F9FB
:100FF00018B10449024800F00DF910BD008020101E
:10100000406002400020081010B51149114800F05E
:10101000D3F918B10E490F4800F0FCF80E490D48FD
:1010200000F0CAF918B10C490A4800F0F3F84FF47F
:101030002F7006F075FD0020084908700021054852
:1010400000F002F94FF48041054800F0BEFE10BDEB
:101050000080001858600240004000145101002038
:101060000014024010B51149114800F0A5F918B15B
:101070000E490F4800F0CEF80E490D4800F09CF9DB
:1010800018B10C490A4800F0C5F84FF4FA6006F0B0
:1010900047FD0020084908700021054800F0D4F8F9
:1010A0004FF40051054800F090FE10BD2080002054
:1010B00070600240104000205301002000140240E4
:1010C00010B51249124800F077F960B10F49104885
:1010D00000F0A0F84FF480700D49091D086001214F
:1010E0000B4800F0B1F80B49094800F065F960B110
:1010F0000849074800F08EF84FF480700449091D34
:1011000008600121024800F09FF810BD008800200F
:10111000886002400022002010B51949194800F0EB
:101120004BF998B11849174800F074F8144915485C
:1011300000F070F80021134800F086F80122102119
:10114000104800F06BF90020104908700E490D4856
:1011500000F032F998B10C490A4800F05BF80849F0
:10116000084800F057F80021064800F06DF8012209
:101170001021044800F052F900200449087010BD05
:1011800000802020A0600240004010204F0100207D
:1011900010B50949094800F00FF918B10649074888
:1011A00000F038F80649054800F006F918B104497E
:1011B000024800F02FF810BD00880020886402402B
:1011C0000022002010B50F490F4800F0F5F818B1C3
:1011D0000C490D4800F01EF80C490B4800F0ECF8E3
:1011E00018B10A49084800F015F84FF4FA6006F003
:1011F00097FC0020064908700021034800F024F8FD
:1012000010BD000000800028B864024000400024A7
:101210004D0100200246094B9A4201D2084801E0E4
:101220000648103801F000531BB1064B0B40C36059
:1012300002E0044B0B4083607047000010640240E2
:10124000006002407D0F7D0F21B1026842F0010273
:10125000026003E0026822F00102026070470000B1
:10126000016821F00101016000210160416081609D
:10127000C1600161212141614A49884204D13D2177
:10128000484A103A91608CE046491831884205D1AD
:101290004FF47461434A103A916082E04149303121
:1012A000884205D14FF474113E4A103A916078E0BB
:1012B0003C494831884205D14FF07461394A103AAF
:1012C00091606EE037496031884204D13649354A31
:1012D000103AD16065E033497831884204D133490E
:1012E000304A103AD1605CE02E499031884204D1F6
:1012F0002F492C4A103AD16053E02A49A83188423C
:1013000005D14FF03D51274A103AD16049E02949B3
:10131000884204D13D21274A083A116041E025491D
:101320001831884205D14FF47461224A083A11609D
:1013300037E020493031884205D14FF474111D4AFD
:10134000083A11602DE01B494831884205D14FF021
:101350007461184A083A116023E0164960318842E6
:1013600004D11149134A121F11601AE01149783152
:10137000884204D10D490F4A121F116011E00D4936
:101380009031884204D10A490A4A121F116008E0CC
:101390000849A831884204D14FF03D51054A121F37
:1013A00011607047106002403D000020400F002097
:1013B00000003D201064024070B502460020002469
:1013C0000025124EB24201D2114B01E00F4B103BEF
:1013D000104E0E4036B11E2606EAD124166806EAE3
:1013E000040502E0566906F0800501F000560EB1D2
:1013F0005C6800E01C68084E344004EA010616B13F
:101400000DB1012000E0002070BD0000106402401A
:10141000006002403C0F3C0F7D0F7D0F10B501F0C6
:1014200080034BB122B1436943F08003436103E081
:10143000436923F08003436180290BD02AB10368FC
:1014400001F01E042343036004E0036801F01E045E
:10145000A343036010BD000010B500220268134BC7
:101460001A40CC680B6823434C6923438C6923439F
:10147000CC6923430C6A23434C6A23438C6A23437D
:101480004C6B23438C6B23431A430260426922F066
:101490000702D1E90B3423431A4342610B694360CD
:1014A0004B6883608B68C36010BD00003F801CF0F8
:1014B0004160704770B5002500247848B0F86E018F
:1014C00077490988884230DA76480078401C7549A7
:1014D00008700846007874490978884228DB0020A3
:1014E000704908700120FFF7ABF96C49B1F8180199
:1014F000032100F08FFCD8B912242546284604F0B9
:101500005DFB3221012002F0ABFC082002F0E2FC7E
:10151000092002F0DFFC0321644804F033FA0621BD
:1015200062482830FFF7B0FC02E000205D490870F7
:101530005A48B0F86E015A490988884232DB574848
:10154000B0F86E015A49098888422BDC5948007866
:10155000401C584908700846007853490978884269
:1015600023DB0020534908700220FFF769F94B493B
:10157000B1F84001062100F04DFCB0B93221012044
:1015800002F06EFC082002F0A5FC0B2002F0A2FC89
:1015900003214648FFF778FC06214448283004F030
:1015A000F1F902E00020434908703C48B0F86C01B2
:1015B00041490988884230DD40480078401C3F4955
:1015C00008700846007838490978884228DD0020EC
:1015D0003A4908700120FFF733F93049B1F8180192
:1015E000042100F017FCD8B913242546284604F03E
:1015F000E5FA3321012002F033FC082002F06AFCF6
:10160000092002F067FC0421284804F0BBF90721F7
:1016100026482830FFF738FC02E0002027490870F0
:101620001E48B0F86C0124490988884232DC1B4806
:10163000B0F86C012249098888422BDB21480078E8
:10164000401C2049087008460078174909788842EC
:1016500023DD00201B4908700220FFF7F1F80F4935
:10166000B1F84001072100F0D5FBB0B933210120CA
:1016700002F0F6FB082002F02DFC0B2002F02AFC01
:1016800004210A48FFF700FC07210848283004F02D
:1016900079F902E000200B49087070BDC4030020F6
:1016A00076000020110000207C000020DC040020D7
:1016B00074000020120000207A0000201300002097
:1016C000780000201400002070B52DED028B00255D
:1016D00000249FEDFE0AB0EE408AFD48B0F86A0192
:1016E000FC490988884230DAFB480078401CFA49F6
:1016F000087008460078F9490978884228DB0020FC
:10170000F54908700120FFF79BF8F149B1F818017D
:10171000012100F07FFBD8B910242546284604F0AB
:101720004DFA3621012002F09BFB082002F0D2FB8B
:10173000092002F0CFFB0121E94804F023F904213C
:10174000E7482830FFF7A0FB02E00020E2490870DC
:10175000DF48B0F86A01DF490988884232DBDC489B
:10176000B0F86A01DF49098888422BDCDE4800783E
:10177000401CDD49087008460078D849097888423D
:1017800023DB0020D84908700220FFF759F8D04920
:10179000B1F84001042100F03DFBB0B93621012031
:1017A00002F05EFB082002F095FB0B2002F092FB9A
:1017B0000121CB48FFF768FB0421C948283004F019
:1017C000E1F802E00020C8490870C148B0F868019B
:1017D000C6490988884230DDC5480078401CC449A4
:1017E000087008460078BD490978884228DD002045
:1017F000BF4908700120FFF723F8B549B1F8180177
:10180000022100F007FBD8B911242546284604F030
:10181000D5F93721012002F023FB082002F05AFB02
:10182000092002F057FB0221AD4804F0ABF8052176
:10183000AB482830FFF728FB02E00020AC490870D5
:10184000A348B0F86801A9490988884232DCA04859
:10185000B0F86801A749098888422BDBA6480078C0
:10186000401CA5490870084600789C4909788842C0
:1018700023DD0020A04908700220FEF7E1FF944913
:10188000B1F84001052100F0C5FAB0B937210120B7
:1018900002F0E6FA082002F01DFB0B2002F01AFB12
:1018A00002218F48FFF7F0FA05218D48283004F017
:1018B00069F802E000209049087090480088642888
:1018C0003EDD8348B0F842010A2839DC8048B0F890
:1018D0000201A0B37E48B0F8000180B388480078C8
:1018E000401C87490870084600787C49097888427E
:1018F00029DB0020824908700220FEF7A1FF74490D
:10190000B1F81801052100F085FAE0B90B2425464D
:10191000284604F053F95021012002F0A1FA0820D2
:1019200002F0D8FA092002F0D5FA05216C4804F03B
:1019300029F800216A482830FFF7A6FA03E0FFE7FC
:1019400000206F4908706248B0F8420100EE100AAA
:10195000F8EE400A6948008800EE100AB8EE400A26
:1019600020EE080AF4EEC00AF1EE10FA3BD2584815
:10197000B0F842010A2836DD5548B0F8020188B3B4
:101980005348B0F80401B0F5FA7F2CDD5D480078CB
:10199000401C5C4908700846007850490978884224
:1019A00024DB0020574908700220FEF749FF484910
:1019B000B1F84001002100F02DFAB8B95021012002
:1019C00002F04EFA082002F085FA0B2002F082FAAB
:1019D00005214348FFF758FA00214148283003F019
:1019E000D1FF03E0FFE70020464908703848B0F80F
:1019F000460145490988884236DD3548B0F804017A
:101A0000B0F5FA7F30DD41480078401C3F4908704E
:101A10000846007831490978884228DD00203B4992
:101A200008700120FEF70CFF2949B1F818010621C2
:101A300000F0F0F9D8B90D242546284604F0BEF888
:101A40005321012002F00CFA082002F043FA092089
:101A500002F040FA0621224803F094FF01212048B9
:101A60002830FFF711FA02E00020284908701848D2
:101A7000B0F8460124490988884260DC1448B0F86F
:101A8000460123490988884259DB1148B0F804010E
:101A9000B0F5FA7F53DD1F480078401C1D490870DF
:101AA000084600780D49097888424BDD0020194925
:101AB00008700220FEF7C4FE0549B1F8400101217B
:101AC00000F0A8F940BB5321012026E0CDCC4C3FCB
:101AD000C40300206E000020A70000207C0000202E
:101AE000DC0400206C000020A80000207200002010
:101AF000A900002070000020AA0000201A00002089
:101B0000AB000020AC0000206A000020AD000020E7
:101B100068000020AE00002014E002F0A1F90820C7
:101B200002F0D8F90B2002F0D5F906212648FFF77C
:101B3000ABF901212448283003F024FF02E0002003
:101B4000224908702248B0F8480122490988884291
:101B500034DD1F48B0F80401B0F57A7F2EDD1E4851
:101B60000088401C1C4908801C480078532110FB49
:101B700001F019490988884223DA002016490880B3
:101B80000120FEF75DFE1249B1F81801092100F0AD
:101B900041F9B0B916242546284604F00FF8522121
:101BA000012002F05DF9082002F094F9092002F00A
:101BB00091F90921044803F0E5FE02E000200649FE
:101BC0000880BDEC028B70BDDC040020AE0000205C
:101BD000C403002066000020B00000207C0000202C
:101BE000704700001CB5002400200090019031488F
:101BF000C07A8DF800002F48007B8DF801002D4839
:101C0000407B8DF802002B48807B8DF8030029482B
:101C1000407A8DF804002748807A8DF805009DF8F9
:101C200005009DF8041000EB0120234908809DF871
:101C300001009DF8001000EB0120204908809DF86C
:101C400003009DF8021000EB01201D49088001E00F
:101C500005F0FAF81B4800780028F9D1A5201A49A8
:101C600008705A204870092088708220C8700020AF
:101C700008718E204871002406E01DF80410A01D94
:101C8000114A1154601CC4B2062CF6DB0C2004F07F
:101C900085FC094800880D49A1F8C0010748008863
:101CA000A1F8C20106480088A1F8C401642005F02B
:101CB00037FF1CBDC4020020980000209A000020BD
:101CC0009C0000204F010020041C0020C4030020C1
:101CD000F0B50A4600210023002400BF3DE00125A5
:101CE00005FA01F3156805EA03049C4234D105683E
:101CF0004F000326BE40B543056015794E00B54040
:101D00000668354305601579012D02D01579022D3D
:101D100016D185684F000326BE40B54385605579CE
:101D20004E00B540866835438560456801268E4083
:101D3000B5434560456896798E40B6B235434560F7
:101D4000C5684F000326BE40B543C560D5794E0037
:101D5000B540C6683543C560491C1029BFD3F0BDE6
:101D6000F0B5002300244D07ED0E02FA05F3CE1066
:101D700000F1200555F826504E07F70E0F26BE40FD
:101D8000B543CF1000F1200646F82750CE1000F1E1
:101D9000200555F8265045EA0304CE1000F1200531
:101DA00045F82640F0BD0246002013690B400BB1F8
:101DB000012000E0002070470246002053690B40DC
:101DC0000BB1012000E00020704741837047018380
:101DD0007047000000200E4909880A2291FBF2F3A7
:101DE00002FB131129B10A49098891FBF2F1C8B22B
:101DF0000CE0074909880A2291FBF2F1012905DB71
:101E00000349098891FBF2F1491EC8B270470000EE
:101E10008E000020024642FA01F000F001007047F7
:101E200010B500F02BF800F001F810BD30B58DB002
:101E3000002434216846FEF7F0F9002500BF14E0C5
:101E4000611C88B2694606F09DFE9DF801009DF870
:101E5000001000EB012085B24FF6FF70854200D1E3
:101E600007E005480580601C84B240F2B630844229
:101E7000E6DB00BF0DB030BD8E00002030B58DB068
:101E8000002434216846FEF7C8F9002500BF14E09D
:101E9000611C88B2694606F08CFE9DF801009DF831
:101EA000001000EB012085B24FF6FF70854200D193
:101EB00007E005480580601C84B240F2B6308442D9
:101EC000E6DB00BF0DB030BD9600002010B501E08C
:101ED00004F0BAFF094800780028F9D1A520084984
:101EE00008705A204870032088708120C870202014
:101EF00008710620487104F051FB10BD4F0100200D
:101F0000041C002000BFFEE721B1028842F4806279
:101F1000028004E002884FF6FF331A4002807047C7
:101F200070B502460024002500230020958A138BFB
:101F30001B0445EA030626F07F4404EA01068E42AC
:101F400001D1012000E0002070BD002221F07F427D
:101F5000D3438382704721B1028842F0010202809C
:101F600004E002884FF6FE731A40028070470000BA
:101F700070B505460E4614464FF42040654908608A
:101F800009E064490868411E624A116018B90920D5
:101F900000F0C3FB70BD4FF400315F4800F0ECFA75
:101FA0000028EED101215C4800F0CEFA4FF48050B9
:101FB0005849086009E057490868411E554A1160B0
:101FC00018B90A2000F0A9FBE4E754495248FFF78A
:101FD000A7FF0028EFD05248017800224E4800F0B9
:101FE00092FB4FF480504B49086009E0494908686A
:101FF000411E484A116018B90B2000F08EFBC9E75A
:1020000048494548FFF78CFF0028EFD0012142489E
:10201000FFF7A1FF3146404800F07DFB4FF48050B0
:102020003C49086009E03B490868411E394A116093
:1020300018B90C2000F071FBACE73A49891C36480E
:10204000FFF76EFF0028EED00121334800F07CFA44
:102050004FF480502F49086009E02E490868411E5E
:102060002C4A116018B90D2000F057FB92E72B495C
:102070002948FFF755FF0028EFD0294801780122B1
:10208000254800F040FB4FF480502249086009E0E9
:1020900020490868411E1F4A116018B90E2000F03F
:1020A0003CFB77E71D49491C1B48FFF739FF002817
:1020B000EED026E0012C07D100211748FFF724FFBE
:1020C0000121154800F04CFA4FF4204011490860F6
:1020D00009E010490868411E0E4A116018B9032032
:1020E00000F01BFB56E70D493F310B48FFF718FF87
:1020F0000028EED0084800F002FB28706D1C601E1E
:1021000084B2002CD6D101210348FFF7FDFE012047
:1021100040E7000048010020005400400100030097
:1021200044010020820007002DE9F04707460D46D4
:1021300014464FF00008C146C24600262846E9175B
:1021400005EB5171C910A5EBC10101F0FF0ACAF1FD
:102150000800C6B22046E11704EB5171C1F3C7086D
:10216000E11704EB5171C910A4EBC10101F0FF09A3
:10217000BAF1000F28D1B8F1000F07D14A4629461D
:10218000384600F0EFF800F087F960E00AE0082236
:102190002946384600F0E6F800F07EF905F108001F
:1021A000C5B20837B8F10000A8F1010101F0FF083D
:1021B000EDD1B9F1000F4AD04A462946384600F021
:1021C000D1F800F069F942E0B8F1000F07D14A46B2
:1021D0002946384600F0C6F800F05EF937E0A01B4B
:1021E00084B22046E11704EB5171C1F3C708E1172F
:1021F00004EB5171C910A4EBC10101F0FF094EB10C
:1022000032462946384600F0ADF800F045F9A819E5
:10221000C5B237440AE008222946384600F0A2F841
:1022200000F03AF905F10800C5B20837B8F100002E
:10223000A8F1010101F0FF08EDD1B9F1000F06D0BE
:102240004A462946384600F08DF800F025F9BDE8E9
:10225000F087000070B504460D460121364800F0B5
:1022600073F94FF480503549086009E03349086834
:10227000411E324A116018B9002000F04EFA70BDBC
:102280002F492D48FFF74CFE0028EFD02D4801784C
:102290000022294800F037FA4FF48050274908609F
:1022A00009E026490868411E244A116018B9012036
:1022B00000F033FAE3E724491F48FFF731FE002816
:1022C000EFD029461C4800F026FA4FF480501B49F5
:1022D000086009E019490868411E184A116018B9D8
:1022E000022000F01AFACAE71749891C1248FFF7C2
:1022F00017FE0028EED021780F4800F00CFA4FF4BA
:1023000080500E49086009E00C490868411E0B4ADC
:10231000116018B9032000F000FAB0E70A49891CDF
:102320000548FFF7FDFD0028EED00121024800F02E
:1023300017F90120A3E700000054004048010020E5
:1023400001000300440100208200070010B500F0E6
:10235000CDF800F0A3F9A0200149088010BD0000CD
:102360004401002070B504460E4615464FF4204047
:102370004449086009E043490868411E414A116028
:1023800018B9042000F0C9F970BD4FF400313E487F
:1023900000F0F2F80028EED101213B4800F0D4F81B
:1023A0004FF480503749086009E036490868411EFB
:1023B000344A116018B9052000F0AFF9E4E7334959
:1023C0003148FFF7ADFD0028EFD0314801780022F9
:1023D0002D4800F098F94FF480502A49086009E030
:1023E00028490868411E274A116018B9062000F0E4
:1023F00094F9C9E727492448FFF792FD0028EFD058
:102400003146214800F087F94FF480501D4908609B
:1024100009E01C490868411E1A4A116018B90720D2
:1024200000F07BF9B0E71B49891C1748FFF778FDDE
:102430000028EED01AE02178134800F06CF9641CF3
:102440004FF480500F49086009E00E490868411EAA
:102450000C4A116018B9082000F05FF994E70D49A3
:10246000891C0948FFF75CFD0028EED0281EA5F165
:102470000101CDB2DFD10121034800F071F8012044
:1024800082E70000480100200054004001000300E2
:10249000440100208200070008B50020009000BF22
:1024A00001210F4800F050F814210D4800F01CF9EC
:1024B00000900C4801780022094800F024F914210A
:1024C000074800F011F900F002000028E8D00649A2
:1024D0000348FFF73AFD0121014800F041F808BD2B
:1024E0000054004044010020000400101CB50121EC
:1024F000480501F0BDFF0121022001F0A9FF0422DF
:1025000006211048FFF72CFC042207210D48FFF795
:1025100027FC4020009002208DF804008DF8050073
:1025200001208DF8060000208DF807006946054857
:10253000FFF7CEFB8020009069460248FFF7C8FBFA
:102540001CBD00000004024021B1028842F48072E8
:10255000028004E002884FF6FF631A400280704751
:1025600021B1028842F40072028004E002884FF632
:10257000FF531A40028070470CB50246002000232A
:102580000193009300920B0F019321F07F41019B77
:102590001BB1009B1433009303E0090C009B18331C
:1025A0000093009B1B680B400BB1012000E0002052
:1025B0000CBD00002DE9FF4704460D460026B1463C
:1025C0000427DFF8CC80A6884FF6C0700640684626
:1025D00001F06EFFDDF808802E48B8FBF0F01FFA1E
:1025E00080F946EA0906A68020884FF6FE71084069
:1025F000208000262849286888420CD82868400096
:10260000B8FBF0F087B2042F00DA04273E4309F14B
:102610000100208427E0E8884BF6FF71884206D14C
:10262000286800EB4000B8FBF0F087B209E02868AA
:1026300000EBC00101EB0010B8FBF0F087B247F4EB
:102640008047C7F30B0008B947F0010747F4004083
:1026500006434FF4967009FB00F04FF47A7190FB3B
:10266000F1F0401C2084A683208840F001002080E7
:1026700026884FF6F5300640A88869890843064346
:102680002680A889298908432081BDE8FF870000AA
:1026900000127A0040420F00A08601001FB5002002
:1026A000ADF804004BF6FF70ADF806000A20ADF857
:1026B00008004FF48060ADF80A000001ADF80C008E
:1026C0000748009069460748FFF774FF0121054855
:1026D000FFF741FC01210348FFF716FC1FBD000076
:1026E000801A06000054004008B502460020009001
:1026F00000920098084400900098008808BD0146A8
:10270000088AC0B2704712B141F0010101E001F046
:10271000FE01018270470182704701460020704728
:102720001CB50121202001F093FE01208DF804004A
:1027300000208DF8060001208DF8070000208DF89C
:1027400005004FF40040009069461148FFF7C0FAB9
:102750000121402001F07CFE01208DF804000020C2
:102760008DF8060001208DF8070002208DF8050085
:102770000120009069460748FFF7AAFA4FF400418C
:102780000348FFF724FB01210248FFF720FB1CBD93
:1027900000140240001802401CB50121402001F045
:1027A00057FE01208DF8040000208DF8060001205E
:1027B0008DF8070000208DF8050002200090694682
:1027C0001048FFF785FA0121102001F041FE012099
:1027D0008DF8040000208DF8060001208DF8070018
:1027E00000208DF805008020009069460648FFF71C
:1027F0006FFA02210348FFF7EAFA80210248FFF747
:10280000E6FA1CBD00180240001002401CB5012170
:10281000202001F01DFE01208DF8040000208DF81D
:10282000060001208DF8070000208DF805004FF408
:102830000060009069461248FFF74AFA0121202003
:1028400001F006FE01208DF8040000208DF806003E
:1028500001208DF8070000208DF805004FF480500E
:10286000009069460648FFF733FA4FF400610448C8
:10287000FFF7ADFA4FF480510148FFF7A8FA1CBDED
:102880000014024070B5044602F038FC00200F49E5
:102890000860002516E0E0090D4908606006040E96
:1028A000022005F03DF901200A49C1F8800202200A
:1028B00005F036F9002005490860022005F030F9DE
:1028C000681CC5B2082DE6DB70BD000080024342E3
:1028D000BC8242420000434270B5044602F028FC2C
:1028E00000200F490860002516E0E0090D49086046
:1028F0006006040E022005F013F901200A49C1F810
:102900009C02022005F00CF9002005490860022015
:1029100005F006F9681CC5B2082DE6DB70BD0000A5
:102920009C024242840243420000424270B5044687
:1029300002F018FC00200F490860002517E0E009AC
:102940000C49091F08606006040E022005F0E8F833
:1029500001200949C1F8B002022005F0E1F8002089
:1029600004490860022005F0DBF8681CC5B2082D98
:10297000E5DB70BDB08242420080424210B502F0F9
:10298000BDFB0120094908600949C1F88002042003
:1029900005F0C6F8002005490860042005F0C0F8DD
:1029A00000200349C1F8800210BD0000BC824242F1
:1029B0000000434210B502F0BBFB0120094908604A
:1029C0000949C1F89C02042005F0AAF80020054935
:1029D0000860042005F0A4F800200349C1F89C0217
:1029E00010BD0000840243420000424210B502F0D4
:1029F000B9FB0120094908600949C1F8B002042067
:102A000005F08EF8002005490860042005F088F8DC
:102A100000200349C1F8B00210BD0000AC82424260
:102A20000080424210B502F069FB002008490860AE
:102A30000849C1F8BC02042005F072F801200449DD
:102A400008600449C1F8BC02042005F069F810BD13
:102A5000800243420080424210B502F069FB002030
:102A6000084908600849C1F88402042005F058F8B4
:102A70000120044908600449C1F88402042005F0DB
:102A80004FF810BD9C0242420000434210B502F0D4
:102A900069FB0020084908600849C1F8AC0204201D
:102AA00005F03EF80120044908600449C1F8AC0271
:102AB000042005F035F810BDB08242420080424249
:102AC00010B5002402F0DAFA01200E49086005F082
:102AD00027F801200C49C1F8800205F021F807E031
:102AE000601CC4B2FA2C03DDFFF79CFF012010BD6F
:102AF0000448803800680028F2D10449086000BF0B
:102B0000F5E70000BC82424200004342800243429B
:102B100010B5002402F0C8FA01200E49086004F044
:102B2000FFFF01200C49C1F89C0204F0F9FF07E007
:102B3000601CC4B2FA2C03DDFFF78EFF012010BD2C
:102B40000448803800680028F2D10449086000BFBA
:102B5000F5E7000084024342000042429C024242E8
:102B600010B5002402F0B4FA01200E49086004F008
:102B7000D7FF01200C49C1F8B00204F0D1FF07E0F3
:102B8000601CC4B2FA2C03DDFFF780FF012010BDEA
:102B90000448803800680028F2D10249091D086005
:102BA00000BFF4E7AC8242420080424270B5044666
:102BB00000254FF400600C494883C4F3074002F03D
:102BC00009FBC4F3072002F005FB04F0F80002F053
:102BD00001FB002002F0FEFA05464FF400600249B6
:102BE0000883284670BD00000010024070B50446FE
:102BF00000254FF480500C490880C4F3074002F0D0
:102C0000CDFAC4F3072002F0C9FA04F0F80002F08C
:102C1000C5FA002002F0C2FA05464FF4805002497E
:102C2000891E0880284670BD1A04024070B504460B
:102C30000D464FF400600C494883C4F3074002F08E
:102C4000C9FAC4F3072002F0C5FA04F0F801091D1F
:102C5000C8B202F0BFFA284602F0BCFA4FF4006096
:102C60000149088370BD00000010024070B50446A1
:102C70000D464FF480500C490880C4F3074002F021
:102C80008DFAC4F3072002F089FA04F0F801091D57
:102C9000C8B202F083FA284602F080FA4FF480505E
:102CA0000149891E088070BD1A04024070B50024D5
:102CB0004FF4005500BF07E0284600F093F805F1F7
:102CC000100085B2601CC4B20A2CF5DB70BD000098
:102CD00070B505460C460A48007840B9284600F011
:102CE0009BFB41F21F01002001F0BAF807E02046EB
:102CF00000F092FB41F21F01012001F0B1F870BD1C
:102D00008000002070B5002400251C49B1F818018E
:102D10000021FFF77FF800B1012500240AE02046DA
:102D200004F032FD142004F0EFFE204607F0C4FC4E
:102D3000601CC4B2082CF2DB04F0EEFD00240AE0B3
:102D4000002104F180000D4A22F81010203022F8F2
:102D50001010601CC4B2202CF2DB34220021084683
:102D600005F03CFE36220021084605F037FE1DB175
:102D70000021034802F006FE70BD0000C4030020DD
:102D8000DC04002010B5002401E004F05DF81348D5
:102D900000780028F9D1A520114908705A20487000
:102DA0000F2088708220C870002008716020487150
:102DB000002405E00021A01D094A1154601CC4B282
:102DC0000C2CF7DB122003F0E9FB01E004F03CF8E7
:102DD000024800780028F9D110BD00004F01002002
:102DE000041C002010B5044601E004F02DF8194839
:102DF00000780028F9D1A520174908705A2048709A
:102E0000192088708220C870200A08714C71002037
:102E10008871C871087248728872C87208734873E2
:102E20008873C873087448748874C87408754875C2
:102E30008875C875087648768876C8761C2003F0B1
:102E4000ADFB01E004F000F8024800780028F9D159
:102E500010BD00004F010020041C002070B5054685
:102E60000C4601E003F0F0FF234800780028F9D178
:102E7000A520224908705A204870192088708220A5
:102E8000C870280A08714D71207888716078C871FF
:102E9000A0780872E0784872207988726079C872E8
:102EA000A0790873E0794873207A8873607AC873D0
:102EB000A07A0874E07A4874207B8874607BC874B8
:102EC000A07B0875E07B4875207C8875607CC875A0
:102ED000A07C087600204876E07C8876207DC87645
:102EE0001C2003F05BFB01E003F0AEFF024800781A
:102EF0000028F9D170BD00004F010020041C002003
:102F000010B501E003F0A0FF144800780028F9D1C3
:102F1000A520134908705A2048702120887082200B
:102F2000C870002008718E2048710E480088001279
:102F300088710C480078C8710B480088001208722C
:102F400009480078487209480088001288720748CA
:102F50000078C872242003F021FB10BD4F0100202F
:102F6000041C00209A0000209C00002098000020F3
:102F700010B50848007820B100200649087005F017
:102F800049F90548007820B100200349087001F094
:102F900051F810BD920000208A00002010B501E019
:102FA00003F052FF3B4800780028F9D1A5203A49A8
:102FB00008705A204870212088708220C870002034
:102FC0000871202048710020887134480078C87149
:102FD0000020087232480078487200208872314818
:102FE0000078C872002008732F48007848730020CA
:102FF00088732E480078C8732D4800880012087422
:103000002B48007848742B4800880012887429489F
:103010000078C8742848008800120875264800788F
:103020004875264800880012887524480078C875BD
:103030002348008800120876214800784876214805
:103040000088001288761F480078C8761E480088DD
:10305000001208771C48007848771C480088001246
:1030600088771A480078C87719480088001281F8D4
:1030700020001748007881F82100164800880012C7
:1030800081F822001348007881F82300242003F0FF
:1030900085FA10BD4F010020041C00205A000020BA
:1030A0005B0000205C0000205D0000205E0000202E
:1030B0006000002062000020640000206600002004
:1030C000680000206A0000206C0000206E000020D4
:1030D000700000207200002010B501E003F0B4FE83
:1030E000444800780028F9D1A520434908705A20A7
:1030F0004870232088708220C8700020087120202A
:1031000048713E480088001288713C480078C871B8
:103110003B480088001208723948007848723948E4
:1031200000880012887237480078C87236480088D4
:103130000012087334480078487300208873C873FD
:1031400032480088001208743048007848743048CB
:103150000088001288742E480078C8740020087512
:1031600048752C480088001288752A480078C87570
:1031700029480088001208762748007848762748B2
:1031800000880012887625480078C8762448008890
:1031900000120877224800784877224800880012F9
:1031A000887720480078C8771F480088001281F887
:1031B00020001D48007881F821001C48008800127A
:1031C00081F822001948007881F823001848007817
:1031D000001281F824001648007881F82500262086
:1031E00003F0DCF901E003F02FFE0248007800282C
:1031F000F9D110BD4F010020041C002078000020F0
:103200007A0000207400002076000020600000207A
:103210006200002066000020680000206A00002094
:103220006C0000206E000020700000207200002062
:103230007C0000201CB5002400200090019029484B
:10324000407A8DF800002748807A8DF801002548E3
:10325000C07A8DF802002348007B8DF803002148D6
:10326000807B8DF804009DF801009DF8001000EBB4
:1032700001201D49A1F820019DF803009DF80210CE
:1032800000EB01201849A1F822019DF80400A1F8E3
:103290002401A520154908705A2048700D20887017
:1032A0008220C870062008710020487100BF0BE022
:1032B00000216000801D0D4A11541DF804106000AB
:1032C000C01D1154601CC4B2052CF1DB102003F0AA
:1032D00065F901E003F0B8FD054800780028F9D150
:1032E0001CBD0000C4020020C4030020041C0020F8
:1032F0004F01002010B5002401E003F0A5FD2B488C
:1033000000780028F9D1A520294908705A20487072
:10331000212088708220C870082008710020487120
:10332000002408E02348005D00F07F01204AA01D32
:103330001154601CC4B21C2CF4DBFF201C4981F822
:10334000220081F82300242003F028F9052004F04E
:10335000DBFB01E003F078FD144800780028F9D188
:10336000A520134908705A204870212088708220B7
:10337000C870082008715020487100240AE00D49E7
:1033800004F12000085C00F07F01094AA01D1154DF
:10339000601CC4B21C2CF2DBFF20054981F822001E
:1033A00081F82300242003F0F9F810BD4F0100201C
:1033B000041C0020C200002010B501E003F044FD11
:1033C000114800780028F9D1A520104908705A202A
:1033D0004870072088708220C87000200871302053
:1033E00048710B4800880012887109480078C8713C
:1033F00008480088001208720648007848720A20BF
:1034000003F0CCF810BD00004F010020041C002088
:10341000560000205800002010B5044601E003F0DB
:1034200013FD0E4800780028F9D1A5200C4908703A
:103430005A204870032088708020C87004200871CA
:1034400008464471062003F0A9F801E003F0FCFCF3
:10345000024800780028F9D110BD00004F0100207B
:10346000041C002070B5002500240020FE490880BF
:10347000FE480078A52879D1FC4840785A28FAD12E
:10348000FA484079F949097900EB012085B2F748FB
:10349000007AF649C97900EB012084B2F348C0787C
:1034A000832870D1902D6FD034DC202D6DD011DCAD
:1034B0001B2D6BD2DFE805F0F66A6A6A82A2C6F5B8
:1034C0006A6A6A6A6A6A6AF4F3F2F1F0EFEEEDECA6
:1034D000EBEAE900292D70D009DCA5F121000828CC
:1034E000E7D2DFE800F0E7E6E5E4E3E2E1E02E2DF5
:1034F0007DD008DC2A2D7BD02B2D7AD02C2D79D0B5
:103500002D2D43D198E22F2D75D08E2D74D08F2D77
:10351000F7D1C0E2A22D70D016DCA5F191001128E0
:10352000C7D2DFE810F0E802EC02F002F402F80281
:10353000FC020003040308030C0310031403180324
:103540001C0320032403280341F20121681A8D4241
:1035500072D01CDCA72D70D009DCA32D6ED0A42D59
:103560006DD0A52D6CD0A62DCBD118E3F5E3A82DF9
:1035700067D0A5F580501F3800286ED0A0F2E1106A
:103580000028BED128E3E9E39DE2D6E109E240F25A
:10359000FF22811A904273D008DC012871D00228E2
:1035A00070D0A0F24F100028ABD16BE305296AD090
:1035B000062969D00729A4D1FEE316E2AB48007AB8
:1035C000AB4908708020A8490880A9480078A9491B
:1035D000A1F80001A848007818B118210220FFF7CF
:1035E00077FB0421A248007800F03AFCD9E12AE2F6
:1035F00006E210E216E22DE235E2C0E29F480078D2
:10360000012813D19948007A9D4908708120964974
:1036100008809748007820B900209949087092499D
:103620000880974800789349A1F802010521944841
:10363000007800F015FCE2E302E3B4E2A3E2A6E2C4
:10364000A9E2B4E28D480078012869D142F604105D
:10365000844203DC8B4804803CE0ACE24FF6FE7011
:1036600084422CD18748008887490988884222DB18
:103670008448008884490988401A8249088029E0E2
:10368000BAE3F3E2FDE243E380E34CE148E13FE1EA
:1036900036E12DE124E11BE112E1D0E0B1E09DE053
:1036A00042E03EE087E095E17CE16FE162E160E1CC
:1036B00058E150E148E10020724908800AE04FF6E5
:1036C000FF70844206D16F4800886F49098808441A
:1036D0006C4908806B48008842F60411884202DD7C
:1036E00008466849088082205F490880654801884B
:1036F00060485D4A128820F812105D48007850B981
:1037000000205949088000215E4801805948564AE6
:10371000128820F8121006215A48008800F0A0FBF9
:103720006DE3594804806AE3012C02D105F0FEF8EC
:1037300040E0022C02D1FFF7E3FB3BE0B4F5E16F80
:1037400005D10920FFF768FEFFF728FC32E0032CC3
:1037500015D14E48007838B30020484908702A2116
:103760004648FEF777FD0120414908700846007879
:103770004049A1F8000141480078C8861AE0042CAD
:1037800013D101203D4908700020394908700846CE
:1037900000783849A1F800012A213848FEF75AFD7F
:1037A000364800783349C88604E00F2C02D1012046
:1037B0003749087023E33148007830B9334800783E
:1037C00018B123210F20FFF783FA2C480078012835
:1037D00003D118210220FFF77BFA10E32348007A77
:1037E0002C49087008460078FF2801DDFF2008708A
:1037F000284800781F49488400212648FEF72AFD02
:10380000FDE21A48007A2449087008460078072823
:1038100001DD0720087001211F48FEF71BFD1E482F
:1038200000781449888400211C4803F050F81C4992
:10383000194A127851F8220002F01CFCDFE20B4812
:10384000007A1849087008460078072801DD07202B
:10385000087002211348FEF7FDFC12480078054964
:10386000C8840021104821E0B4000020041B00207F
:1038700018000020C40300202000002024000020A5
:10388000190000201A0000201C0000204C0100201C
:103890002500002026000020270000200010014005
:1038A0002C000020280000200048004003F00FF802
:1038B000F649F74A127851F8220002F087FE9EE29C
:1038C000F448C079F4490870F248007A487096E2EA
:1038D000F048C079F0498870EE48007AC8708EE2EE
:1038E000EC48C079ED490870EA48007A487086E2F1
:1038F000E848C079E9498870E648007AC8707EE2F5
:10390000E448C079E6490870E248007A487076E2F7
:10391000E048C079E2498870DE48007AC8706EE2FB
:10392000E04804806BE22CB10220DF49087006F009
:1039300091FB01E005F04EF961E2DC48048000886B
:10394000DB49A1F8A8015AE2DA4804800088D84986
:10395000A1F8AA0153E2D84804800088D449A1F80C
:10396000AC014CE2D54804800088D149A1F8AE01F1
:1039700045E244E2D24804804FF48E70D149088079
:10398000CF480088CA49A1F8380238E2CE480480FE
:1039900040F21D10CB490880CB480088C449A1F8EB
:1039A0003A022CE2C94804804521BA48C01DFEF7FE
:1039B00051FC0A2004F0A8F84621B6480830FEF76A
:1039C00049FCC120BF490880C0480088B849A1F817
:1039D000820114E2BE480480C420BA490880BC4871
:1039E0000088B349A1F8880109E2BA480480C620DA
:1039F000B4490880B7480088AD49A1F88C01FEE1C0
:103A0000B5480480C720AF490880B3480088A8495A
:103A1000A1F88E01F3E1B14804800088A449A1F81F
:103A2000A401ECE1AE4804800088A149A1F8A601F8
:103A30000A2004F069F8E2E1AA48048000889C4961
:103A4000A1F8A001DBE1A848048000889849A1F80A
:103A5000A201D4E10A2C00DA0A24642C00DD6424DB
:103A6000A2490C70CBE1A248048064218948C01DA2
:103A7000FEF7F0FB0A2004F047F86521854808307E
:103A8000FEF7E8FBE1208F490880994800888849C3
:103A9000A1F8C201B3E19748048066217D48C01DAA
:103AA000FEF7D8FB0A2004F02FF867217948083088
:103AB000FEF7D0FBE220834908808E4800887C49CD
:103AC000A1F8C4019BE18C48048068217148C01DA5
:103AD000FEF7C0FB0A2004F017F869216D48083092
:103AE000FEF7B8FBE02077490880834800887049DA
:103AF000A1F8C00183E1012001F094FE7FE10220E2
:103B000001F090FE7BE1032001F08CFE77E10420C0
:103B100001F088FE73E1052001F084FE6FE10620CC
:103B200001F080FE6BE1072001F07CFE67E10820D8
:103B300001F078FE63E1092001F074FE5FE10A20E4
:103B400001F070FE5BE10B2001F06CFE57E10C20F0
:103B500001F068FE53E10D2001F064FE4FE10E20FC
:103B600001F060FE4BE10F2001F05CFE47E1102008
:103B700001F058FE43E1112001F054FE3FE1122014
:103B800001F050FE3BE1132001F04CFE37E1142020
:103B900001F048FE33E1152001F044FE2FE116202C
:103BA00001F040FE2BE1172001F03CFE27E1182038
:103BB00001F038FE23E13CB1012050490870322168
:103BC0004E48FEF747FB06E000204C4908703221C2
:103BD0004A48FEF73FFB12E1012049490870494875
:103BE0000078002804DD47480078401E45490870E9
:103BF00045480088142190FBF1F201FB120080B1CE
:103C000041480088142813DD3F48008890FBF1F2FA
:103C100001FB120014303C490988081A3A4908800F
:103C200006E03848007800EB8000800036490880C4
:103C300035480088002802DC002033490880DEE097
:103C400001202F490870304800883049098888428F
:103C500004DA2C480078401C2A490870294800786A
:103C60005F2802DD5F2027490870C8E0FEF7D8F81A
:103C70000120234908700020234908802149087049
:103C8000BDE0BCE0FFF736FBB9E000002C000020EF
:103C900028000020041B002084010020880100204F
:103CA0008C0100209001002081000020780000207D
:103CB000C40300207A000020740000207600002059
:103CC00060000020B400002062000020640000209A
:103CD00066000020680000206A0000206C000020C0
:103CE0006E00002070000020720000207C00002088
:103CF0009A0000209C0000209800002080000020F6
:103D000092000020910000209400002096000020E6
:103D100001204C4908704C480078002804DD4A48CE
:103D20000078401E48490870484800880A2190FBE6
:103D3000F1F201FB1200D0B1444800880A280EDDE0
:103D40004248008890FBF1F201FB12000A303F4923
:103D50000988081A3D49088010E071E055E03A48AA
:103D6000007800EB800040003849088006E03648C3
:103D7000007800EB80004000344908803248007829
:103D8000002802DC00203049087038E001202D496D
:103D900008702E4800882E49098888420ADAFEF702
:103DA00019F829490978884204DD27480078401C21
:103DB00025490870244800E015E000785E2802DDFF
:103DC0005E2021490870214800880A2190FBF1F209
:103DD00001FB120030B11C48007800EB800040006D
:103DE0001A4908800BE00120164908700020174985
:103DF00008801549087002E001F0CCFD00BF00BF4B
:103E00001448008801F0DEF81AE01348C0788128D1
:103E100016D111480079202810D10F4880790F4918
:103E200008700D48C07948700B48007A88700A48BD
:103E3000807AC8700848C07A087100E000BF00BFEF
:103E400070BD00008A000020900000208C0000203F
:103E50008E000020B4000020041B00204C00002035
:103E600070B504460D4601E002F0EEFF0E48007802
:103E70000028F9D1A5200D4908705A204870052066
:103E800088708220C870281208714D7120128871C4
:103E9000CC71082002F082FB01E002F0D5FF02485D
:103EA00000780028F9D170BD4F010020041C0020CB
:103EB00010B510210648FDF77FFF20B110210448FE
:103EC000FDF783FF03E010210148FDF780FF10BDDF
:103ED0000018024010B504460C2C74D2DFE804F040
:103EE000060F18212A333C454E5760698021374818
:103EF000FDF76BFF40213548FDF767FF64E0802147
:103F00003248FDF764FF40213048FDF75EFF5BE07B
:103F100080212E48FDF759FF40212C48FDF757FF1F
:103F200052E080212948FDF752FF40212748FDF744
:103F30004EFF49E020212548FDF747FF1021234887
:103F4000FDF743FF40E020212048FDF740FF10210E
:103F50001E48FDF73AFF37E020211C48FDF735FFEA
:103F600010211A48FDF733FF2EE020211748FDF7F6
:103F70002EFF10211548FDF72AFF25E008211348E0
:103F8000FDF723FF04211148FDF71FFF1CE0082166
:103F90000E48FDF71CFF04210C48FDF716FF13E047
:103FA00008210A48FDF711FF04210848FDF70FFF1B
:103FB0000AE008210548FDF70AFF04210348FDF740
:103FC00006FF01E0FFE700BF00BF10BD0018024080
:103FD0001CB50121402000F03BFA01208DF80400BF
:103FE00000208DF8060001208DF8070000208DF8D4
:103FF0000500FC20009069460D48FDF769FE04218C
:104000000B48FDF7E2FE08210948FDF7DEFE10210E
:104010000748FDF7DAFE20210548FDF7D6FE4021CE
:104020000348FDF7D2FE80210148FDF7CEFE1CBDFE
:104030000018024070B5B2B000242548007800EBAB
:1040400080004600C8216846FCF7E7F84FF40055A9
:10405000204800882049098888420ED000BF0AE025
:104060002846FEF7BFFE05F1100085B20A2003F0D6
:104070004BFD601CC4B20A2CF2DB4FF40055002447
:1040800020E01448008814490988884202D0124868
:10409000008800B918E03119491C88B2694604F05B
:1040A00071FD0A2003F030FD0A480088401C0949D0
:1040B000088069462846FEF7D1FE05F1100085B25A
:1040C000601CC4B20A2CDCDB00BF32B070BD000043
:1040D000900000208C0000208E00002000BFFEE732
:1040E0007047000070B5002100230F22C4781CB374
:1040F000174C246804F4E064C4F5E064C4F30721B9
:10410000C1F10404E3B20A4144789C40E1B28478EE
:10411000144021430C07210E0E4C0578615504789C
:1041200004F01F050124AC4005786D11AD0005F1C8
:10413000E025C5F8004109E0047804F01F050124DA
:10414000AC40054D0678761145F8264070BD00005C
:104150000CED00E000E400E080E100E002490143F2
:10416000024A1160704700000000FA050CED00E003
:10417000014908627047000000000E4270470000CD
:1041800070B5002410218B48FDF70DFE0446002C6D
:1041900032D0002500260020874908708749A1F801
:1041A0000001874908708549A1F8020180218548EE
:1041B000FDF70DFE10218448FDF707FE4FF49851DE
:1041C0000120FFF74DFE0920FFF784FE0120FCF7D8
:1041D00037FB7A49B1F818010021FDF71BFE50B9F1
:1041E000FEF790FD0021794801F0CCFB0F26354603
:1041F000284601F0E3FC19E04FF498510020FFF746
:104200002FFE6E49B1F818010021FDF703FE68B1D9
:1042100000216E48FCF738FE80216A48FDF7D5FD85
:104220000820FFF757FE0020FCF70AFB6348B0F8B0
:10423000400128B10820FFF74DFE0B20FFF74AFE92
:104240005E48B0F8180130B95C48B0F8400110B9C8
:104250000820FFF73FFE5948B0F81801B8B1002018
:104260005749087081205A49088000205349A1F815
:10427000020180215348FDF7AAFD10215248FDF7A5
:10428000A4FD0820FFF726FE0920FFF723FE4B4878
:10429000B0F8180150B980214A48FDF796FD102169
:1042A0004948FDF794FD0220FFF714FE42480078CC
:1042B00018B304214748FDF78AFD4748007808B93C
:1042C00001F0E0F83D48B0F8160100B170BD0421DE
:1042D0000120FFF7C5FD01204049087040480088D3
:1042E000B0F57A7F44DD40F2E9303D490880012194
:1042F0003648801E01F046FB3AE00020364908703F
:104300003848007830B116210020FEF7E1FC00208B
:104310003449087001F0A4FA04212E48FDF755FD38
:104320000020FFF7D7FD2D480078012809D1FEF7BE
:10433000E9FC02202949087032220021084604F0D5
:104340004DFB10212848FDF737FD18B110212648F4
:10435000FDF73BFD00202249088001211B48801EFB
:1043600001F010FBFEF70EFD04210020FFF778FDA1
:104370001E480078E0B141F2707003F0C5FB0421E3
:104380001448FDF724FD10210F48FDF720FD012002
:1043900009490870084600780849A1F80001012081
:1043A0000E4908700220FFF795FD00200F490870A4
:1043B00000BF8BE70010024018000020C40300205B
:1043C000190000200000024000080240DC04002028
:1043D000B4000020000C024020000020100000204B
:1043E000BA000020210000200018024082000020B6
:1043F0001CB50121082000F02BF80121102000F04D
:1044000027F801208DF8040000208DF80600012017
:104410008DF807008DF805000420009069460A48D1
:10442000FDF756FC1020009000208DF804000220BB
:104430008DF8050069460548FDF74AFC042102484D
:10444000FDF7C3FC1CBD0000000C02400010024040
:1044500029B1064A12680243044B1A6004E0034A79
:1044600012688243014B1A607047000030380240E6
:1044700029B1064A12680243044B1A6004E0034A59
:1044800012688243014B1A607047000040380240B6
:1044900029B1064A12680243044B1A6004E0034A39
:1044A00012688243014B1A60704700004438024092
:1044B000F0B5002100220024022500260223324FFD
:1044C0003F6807F00C0121B1042905D0082937D134
:1044D00005E02E4F076036E02D4F076033E02A4F8E
:1044E0003F1F3F68C7F38056274F3F1F3F6807F0C5
:1044F0003F036EB1264FB7FBF3F7DFF88CC0ACF18A
:10450000040CDCF800C0CCF3881C07FB0CF40CE0B6
:104510001E4FB7FBF3F7DFF870C0ACF1040CDCF80A
:1045200000C0CCF3881C07FB0CF4174F3F1F3F68FB
:10453000C7F301477F1C7D00B4FBF5F7076002E07D
:10454000124F076000BF00BF0F4F3F6807F0F00138
:104550000909104F7A5C0768D74047600A4F3F68E7
:1045600007F4E051890A0B4F7A5C4768D7408760AF
:10457000054F3F6807F46041490B064F7A5C476876
:10458000D740C760F0BD0000083802400024F400A6
:10459000005A62020000002010B5014600220023EC
:1045A00000204A11012A02D10A4C236808E0022A9D
:1045B00003D1084C7034236802E0064C743423683D
:1045C00001F01F02012494401C400CB1012000E0C6
:1045D000002010BD0038024001490860704700000B
:1045E000800E474201490860704700003C0E474278
:1045F000002100F44072B2F5407F08D1094A1168E9
:1046000021F4F811084A02401143064A1160054A94
:1046100068321268C0F30B031A43024B68331A6006
:104620007047000008380240FFFCFF0F10B586B04D
:104630000446142101A8FBF7F0FD00208DF80400CA
:104640008DF805008DF806008DF807008DF808003C
:104650008DF809008DF80A0006208DF80B00201255
:104660008DF80C00E0B28DF80D00094830F8140008
:1046700000128DF80E00064810F814008DF80F0097
:104680000C2201A9002004F0E1FE06B010BD0000DC
:10469000C403002010B590B0044640216846FBF7E3
:1046A000BCFD00208DF800008DF801008DF802009F
:1046B0008DF803008DF804008DF805008DF80600D4
:1046C00003208DF80700A4F108000E2819D2DFE8B6
:1046D00000F007192B3D4E60728495A7B9CBDCEF33
:1046E00000208DF8080080208DF8090000208DF84A
:1046F0000A0008208DF80B000C226946002004F007
:10470000A5FEE7E000208DF80800A0208DF8090044
:1047100000208DF80A0016208DF80B000C22694647
:10472000002004F093FED5E000208DF80800E02082
:104730008DF8090000208DF80A0003208DF80B0089
:104740000C226946002004F081FEC3E001208DF8B0
:10475000080000208DF809008DF80A0026208DF849
:104760000B000C226946002004F070FEB2E001202C
:104770008DF8080040208DF8090000208DF80A000F
:1047800026208DF80B000C226946002004F05EFE06
:10479000A0E001208DF8080080208DF8090000209D
:1047A0008DF80A0026208DF80B000C2269460020A7
:1047B00004F04CFE8EE001208DF80800C0208DF83A
:1047C000090000208DF80A0026208DF80B000C222D
:1047D0006946002004F03AFE7CE002208DF80800D3
:1047E00000208DF809008DF80A0026208DF80B00B6
:1047F0000C226946002004F029FE6BE002208DF8AF
:10480000080040208DF8090000208DF80A002620BD
:104810008DF80B000C226946002004F017FE59E0C9
:1048200002208DF8080080208DF8090000208DF806
:104830000A0026208DF80B000C226946002004F0A7
:1048400005FE47E002208DF80800C0208DF8090021
:1048500000208DF80A0026208DF80B000C226946F6
:10486000002004F0F3FD35E003208DF8080000205F
:104870008DF809008DF80A0008208DF80B000C2235
:104880006946002004F0E2FD24E000208DF80800D5
:1048900090208DF8090000208DF80A0003208DF883
:1048A0000B000C226946002004F0D0FD12E0FFE767
:1048B00000208DF8080001208DF8090000208DF8F7
:1048C0000A0001208DF80B000C226946002004F03C
:1048D000BDFD00BF00BF10B010BD70B505460E464F
:1048E0001446E879032839D10B2C0ADB122C08DC9A
:1048F000287A4C2805D104F15A01C8B203F0D8FC3B
:104900002DE00A2C05D1287A062802D1FDF76AF994
:1049100025E0082C05D1287A102802D103F000FBED
:104920001DE0092C05D1287A2C2802D103F07CF94E
:1049300015E0132C05D1287A102802D103F0FAF8DB
:104940000DE0142C05D1287A062802D1FEF772FC5E
:1049500005E0152C03D100F077FD00E000BF70BD2D
:104960001CB501212020FFF773FD01208DF8040004
:1049700000208DF8060001208DF8070000208DF83A
:1049800005004FF4C040009069460448FDF7A0F9C7
:104990004FF400510148FDF718FA1CBD0014024005
:1049A000014600BF080900EB8000420001F00F0043
:1049B0001044C0B270470146002204E0501CC2B24D
:1049C000A1F10A00C1B20A29F8DA100741EA106021
:1049D00070470EB501210807FFF74AFD0120FFF7D8
:1049E000C7FB0120FFF7F8FD00BF6120FFF7D4FDF2
:1049F0000028FAD04FF40070FFF7FAFD0120FFF70E
:104A0000F1FD00F0B3F97C200190FF20029000201E
:104A10000090684600F082F80EBD000008B5002244
:104A2000009200200021104A126802F04002CAB928
:104A3000421E0D4B1A6000BF0B4A126802F0400183
:104A4000009A521C0092009AB2F5803F01D00029D2
:104A5000F2D0054A126802F040020AB1012002E0D9
:104A6000002000E0012008BD0C2800400348006839
:104A700020F0800001490860704700000C280040C9
:104A800070B506460C4600250E4800680E4900EA3F
:104A90000105280CE070C5F30420607005F03F00AC
:104AA000A070C5F3423020705EB9E078FFF778FF60
:104AB000E0706078FFF774FF6070A078FFF770FF18
:104AC000A07070BD042800403FFFFF0070B506468F
:104AD0000C4600250F4800680F4900EA0105C5F3A0
:104AE00005402070C5F30620607005F07F00A070BF
:104AF00005F48000000CE0705EB92078FFF750FFED
:104B000020706078FFF74CFF6070A078FFF748FFD7
:104B1000A07070BD002800407F7F7F0030B5044644
:104B20000025CA201549086053200860FFF776FF6A
:104B300000B91DE011481C38006820F040000F4902
:104B40001C39086008460068216808430B491C3975
:104B500008600A491439A068086008460068A188FE
:104B600040EA0140054914390860FFF77FFF01253D
:104B7000FF2002490860284630BD0000242800407C
:104B80002DE9F04105460C46002600274DB9607816
:104B900000F01000102804D1607820F010000A30D6
:104BA000607005B908E06078FFF7FAFE0646A07865
:104BB000FFF7F6FE064600BF55B1E07800046178C5
:104BC00040EA0120A1780843217840EA413611E00B
:104BD000E078FFF7F0FE4FEA00486078FFF7EBFE61
:104BE00048EA0028A078FFF7E6FE48EA00082078A7
:104BF00048EA4036CA201249086053200860FFF78F
:104C00000DFF08B9002714E00E4830400C49203948
:104C10000860FFF72BFF0A481C38006800F02000EE
:104C200030B900F0A3F808B9002702E0012700E03E
:104C30000127FF20024908603846BDE8F0810000E6
:104C4000242800403FFFFF002DE9F04105460C46B7
:104C5000002600274DB92E48006800F0400000B142
:104C600002E00020E07000BF0DE02948006800F07D
:104C7000400020B12078FFF793FE064602E00020B6
:104C8000E07000BF00BF55B120780004617840EAB1
:104C90000120A1780843E17840EA014611E020783C
:104CA000FFF789FE4FEA00486078FFF784FE48EA84
:104CB0000028A078FFF77FFE48EA0008E07848EA7D
:104CC0000046CA2012491C31086053200860FFF7D3
:104CD000A5FE08B9002713E00E4830400C490839FA
:104CE0000860FFF7C3FE0A48006800F0200030B9F2
:104CF00000F03CF808B9002702E0012700E0012796
:104D0000FF2003491C3108603846BDE8F0810000EF
:104D1000082800407F7F7F001CB500208DF8070029
:104D20001148C0788DF804000F4800798DF805000F
:104D300000208DF8060001A90120FFF785FF002063
:104D40008DF80000084880788DF802000648407809
:104D50008DF80100044800788DF8030069460120B1
:104D6000FFF70EFF1CBD00004C00002008B500221C
:104D7000009200200021CA22134B1A6053221A60AD
:104D8000114A183A126822F0A0020F4B183B1A6021
:104D900000BF0D4A183A126802F02001009A521C16
:104DA0000092009AB2F5003F01D00029F1D0064AE6
:104DB000183A126802F020020AB1012000E0002037
:104DC000FF22014B1A6008BD2428004010B502489C
:104DD000FBF7D2FF10BD0000440D002010B590B0CD
:104DE0000024342103A8FBF718FA00200190029058
:104DF0003322002103A8FDF7BBF89DF80C006149A0
:104E000008709DF80D00604908709DF80E005F491C
:104E100008705C480078FF2802DDFF2059490870BF
:104E200059480078032802DD032057490870574885
:104E30000078032802DD032054490870002411E0A3
:104E400003A9E01C085C5249085503A9E01D085C51
:104E50005049085503A904F10B00085C4E49085558
:104E6000601CC4B2042CEBDB9DF81B004B4908808E
:104E70009DF81C00097800EB0120484908809DF846
:104E800036004749087008460078012801DD0120F6
:104E900008709DF83E00434908700622642101A86D
:104EA000FDF766F89DF805009DF8041000EB012061
:104EB0003D4908809DF807009DF8061000EB012091
:104EC0003A4908809DF809009DF8081000EB012080
:104ED000374908802B480078364948842A480078AA
:104EE00088842A480078C884294840782849097865
:104EF00040EA01202F4908852548C078244989784F
:104F000040EA01202B494885234840782249097806
:104F100040EA0120274988851F48C0781E498978C2
:104F200040EA01202349C8851A4840781949097880
:104F300040EA01201F4908861648C078154989783B
:104F400040EA01201B494886144800888886144896
:104F50000078C8860021184801F0B9FC17490A4AB0
:104F6000127851F8220001F085F80021144801F070
:104F7000AEFC1249054A127851F8220001F026FBD6
:104F800010B010BD260000202700002028000020BF
:104F9000840100208C010020880100209001002065
:104FA00024000020800000209A0000209C000020A7
:104FB00098000020C4030020001001402C000020B5
:104FC0000048004018B504460020009054B1ADF8E8
:104FD0000040064830F81400ADF802006946044865
:104FE000FBF71DFF00200349088018BDC403002003
:104FF000440D0020B400002070B505460C46002684
:1050000017210120FDF764FE052002F07DFD00BFA1
:1050100009E006F160010120FEF722FF022002F004
:1050200073FD701CC6B2681EB042F2DC032C06DAB7
:105030007A212046FEF714FF022002F065FD032CC2
:1050400001D0052C06D17A210420FEF709FF0220A9
:1050500002F05AFD042C01D0062C06D17A2105203D
:10506000FEF7FEFE022002F04FFD012D05DB05F1EB
:105070006F0081B20120FEF7F3FE70BD1CB5012167
:105080002020FFF7E5F94FF40040009000208DF854
:10509000040002208DF8050069460248FCF718FE5E
:1050A0001CBD0000001402401CB501214020FFF788
:1050B000CFF90220009000208DF8040002208DF826
:1050C000050069460148FCF703FE1CBD00180240BC
:1050D0001CB501212020FFF7BBF94FF400600090C0
:1050E00000208DF8040002208DF805006946024872
:1050F000FCF7EEFD1CBD0000001402401CB50121B0
:105100002020FFF7A5F901208DF8040000208DF87C
:10511000060001208DF8070002208DF805008003AD
:10512000009069460148FCF7D3FD1CBD0014024005
:105130001CB501214020FFF78BF901208DF80400F8
:1051400000208DF8060001208DF8070000208DF862
:1051500005000220009069460148FCF7B9FD1CBD1E
:10516000001802401CB501212020FFF771F9012031
:105170008DF8040000208DF8060001208DF807004E
:1051800000208DF805004FF4006000906946024849
:10519000FCF79EFD1CBD00000014024010B5044643
:1051A00000BF02210A4800F01FF90028F9D021466B
:1051B000074800F025F900BF0121054800F014F967
:1051C0000028F9D0024800F018F9C0B210BD000064
:1051D0000038004010B5044600BF02210A4800F024
:1051E00003F90028F9D02146074800F009F900BF6B
:1051F0000121054800F0F8F80028F9D0024800F035
:10520000FCF8C0B210BD00000034014021B102889A
:1052100042F04002028004E002884FF6BF731A4059
:105220000280704700B587B001212020FFF710F9F8
:1052300001210805FFF72CF9052207212E48FCF76C
:105240008FFD052208212C48FCF78AFD0522092143
:105250002948FCF785FD8020009002208DF805008C
:105260008DF8040000208DF806008DF807006946CF
:105270002148FCF72DFD4FF48070009069461E48D0
:10528000FCF726FD4FF40070009069461A48FCF7C1
:105290001FFD4020009001208DF80400694616484B
:1052A000FCF716FD40201449183108800020ADF8A5
:1052B00008004FF48270ADF80A000020ADF80C0031
:1052C0000220ADF80E000120ADF810004002ADF84C
:1052D00012000020ADF81400ADF816000720ADF85C
:1052E000180002A9054800F08DF801210348FFF7D6
:1052F0008DFF07B000BD00000014024000500140C7
:1053000010B504464FF48050194908600AE0184966
:105310000868411E164A116020B9002000F090F87C
:10532000C0B210BD0221134800F05EF80028EED094
:105330002146104800F064F84FF480500C49086092
:105340000AE00B490868411E094A116020B9012092
:1053500000F076F8C0B2E4E70121064800F044F816
:105360000028EED0034800F048F8C0B2D9E70000AA
:10537000580100200050014010B500244020114980
:1053800008800520FFF7BCFF4FF480500E490860ED
:1053900000BFFF20FFF7B4FF04460B490868411E19
:1053A000094A116018B9042000F04AF810BD04F051
:1053B00001000028EDD140200249891E088000BF6D
:1053C000F4E700001A1402405801002010B54020F4
:1053D000044908800620FFF793FF40200149891EF9
:1053E000088010BD1A1402400246002013890B40A9
:1053F0000BB1012000E0002070470146888970470A
:105400008181704710B50022028802F441520B8856
:105410004C8823438C882343CC8823430C89234323
:105420004C8923438C892343CC8923431A4302802C
:10543000838B4FF2FF74234083830B8A038210BD5A
:1054400001460020704770470020202007E0A0F1AF
:105450001801044A515C044A1154411CC8B2462840
:10546000F5DB7047C4020020C2000020CB78137027
:105470004B7853708B7893700378D37043781371A3
:105480007047000010B50120DE49087000F0E8F90F
:10549000FDF778FC322002F037FB17210120FDF7E1
:1054A00017FC322002F030FB0120D7490870602140
:1054B0000020FEF7D5FC052002F026FB702101201C
:1054C000FEF7CEFC1021D148FCF76DFC90B1012015
:1054D000CF49087070210020FEF7C2FC052002F0C1
:1054E00013FB7A210120FEF7BBFC0021C94800F024
:1054F00049FA10BD70210020FEF7B2FC052002F031
:1055000003FB60210120FEF7ABFC052002F0FCFA52
:10551000BF480078012808D10020BD4908707A21D1
:10552000FEF79EFC052002F0EFFA0021B948FBF7D8
:10553000ABFC0220B449087061210020FEF790FC0A
:10554000052002F0E1FA71210120FEF789FCFBF74A
:1055500027FB90B10220AE49087071210020FEF7B0
:105560007FFC052002F0D0FA0121AA4800F00AFAD7
:105570007A210220FEF774FCBBE771210020FEF7C0
:105580006FFC052002F0C0FA61210120FEF768FCE3
:10559000052002F0B9FA9E480078022808D10020C0
:1055A0009B4908707A21FEF75BFC052002F0ACFAFB
:1055B00001219848FBF768FC032093490870622199
:1055C0000020FEF74DFC052002F09EFA722101201A
:1055D000FEF746FCFBF730FB90B103208C490870C6
:1055E00072210020FEF73CFC052002F08DFA02211A
:1055F000884800F0C7F97A210420FEF731FC78E7EB
:1056000072210020FEF72CFC052002F07DFA6221B9
:105610000120FEF725FC052002F076FA7C48007890
:10562000032808D100207A4908707A21FEF718FC77
:10563000052002F069FA02217648FBF725FC0420D8
:105640007149087063210020FEF70AFC052002F072
:105650005BFA73210120FEF703FCFBF73BFB90B1E3
:1056600004206B49087073210020FEF7F9FB052028
:1056700002F04AFA0321674800F084F97A210520F4
:10568000FEF7EEFB35E773210020FEF7E9FB05206E
:1056900002F03AFA63210120FEF7E2FB052002F056
:1056A00033FA5B480078042808D100205849087074
:1056B0007A21FEF7D5FB052002F026FA0321554892
:1056C000FBF7E2FB05205049087064210020FEF73B
:1056D000C7FB052002F018FA74210120FEF7C0FB79
:1056E000FBF7B4F990B105204949087074210020F6
:1056F000FEF7B6FB052002F007FA0421454800F04A
:1057000041F97A210420FEF7ABFBF2E67421002078
:10571000FEF7A6FB052002F0F7F964210120FEF751
:105720009FFB052002F0F0F939480078052808D1E0
:105730000020374908707A21FEF792FB052002F01D
:10574000E3F904213348FBF79FFB06202E4908703C
:1057500065210020FEF784FB052002F0D5F97521B4
:105760000120FEF77DFBFBF7C5F990B10620284923
:10577000087075210020FEF773FB052002F0C4F9C4
:105780000521244800F0FEF87A210520FEF768FB89
:10579000AFE675210020FEF763FB052002F0B4F9A7
:1057A00065210120FEF75CFB052002F0ADF91848E9
:1057B0000078062808D10020154908707A21FEF7E4
:1057C0004FFB052002F0A0F905211248FBF75CFB16
:1057D00000201149A1F8160101201049087000208D
:1057E00008490870084908700D48007820B923213D
:1057F0000F20FDF76DFA03E018210220FDF768FA8B
:1058000000BF76E6210000202300002000100240A7
:1058100022000020DA040020C40300202000002021
:105820002400002038B5044600200090182C00DD2C
:1058300038BD44F47F40ADF800000748007A0649BF
:10584000C97940EA0120ADF8020069460348FBF738
:10585000E6FA00BFECE70000041B0020440D002026
:105860004FF6FF700149A1F816017047C4030020EC
:105870004FF6FF703449A1F81601C820334908805B
:10588000E620334908804FF49670324908804FF47F
:105890008C703149088032203049088046203049D8
:1058A00008804FF496702F4908804FF48C702E4971
:1058B000088032202D4908801E202D490880642050
:1058C0002C49088040F212202B4908804FF4FA70CE
:1058D0002A4908802D202A490870264800881A493C
:1058E000A1F8880122480088A1F88C011F4800888F
:1058F000A1F88E0121480088A1F838021E480088CE
:10590000A1F83A0212480088A1F8A4010F480088C3
:10591000A1F8A60110480088A1F8A0010D48008850
:10592000A1F8A2010E480088A1F8AC010B4800883C
:10593000A1F8AE010C480088A1F8A8010948008828
:10594000A1F8AA0170470000C40300206E000020E7
:105950006C00002072000020700000207600002003
:10596000740000207A000020780000206A000020E7
:105970006800002066000020620000206000002017
:105980007C00002001238B409AB2038813430380DC
:1059900070470000C82032490880E620314908805D
:1059A0004FF49670304908804FF48C702F4908806E
:1059B00032202F49088046202E4908804FF49670E7
:1059C0002D4908804FF48C702C49088032202C49D6
:1059D00008801E202B49088064202B49088040F253
:1059E00012202A4908804FF4FA70294908802D2096
:1059F00028490870244800882749A1F888012148CF
:105A00000088A1F88C011E480088A1F88E0120486A
:105A10000088A1F838021D480088A1F83A02114810
:105A20000088A1F8A4010E480088A1F8A6010F483B
:105A30000088A1F8A0010C480088A1F8A2010D4837
:105A40000088A1F8AC010A480088A1F8AE010B4813
:105A50000088A1F8A80108480088A1F8AA017047A9
:105A60006E0000206C0000207200002070000020FA
:105A700076000020740000207A00002078000020CA
:105A80006A000020680000206600002062000020FC
:105A9000600000207C000020C40300200CB5002022
:105AA000019000904148006840F480303F49086010
:105AB00000BF3E48006800F4003000900198401C90
:105AC0000190009818B90198B0F5A04FF1D137486E
:105AD000006800F4003010B10120009001E00020C7
